{
  "_format": "hh-sol-artifact-1",
  "contractName": "Permit2",
  "sourceName": "contracts/permit/Permit2.sol",
  "abi": [
    {
      "inputs": [
        {
          "internalType": "uint256",
          "name": "deadline",
          "type": "uint256"
        }
      ],
      "name": "AllowanceExpired",
      "type": "error"
    },
    {
      "inputs": [],
      "name": "ExcessiveInvalidation",
      "type": "error"
    },
    {
      "inputs": [
        {
          "internalType": "uint256",
          "name": "amount",
          "type": "uint256"
        }
      ],
      "name": "InsufficientAllowance",
      "type": "error"
    },
    {
      "inputs": [
        {
          "internalType": "uint256",
          "name": "maxAmount",
          "type": "uint256"
        }
      ],
      "name": "InvalidAmount",
      "type": "error"
    },
    {
      "inputs": [],
      "name": "InvalidContractSignature",
      "type": "error"
    },
    {
      "inputs": [],
      "name": "InvalidNonce",
      "type": "error"
    },
    {
      "inputs": [],
      "name": "InvalidSignature",
      "type": "error"
    },
    {
      "inputs": [],
      "name": "InvalidSignatureLength",
      "type": "error"
    },
    {
      "inputs": [],
      "name": "InvalidSigner",
      "type": "error"
    },
    {
      "inputs": [],
      "name": "LengthMismatch",
      "type": "error"
    },
    {
      "inputs": [
        {
          "internalType": "uint256",
          "name": "signatureDeadline",
          "type": "uint256"
        }
      ],
      "name": "SignatureExpired",
      "type": "error"
    },
    {
      "anonymous": false,
      "inputs": [
        {
          "indexed": true,
          "internalType": "address",
          "name": "owner",
          "type": "address"
        },
        {
          "indexed": true,
          "internalType": "address",
          "name": "token",
          "type": "address"
        },
        {
          "indexed": true,
          "internalType": "address",
          "name": "spender",
          "type": "address"
        },
        {
          "indexed": false,
          "internalType": "uint160",
          "name": "amount",
          "type": "uint160"
        },
        {
          "indexed": false,
          "internalType": "uint48",
          "name": "expiration",
          "type": "uint48"
        }
      ],
      "name": "Approval",
      "type": "event"
    },
    {
      "anonymous": false,
      "inputs": [
        {
          "indexed": true,
          "internalType": "address",
          "name": "owner",
          "type": "address"
        },
        {
          "indexed": false,
          "internalType": "address",
          "name": "token",
          "type": "address"
        },
        {
          "indexed": false,
          "internalType": "address",
          "name": "spender",
          "type": "address"
        }
      ],
      "name": "Lockdown",
      "type": "event"
    },
    {
      "anonymous": false,
      "inputs": [
        {
          "indexed": true,
          "internalType": "address",
          "name": "owner",
          "type": "address"
        },
        {
          "indexed": true,
          "internalType": "address",
          "name": "token",
          "type": "address"
        },
        {
          "indexed": true,
          "internalType": "address",
          "name": "spender",
          "type": "address"
        },
        {
          "indexed": false,
          "internalType": "uint48",
          "name": "newNonce",
          "type": "uint48"
        },
        {
          "indexed": false,
          "internalType": "uint48",
          "name": "oldNonce",
          "type": "uint48"
        }
      ],
      "name": "NonceInvalidation",
      "type": "event"
    },
    {
      "anonymous": false,
      "inputs": [
        {
          "indexed": true,
          "internalType": "address",
          "name": "owner",
          "type": "address"
        },
        {
          "indexed": true,
          "internalType": "address",
          "name": "token",
          "type": "address"
        },
        {
          "indexed": true,
          "internalType": "address",
          "name": "spender",
          "type": "address"
        },
        {
          "indexed": false,
          "internalType": "uint160",
          "name": "amount",
          "type": "uint160"
        },
        {
          "indexed": false,
          "internalType": "uint48",
          "name": "expiration",
          "type": "uint48"
        },
        {
          "indexed": false,
          "internalType": "uint48",
          "name": "nonce",
          "type": "uint48"
        }
      ],
      "name": "Permit",
      "type": "event"
    },
    {
      "anonymous": false,
      "inputs": [
        {
          "indexed": true,
          "internalType": "address",
          "name": "owner",
          "type": "address"
        },
        {
          "indexed": false,
          "internalType": "uint256",
          "name": "word",
          "type": "uint256"
        },
        {
          "indexed": false,
          "internalType": "uint256",
          "name": "mask",
          "type": "uint256"
        }
      ],
      "name": "UnorderedNonceInvalidation",
      "type": "event"
    },
    {
      "inputs": [],
      "name": "DOMAIN_SEPARATOR",
      "outputs": [
        {
          "internalType": "bytes32",
          "name": "",
          "type": "bytes32"
        }
      ],
      "stateMutability": "view",
      "type": "function"
    },
    {
      "inputs": [
        {
          "internalType": "address",
          "name": "",
          "type": "address"
        },
        {
          "internalType": "address",
          "name": "",
          "type": "address"
        },
        {
          "internalType": "address",
          "name": "",
          "type": "address"
        }
      ],
      "name": "allowance",
      "outputs": [
        {
          "internalType": "uint160",
          "name": "amount",
          "type": "uint160"
        },
        {
          "internalType": "uint48",
          "name": "expiration",
          "type": "uint48"
        },
        {
          "internalType": "uint48",
          "name": "nonce",
          "type": "uint48"
        }
      ],
      "stateMutability": "view",
      "type": "function"
    },
    {
      "inputs": [
        {
          "internalType": "address",
          "name": "token",
          "type": "address"
        },
        {
          "internalType": "address",
          "name": "spender",
          "type": "address"
        },
        {
          "internalType": "uint160",
          "name": "amount",
          "type": "uint160"
        },
        {
          "internalType": "uint48",
          "name": "expiration",
          "type": "uint48"
        }
      ],
      "name": "approve",
      "outputs": [],
      "stateMutability": "nonpayable",
      "type": "function"
    },
    {
      "inputs": [
        {
          "internalType": "address",
          "name": "token",
          "type": "address"
        },
        {
          "internalType": "address",
          "name": "spender",
          "type": "address"
        },
        {
          "internalType": "uint48",
          "name": "newNonce",
          "type": "uint48"
        }
      ],
      "name": "invalidateNonces",
      "outputs": [],
      "stateMutability": "nonpayable",
      "type": "function"
    },
    {
      "inputs": [
        {
          "internalType": "uint256",
          "name": "wordPos",
          "type": "uint256"
        },
        {
          "internalType": "uint256",
          "name": "mask",
          "type": "uint256"
        }
      ],
      "name": "invalidateUnorderedNonces",
      "outputs": [],
      "stateMutability": "nonpayable",
      "type": "function"
    },
    {
      "inputs": [
        {
          "components": [
            {
              "internalType": "address",
              "name": "token",
              "type": "address"
            },
            {
              "internalType": "address",
              "name": "spender",
              "type": "address"
            }
          ],
          "internalType": "struct IAllowanceTransfer.TokenSpenderPair[]",
          "name": "approvals",
          "type": "tuple[]"
        }
      ],
      "name": "lockdown",
      "outputs": [],
      "stateMutability": "nonpayable",
      "type": "function"
    },
    {
      "inputs": [
        {
          "internalType": "address",
          "name": "",
          "type": "address"
        },
        {
          "internalType": "uint256",
          "name": "",
          "type": "uint256"
        }
      ],
      "name": "nonceBitmap",
      "outputs": [
        {
          "internalType": "uint256",
          "name": "",
          "type": "uint256"
        }
      ],
      "stateMutability": "view",
      "type": "function"
    },
    {
      "inputs": [
        {
          "internalType": "address",
          "name": "owner",
          "type": "address"
        },
        {
          "components": [
            {
              "components": [
                {
                  "internalType": "address",
                  "name": "token",
                  "type": "address"
                },
                {
                  "internalType": "uint160",
                  "name": "amount",
                  "type": "uint160"
                },
                {
                  "internalType": "uint48",
                  "name": "expiration",
                  "type": "uint48"
                },
                {
                  "internalType": "uint48",
                  "name": "nonce",
                  "type": "uint48"
                }
              ],
              "internalType": "struct IAllowanceTransfer.PermitDetails[]",
              "name": "details",
              "type": "tuple[]"
            },
            {
              "internalType": "address",
              "name": "spender",
              "type": "address"
            },
            {
              "internalType": "uint256",
              "name": "sigDeadline",
              "type": "uint256"
            }
          ],
          "internalType": "struct IAllowanceTransfer.PermitBatch",
          "name": "permitBatch",
          "type": "tuple"
        },
        {
          "internalType": "bytes",
          "name": "signature",
          "type": "bytes"
        }
      ],
      "name": "permit",
      "outputs": [],
      "stateMutability": "nonpayable",
      "type": "function"
    },
    {
      "inputs": [
        {
          "internalType": "address",
          "name": "owner",
          "type": "address"
        },
        {
          "components": [
            {
              "components": [
                {
                  "internalType": "address",
                  "name": "token",
                  "type": "address"
                },
                {
                  "internalType": "uint160",
                  "name": "amount",
                  "type": "uint160"
                },
                {
                  "internalType": "uint48",
                  "name": "expiration",
                  "type": "uint48"
                },
                {
                  "internalType": "uint48",
                  "name": "nonce",
                  "type": "uint48"
                }
              ],
              "internalType": "struct IAllowanceTransfer.PermitDetails",
              "name": "details",
              "type": "tuple"
            },
            {
              "internalType": "address",
              "name": "spender",
              "type": "address"
            },
            {
              "internalType": "uint256",
              "name": "sigDeadline",
              "type": "uint256"
            }
          ],
          "internalType": "struct IAllowanceTransfer.PermitSingle",
          "name": "permitSingle",
          "type": "tuple"
        },
        {
          "internalType": "bytes",
          "name": "signature",
          "type": "bytes"
        }
      ],
      "name": "permit",
      "outputs": [],
      "stateMutability": "nonpayable",
      "type": "function"
    },
    {
      "inputs": [
        {
          "components": [
            {
              "components": [
                {
                  "internalType": "address",
                  "name": "token",
                  "type": "address"
                },
                {
                  "internalType": "uint256",
                  "name": "amount",
                  "type": "uint256"
                }
              ],
              "internalType": "struct ISignatureTransfer.TokenPermissions",
              "name": "permitted",
              "type": "tuple"
            },
            {
              "internalType": "uint256",
              "name": "nonce",
              "type": "uint256"
            },
            {
              "internalType": "uint256",
              "name": "deadline",
              "type": "uint256"
            }
          ],
          "internalType": "struct ISignatureTransfer.PermitTransferFrom",
          "name": "permit",
          "type": "tuple"
        },
        {
          "components": [
            {
              "internalType": "address",
              "name": "to",
              "type": "address"
            },
            {
              "internalType": "uint256",
              "name": "requestedAmount",
              "type": "uint256"
            }
          ],
          "internalType": "struct ISignatureTransfer.SignatureTransferDetails",
          "name": "transferDetails",
          "type": "tuple"
        },
        {
          "internalType": "address",
          "name": "owner",
          "type": "address"
        },
        {
          "internalType": "bytes",
          "name": "signature",
          "type": "bytes"
        }
      ],
      "name": "permitTransferFrom",
      "outputs": [],
      "stateMutability": "nonpayable",
      "type": "function"
    },
    {
      "inputs": [
        {
          "components": [
            {
              "components": [
                {
                  "internalType": "address",
                  "name": "token",
                  "type": "address"
                },
                {
                  "internalType": "uint256",
                  "name": "amount",
                  "type": "uint256"
                }
              ],
              "internalType": "struct ISignatureTransfer.TokenPermissions[]",
              "name": "permitted",
              "type": "tuple[]"
            },
            {
              "internalType": "uint256",
              "name": "nonce",
              "type": "uint256"
            },
            {
              "internalType": "uint256",
              "name": "deadline",
              "type": "uint256"
            }
          ],
          "internalType": "struct ISignatureTransfer.PermitBatchTransferFrom",
          "name": "permit",
          "type": "tuple"
        },
        {
          "components": [
            {
              "internalType": "address",
              "name": "to",
              "type": "address"
            },
            {
              "internalType": "uint256",
              "name": "requestedAmount",
              "type": "uint256"
            }
          ],
          "internalType": "struct ISignatureTransfer.SignatureTransferDetails[]",
          "name": "transferDetails",
          "type": "tuple[]"
        },
        {
          "internalType": "address",
          "name": "owner",
          "type": "address"
        },
        {
          "internalType": "bytes",
          "name": "signature",
          "type": "bytes"
        }
      ],
      "name": "permitTransferFrom",
      "outputs": [],
      "stateMutability": "nonpayable",
      "type": "function"
    },
    {
      "inputs": [
        {
          "components": [
            {
              "components": [
                {
                  "internalType": "address",
                  "name": "token",
                  "type": "address"
                },
                {
                  "internalType": "uint256",
                  "name": "amount",
                  "type": "uint256"
                }
              ],
              "internalType": "struct ISignatureTransfer.TokenPermissions",
              "name": "permitted",
              "type": "tuple"
            },
            {
              "internalType": "uint256",
              "name": "nonce",
              "type": "uint256"
            },
            {
              "internalType": "uint256",
              "name": "deadline",
              "type": "uint256"
            }
          ],
          "internalType": "struct ISignatureTransfer.PermitTransferFrom",
          "name": "permit",
          "type": "tuple"
        },
        {
          "components": [
            {
              "internalType": "address",
              "name": "to",
              "type": "address"
            },
            {
              "internalType": "uint256",
              "name": "requestedAmount",
              "type": "uint256"
            }
          ],
          "internalType": "struct ISignatureTransfer.SignatureTransferDetails",
          "name": "transferDetails",
          "type": "tuple"
        },
        {
          "internalType": "address",
          "name": "owner",
          "type": "address"
        },
        {
          "internalType": "bytes32",
          "name": "witness",
          "type": "bytes32"
        },
        {
          "internalType": "string",
          "name": "witnessTypeString",
          "type": "string"
        },
        {
          "internalType": "bytes",
          "name": "signature",
          "type": "bytes"
        }
      ],
      "name": "permitWitnessTransferFrom",
      "outputs": [],
      "stateMutability": "nonpayable",
      "type": "function"
    },
    {
      "inputs": [
        {
          "components": [
            {
              "components": [
                {
                  "internalType": "address",
                  "name": "token",
                  "type": "address"
                },
                {
                  "internalType": "uint256",
                  "name": "amount",
                  "type": "uint256"
                }
              ],
              "internalType": "struct ISignatureTransfer.TokenPermissions[]",
              "name": "permitted",
              "type": "tuple[]"
            },
            {
              "internalType": "uint256",
              "name": "nonce",
              "type": "uint256"
            },
            {
              "internalType": "uint256",
              "name": "deadline",
              "type": "uint256"
            }
          ],
          "internalType": "struct ISignatureTransfer.PermitBatchTransferFrom",
          "name": "permit",
          "type": "tuple"
        },
        {
          "components": [
            {
              "internalType": "address",
              "name": "to",
              "type": "address"
            },
            {
              "internalType": "uint256",
              "name": "requestedAmount",
              "type": "uint256"
            }
          ],
          "internalType": "struct ISignatureTransfer.SignatureTransferDetails[]",
          "name": "transferDetails",
          "type": "tuple[]"
        },
        {
          "internalType": "address",
          "name": "owner",
          "type": "address"
        },
        {
          "internalType": "bytes32",
          "name": "witness",
          "type": "bytes32"
        },
        {
          "internalType": "string",
          "name": "witnessTypeString",
          "type": "string"
        },
        {
          "internalType": "bytes",
          "name": "signature",
          "type": "bytes"
        }
      ],
      "name": "permitWitnessTransferFrom",
      "outputs": [],
      "stateMutability": "nonpayable",
      "type": "function"
    },
    {
      "inputs": [
        {
          "components": [
            {
              "internalType": "address",
              "name": "from",
              "type": "address"
            },
            {
              "internalType": "address",
              "name": "to",
              "type": "address"
            },
            {
              "internalType": "uint160",
              "name": "amount",
              "type": "uint160"
            },
            {
              "internalType": "address",
              "name": "token",
              "type": "address"
            }
          ],
          "internalType": "struct IAllowanceTransfer.AllowanceTransferDetails[]",
          "name": "transferDetails",
          "type": "tuple[]"
        }
      ],
      "name": "transferFrom",
      "outputs": [],
      "stateMutability": "nonpayable",
      "type": "function"
    },
    {
      "inputs": [
        {
          "internalType": "address",
          "name": "from",
          "type": "address"
        },
        {
          "internalType": "address",
          "name": "to",
          "type": "address"
        },
        {
          "internalType": "uint160",
          "name": "amount",
          "type": "uint160"
        },
        {
          "internalType": "address",
          "name": "token",
          "type": "address"
        }
      ],
      "name": "transferFrom",
      "outputs": [],
      "stateMutability": "nonpayable",
      "type": "function"
    }
  ],
  "bytecode": "0x60c0346100bb574660a052602081017f8cad95687ba82c2ce50e74f7b754645e5117c3a5bec8151c0726d5857980a86681527f9ac997416e8ff9d2ff6bebeb7149f65cdae5e32e2b90440b566bb3044041d36a60408301524660608301523060808301526080825260a082019180831060018060401b038411176100a55782604052519020608052611be490816100c18239608051816114ad015260a051816114870152f35b634e487b7160e01b600052604160045260246000fd5b600080fdfe6040608081526004908136101561001557600080fd5b600090813560e01c80630d58b1db14610e88578063137c29fe14610d055780632a2d80d114610abd5780632b67b5701461094757806330f28b7a146108845780633644e5151461086157806336c78516146108175780633ff9dcb1146107b55780634fe02b441461077657806365d9723c1461066657806387517c4514610584578063927da105146104f8578063cc53287f14610417578063edd9444b146102eb5763fe8ec1a7146100c657600080fd5b346102e75760c03660031901126102e7576001600160401b0383358181116102e3576100f5903690860161116e565b6024358281116102df5761010c903690870161113e565b610114611052565b916084358581116102db5761012c9036908a016110e7565b98909560a4359081116102d757610145913691016110e7565b96909581519061015482610fb4565b606b82527f5065726d697442617463685769746e6573735472616e7366657246726f6d285460208301527f6f6b656e5065726d697373696f6e735b5d207065726d69747465642c61646472838301527f657373207370656e6465722c75696e74323536206e6f6e63652c75696e74323560608301526a0d88191958591b1a5b994b60aa1b608083015282519a8b91816101f160208501809661183e565b918237018a8152039961020c601f199b8c8101835282610fea565b5190209085515161021c816117ba565b908a5b8181106102aa5750506102a7999a61029e91835161025181610245602082018095611811565b03848101835282610fea565b519020602089810151858b015195519182019687526040820192909252336060820152608081019190915260a081019390935260643560c08401528260e081015b03908101835282610fea565b51902093611671565b80f35b806102c26102bc6102d2938c51611267565b516118f0565b6102cc8286611267565b526117ec565b61021f565b8880fd5b8780fd5b8480fd5b8380fd5b5080fd5b5091346102e75760803660031901126102e7576001600160401b039080358281116102e35761031d903690830161116e565b6024358381116102df57610334903690840161113e565b93909261033f611052565b9160643590811161041357610356913691016110e7565b94909383515197610366896117ba565b98885b8181106103f15750506102a7979881516103998161038b602082018095611811565b03601f198101835282610fea565b5190206020860151828701519083519260208401947ffcf35f5ac6a2c28868dc44c302166470266239195f02b0ee408334829333b7668652840152336060840152608083015260a082015260a0815261029e81610fcf565b808b6102cc826104086102bc61040e968d51611267565b92611267565b610369565b8680fd5b5082346104f457602090816003193601126102e3578035906001600160401b0382116102df576104499136910161113e565b929091845b848110610459578580f35b8061046f61046a6001938888611355565b611365565b6104848461047e848a8a611355565b01611365565b33895283855285892091848060a01b0380911692838b528652868a20911690818a5285528589206bffffffffffffffffffffffff60a01b81541690558551918252848201527f89b1add15eff56b3dfe299ad94e01f2b52fbcb80ae1a3baea6ae8c04cb2b98a4853392a20161044e565b8280fd5b50346102e75760603660031901126102e75761058081610516611026565b9361051f61103c565b610527611052565b6001600160a01b03968716835260016020908152848420928816845291825283832090871683528152919020549251938316845260a083901c65ffffffffffff169084015260d09190911c604083015281906060820190565b0390f35b50346102e75760803660031901126102e75761059e611026565b906105a761103c565b916105b0611052565b906064359265ffffffffffff93848116908181036102db577fda9fa7c1b00402c17d0161b249b1ab8bbec047c5a52207b9c112deffd817036b9333895260016020528389209660018060a01b0380921697888b5260205281858b20991698898b52602052848a2092841560001461065e57504216905b82546001600160d01b03191660a09290921b65ffffffffffff60a01b169190911795169485179055815193845260208401523392a480f35b905090610626565b5082346104f45760603660031901126104f457610681611026565b9061068a61103c565b9265ffffffffffff60443581811693908481036102db57338852602091600183528489209660018060a01b0380911697888b528452858a20981697888a5283528489205460d01c93848711156107675761ffff90858403161161075957503380895260018352848920878a528352848920888a52835284892080546001600160d01b031660d09390931b6001600160d01b03191692909217909155835194855290840191909152917f55eb90d810e1700b35a8e7e25395ff7f2b2259abd7415ca2284dfb1c246418f39190a480f35b8451631269ad1360e11b8152fd5b508451633ab3447f60e11b8152fd5b50346102e757806003193601126102e75760209181906001600160a01b0361079c611026565b1681528084528181206024358252845220549051908152f35b5082346104f457816003193601126104f4577f3704902f963766a4e561bbaab6e6cdc1b1dd12f6e9e99648da8843b3f46b918d90359160243533855284602052818520848652602052818520818154179055815193845260208401523392a280f35b823461085e57608036600319011261085e57610831611026565b61083961103c565b610841611052565b606435916001600160a01b03831683036102df576102a793611291565b80fd5b50346102e757816003193601126102e75760209061087d611484565b9051908152f35b508290346104f4576101003660031901126104f4576108a23661107c565b90806083193601126102e3576108b661100b565b9160e4356001600160401b038111610943576102a7946108d8913691016110e7565b9390926108e583516118f0565b6020840151828501519083519260208401947f939c21a48a8dbe3a9a2404a1d46691e4d39f6583d6ec6b35714604c986d801068652840152336060840152608083015260a082015260a0815261093a81610fcf565b51902091611570565b8580fd5b5091346102e7576101003660031901126102e757610963611026565b366023190160c081126102e357608085519161097e83610f99565b126102e35784519061098f82610f68565b6001600160a01b03916024358381168103610413578152604435838116810361041357602082015265ffffffffffff60643581811681036102db57888301526084359081168103610413576060820152815260a435938285168503610943576020820194855260c4359087830182815260e4356001600160401b0381116102d757610a1d90369084016110e7565b929093804211610aa7575050918591610a976102a7999a610a9d95610a428851611869565b90898c511690519083519260208401947ff3841cd1ff0085026a6327b620b67997ce40f282c88a8e905a7a5626e310f3d086528401526060830152608082015260808152610a8f81610fb4565b51902061153f565b91611955565b5192511691611379565b8a5163cd21db4f60e01b81529182015260249150fd5b5091346102e75760606003199181833601126102e357610adb611026565b92602435916001600160401b0391828411610413578490843603011261094357865196610b0788610f99565b838201358381116102db578401366023820112156102db578281013590610b2d82611114565b90610b3a84519283610fea565b82825260209260248484019160071b83010191368311610d0157602401905b828210610ca55750505089526044610b7360248701611068565b95828b01968752013593828a0190858252604435908111610ca157610b9b90369086016110e7565b949095804211610c8b5750508998995151610bb5816117ba565b908b5b818110610c6857505092889492610a9792610c3597958351610be18161038b8682018095611811565b5190209060018060a01b039a8b8b51169151928551948501957faf1b0d30d2cab0380e68f0689007e3254993c596f2fdd0aaa7f4d04f794408638752850152830152608082015260808152610a8f81610fb4565b51169082515192845b848110610c49578580f35b80610c628585610c5c6001958751611267565b51611379565b01610c3e565b806102c2610c7d8e9f9e93610c839451611267565b51611869565b9b9a9b610bb8565b845163cd21db4f60e01b81529182015260249150fd5b8980fd5b608082360312610d0157846080918751610cbe81610f68565b610cc785611068565b8152610cd4838601611068565b83820152610ce389860161112b565b89820152610cf28d860161112b565b8d820152815201910190610b59565b8b80fd5b5082346104f4576101403660031901126104f457610d223661107c565b91806083193601126102e357610d3661100b565b6001600160401b0393906101043585811161041357610d5890369086016110e7565b9093610124359687116102db57610d7861093a966102a7983691016110e7565b969095825190610d8782610fb4565b606482527f5065726d69745769746e6573735472616e7366657246726f6d28546f6b656e5060208301527f65726d697373696f6e73207065726d69747465642c6164647265737320737065848301527f6e6465722c75696e74323536206e6f6e63652c75696e7432353620646561646c6060830152631a5b994b60e21b6080830152835194859181610e1d60208501809661183e565b918237018b81520393610e38601f1995868101835282610fea565b51902092610e4686516118f0565b6020878101518589015195519182019687526040820192909252336060820152608081019190915260a081019390935260e43560c08401528260e08101610292565b5082346104f4576020806003193601126102e35781356001600160401b03928382116109435736602383011215610943578101359283116102df576024906007368386831b8401011161041357865b858110610ee2578780f35b80821b830190608060231983360301126102d757610f62888760019460608351610f0b81610f68565b610f476084610f1b8d8601611068565b94858452610f2b60448201611068565b8097850152610f3c60648201611068565b809885015201611068565b9182910152868060a01b038080809316951693169116611291565b01610ed7565b608081019081106001600160401b03821117610f8357604052565b634e487b7160e01b600052604160045260246000fd5b606081019081106001600160401b03821117610f8357604052565b60a081019081106001600160401b03821117610f8357604052565b60c081019081106001600160401b03821117610f8357604052565b90601f801991011681019081106001600160401b03821117610f8357604052565b60c435906001600160a01b038216820361102157565b600080fd5b600435906001600160a01b038216820361102157565b602435906001600160a01b038216820361102157565b604435906001600160a01b038216820361102157565b35906001600160a01b038216820361102157565b60031901906080821261102157604080519061109782610f99565b808294126110215780518181018181106001600160401b03821117610f835782526004356001600160a01b0381168103611021578152602435602082015282526044356020830152606435910152565b9181601f84011215611021578235916001600160401b038311611021576020838186019501011161102157565b6001600160401b038111610f835760051b60200190565b359065ffffffffffff8216820361102157565b9181601f84011215611021578235916001600160401b038311611021576020808501948460061b01011161102157565b91909160608184031261102157604080519161118983610f99565b829481356001600160401b039081811161102157830182601f820112156110215780356111b581611114565b926111c287519485610fea565b818452602094858086019360061b85010193818511611021579086899897969594939201925b848410611205575050505050855280820135908501520135910152565b909192939495969784830312611021578851908982019082821085831117611252578a928992845261123687611068565b81528287013583820152815201930191908897969594936111e8565b60246000634e487b7160e01b81526041600452fd5b805182101561127b5760209160051b010190565b634e487b7160e01b600052603260045260246000fd5b92919260018060a01b03604060008284168152600160205282828220961695868252602052818120338252602052209485549565ffffffffffff8760a01c1680421161133d5750828716968388036112f4575b50506112f295501692611b27565b565b87848416116000146113195760405163f96fb07160e01b815260048101899052602490fd5b83836112f2990316906bffffffffffffffffffffffff60a01b1617905538806112e4565b60249060405190636c0d979760e11b82526004820152fd5b919081101561127b5760061b0190565b356001600160a01b03811681036110215790565b9065ffffffffffff908160608401511660018060a01b03908185511694826020820151169280866040809401511695169560009187835260016020528383208984526020528383209916988983526020528282209184835460d01c0361147357918561146794927fc6a377bfc4eb120024a8ac08eef205be16b817020812c73223e81d1bdb9708ec9897969450871560001461146c5742165b6001850160d01b6001600160d01b03191660a09190911b65ffffffffffff60a01b1617179055516001600160a01b03909316835265ffffffffffff938416602084015290921660408201529081906060820190565b0390a4565b5086611412565b8351633ab3447f60e11b8152600490fd5b467f0000000000000000000000000000000000000000000000000000000000000000036114cf577f000000000000000000000000000000000000000000000000000000000000000090565b60405160208101907f8cad95687ba82c2ce50e74f7b754645e5117c3a5bec8151c0726d5857980a86682527f9ac997416e8ff9d2ff6bebeb7149f65cdae5e32e2b90440b566bb3044041d36a60408201524660608201523060808201526080815261153981610fb4565b51902090565b611547611484565b9060405190602082019261190160f01b8452602283015260428201526042815261153981610f68565b93909260a435916040860151804211611659575060209384875101518085116116415750918591610a976115b0946115ab888b01518661176c565b61153f565b9251516001600160a01b039081169390608435808216919082900361102157604051946323b872dd60e01b8652166004850152602484015260448301528082606481600080975af180156116365761160757505050565b81813d831161162f575b61161b8183610fea565b810103126102e757518015150361085e5750565b503d611611565b6040513d85823e3d90fd5b60249060405190633728b83d60e01b82526004820152fd5b6024906040519063cd21db4f60e01b82526004820152fd5b9590939580515195604092838301518042116117555750848803611741576116a8918691610a9760209b6115ab8d8801518661176c565b60005b8681106116bc575050505050505050565b6116c7818351611267565b51886116d483878a611355565b0135908981015180831161172a5750918188888860019685966116fe575b505050505050016116ab565b61171f956117199261046a928a8060a01b0390511695611355565b91611b27565b8038888888836116f2565b602490865190633728b83d60e01b82526004820152fd5b83516001621398b960e31b03198152600490fd5b60249085519063cd21db4f60e01b82526004820152fd5b90600160ff82161b9160018060a01b0316600052600060205260406000209060081c60005260205260406000208181541880915516156117a857565b604051633ab3447f60e11b8152600490fd5b906117c482611114565b6117d16040519182610fea565b82815280926117e2601f1991611114565b0190602036910137565b60001981146117fb5760010190565b634e487b7160e01b600052601160045260246000fd5b805160208092019160005b82811061182a575050505090565b83518552938101939281019260010161181c565b9081519160005b838110611856575050016000815290565b8060208092840101518185015201611845565b60405160208101917f65626cad6cb96493bf6f5ebea28756c966f023ab9e8a83a7101849d5573b3678835260018060a01b038082511660408401526020820151166060830152606065ffffffffffff9182604082015116608085015201511660a082015260a0815260c081018181106001600160401b03821117610f835760405251902090565b6040516020808201927f618358ac3db8dc274f0cd8829da7e234bd48cd73c4a740aede1adec9846d06a1845260018060a01b038151166040840152015160608201526060815261153981610f68565b9190826040910312611021576020823592013590565b6000843b611a4e5750604182036119fe576119728282018261193f565b9390926040101561127b5760209360009360ff6040608095013560f81c5b60405194855216868401526040830152606082015282805260015afa156119f2576000516001600160a01b039081169182156119e05716036119ce57565b604051632057875960e21b8152600490fd5b604051638baa579f60e01b8152600490fd5b6040513d6000823e3d90fd5b60408203611a3c57611a129181019061193f565b6001600160ff1b0381169260ff91821c601b019182116117fb5760209360009360ff608094611990565b604051634be6321b60e01b8152600490fd5b918093946020926064604051809781958294630b135d3f60e11b9b8c8552600485015260406024850152816044850152848401378181018301889052601f01601f191681010301916001600160a01b03165afa918215611b1a578192611ad4575b50506001600160e01b03191603611ac257565b604051632c19a72f60e21b8152600490fd5b9091506020813d8211611b12575b81611aef60209383610fea565b810103126102e75751906001600160e01b03198216820361085e57503880611aaf565b3d9150611ae2565b50604051903d90823e3d90fd5b9160008093602095606494604051946323b872dd60e01b865260018060a01b03809216600487015216602485015260448401525af13d15601f3d1160016000511416171615611b7257565b60405162461bcd60e51b81526020600482015260146024820152731514905394d1915497d19493d357d1905253115160621b6044820152606490fdfea2646970667358221220758582487cb777dcd1a12b0126fc0807a12d21ea24e857f2f7b77694bb1f67c864736f6c63430008140033",
  "linkReferences": {},
  "deployedLinkReferences": {}
}