{"contracts/Intents.sol":{"Intents":{"abi":[{"inputs":[{"internalType":"address","name":"_treasury","type":"address"},{"internalType":"address","name":"_permit2","type":"address"},{"internalType":"address[]","name":"_owners","type":"address[]"},{"internalType":"uint256","name":"_requiredSignatures","type":"uint256"},{"internalType":"uint256","name":"_threshold","type":"uint256"}],"stateMutability":"nonpayable","type":"constructor"},{"inputs":[],"name":"AlreadyAnOwner","type":"error"},{"inputs":[],"name":"AmountMustBeGreaterThanZero","type":"error"},{"inputs":[],"name":"ECDSAInvalidSignature","type":"error"},{"inputs":[{"internalType":"uint256","name":"length","type":"uint256"}],"name":"ECDSAInvalidSignatureLength","type":"error"},{"inputs":[{"internalType":"bytes32","name":"s","type":"bytes32"}],"name":"ECDSAInvalidSignatureS","type":"error"},{"inputs":[],"name":"ExecutionTimeInvalid","type":"error"},{"inputs":[],"name":"ExecutionTimeNotReached","type":"error"},{"inputs":[{"internalType":"uint256","name":"required","type":"uint256"}],"name":"InsufficientOwners","type":"error"},{"inputs":[],"name":"IntentNotFound","type":"error"},{"inputs":[],"name":"NotAnOwner","type":"error"},{"inputs":[],"name":"NotCustodian","type":"error"},{"inputs":[],"name":"NotEnoughSignatures","type":"error"},{"inputs":[],"name":"NotOwner","type":"error"},{"anonymous":false,"inputs":[{"indexed":true,"internalType":"uint256","name":"intentId","type":"uint256"}],"name":"IntentCancelled","type":"event"},{"anonymous":false,"inputs":[{"indexed":true,"internalType":"uint256","name":"intentId","type":"uint256"},{"indexed":true,"internalType":"address","name":"user","type":"address"},{"indexed":true,"internalType":"address","name":"to","type":"address"},{"indexed":false,"internalType":"uint128","name":"amount","type":"uint128"},{"indexed":false,"internalType":"uint32","name":"nextExecutionTime","type":"uint32"},{"indexed":false,"internalType":"uint32","name":"recurringInterval","type":"uint32"}],"name":"IntentCreated","type":"event"},{"anonymous":false,"inputs":[{"indexed":true,"internalType":"uint256","name":"intentId","type":"uint256"},{"indexed":true,"internalType":"address","name":"to","type":"address"},{"indexed":false,"internalType":"uint128","name":"amount","type":"uint128"},{"indexed":false,"internalType":"uint256","name":"executionCount","type":"uint256"}],"name":"IntentExecuted","type":"event"},{"anonymous":false,"inputs":[{"indexed":true,"internalType":"address","name":"newOwner","type":"address"}],"name":"OwnerAdded","type":"event"},{"anonymous":false,"inputs":[{"indexed":true,"internalType":"address","name":"removedOwner","type":"address"}],"name":"OwnerRemoved","type":"event"},{"anonymous":false,"inputs":[{"indexed":false,"internalType":"uint256","name":"newRequiredSignatures","type":"uint256"}],"name":"RequiredSignaturesChanged","type":"event"},{"inputs":[{"internalType":"address","name":"_owner","type":"address"}],"name":"addOwner","outputs":[],"stateMutability":"nonpayable","type":"function"},{"inputs":[{"internalType":"uint256","name":"_intentId","type":"uint256"}],"name":"cancelIntent","outputs":[],"stateMutability":"nonpayable","type":"function"},{"inputs":[{"internalType":"uint256","name":"_newRequiredSignatures","type":"uint256"}],"name":"changeRequiredSignatures","outputs":[],"stateMutability":"nonpayable","type":"function"},{"inputs":[{"internalType":"address","name":"_to","type":"address"},{"internalType":"uint128","name":"_amount","type":"uint128"},{"internalType":"uint32","name":"_recurringInterval","type":"uint32"}],"name":"createIntent","outputs":[],"stateMutability":"nonpayable","type":"function"},{"inputs":[],"name":"custodian","outputs":[{"internalType":"address","name":"","type":"address"}],"stateMutability":"view","type":"function"},{"inputs":[{"internalType":"uint256","name":"_intentId","type":"uint256"},{"components":[{"components":[{"internalType":"address","name":"token","type":"address"},{"internalType":"uint256","name":"amount","type":"uint256"}],"internalType":"struct ISignatureTransfer.TokenPermissions","name":"permitted","type":"tuple"},{"internalType":"uint256","name":"nonce","type":"uint256"},{"internalType":"uint256","name":"deadline","type":"uint256"}],"internalType":"struct ISignatureTransfer.PermitTransferFrom","name":"permit","type":"tuple"},{"components":[{"internalType":"address","name":"to","type":"address"},{"internalType":"uint256","name":"requestedAmount","type":"uint256"}],"internalType":"struct ISignatureTransfer.SignatureTransferDetails","name":"transferDetails","type":"tuple"},{"internalType":"bytes[]","name":"_signatures","type":"bytes[]"}],"name":"executeApprovedIntent","outputs":[],"stateMutability":"nonpayable","type":"function"},{"inputs":[{"internalType":"uint256","name":"","type":"uint256"}],"name":"intents","outputs":[{"internalType":"address","name":"user","type":"address"},{"internalType":"address","name":"to","type":"address"},{"internalType":"uint128","name":"amount","type":"uint128"},{"internalType":"uint32","name":"nextExecutionTime","type":"uint32"},{"internalType":"uint32","name":"recurringInterval","type":"uint32"},{"internalType":"uint256","name":"executionCount","type":"uint256"}],"stateMutability":"view","type":"function"},{"inputs":[{"internalType":"address","name":"","type":"address"}],"name":"isOwnerMapping","outputs":[{"internalType":"bool","name":"","type":"bool"}],"stateMutability":"view","type":"function"},{"inputs":[],"name":"nextIntentId","outputs":[{"internalType":"uint256","name":"","type":"uint256"}],"stateMutability":"view","type":"function"},{"inputs":[{"internalType":"address","name":"","type":"address"}],"name":"ownerIndex","outputs":[{"internalType":"uint256","name":"","type":"uint256"}],"stateMutability":"view","type":"function"},{"inputs":[{"internalType":"uint256","name":"","type":"uint256"}],"name":"owners","outputs":[{"internalType":"address","name":"","type":"address"}],"stateMutability":"view","type":"function"},{"inputs":[],"name":"permit2","outputs":[{"internalType":"contract IPermit2","name":"","type":"address"}],"stateMutability":"view","type":"function"},{"inputs":[{"internalType":"address","name":"_owner","type":"address"}],"name":"removeOwner","outputs":[],"stateMutability":"nonpayable","type":"function"},{"inputs":[],"name":"renounceCustodian","outputs":[],"stateMutability":"nonpayable","type":"function"},{"inputs":[{"internalType":"address","name":"_newCustodian","type":"address"}],"name":"replaceCustodian","outputs":[],"stateMutability":"nonpayable","type":"function"},{"inputs":[],"name":"requiredSignatures","outputs":[{"internalType":"uint256","name":"","type":"uint256"}],"stateMutability":"view","type":"function"},{"inputs":[],"name":"threshold","outputs":[{"internalType":"uint256","name":"","type":"uint256"}],"stateMutability":"view","type":"function"},{"inputs":[],"name":"treasury","outputs":[{"internalType":"contract ITreasury","name":"","type":"address"}],"stateMutability":"view","type":"function"}],"evm":{"bytecode":{"linkReferences":{},"object":"604060a0815234620002485762001325803803806200001e816200024d565b92833981019060a08183031262000248576200003a8162000273565b6020906200004a82840162000273565b838601516001600160401b0395908681116200024857850181601f820112156200024857805190878211620002005760059282841b91876200008e8185016200024d565b809581520190888294820101928311620002485788809101915b8383106200022d5750505050608060608801519701519680835110620002165782519889116200020057680100000000000000008911620002005760019182548a8455808b10620001d3575b5098600099838b52888b20848c5b848110620001b757505050600492909255505087546001600160a01b031990811633178955958890825b6200016e575b5050505060018060a01b0380931684825416179055169060065416176006556080526007555161109c90816200028982396080518161061a0152f35b8351821015620001b15781851b84018101516001600160a01b03168a52600281528a8a20805460ff191684179055600381528a8a2082905590820190826200012c565b62000132565b83516001600160a01b031683820155928b019286910162000102565b6000848152848c8b832093840193015b838110620001f457505050620000f4565b828155018590620001e3565b634e487b7160e01b600052604160045260246000fd5b6024908a5190630362bf2d60e51b82526004820152fd5b81906200023a8462000273565b8152019101908890620000a8565b600080fd5b6040519190601f01601f191682016001600160401b038111838210176200020057604052565b51906001600160a01b0382168203620002485756fe6080604052600436101561001257600080fd5b6000803560e01c80630251d17c146108d3578063025e7c271461088f578063086bb2591461085057806312261ee714610827578063173825d9146106de578063375b74c3146106b757806339f636ab1461063d57806342cde4e81461060257806346a1a095146105865780635d4bc6381461055457806361d027b31461052b5780637065cb481461040c5780638d068043146103ee5780639b7b7b1e146103d05780639f8a64e214610397578063a0a31aac14610314578063cfac4b311461013c5763f2f4655e146100e357600080fd5b34610139576020366003190112610139576100fc610e70565b81546001600160a01b0391908216330361012757166001600160601b0360a01b600054161760005580f35b60405163918cb1dd60e01b8152600490fd5b80fd5b503461013957606036600319011261013957610156610e70565b6024356001600160801b03808216809203610310576044359063ffffffff8083169182840361030c5784156102fa5782156102e8576101a66007549461019b86610ed8565b600755834216610efd565b956040519160c083019183831067ffffffffffffffff8411176102d25789926040523384526020840194600160a01b60019003809216998a875260408601938a8552826060880192169788835260808801948a86528060a08a0198808a528d8152600860205260409020995116906001600160601b0360a01b91828b5416178a5560018a0192511690825416179055600287019451166001600160801b0319855416178455511661027390839081549063ffffffff60801b9060801b169063ffffffff60801b1916179055565b5181549063ffffffff60a01b9060a01b169063ffffffff60a01b191617905551906003015560405193845260208401526040830152339160607fb48492f1f7a38c6b22feaef296c0c4861f3952771682cd990c9374874a28773d91a480f35b634e487b7160e01b600052604160045260246000fd5b604051632971b93760e01b8152600490fd5b604051635e85ae7360e01b8152600490fd5b8680fd5b8380fd5b503461013957602036600319011261013957600435338252600260205260ff604083205416156103855780825260086020528160036040822082815582600182015582600282015501557f2d8c53f76eb0afab114916b6c3aa17406ad39c7e874c92b099f79ab89c2e2a548280a280f35b6040516330cd747160e01b8152600490fd5b5034610139576020366003190112610139576020906040906001600160a01b036103bf610e70565b168152600383522054604051908152f35b50346101395780600319360112610139576020600754604051908152f35b50346101395780600319360112610139576020600454604051908152f35b503461013957602036600319011261013957610426610e70565b81546001600160a01b03908116330361012757811690818352600260205260ff604084205416610519576001546801000000000000000081101561050557906104788260016104979401600155610e8b565b90919082549060031b9160018060a01b03809116831b921b1916179055565b808252600260205260408220600160ff1982541617905560015460001981019081116104f157818352600360205260408320557f994a936646fe87ffe4f1e469d3d6aa417d6b855598397f323de5b449f765f0c38280a280f35b634e487b7160e01b83526011600452602483fd5b634e487b7160e01b84526041600452602484fd5b6040516325cfe06f60e11b8152600490fd5b50346101395780600319360112610139576005546040516001600160a01b039091168152602090f35b503461013957806003193601126101395780546001600160a01b0381163303610127576001600160a01b031916815580f35b503461013957602036600319011261013957604060c091600435815260086020522060018060a01b0390818154169160018201541690600360028201549101549160405193845260208401526001600160801b038116604084015263ffffffff90818160801c16606085015260a01c16608083015260a0820152f35b503461013957806003193601126101395760206040517f00000000000000000000000000000000000000000000000000000000000000008152f35b5034610139576020366003190112610139578054600435906001600160a01b0316330361012757600154811161069f576020817f10dbc913050d3180c3b99f7da91fd514af7cbc9c1bb59a0da5d2bc38f0cf395a92600455604051908152a180f35b60249060405190630362bf2d60e51b82526004820152fd5b5034610139578060031936011261013957546040516001600160a01b039091168152602090f35b50346101395760209081600319360112610139576106fa610e70565b81546001600160a01b0393919084163303610127578316908183526002815260ff60408420541615610815578183526003815260408320546001546000199591908681019081116108015780839183036107d0575b5050506001549485156107bc576003939495019061076c82610e8b565b9091825491861b1b19169055600155828452600281526040842060ff198154169055528160408120557f58619076adf5bb0943d100ef88d52d7c3fd691b19d3a9071b555b651fbf418da8280a280f35b634e487b7160e01b85526031600452602485fd5b6107d990610e8b565b90549060031b1c166107ee8161047884610e8b565b855260038352604085205538818161074f565b634e487b7160e01b86526011600452602486fd5b604051631dd523ff60e31b8152600490fd5b50346101395780600319360112610139576006546040516001600160a01b039091168152602090f35b50346101395760203660031901126101395760209060ff906040906001600160a01b0361087b610e70565b168152600284522054166040519015158152f35b503461013957602036600319011261013957600435906001548210156101395760206108ba83610e8b565b905460405160039290921b1c6001600160a01b03168152f35b50346101395761010036600319011261013957366023190160808112610c1c5760e090604013610c1c57610120818110610e48576040526024356001600160a01b0381168103610c185781526044356101005260805260643560a05260843560c05260403660a31901126101395767ffffffffffffffff60e435116101395736602360e4350112156101395767ffffffffffffffff60e43560040135116101395736602460e4356004013560051b60e43501011161013957600435815260086020526040812060028101805463ffffffff421663ffffffff8260801c1611610e3657838460018501926001600160601b0319845460601b16915b60e435600401358110610c465750505060045411610c34576006546001600160a01b0316600460e435013515610c20578460e435602481013590360360421901811215610c1c5760e435019160248301359267ffffffffffffffff8411610c1857604401908336038213610c1857803b15610c185760405163187945bd60e11b815260805180516001600160a01b039081166004840152602090910151602483015260a051604483015260c0516064830152909460a43591821691829003610beb5785938486928194608483015260c43560a48301523360c483015261010060e4830152806101048301528061012493848401378181018301849052601f01601f191681010301925af18015610c0d57610bfa575b50600554815483546001600160801b03959287926001600160a01b03918216929116908716823b15610310576044849283604051958694859363a9059cbb60e01b8552600485015260248401525af18015610bef57610bd3575b505090610bd0936003610bb0930191610b558354610ed8565b80935560018060a01b0390541690845492604051918416825260208201527fa91d4f2579c26d522ef9555559a2db441d5c0f9498b6b6cdc052eacddb567055604060043592a363ffffffff808260a01c169160801c16610efd565b815463ffffffff60801b191660809190911b63ffffffff60801b16179055565b80f35b610bdf90939293610e5c565b610beb57908438610b3c565b8480fd5b6040513d84823e3d90fd5b610c0690949194610e5c565b9238610ae2565b6040513d87823e3d90fd5b8280fd5b5080fd5b634e487b7160e01b85526032600452602485fd5b60405163e246dc6360e01b8152600490fd5b60248160051b60e43501013560421960e435360301811215610e325767ffffffffffffffff60248260e43501013511610e325760e435810160248101353603604490910113610e325760405190601f1967ffffffffffffffff60e435830160240135601f018216603f018216840190811190841117610e1e5760e43582016024810135601f81018316603f0190921684016040528184528b929136910160440111610c1c5760209060249060e435810180830135906044018685013760e4350101358301015260405160043560208201528460408201526001600160801b03198460801b1660548201526044815280608081011067ffffffffffffffff608083011117610e0a57608081016040819052815160208301207f19457468657265756d205369676e6564204d6573736167653a0a33320000000060a084015260bc830152603c815267ffffffffffffffff60e08301908111911117610e0a57610dca918160e0610dc1930160405260a06080820151910120610f15565b90929192610fe1565b6001600160a01b031688526002602052604088205460ff16610df5575b610df090610ed8565b6109cd565b92610e02610df091610ed8565b939050610de7565b634e487b7160e01b8a52604160045260248afd5b634e487b7160e01b8b52604160045260248bfd5b8880fd5b60405163629d783360e11b8152600490fd5b634e487b7160e01b83526041600452602483fd5b67ffffffffffffffff81116102d257604052565b600435906001600160a01b0382168203610e8657565b600080fd5b600154811015610ec25760016000527fb10e2d527612073b26eecdfd717e6a320cf44b4afac2b0732d9fcbe2b7fa0cf60190600090565b634e487b7160e01b600052603260045260246000fd5b6000198114610ee75760010190565b634e487b7160e01b600052601160045260246000fd5b91909163ffffffff80809416911601918211610ee757565b8151919060418303610f4657610f3f92506020820151906060604084015193015160001a90610f51565b9192909190565b505060009160029190565b91907f7fffffffffffffffffffffffffffffff5d576e7357a4501ddfe92f46681b20a08411610fd557926020929160ff608095604051948552168484015260408301526060820152600092839182805260015afa15610fc95780516001600160a01b03811615610fc057918190565b50809160019190565b604051903d90823e3d90fd5b50505060009160039190565b60048110156110505780610ff3575050565b6001810361100d5760405163f645eedf60e01b8152600490fd5b6002810361102e5760405163fce698f760e01b815260048101839052602490fd5b6003146110385750565b602490604051906335e2f38360e21b82526004820152fd5b634e487b7160e01b600052602160045260246000fdfea2646970667358221220b31be5f1960b69245be941977d30b93d99d136b082175e4bbc59ec7195b5eb3364736f6c63430008140033","opcodes":"PUSH1 0x40 PUSH1 0xA0 DUP2 MSTORE CALLVALUE PUSH3 0x248 JUMPI PUSH3 0x1325 DUP1 CODESIZE SUB DUP1 PUSH3 0x1E DUP2 PUSH3 0x24D JUMP JUMPDEST SWAP3 DUP4 CODECOPY DUP2 ADD SWAP1 PUSH1 0xA0 DUP2 DUP4 SUB SLT PUSH3 0x248 JUMPI PUSH3 0x3A DUP2 PUSH3 0x273 JUMP JUMPDEST PUSH1 0x20 SWAP1 PUSH3 0x4A DUP3 DUP5 ADD PUSH3 0x273 JUMP JUMPDEST DUP4 DUP7 ADD MLOAD PUSH1 0x1 PUSH1 0x1 PUSH1 0x40 SHL SUB SWAP6 SWAP1 DUP7 DUP2 GT PUSH3 0x248 JUMPI DUP6 ADD DUP2 PUSH1 0x1F DUP3 ADD SLT ISZERO PUSH3 0x248 JUMPI DUP1 MLOAD SWAP1 DUP8 DUP3 GT PUSH3 0x200 JUMPI PUSH1 0x5 SWAP3 DUP3 DUP5 SHL SWAP2 DUP8 PUSH3 0x8E DUP2 DUP6 ADD PUSH3 0x24D JUMP JUMPDEST DUP1 SWAP6 DUP2 MSTORE ADD SWAP1 DUP9 DUP3 SWAP5 DUP3 ADD ADD SWAP3 DUP4 GT PUSH3 0x248 JUMPI DUP9 DUP1 SWAP2 ADD SWAP2 JUMPDEST DUP4 DUP4 LT PUSH3 0x22D JUMPI POP POP POP POP PUSH1 0x80 PUSH1 0x60 DUP9 ADD MLOAD SWAP8 ADD MLOAD SWAP7 DUP1 DUP4 MLOAD LT PUSH3 0x216 JUMPI DUP3 MLOAD SWAP9 DUP10 GT PUSH3 0x200 JUMPI PUSH9 0x10000000000000000 DUP10 GT PUSH3 0x200 JUMPI PUSH1 0x1 SWAP2 DUP3 SLOAD DUP11 DUP5 SSTORE DUP1 DUP12 LT PUSH3 0x1D3 JUMPI JUMPDEST POP SWAP9 PUSH1 0x0 SWAP10 DUP4 DUP12 MSTORE DUP9 DUP12 KECCAK256 DUP5 DUP13 JUMPDEST DUP5 DUP2 LT PUSH3 0x1B7 JUMPI POP POP POP PUSH1 0x4 SWAP3 SWAP1 SWAP3 SSTORE POP POP DUP8 SLOAD PUSH1 0x1 PUSH1 0x1 PUSH1 0xA0 SHL SUB NOT SWAP1 DUP2 AND CALLER OR DUP10 SSTORE SWAP6 DUP9 SWAP1 DUP3 JUMPDEST PUSH3 0x16E JUMPI JUMPDEST POP POP POP POP PUSH1 0x1 DUP1 PUSH1 0xA0 SHL SUB DUP1 SWAP4 AND DUP5 DUP3 SLOAD AND OR SWAP1 SSTORE AND SWAP1 PUSH1 0x6 SLOAD AND OR PUSH1 0x6 SSTORE PUSH1 0x80 MSTORE PUSH1 0x7 SSTORE MLOAD PUSH2 0x109C SWAP1 DUP2 PUSH3 0x289 DUP3 CODECOPY PUSH1 0x80 MLOAD DUP2 PUSH2 0x61A ADD MSTORE RETURN JUMPDEST DUP4 MLOAD DUP3 LT ISZERO PUSH3 0x1B1 JUMPI DUP2 DUP6 SHL DUP5 ADD DUP2 ADD MLOAD PUSH1 0x1 PUSH1 0x1 PUSH1 0xA0 SHL SUB AND DUP11 MSTORE PUSH1 0x2 DUP2 MSTORE DUP11 DUP11 KECCAK256 DUP1 SLOAD PUSH1 0xFF NOT AND DUP5 OR SWAP1 SSTORE PUSH1 0x3 DUP2 MSTORE DUP11 DUP11 KECCAK256 DUP3 SWAP1 SSTORE SWAP1 DUP3 ADD SWAP1 DUP3 PUSH3 0x12C JUMP JUMPDEST PUSH3 0x132 JUMP JUMPDEST DUP4 MLOAD PUSH1 0x1 PUSH1 0x1 PUSH1 0xA0 SHL SUB AND DUP4 DUP3 ADD SSTORE SWAP3 DUP12 ADD SWAP3 DUP7 SWAP2 ADD PUSH3 0x102 JUMP JUMPDEST PUSH1 0x0 DUP5 DUP2 MSTORE DUP5 DUP13 DUP12 DUP4 KECCAK256 SWAP4 DUP5 ADD SWAP4 ADD JUMPDEST DUP4 DUP2 LT PUSH3 0x1F4 JUMPI POP POP POP PUSH3 0xF4 JUMP JUMPDEST DUP3 DUP2 SSTORE ADD DUP6 SWAP1 PUSH3 0x1E3 JUMP JUMPDEST PUSH4 0x4E487B71 PUSH1 0xE0 SHL PUSH1 0x0 MSTORE PUSH1 0x41 PUSH1 0x4 MSTORE PUSH1 0x24 PUSH1 0x0 REVERT JUMPDEST PUSH1 0x24 SWAP1 DUP11 MLOAD SWAP1 PUSH4 0x362BF2D PUSH1 0xE5 SHL DUP3 MSTORE PUSH1 0x4 DUP3 ADD MSTORE REVERT JUMPDEST DUP2 SWAP1 PUSH3 0x23A DUP5 PUSH3 0x273 JUMP JUMPDEST DUP2 MSTORE ADD SWAP2 ADD SWAP1 DUP9 SWAP1 PUSH3 0xA8 JUMP JUMPDEST PUSH1 0x0 DUP1 REVERT JUMPDEST PUSH1 0x40 MLOAD SWAP2 SWAP1 PUSH1 0x1F ADD PUSH1 0x1F NOT AND DUP3 ADD PUSH1 0x1 PUSH1 0x1 PUSH1 0x40 SHL SUB DUP2 GT DUP4 DUP3 LT OR PUSH3 0x200 JUMPI PUSH1 0x40 MSTORE JUMP JUMPDEST MLOAD SWAP1 PUSH1 0x1 PUSH1 0x1 PUSH1 0xA0 SHL SUB DUP3 AND DUP3 SUB PUSH3 0x248 JUMPI JUMP INVALID PUSH1 0x80 PUSH1 0x40 MSTORE PUSH1 0x4 CALLDATASIZE LT ISZERO PUSH2 0x12 JUMPI PUSH1 0x0 DUP1 REVERT JUMPDEST PUSH1 0x0 DUP1 CALLDATALOAD PUSH1 0xE0 SHR DUP1 PUSH4 0x251D17C EQ PUSH2 0x8D3 JUMPI DUP1 PUSH4 0x25E7C27 EQ PUSH2 0x88F JUMPI DUP1 PUSH4 0x86BB259 EQ PUSH2 0x850 JUMPI DUP1 PUSH4 0x12261EE7 EQ PUSH2 0x827 JUMPI DUP1 PUSH4 0x173825D9 EQ PUSH2 0x6DE JUMPI DUP1 PUSH4 0x375B74C3 EQ PUSH2 0x6B7 JUMPI DUP1 PUSH4 0x39F636AB EQ PUSH2 0x63D JUMPI DUP1 PUSH4 0x42CDE4E8 EQ PUSH2 0x602 JUMPI DUP1 PUSH4 0x46A1A095 EQ PUSH2 0x586 JUMPI DUP1 PUSH4 0x5D4BC638 EQ PUSH2 0x554 JUMPI DUP1 PUSH4 0x61D027B3 EQ PUSH2 0x52B JUMPI DUP1 PUSH4 0x7065CB48 EQ PUSH2 0x40C JUMPI DUP1 PUSH4 0x8D068043 EQ PUSH2 0x3EE JUMPI DUP1 PUSH4 0x9B7B7B1E EQ PUSH2 0x3D0 JUMPI DUP1 PUSH4 0x9F8A64E2 EQ PUSH2 0x397 JUMPI DUP1 PUSH4 0xA0A31AAC EQ PUSH2 0x314 JUMPI DUP1 PUSH4 0xCFAC4B31 EQ PUSH2 0x13C JUMPI PUSH4 0xF2F4655E EQ PUSH2 0xE3 JUMPI PUSH1 0x0 DUP1 REVERT JUMPDEST CALLVALUE PUSH2 0x139 JUMPI PUSH1 0x20 CALLDATASIZE PUSH1 0x3 NOT ADD SLT PUSH2 0x139 JUMPI PUSH2 0xFC PUSH2 0xE70 JUMP JUMPDEST DUP2 SLOAD PUSH1 0x1 PUSH1 0x1 PUSH1 0xA0 SHL SUB SWAP2 SWAP1 DUP3 AND CALLER SUB PUSH2 0x127 JUMPI AND PUSH1 0x1 PUSH1 0x1 PUSH1 0x60 SHL SUB PUSH1 0xA0 SHL PUSH1 0x0 SLOAD AND OR PUSH1 0x0 SSTORE DUP1 RETURN JUMPDEST PUSH1 0x40 MLOAD PUSH4 0x918CB1DD PUSH1 0xE0 SHL DUP2 MSTORE PUSH1 0x4 SWAP1 REVERT JUMPDEST DUP1 REVERT JUMPDEST POP CALLVALUE PUSH2 0x139 JUMPI PUSH1 0x60 CALLDATASIZE PUSH1 0x3 NOT ADD SLT PUSH2 0x139 JUMPI PUSH2 0x156 PUSH2 0xE70 JUMP JUMPDEST PUSH1 0x24 CALLDATALOAD PUSH1 0x1 PUSH1 0x1 PUSH1 0x80 SHL SUB DUP1 DUP3 AND DUP1 SWAP3 SUB PUSH2 0x310 JUMPI PUSH1 0x44 CALLDATALOAD SWAP1 PUSH4 0xFFFFFFFF DUP1 DUP4 AND SWAP2 DUP3 DUP5 SUB PUSH2 0x30C JUMPI DUP5 ISZERO PUSH2 0x2FA JUMPI DUP3 ISZERO PUSH2 0x2E8 JUMPI PUSH2 0x1A6 PUSH1 0x7 SLOAD SWAP5 PUSH2 0x19B DUP7 PUSH2 0xED8 JUMP JUMPDEST PUSH1 0x7 SSTORE DUP4 TIMESTAMP AND PUSH2 0xEFD JUMP JUMPDEST SWAP6 PUSH1 0x40 MLOAD SWAP2 PUSH1 0xC0 DUP4 ADD SWAP2 DUP4 DUP4 LT PUSH8 0xFFFFFFFFFFFFFFFF DUP5 GT OR PUSH2 0x2D2 JUMPI DUP10 SWAP3 PUSH1 0x40 MSTORE CALLER DUP5 MSTORE PUSH1 0x20 DUP5 ADD SWAP5 PUSH1 0x1 PUSH1 0xA0 SHL PUSH1 0x1 SWAP1 SUB DUP1 SWAP3 AND SWAP10 DUP11 DUP8 MSTORE PUSH1 0x40 DUP7 ADD SWAP4 DUP11 DUP6 MSTORE DUP3 PUSH1 0x60 DUP9 ADD SWAP3 AND SWAP8 DUP9 DUP4 MSTORE PUSH1 0x80 DUP9 ADD SWAP5 DUP11 DUP7 MSTORE DUP1 PUSH1 0xA0 DUP11 ADD SWAP9 DUP1 DUP11 MSTORE DUP14 DUP2 MSTORE PUSH1 0x8 PUSH1 0x20 MSTORE PUSH1 0x40 SWAP1 KECCAK256 SWAP10 MLOAD AND SWAP1 PUSH1 0x1 PUSH1 0x1 PUSH1 0x60 SHL SUB PUSH1 0xA0 SHL SWAP2 DUP3 DUP12 SLOAD AND OR DUP11 SSTORE PUSH1 0x1 DUP11 ADD SWAP3 MLOAD AND SWAP1 DUP3 SLOAD AND OR SWAP1 SSTORE PUSH1 0x2 DUP8 ADD SWAP5 MLOAD AND PUSH1 0x1 PUSH1 0x1 PUSH1 0x80 SHL SUB NOT DUP6 SLOAD AND OR DUP5 SSTORE MLOAD AND PUSH2 0x273 SWAP1 DUP4 SWAP1 DUP2 SLOAD SWAP1 PUSH4 0xFFFFFFFF PUSH1 0x80 SHL SWAP1 PUSH1 0x80 SHL AND SWAP1 PUSH4 0xFFFFFFFF PUSH1 0x80 SHL NOT AND OR SWAP1 SSTORE JUMP JUMPDEST MLOAD DUP2 SLOAD SWAP1 PUSH4 0xFFFFFFFF PUSH1 0xA0 SHL SWAP1 PUSH1 0xA0 SHL AND SWAP1 PUSH4 0xFFFFFFFF PUSH1 0xA0 SHL NOT AND OR SWAP1 SSTORE MLOAD SWAP1 PUSH1 0x3 ADD SSTORE PUSH1 0x40 MLOAD SWAP4 DUP5 MSTORE PUSH1 0x20 DUP5 ADD MSTORE PUSH1 0x40 DUP4 ADD MSTORE CALLER SWAP2 PUSH1 0x60 PUSH32 0xB48492F1F7A38C6B22FEAEF296C0C4861F3952771682CD990C9374874A28773D SWAP2 LOG4 DUP1 RETURN JUMPDEST PUSH4 0x4E487B71 PUSH1 0xE0 SHL PUSH1 0x0 MSTORE PUSH1 0x41 PUSH1 0x4 MSTORE PUSH1 0x24 PUSH1 0x0 REVERT JUMPDEST PUSH1 0x40 MLOAD PUSH4 0x2971B937 PUSH1 0xE0 SHL DUP2 MSTORE PUSH1 0x4 SWAP1 REVERT JUMPDEST PUSH1 0x40 MLOAD PUSH4 0x5E85AE73 PUSH1 0xE0 SHL DUP2 MSTORE PUSH1 0x4 SWAP1 REVERT JUMPDEST DUP7 DUP1 REVERT JUMPDEST DUP4 DUP1 REVERT JUMPDEST POP CALLVALUE PUSH2 0x139 JUMPI PUSH1 0x20 CALLDATASIZE PUSH1 0x3 NOT ADD SLT PUSH2 0x139 JUMPI PUSH1 0x4 CALLDATALOAD CALLER DUP3 MSTORE PUSH1 0x2 PUSH1 0x20 MSTORE PUSH1 0xFF PUSH1 0x40 DUP4 KECCAK256 SLOAD AND ISZERO PUSH2 0x385 JUMPI DUP1 DUP3 MSTORE PUSH1 0x8 PUSH1 0x20 MSTORE DUP2 PUSH1 0x3 PUSH1 0x40 DUP3 KECCAK256 DUP3 DUP2 SSTORE DUP3 PUSH1 0x1 DUP3 ADD SSTORE DUP3 PUSH1 0x2 DUP3 ADD SSTORE ADD SSTORE PUSH32 0x2D8C53F76EB0AFAB114916B6C3AA17406AD39C7E874C92B099F79AB89C2E2A54 DUP3 DUP1 LOG2 DUP1 RETURN JUMPDEST PUSH1 0x40 MLOAD PUSH4 0x30CD7471 PUSH1 0xE0 SHL DUP2 MSTORE PUSH1 0x4 SWAP1 REVERT JUMPDEST POP CALLVALUE PUSH2 0x139 JUMPI PUSH1 0x20 CALLDATASIZE PUSH1 0x3 NOT ADD SLT PUSH2 0x139 JUMPI PUSH1 0x20 SWAP1 PUSH1 0x40 SWAP1 PUSH1 0x1 PUSH1 0x1 PUSH1 0xA0 SHL SUB PUSH2 0x3BF PUSH2 0xE70 JUMP JUMPDEST AND DUP2 MSTORE PUSH1 0x3 DUP4 MSTORE KECCAK256 SLOAD PUSH1 0x40 MLOAD SWAP1 DUP2 MSTORE RETURN JUMPDEST POP CALLVALUE PUSH2 0x139 JUMPI DUP1 PUSH1 0x3 NOT CALLDATASIZE ADD SLT PUSH2 0x139 JUMPI PUSH1 0x20 PUSH1 0x7 SLOAD PUSH1 0x40 MLOAD SWAP1 DUP2 MSTORE RETURN JUMPDEST POP CALLVALUE PUSH2 0x139 JUMPI DUP1 PUSH1 0x3 NOT CALLDATASIZE ADD SLT PUSH2 0x139 JUMPI PUSH1 0x20 PUSH1 0x4 SLOAD PUSH1 0x40 MLOAD SWAP1 DUP2 MSTORE RETURN JUMPDEST POP CALLVALUE PUSH2 0x139 JUMPI PUSH1 0x20 CALLDATASIZE PUSH1 0x3 NOT ADD SLT PUSH2 0x139 JUMPI PUSH2 0x426 PUSH2 0xE70 JUMP JUMPDEST DUP2 SLOAD PUSH1 0x1 PUSH1 0x1 PUSH1 0xA0 SHL SUB SWAP1 DUP2 AND CALLER SUB PUSH2 0x127 JUMPI DUP2 AND SWAP1 DUP2 DUP4 MSTORE PUSH1 0x2 PUSH1 0x20 MSTORE PUSH1 0xFF PUSH1 0x40 DUP5 KECCAK256 SLOAD AND PUSH2 0x519 JUMPI PUSH1 0x1 SLOAD PUSH9 0x10000000000000000 DUP2 LT ISZERO PUSH2 0x505 JUMPI SWAP1 PUSH2 0x478 DUP3 PUSH1 0x1 PUSH2 0x497 SWAP5 ADD PUSH1 0x1 SSTORE PUSH2 0xE8B JUMP JUMPDEST SWAP1 SWAP2 SWAP1 DUP3 SLOAD SWAP1 PUSH1 0x3 SHL SWAP2 PUSH1 0x1 DUP1 PUSH1 0xA0 SHL SUB DUP1 SWAP2 AND DUP4 SHL SWAP3 SHL NOT AND OR SWAP1 SSTORE JUMP JUMPDEST DUP1 DUP3 MSTORE PUSH1 0x2 PUSH1 0x20 MSTORE PUSH1 0x40 DUP3 KECCAK256 PUSH1 0x1 PUSH1 0xFF NOT DUP3 SLOAD AND OR SWAP1 SSTORE PUSH1 0x1 SLOAD PUSH1 0x0 NOT DUP2 ADD SWAP1 DUP2 GT PUSH2 0x4F1 JUMPI DUP2 DUP4 MSTORE PUSH1 0x3 PUSH1 0x20 MSTORE PUSH1 0x40 DUP4 KECCAK256 SSTORE PUSH32 0x994A936646FE87FFE4F1E469D3D6AA417D6B855598397F323DE5B449F765F0C3 DUP3 DUP1 LOG2 DUP1 RETURN JUMPDEST PUSH4 0x4E487B71 PUSH1 0xE0 SHL DUP4 MSTORE PUSH1 0x11 PUSH1 0x4 MSTORE PUSH1 0x24 DUP4 REVERT JUMPDEST PUSH4 0x4E487B71 PUSH1 0xE0 SHL DUP5 MSTORE PUSH1 0x41 PUSH1 0x4 MSTORE PUSH1 0x24 DUP5 REVERT JUMPDEST PUSH1 0x40 MLOAD PUSH4 0x25CFE06F PUSH1 0xE1 SHL DUP2 MSTORE PUSH1 0x4 SWAP1 REVERT JUMPDEST POP CALLVALUE PUSH2 0x139 JUMPI DUP1 PUSH1 0x3 NOT CALLDATASIZE ADD SLT PUSH2 0x139 JUMPI PUSH1 0x5 SLOAD PUSH1 0x40 MLOAD PUSH1 0x1 PUSH1 0x1 PUSH1 0xA0 SHL SUB SWAP1 SWAP2 AND DUP2 MSTORE PUSH1 0x20 SWAP1 RETURN JUMPDEST POP CALLVALUE PUSH2 0x139 JUMPI DUP1 PUSH1 0x3 NOT CALLDATASIZE ADD SLT PUSH2 0x139 JUMPI DUP1 SLOAD PUSH1 0x1 PUSH1 0x1 PUSH1 0xA0 SHL SUB DUP2 AND CALLER SUB PUSH2 0x127 JUMPI PUSH1 0x1 PUSH1 0x1 PUSH1 0xA0 SHL SUB NOT AND DUP2 SSTORE DUP1 RETURN JUMPDEST POP CALLVALUE PUSH2 0x139 JUMPI PUSH1 0x20 CALLDATASIZE PUSH1 0x3 NOT ADD SLT PUSH2 0x139 JUMPI PUSH1 0x40 PUSH1 0xC0 SWAP2 PUSH1 0x4 CALLDATALOAD DUP2 MSTORE PUSH1 0x8 PUSH1 0x20 MSTORE KECCAK256 PUSH1 0x1 DUP1 PUSH1 0xA0 SHL SUB SWAP1 DUP2 DUP2 SLOAD AND SWAP2 PUSH1 0x1 DUP3 ADD SLOAD AND SWAP1 PUSH1 0x3 PUSH1 0x2 DUP3 ADD SLOAD SWAP2 ADD SLOAD SWAP2 PUSH1 0x40 MLOAD SWAP4 DUP5 MSTORE PUSH1 0x20 DUP5 ADD MSTORE PUSH1 0x1 PUSH1 0x1 PUSH1 0x80 SHL SUB DUP2 AND PUSH1 0x40 DUP5 ADD MSTORE PUSH4 0xFFFFFFFF SWAP1 DUP2 DUP2 PUSH1 0x80 SHR AND PUSH1 0x60 DUP6 ADD MSTORE PUSH1 0xA0 SHR AND PUSH1 0x80 DUP4 ADD MSTORE PUSH1 0xA0 DUP3 ADD MSTORE RETURN JUMPDEST POP CALLVALUE PUSH2 0x139 JUMPI DUP1 PUSH1 0x3 NOT CALLDATASIZE ADD SLT PUSH2 0x139 JUMPI PUSH1 0x20 PUSH1 0x40 MLOAD PUSH32 0x0 DUP2 MSTORE RETURN JUMPDEST POP CALLVALUE PUSH2 0x139 JUMPI PUSH1 0x20 CALLDATASIZE PUSH1 0x3 NOT ADD SLT PUSH2 0x139 JUMPI DUP1 SLOAD PUSH1 0x4 CALLDATALOAD SWAP1 PUSH1 0x1 PUSH1 0x1 PUSH1 0xA0 SHL SUB AND CALLER SUB PUSH2 0x127 JUMPI PUSH1 0x1 SLOAD DUP2 GT PUSH2 0x69F JUMPI PUSH1 0x20 DUP2 PUSH32 0x10DBC913050D3180C3B99F7DA91FD514AF7CBC9C1BB59A0DA5D2BC38F0CF395A SWAP3 PUSH1 0x4 SSTORE PUSH1 0x40 MLOAD SWAP1 DUP2 MSTORE LOG1 DUP1 RETURN JUMPDEST PUSH1 0x24 SWAP1 PUSH1 0x40 MLOAD SWAP1 PUSH4 0x362BF2D PUSH1 0xE5 SHL DUP3 MSTORE PUSH1 0x4 DUP3 ADD MSTORE REVERT JUMPDEST POP CALLVALUE PUSH2 0x139 JUMPI DUP1 PUSH1 0x3 NOT CALLDATASIZE ADD SLT PUSH2 0x139 JUMPI SLOAD PUSH1 0x40 MLOAD PUSH1 0x1 PUSH1 0x1 PUSH1 0xA0 SHL SUB SWAP1 SWAP2 AND DUP2 MSTORE PUSH1 0x20 SWAP1 RETURN JUMPDEST POP CALLVALUE PUSH2 0x139 JUMPI PUSH1 0x20 SWAP1 DUP2 PUSH1 0x3 NOT CALLDATASIZE ADD SLT PUSH2 0x139 JUMPI PUSH2 0x6FA PUSH2 0xE70 JUMP JUMPDEST DUP2 SLOAD PUSH1 0x1 PUSH1 0x1 PUSH1 0xA0 SHL SUB SWAP4 SWAP2 SWAP1 DUP5 AND CALLER SUB PUSH2 0x127 JUMPI DUP4 AND SWAP1 DUP2 DUP4 MSTORE PUSH1 0x2 DUP2 MSTORE PUSH1 0xFF PUSH1 0x40 DUP5 KECCAK256 SLOAD AND ISZERO PUSH2 0x815 JUMPI DUP2 DUP4 MSTORE PUSH1 0x3 DUP2 MSTORE PUSH1 0x40 DUP4 KECCAK256 SLOAD PUSH1 0x1 SLOAD PUSH1 0x0 NOT SWAP6 SWAP2 SWAP1 DUP7 DUP2 ADD SWAP1 DUP2 GT PUSH2 0x801 JUMPI DUP1 DUP4 SWAP2 DUP4 SUB PUSH2 0x7D0 JUMPI JUMPDEST POP POP POP PUSH1 0x1 SLOAD SWAP5 DUP6 ISZERO PUSH2 0x7BC JUMPI PUSH1 0x3 SWAP4 SWAP5 SWAP6 ADD SWAP1 PUSH2 0x76C DUP3 PUSH2 0xE8B JUMP JUMPDEST SWAP1 SWAP2 DUP3 SLOAD SWAP2 DUP7 SHL SHL NOT AND SWAP1 SSTORE PUSH1 0x1 SSTORE DUP3 DUP5 MSTORE PUSH1 0x2 DUP2 MSTORE PUSH1 0x40 DUP5 KECCAK256 PUSH1 0xFF NOT DUP2 SLOAD AND SWAP1 SSTORE MSTORE DUP2 PUSH1 0x40 DUP2 KECCAK256 SSTORE PUSH32 0x58619076ADF5BB0943D100EF88D52D7C3FD691B19D3A9071B555B651FBF418DA DUP3 DUP1 LOG2 DUP1 RETURN JUMPDEST PUSH4 0x4E487B71 PUSH1 0xE0 SHL DUP6 MSTORE PUSH1 0x31 PUSH1 0x4 MSTORE PUSH1 0x24 DUP6 REVERT JUMPDEST PUSH2 0x7D9 SWAP1 PUSH2 0xE8B JUMP JUMPDEST SWAP1 SLOAD SWAP1 PUSH1 0x3 SHL SHR AND PUSH2 0x7EE DUP2 PUSH2 0x478 DUP5 PUSH2 0xE8B JUMP JUMPDEST DUP6 MSTORE PUSH1 0x3 DUP4 MSTORE PUSH1 0x40 DUP6 KECCAK256 SSTORE CODESIZE DUP2 DUP2 PUSH2 0x74F JUMP JUMPDEST PUSH4 0x4E487B71 PUSH1 0xE0 SHL DUP7 MSTORE PUSH1 0x11 PUSH1 0x4 MSTORE PUSH1 0x24 DUP7 REVERT JUMPDEST PUSH1 0x40 MLOAD PUSH4 0x1DD523FF PUSH1 0xE3 SHL DUP2 MSTORE PUSH1 0x4 SWAP1 REVERT JUMPDEST POP CALLVALUE PUSH2 0x139 JUMPI DUP1 PUSH1 0x3 NOT CALLDATASIZE ADD SLT PUSH2 0x139 JUMPI PUSH1 0x6 SLOAD PUSH1 0x40 MLOAD PUSH1 0x1 PUSH1 0x1 PUSH1 0xA0 SHL SUB SWAP1 SWAP2 AND DUP2 MSTORE PUSH1 0x20 SWAP1 RETURN JUMPDEST POP CALLVALUE PUSH2 0x139 JUMPI PUSH1 0x20 CALLDATASIZE PUSH1 0x3 NOT ADD SLT PUSH2 0x139 JUMPI PUSH1 0x20 SWAP1 PUSH1 0xFF SWAP1 PUSH1 0x40 SWAP1 PUSH1 0x1 PUSH1 0x1 PUSH1 0xA0 SHL SUB PUSH2 0x87B PUSH2 0xE70 JUMP JUMPDEST AND DUP2 MSTORE PUSH1 0x2 DUP5 MSTORE KECCAK256 SLOAD AND PUSH1 0x40 MLOAD SWAP1 ISZERO ISZERO DUP2 MSTORE RETURN JUMPDEST POP CALLVALUE PUSH2 0x139 JUMPI PUSH1 0x20 CALLDATASIZE PUSH1 0x3 NOT ADD SLT PUSH2 0x139 JUMPI PUSH1 0x4 CALLDATALOAD SWAP1 PUSH1 0x1 SLOAD DUP3 LT ISZERO PUSH2 0x139 JUMPI PUSH1 0x20 PUSH2 0x8BA DUP4 PUSH2 0xE8B JUMP JUMPDEST SWAP1 SLOAD PUSH1 0x40 MLOAD PUSH1 0x3 SWAP3 SWAP1 SWAP3 SHL SHR PUSH1 0x1 PUSH1 0x1 PUSH1 0xA0 SHL SUB AND DUP2 MSTORE RETURN JUMPDEST POP CALLVALUE PUSH2 0x139 JUMPI PUSH2 0x100 CALLDATASIZE PUSH1 0x3 NOT ADD SLT PUSH2 0x139 JUMPI CALLDATASIZE PUSH1 0x23 NOT ADD PUSH1 0x80 DUP2 SLT PUSH2 0xC1C JUMPI PUSH1 0xE0 SWAP1 PUSH1 0x40 SGT PUSH2 0xC1C JUMPI PUSH2 0x120 DUP2 DUP2 LT PUSH2 0xE48 JUMPI PUSH1 0x40 MSTORE PUSH1 0x24 CALLDATALOAD PUSH1 0x1 PUSH1 0x1 PUSH1 0xA0 SHL SUB DUP2 AND DUP2 SUB PUSH2 0xC18 JUMPI DUP2 MSTORE PUSH1 0x44 CALLDATALOAD PUSH2 0x100 MSTORE PUSH1 0x80 MSTORE PUSH1 0x64 CALLDATALOAD PUSH1 0xA0 MSTORE PUSH1 0x84 CALLDATALOAD PUSH1 0xC0 MSTORE PUSH1 0x40 CALLDATASIZE PUSH1 0xA3 NOT ADD SLT PUSH2 0x139 JUMPI PUSH8 0xFFFFFFFFFFFFFFFF PUSH1 0xE4 CALLDATALOAD GT PUSH2 0x139 JUMPI CALLDATASIZE PUSH1 0x23 PUSH1 0xE4 CALLDATALOAD ADD SLT ISZERO PUSH2 0x139 JUMPI PUSH8 0xFFFFFFFFFFFFFFFF PUSH1 0xE4 CALLDATALOAD PUSH1 0x4 ADD CALLDATALOAD GT PUSH2 0x139 JUMPI CALLDATASIZE PUSH1 0x24 PUSH1 0xE4 CALLDATALOAD PUSH1 0x4 ADD CALLDATALOAD PUSH1 0x5 SHL PUSH1 0xE4 CALLDATALOAD ADD ADD GT PUSH2 0x139 JUMPI PUSH1 0x4 CALLDATALOAD DUP2 MSTORE PUSH1 0x8 PUSH1 0x20 MSTORE PUSH1 0x40 DUP2 KECCAK256 PUSH1 0x2 DUP2 ADD DUP1 SLOAD PUSH4 0xFFFFFFFF TIMESTAMP AND PUSH4 0xFFFFFFFF DUP3 PUSH1 0x80 SHR AND GT PUSH2 0xE36 JUMPI DUP4 DUP5 PUSH1 0x1 DUP6 ADD SWAP3 PUSH1 0x1 PUSH1 0x1 PUSH1 0x60 SHL SUB NOT DUP5 SLOAD PUSH1 0x60 SHL AND SWAP2 JUMPDEST PUSH1 0xE4 CALLDATALOAD PUSH1 0x4 ADD CALLDATALOAD DUP2 LT PUSH2 0xC46 JUMPI POP POP POP PUSH1 0x4 SLOAD GT PUSH2 0xC34 JUMPI PUSH1 0x6 SLOAD PUSH1 0x1 PUSH1 0x1 PUSH1 0xA0 SHL SUB AND PUSH1 0x4 PUSH1 0xE4 CALLDATALOAD ADD CALLDATALOAD ISZERO PUSH2 0xC20 JUMPI DUP5 PUSH1 0xE4 CALLDATALOAD PUSH1 0x24 DUP2 ADD CALLDATALOAD SWAP1 CALLDATASIZE SUB PUSH1 0x42 NOT ADD DUP2 SLT ISZERO PUSH2 0xC1C JUMPI PUSH1 0xE4 CALLDATALOAD ADD SWAP2 PUSH1 0x24 DUP4 ADD CALLDATALOAD SWAP3 PUSH8 0xFFFFFFFFFFFFFFFF DUP5 GT PUSH2 0xC18 JUMPI PUSH1 0x44 ADD SWAP1 DUP4 CALLDATASIZE SUB DUP3 SGT PUSH2 0xC18 JUMPI DUP1 EXTCODESIZE ISZERO PUSH2 0xC18 JUMPI PUSH1 0x40 MLOAD PUSH4 0x187945BD PUSH1 0xE1 SHL DUP2 MSTORE PUSH1 0x80 MLOAD DUP1 MLOAD PUSH1 0x1 PUSH1 0x1 PUSH1 0xA0 SHL SUB SWAP1 DUP2 AND PUSH1 0x4 DUP5 ADD MSTORE PUSH1 0x20 SWAP1 SWAP2 ADD MLOAD PUSH1 0x24 DUP4 ADD MSTORE PUSH1 0xA0 MLOAD PUSH1 0x44 DUP4 ADD MSTORE PUSH1 0xC0 MLOAD PUSH1 0x64 DUP4 ADD MSTORE SWAP1 SWAP5 PUSH1 0xA4 CALLDATALOAD SWAP2 DUP3 AND SWAP2 DUP3 SWAP1 SUB PUSH2 0xBEB JUMPI DUP6 SWAP4 DUP5 DUP7 SWAP3 DUP2 SWAP5 PUSH1 0x84 DUP4 ADD MSTORE PUSH1 0xC4 CALLDATALOAD PUSH1 0xA4 DUP4 ADD MSTORE CALLER PUSH1 0xC4 DUP4 ADD MSTORE PUSH2 0x100 PUSH1 0xE4 DUP4 ADD MSTORE DUP1 PUSH2 0x104 DUP4 ADD MSTORE DUP1 PUSH2 0x124 SWAP4 DUP5 DUP5 ADD CALLDATACOPY DUP2 DUP2 ADD DUP4 ADD DUP5 SWAP1 MSTORE PUSH1 0x1F ADD PUSH1 0x1F NOT AND DUP2 ADD SUB ADD SWAP3 GAS CALL DUP1 ISZERO PUSH2 0xC0D JUMPI PUSH2 0xBFA JUMPI JUMPDEST POP PUSH1 0x5 SLOAD DUP2 SLOAD DUP4 SLOAD PUSH1 0x1 PUSH1 0x1 PUSH1 0x80 SHL SUB SWAP6 SWAP3 DUP8 SWAP3 PUSH1 0x1 PUSH1 0x1 PUSH1 0xA0 SHL SUB SWAP2 DUP3 AND SWAP3 SWAP2 AND SWAP1 DUP8 AND DUP3 EXTCODESIZE ISZERO PUSH2 0x310 JUMPI PUSH1 0x44 DUP5 SWAP3 DUP4 PUSH1 0x40 MLOAD SWAP6 DUP7 SWAP5 DUP6 SWAP4 PUSH4 0xA9059CBB PUSH1 0xE0 SHL DUP6 MSTORE PUSH1 0x4 DUP6 ADD MSTORE PUSH1 0x24 DUP5 ADD MSTORE GAS CALL DUP1 ISZERO PUSH2 0xBEF JUMPI PUSH2 0xBD3 JUMPI JUMPDEST POP POP SWAP1 PUSH2 0xBD0 SWAP4 PUSH1 0x3 PUSH2 0xBB0 SWAP4 ADD SWAP2 PUSH2 0xB55 DUP4 SLOAD PUSH2 0xED8 JUMP JUMPDEST DUP1 SWAP4 SSTORE PUSH1 0x1 DUP1 PUSH1 0xA0 SHL SUB SWAP1 SLOAD AND SWAP1 DUP5 SLOAD SWAP3 PUSH1 0x40 MLOAD SWAP2 DUP5 AND DUP3 MSTORE PUSH1 0x20 DUP3 ADD MSTORE PUSH32 0xA91D4F2579C26D522EF9555559A2DB441D5C0F9498B6B6CDC052EACDDB567055 PUSH1 0x40 PUSH1 0x4 CALLDATALOAD SWAP3 LOG3 PUSH4 0xFFFFFFFF DUP1 DUP3 PUSH1 0xA0 SHR AND SWAP2 PUSH1 0x80 SHR AND PUSH2 0xEFD JUMP JUMPDEST DUP2 SLOAD PUSH4 0xFFFFFFFF PUSH1 0x80 SHL NOT AND PUSH1 0x80 SWAP2 SWAP1 SWAP2 SHL PUSH4 0xFFFFFFFF PUSH1 0x80 SHL AND OR SWAP1 SSTORE JUMP JUMPDEST DUP1 RETURN JUMPDEST PUSH2 0xBDF SWAP1 SWAP4 SWAP3 SWAP4 PUSH2 0xE5C JUMP JUMPDEST PUSH2 0xBEB JUMPI SWAP1 DUP5 CODESIZE PUSH2 0xB3C JUMP JUMPDEST DUP5 DUP1 REVERT JUMPDEST PUSH1 0x40 MLOAD RETURNDATASIZE DUP5 DUP3 RETURNDATACOPY RETURNDATASIZE SWAP1 REVERT JUMPDEST PUSH2 0xC06 SWAP1 SWAP5 SWAP2 SWAP5 PUSH2 0xE5C JUMP JUMPDEST SWAP3 CODESIZE PUSH2 0xAE2 JUMP JUMPDEST PUSH1 0x40 MLOAD RETURNDATASIZE DUP8 DUP3 RETURNDATACOPY RETURNDATASIZE SWAP1 REVERT JUMPDEST DUP3 DUP1 REVERT JUMPDEST POP DUP1 REVERT JUMPDEST PUSH4 0x4E487B71 PUSH1 0xE0 SHL DUP6 MSTORE PUSH1 0x32 PUSH1 0x4 MSTORE PUSH1 0x24 DUP6 REVERT JUMPDEST PUSH1 0x40 MLOAD PUSH4 0xE246DC63 PUSH1 0xE0 SHL DUP2 MSTORE PUSH1 0x4 SWAP1 REVERT JUMPDEST PUSH1 0x24 DUP2 PUSH1 0x5 SHL PUSH1 0xE4 CALLDATALOAD ADD ADD CALLDATALOAD PUSH1 0x42 NOT PUSH1 0xE4 CALLDATALOAD CALLDATASIZE SUB ADD DUP2 SLT ISZERO PUSH2 0xE32 JUMPI PUSH8 0xFFFFFFFFFFFFFFFF PUSH1 0x24 DUP3 PUSH1 0xE4 CALLDATALOAD ADD ADD CALLDATALOAD GT PUSH2 0xE32 JUMPI PUSH1 0xE4 CALLDATALOAD DUP2 ADD PUSH1 0x24 DUP2 ADD CALLDATALOAD CALLDATASIZE SUB PUSH1 0x44 SWAP1 SWAP2 ADD SGT PUSH2 0xE32 JUMPI PUSH1 0x40 MLOAD SWAP1 PUSH1 0x1F NOT PUSH8 0xFFFFFFFFFFFFFFFF PUSH1 0xE4 CALLDATALOAD DUP4 ADD PUSH1 0x24 ADD CALLDATALOAD PUSH1 0x1F ADD DUP3 AND PUSH1 0x3F ADD DUP3 AND DUP5 ADD SWAP1 DUP2 GT SWAP1 DUP5 GT OR PUSH2 0xE1E JUMPI PUSH1 0xE4 CALLDATALOAD DUP3 ADD PUSH1 0x24 DUP2 ADD CALLDATALOAD PUSH1 0x1F DUP2 ADD DUP4 AND PUSH1 0x3F ADD SWAP1 SWAP3 AND DUP5 ADD PUSH1 0x40 MSTORE DUP2 DUP5 MSTORE DUP12 SWAP3 SWAP2 CALLDATASIZE SWAP2 ADD PUSH1 0x44 ADD GT PUSH2 0xC1C JUMPI PUSH1 0x20 SWAP1 PUSH1 0x24 SWAP1 PUSH1 0xE4 CALLDATALOAD DUP2 ADD DUP1 DUP4 ADD CALLDATALOAD SWAP1 PUSH1 0x44 ADD DUP7 DUP6 ADD CALLDATACOPY PUSH1 0xE4 CALLDATALOAD ADD ADD CALLDATALOAD DUP4 ADD ADD MSTORE PUSH1 0x40 MLOAD PUSH1 0x4 CALLDATALOAD PUSH1 0x20 DUP3 ADD MSTORE DUP5 PUSH1 0x40 DUP3 ADD MSTORE PUSH1 0x1 PUSH1 0x1 PUSH1 0x80 SHL SUB NOT DUP5 PUSH1 0x80 SHL AND PUSH1 0x54 DUP3 ADD MSTORE PUSH1 0x44 DUP2 MSTORE DUP1 PUSH1 0x80 DUP2 ADD LT PUSH8 0xFFFFFFFFFFFFFFFF PUSH1 0x80 DUP4 ADD GT OR PUSH2 0xE0A JUMPI PUSH1 0x80 DUP2 ADD PUSH1 0x40 DUP2 SWAP1 MSTORE DUP2 MLOAD PUSH1 0x20 DUP4 ADD KECCAK256 PUSH32 0x19457468657265756D205369676E6564204D6573736167653A0A333200000000 PUSH1 0xA0 DUP5 ADD MSTORE PUSH1 0xBC DUP4 ADD MSTORE PUSH1 0x3C DUP2 MSTORE PUSH8 0xFFFFFFFFFFFFFFFF PUSH1 0xE0 DUP4 ADD SWAP1 DUP2 GT SWAP2 GT OR PUSH2 0xE0A JUMPI PUSH2 0xDCA SWAP2 DUP2 PUSH1 0xE0 PUSH2 0xDC1 SWAP4 ADD PUSH1 0x40 MSTORE PUSH1 0xA0 PUSH1 0x80 DUP3 ADD MLOAD SWAP2 ADD KECCAK256 PUSH2 0xF15 JUMP JUMPDEST SWAP1 SWAP3 SWAP2 SWAP3 PUSH2 0xFE1 JUMP JUMPDEST PUSH1 0x1 PUSH1 0x1 PUSH1 0xA0 SHL SUB AND DUP9 MSTORE PUSH1 0x2 PUSH1 0x20 MSTORE PUSH1 0x40 DUP9 KECCAK256 SLOAD PUSH1 0xFF AND PUSH2 0xDF5 JUMPI JUMPDEST PUSH2 0xDF0 SWAP1 PUSH2 0xED8 JUMP JUMPDEST PUSH2 0x9CD JUMP JUMPDEST SWAP3 PUSH2 0xE02 PUSH2 0xDF0 SWAP2 PUSH2 0xED8 JUMP JUMPDEST SWAP4 SWAP1 POP PUSH2 0xDE7 JUMP JUMPDEST PUSH4 0x4E487B71 PUSH1 0xE0 SHL DUP11 MSTORE PUSH1 0x41 PUSH1 0x4 MSTORE PUSH1 0x24 DUP11 REVERT JUMPDEST PUSH4 0x4E487B71 PUSH1 0xE0 SHL DUP12 MSTORE PUSH1 0x41 PUSH1 0x4 MSTORE PUSH1 0x24 DUP12 REVERT JUMPDEST DUP9 DUP1 REVERT JUMPDEST PUSH1 0x40 MLOAD PUSH4 0x629D7833 PUSH1 0xE1 SHL DUP2 MSTORE PUSH1 0x4 SWAP1 REVERT JUMPDEST PUSH4 0x4E487B71 PUSH1 0xE0 SHL DUP4 MSTORE PUSH1 0x41 PUSH1 0x4 MSTORE PUSH1 0x24 DUP4 REVERT JUMPDEST PUSH8 0xFFFFFFFFFFFFFFFF DUP2 GT PUSH2 0x2D2 JUMPI PUSH1 0x40 MSTORE JUMP JUMPDEST PUSH1 0x4 CALLDATALOAD SWAP1 PUSH1 0x1 PUSH1 0x1 PUSH1 0xA0 SHL SUB DUP3 AND DUP3 SUB PUSH2 0xE86 JUMPI JUMP JUMPDEST PUSH1 0x0 DUP1 REVERT JUMPDEST PUSH1 0x1 SLOAD DUP2 LT ISZERO PUSH2 0xEC2 JUMPI PUSH1 0x1 PUSH1 0x0 MSTORE PUSH32 0xB10E2D527612073B26EECDFD717E6A320CF44B4AFAC2B0732D9FCBE2B7FA0CF6 ADD SWAP1 PUSH1 0x0 SWAP1 JUMP JUMPDEST PUSH4 0x4E487B71 PUSH1 0xE0 SHL PUSH1 0x0 MSTORE PUSH1 0x32 PUSH1 0x4 MSTORE PUSH1 0x24 PUSH1 0x0 REVERT JUMPDEST PUSH1 0x0 NOT DUP2 EQ PUSH2 0xEE7 JUMPI PUSH1 0x1 ADD SWAP1 JUMP JUMPDEST PUSH4 0x4E487B71 PUSH1 0xE0 SHL PUSH1 0x0 MSTORE PUSH1 0x11 PUSH1 0x4 MSTORE PUSH1 0x24 PUSH1 0x0 REVERT JUMPDEST SWAP2 SWAP1 SWAP2 PUSH4 0xFFFFFFFF DUP1 DUP1 SWAP5 AND SWAP2 AND ADD SWAP2 DUP3 GT PUSH2 0xEE7 JUMPI JUMP JUMPDEST DUP2 MLOAD SWAP2 SWAP1 PUSH1 0x41 DUP4 SUB PUSH2 0xF46 JUMPI PUSH2 0xF3F SWAP3 POP PUSH1 0x20 DUP3 ADD MLOAD SWAP1 PUSH1 0x60 PUSH1 0x40 DUP5 ADD MLOAD SWAP4 ADD MLOAD PUSH1 0x0 BYTE SWAP1 PUSH2 0xF51 JUMP JUMPDEST SWAP2 SWAP3 SWAP1 SWAP2 SWAP1 JUMP JUMPDEST POP POP PUSH1 0x0 SWAP2 PUSH1 0x2 SWAP2 SWAP1 JUMP JUMPDEST SWAP2 SWAP1 PUSH32 0x7FFFFFFFFFFFFFFFFFFFFFFFFFFFFFFF5D576E7357A4501DDFE92F46681B20A0 DUP5 GT PUSH2 0xFD5 JUMPI SWAP3 PUSH1 0x20 SWAP3 SWAP2 PUSH1 0xFF PUSH1 0x80 SWAP6 PUSH1 0x40 MLOAD SWAP5 DUP6 MSTORE AND DUP5 DUP5 ADD MSTORE PUSH1 0x40 DUP4 ADD MSTORE PUSH1 0x60 DUP3 ADD MSTORE PUSH1 0x0 SWAP3 DUP4 SWAP2 DUP3 DUP1 MSTORE PUSH1 0x1 GAS STATICCALL ISZERO PUSH2 0xFC9 JUMPI DUP1 MLOAD PUSH1 0x1 PUSH1 0x1 PUSH1 0xA0 SHL SUB DUP2 AND ISZERO PUSH2 0xFC0 JUMPI SWAP2 DUP2 SWAP1 JUMP JUMPDEST POP DUP1 SWAP2 PUSH1 0x1 SWAP2 SWAP1 JUMP JUMPDEST PUSH1 0x40 MLOAD SWAP1 RETURNDATASIZE SWAP1 DUP3 RETURNDATACOPY RETURNDATASIZE SWAP1 REVERT JUMPDEST POP POP POP PUSH1 0x0 SWAP2 PUSH1 0x3 SWAP2 SWAP1 JUMP JUMPDEST PUSH1 0x4 DUP2 LT ISZERO PUSH2 0x1050 JUMPI DUP1 PUSH2 0xFF3 JUMPI POP POP JUMP JUMPDEST PUSH1 0x1 DUP2 SUB PUSH2 0x100D JUMPI PUSH1 0x40 MLOAD PUSH4 0xF645EEDF PUSH1 0xE0 SHL DUP2 MSTORE PUSH1 0x4 SWAP1 REVERT JUMPDEST PUSH1 0x2 DUP2 SUB PUSH2 0x102E JUMPI PUSH1 0x40 MLOAD PUSH4 0xFCE698F7 PUSH1 0xE0 SHL DUP2 MSTORE PUSH1 0x4 DUP2 ADD DUP4 SWAP1 MSTORE PUSH1 0x24 SWAP1 REVERT JUMPDEST PUSH1 0x3 EQ PUSH2 0x1038 JUMPI POP JUMP JUMPDEST PUSH1 0x24 SWAP1 PUSH1 0x40 MLOAD SWAP1 PUSH4 0x35E2F383 PUSH1 0xE2 SHL DUP3 MSTORE PUSH1 0x4 DUP3 ADD MSTORE REVERT JUMPDEST PUSH4 0x4E487B71 PUSH1 0xE0 SHL PUSH1 0x0 MSTORE PUSH1 0x21 PUSH1 0x4 MSTORE PUSH1 0x24 PUSH1 0x0 REVERT INVALID LOG2 PUSH5 0x6970667358 0x22 SLT KECCAK256 0xB3 SHL 0xE5 CALL SWAP7 SIGNEXTEND PUSH10 0x245BE941977D30B93D99 0xD1 CALLDATASIZE 0xB0 DUP3 OR 0x5E 0x4B 0xBC MSIZE 0xEC PUSH18 0x95B5EB3364736F6C63430008140033000000 "},"methodIdentifiers":{"addOwner(address)":"7065cb48","cancelIntent(uint256)":"a0a31aac","changeRequiredSignatures(uint256)":"39f636ab","createIntent(address,uint128,uint32)":"cfac4b31","custodian()":"375b74c3","executeApprovedIntent(uint256,((address,uint256),uint256,uint256),(address,uint256),bytes[])":"0251d17c","intents(uint256)":"46a1a095","isOwnerMapping(address)":"086bb259","nextIntentId()":"9b7b7b1e","ownerIndex(address)":"9f8a64e2","owners(uint256)":"025e7c27","permit2()":"12261ee7","removeOwner(address)":"173825d9","renounceCustodian()":"5d4bc638","replaceCustodian(address)":"f2f4655e","requiredSignatures()":"8d068043","threshold()":"42cde4e8","treasury()":"61d027b3"}}}}}