{"contracts/Treasury.sol":{"Treasury":{"abi":[{"inputs":[{"internalType":"address","name":"_token","type":"address"},{"internalType":"address","name":"_intentsContract","type":"address"},{"internalType":"address","name":"_permit2","type":"address"}],"stateMutability":"nonpayable","type":"constructor"},{"inputs":[],"name":"AmountMustBeGreaterThanZero","type":"error"},{"inputs":[],"name":"InvalidTokenReceived","type":"error"},{"inputs":[],"name":"NotAuthorized","type":"error"},{"inputs":[{"internalType":"address","name":"token","type":"address"}],"name":"SafeERC20FailedOperation","type":"error"},{"anonymous":false,"inputs":[{"indexed":true,"internalType":"address","name":"from","type":"address"},{"indexed":false,"internalType":"uint256","name":"amount","type":"uint256"}],"name":"Deposited","type":"event"},{"inputs":[{"internalType":"uint256","name":"_amount","type":"uint256"}],"name":"deposit","outputs":[],"stateMutability":"nonpayable","type":"function"},{"inputs":[{"components":[{"components":[{"internalType":"address","name":"token","type":"address"},{"internalType":"uint256","name":"amount","type":"uint256"}],"internalType":"struct ISignatureTransfer.TokenPermissions","name":"permitted","type":"tuple"},{"internalType":"uint256","name":"nonce","type":"uint256"},{"internalType":"uint256","name":"deadline","type":"uint256"}],"internalType":"struct ISignatureTransfer.PermitTransferFrom","name":"permit","type":"tuple"},{"components":[{"internalType":"address","name":"to","type":"address"},{"internalType":"uint256","name":"requestedAmount","type":"uint256"}],"internalType":"struct ISignatureTransfer.SignatureTransferDetails","name":"transferDetails","type":"tuple"},{"internalType":"address","name":"owner","type":"address"},{"internalType":"bytes","name":"signature","type":"bytes"}],"name":"depositWithPermit","outputs":[],"stateMutability":"nonpayable","type":"function"},{"inputs":[],"name":"getBalance","outputs":[{"internalType":"uint256","name":"","type":"uint256"}],"stateMutability":"view","type":"function"},{"inputs":[],"name":"intentsContract","outputs":[{"internalType":"address","name":"","type":"address"}],"stateMutability":"view","type":"function"},{"inputs":[],"name":"permit2","outputs":[{"internalType":"contract IPermit2","name":"","type":"address"}],"stateMutability":"view","type":"function"},{"inputs":[],"name":"token","outputs":[{"internalType":"contract IERC20","name":"","type":"address"}],"stateMutability":"view","type":"function"},{"inputs":[{"internalType":"address","name":"to","type":"address"},{"internalType":"uint256","name":"amount","type":"uint256"}],"name":"transfer","outputs":[],"stateMutability":"nonpayable","type":"function"},{"stateMutability":"payable","type":"receive"}],"evm":{"bytecode":{"linkReferences":{},"object":"60a0346100be57601f61074238819003918201601f19168301916001600160401b038311848410176100c3578084926060946040528339810103126100be57610047816100d9565b61005f6040610058602085016100d9565b93016100d9565b6001600160a01b03918216608052600080546001600160a01b031990811694841694909417905560018054909316911617905560405161065490816100ee82396080518181816092015281816101500152818161023b01526104ea0152f35b600080fd5b634e487b7160e01b600052604160045260246000fd5b51906001600160a01b03821682036100be5756fe6080604081815260049182361015610022575b505050361561002057600080fd5b005b600092833560e01c91826312065fe0146104bf5750816312261ee714610496578163598eb23414610287578163a9059cbb146101c8578163b6b55f25146100ec57508063cf2c5259146100c55763fc0c546a1461007f5780610012565b346100c157816003193601126100c157517f00000000000000000000000000000000000000000000000000000000000000006001600160a01b03168152602090f35b5080fd5b50346100c157816003193601126100c157905490516001600160a01b039091168152602090f35b919050346101c45760203660031901126101c45781359182156101b65781516323b872dd60e01b6020820152336024820152306044820152606480820185905281529060a082019067ffffffffffffffff8211838310176101a157508252610174907f00000000000000000000000000000000000000000000000000000000000000006105b6565b519081527f2da466a7b24304f47e87fa2e1e5a81b9831ce54fec19055ce277ca2f39ba42c460203392a280f35b604190634e487b7160e01b6000525260246000fd5b9051635e85ae7360e01b8152fd5b8280fd5b8383346100c157806003193601126100c1576101e261059b565b82549091906001600160a01b0390811633036102775781519263a9059cbb60e01b6020850152166024830152602435604483015260448252608082019082821067ffffffffffffffff8311176102625761025f939450527f00000000000000000000000000000000000000000000000000000000000000006105b6565b80f35b604185634e487b7160e01b6000525260246000fd5b815163ea8e4eb560e01b81528590fd5b9050346101c457366003190191610100918284126104735760808412610473578151906060820167ffffffffffffffff95838210878311176104835784136104775760a08301818110878211176104835784526102e261059b565b81526024356080840152825260208201946044358652868484016064358152856083193601126100c1576001600160a01b0360c435818116999192908a900361047f5760e43598858a11610473573660238b01121561047357898701359186831161047b57366024848d01011161047b57846001541693843b15610477578a5163187945bd60e11b81529951805187168a8c01526020015160248b01525160448a015251606489015260843593841693849003610473578a998880959387938295608484015260a4359d8e60a485015260c484015260e4830152806101048301528060246101249401848401378181018301849052601f01601f191681010301925af1801561046957610420575b5050507f2da466a7b24304f47e87fa2e1e5a81b9831ce54fec19055ce277ca2f39ba42c49160209151908152a280f35b829693961161045657508452928160207f2da466a7b24304f47e87fa2e1e5a81b9831ce54fec19055ce277ca2f39ba42c46103f0565b634e487b7160e01b835260419052602482fd5b84513d89823e3d90fd5b8480fd5b8680fd5b8580fd5b8380fd5b634e487b7160e01b885260418352602488fd5b5050346100c157816003193601126100c15760015490516001600160a01b039091168152602090f35b909291503461047f578360031936011261047f576370a0823160e01b815230838201526020816024817f00000000000000000000000000000000000000000000000000000000000000006001600160a01b03165afa92831561059157849361052c575b6020848451908152f35b909192506020903d8211610589575b601f8201601f191683019067ffffffffffffffff821184831017610576575060209183918552810103126101c4576020925051903880610522565b634e487b7160e01b865260419052602485fd5b3d915061053b565b82513d86823e3d90fd5b600435906001600160a01b03821682036105b157565b600080fd5b906000602091828151910182855af115610612576000513d61060957506001600160a01b0381163b155b6105e75750565b604051635274afe760e01b81526001600160a01b039091166004820152602490fd5b600114156105e0565b6040513d6000823e3d90fdfea264697066735822122041407b67812eba92488705a62f305f9bb65eefcf1def08a25be23b8432fad93f64736f6c63430008140033","opcodes":"PUSH1 0xA0 CALLVALUE PUSH2 0xBE JUMPI PUSH1 0x1F PUSH2 0x742 CODESIZE DUP2 SWAP1 SUB SWAP2 DUP3 ADD PUSH1 0x1F NOT AND DUP4 ADD SWAP2 PUSH1 0x1 PUSH1 0x1 PUSH1 0x40 SHL SUB DUP4 GT DUP5 DUP5 LT OR PUSH2 0xC3 JUMPI DUP1 DUP5 SWAP3 PUSH1 0x60 SWAP5 PUSH1 0x40 MSTORE DUP4 CODECOPY DUP2 ADD SUB SLT PUSH2 0xBE JUMPI PUSH2 0x47 DUP2 PUSH2 0xD9 JUMP JUMPDEST PUSH2 0x5F PUSH1 0x40 PUSH2 0x58 PUSH1 0x20 DUP6 ADD PUSH2 0xD9 JUMP JUMPDEST SWAP4 ADD PUSH2 0xD9 JUMP JUMPDEST PUSH1 0x1 PUSH1 0x1 PUSH1 0xA0 SHL SUB SWAP2 DUP3 AND PUSH1 0x80 MSTORE PUSH1 0x0 DUP1 SLOAD PUSH1 0x1 PUSH1 0x1 PUSH1 0xA0 SHL SUB NOT SWAP1 DUP2 AND SWAP5 DUP5 AND SWAP5 SWAP1 SWAP5 OR SWAP1 SSTORE PUSH1 0x1 DUP1 SLOAD SWAP1 SWAP4 AND SWAP2 AND OR SWAP1 SSTORE PUSH1 0x40 MLOAD PUSH2 0x654 SWAP1 DUP2 PUSH2 0xEE DUP3 CODECOPY PUSH1 0x80 MLOAD DUP2 DUP2 DUP2 PUSH1 0x92 ADD MSTORE DUP2 DUP2 PUSH2 0x150 ADD MSTORE DUP2 DUP2 PUSH2 0x23B ADD MSTORE PUSH2 0x4EA ADD MSTORE RETURN JUMPDEST PUSH1 0x0 DUP1 REVERT JUMPDEST PUSH4 0x4E487B71 PUSH1 0xE0 SHL PUSH1 0x0 MSTORE PUSH1 0x41 PUSH1 0x4 MSTORE PUSH1 0x24 PUSH1 0x0 REVERT JUMPDEST MLOAD SWAP1 PUSH1 0x1 PUSH1 0x1 PUSH1 0xA0 SHL SUB DUP3 AND DUP3 SUB PUSH2 0xBE JUMPI JUMP INVALID PUSH1 0x80 PUSH1 0x40 DUP2 DUP2 MSTORE PUSH1 0x4 SWAP2 DUP3 CALLDATASIZE LT ISZERO PUSH2 0x22 JUMPI JUMPDEST POP POP POP CALLDATASIZE ISZERO PUSH2 0x20 JUMPI PUSH1 0x0 DUP1 REVERT JUMPDEST STOP JUMPDEST PUSH1 0x0 SWAP3 DUP4 CALLDATALOAD PUSH1 0xE0 SHR SWAP2 DUP3 PUSH4 0x12065FE0 EQ PUSH2 0x4BF JUMPI POP DUP2 PUSH4 0x12261EE7 EQ PUSH2 0x496 JUMPI DUP2 PUSH4 0x598EB234 EQ PUSH2 0x287 JUMPI DUP2 PUSH4 0xA9059CBB EQ PUSH2 0x1C8 JUMPI DUP2 PUSH4 0xB6B55F25 EQ PUSH2 0xEC JUMPI POP DUP1 PUSH4 0xCF2C5259 EQ PUSH2 0xC5 JUMPI PUSH4 0xFC0C546A EQ PUSH2 0x7F JUMPI DUP1 PUSH2 0x12 JUMP JUMPDEST CALLVALUE PUSH2 0xC1 JUMPI DUP2 PUSH1 0x3 NOT CALLDATASIZE ADD SLT PUSH2 0xC1 JUMPI MLOAD PUSH32 0x0 PUSH1 0x1 PUSH1 0x1 PUSH1 0xA0 SHL SUB AND DUP2 MSTORE PUSH1 0x20 SWAP1 RETURN JUMPDEST POP DUP1 REVERT JUMPDEST POP CALLVALUE PUSH2 0xC1 JUMPI DUP2 PUSH1 0x3 NOT CALLDATASIZE ADD SLT PUSH2 0xC1 JUMPI SWAP1 SLOAD SWAP1 MLOAD PUSH1 0x1 PUSH1 0x1 PUSH1 0xA0 SHL SUB SWAP1 SWAP2 AND DUP2 MSTORE PUSH1 0x20 SWAP1 RETURN JUMPDEST SWAP2 SWAP1 POP CALLVALUE PUSH2 0x1C4 JUMPI PUSH1 0x20 CALLDATASIZE PUSH1 0x3 NOT ADD SLT PUSH2 0x1C4 JUMPI DUP2 CALLDATALOAD SWAP2 DUP3 ISZERO PUSH2 0x1B6 JUMPI DUP2 MLOAD PUSH4 0x23B872DD PUSH1 0xE0 SHL PUSH1 0x20 DUP3 ADD MSTORE CALLER PUSH1 0x24 DUP3 ADD MSTORE ADDRESS PUSH1 0x44 DUP3 ADD MSTORE PUSH1 0x64 DUP1 DUP3 ADD DUP6 SWAP1 MSTORE DUP2 MSTORE SWAP1 PUSH1 0xA0 DUP3 ADD SWAP1 PUSH8 0xFFFFFFFFFFFFFFFF DUP3 GT DUP4 DUP4 LT OR PUSH2 0x1A1 JUMPI POP DUP3 MSTORE PUSH2 0x174 SWAP1 PUSH32 0x0 PUSH2 0x5B6 JUMP JUMPDEST MLOAD SWAP1 DUP2 MSTORE PUSH32 0x2DA466A7B24304F47E87FA2E1E5A81B9831CE54FEC19055CE277CA2F39BA42C4 PUSH1 0x20 CALLER SWAP3 LOG2 DUP1 RETURN JUMPDEST PUSH1 0x41 SWAP1 PUSH4 0x4E487B71 PUSH1 0xE0 SHL PUSH1 0x0 MSTORE MSTORE PUSH1 0x24 PUSH1 0x0 REVERT JUMPDEST SWAP1 MLOAD PUSH4 0x5E85AE73 PUSH1 0xE0 SHL DUP2 MSTORE REVERT JUMPDEST DUP3 DUP1 REVERT JUMPDEST DUP4 DUP4 CALLVALUE PUSH2 0xC1 JUMPI DUP1 PUSH1 0x3 NOT CALLDATASIZE ADD SLT PUSH2 0xC1 JUMPI PUSH2 0x1E2 PUSH2 0x59B JUMP JUMPDEST DUP3 SLOAD SWAP1 SWAP2 SWAP1 PUSH1 0x1 PUSH1 0x1 PUSH1 0xA0 SHL SUB SWAP1 DUP2 AND CALLER SUB PUSH2 0x277 JUMPI DUP2 MLOAD SWAP3 PUSH4 0xA9059CBB PUSH1 0xE0 SHL PUSH1 0x20 DUP6 ADD MSTORE AND PUSH1 0x24 DUP4 ADD MSTORE PUSH1 0x24 CALLDATALOAD PUSH1 0x44 DUP4 ADD MSTORE PUSH1 0x44 DUP3 MSTORE PUSH1 0x80 DUP3 ADD SWAP1 DUP3 DUP3 LT PUSH8 0xFFFFFFFFFFFFFFFF DUP4 GT OR PUSH2 0x262 JUMPI PUSH2 0x25F SWAP4 SWAP5 POP MSTORE PUSH32 0x0 PUSH2 0x5B6 JUMP JUMPDEST DUP1 RETURN JUMPDEST PUSH1 0x41 DUP6 PUSH4 0x4E487B71 PUSH1 0xE0 SHL PUSH1 0x0 MSTORE MSTORE PUSH1 0x24 PUSH1 0x0 REVERT JUMPDEST DUP2 MLOAD PUSH4 0xEA8E4EB5 PUSH1 0xE0 SHL DUP2 MSTORE DUP6 SWAP1 REVERT JUMPDEST SWAP1 POP CALLVALUE PUSH2 0x1C4 JUMPI CALLDATASIZE PUSH1 0x3 NOT ADD SWAP2 PUSH2 0x100 SWAP2 DUP3 DUP5 SLT PUSH2 0x473 JUMPI PUSH1 0x80 DUP5 SLT PUSH2 0x473 JUMPI DUP2 MLOAD SWAP1 PUSH1 0x60 DUP3 ADD PUSH8 0xFFFFFFFFFFFFFFFF SWAP6 DUP4 DUP3 LT DUP8 DUP4 GT OR PUSH2 0x483 JUMPI DUP5 SGT PUSH2 0x477 JUMPI PUSH1 0xA0 DUP4 ADD DUP2 DUP2 LT DUP8 DUP3 GT OR PUSH2 0x483 JUMPI DUP5 MSTORE PUSH2 0x2E2 PUSH2 0x59B JUMP JUMPDEST DUP2 MSTORE PUSH1 0x24 CALLDATALOAD PUSH1 0x80 DUP5 ADD MSTORE DUP3 MSTORE PUSH1 0x20 DUP3 ADD SWAP5 PUSH1 0x44 CALLDATALOAD DUP7 MSTORE DUP7 DUP5 DUP5 ADD PUSH1 0x64 CALLDATALOAD DUP2 MSTORE DUP6 PUSH1 0x83 NOT CALLDATASIZE ADD SLT PUSH2 0xC1 JUMPI PUSH1 0x1 PUSH1 0x1 PUSH1 0xA0 SHL SUB PUSH1 0xC4 CALLDATALOAD DUP2 DUP2 AND SWAP10 SWAP2 SWAP3 SWAP1 DUP11 SWAP1 SUB PUSH2 0x47F JUMPI PUSH1 0xE4 CALLDATALOAD SWAP9 DUP6 DUP11 GT PUSH2 0x473 JUMPI CALLDATASIZE PUSH1 0x23 DUP12 ADD SLT ISZERO PUSH2 0x473 JUMPI DUP10 DUP8 ADD CALLDATALOAD SWAP2 DUP7 DUP4 GT PUSH2 0x47B JUMPI CALLDATASIZE PUSH1 0x24 DUP5 DUP14 ADD ADD GT PUSH2 0x47B JUMPI DUP5 PUSH1 0x1 SLOAD AND SWAP4 DUP5 EXTCODESIZE ISZERO PUSH2 0x477 JUMPI DUP11 MLOAD PUSH4 0x187945BD PUSH1 0xE1 SHL DUP2 MSTORE SWAP10 MLOAD DUP1 MLOAD DUP8 AND DUP11 DUP13 ADD MSTORE PUSH1 0x20 ADD MLOAD PUSH1 0x24 DUP12 ADD MSTORE MLOAD PUSH1 0x44 DUP11 ADD MSTORE MLOAD PUSH1 0x64 DUP10 ADD MSTORE PUSH1 0x84 CALLDATALOAD SWAP4 DUP5 AND SWAP4 DUP5 SWAP1 SUB PUSH2 0x473 JUMPI DUP11 SWAP10 DUP9 DUP1 SWAP6 SWAP4 DUP8 SWAP4 DUP3 SWAP6 PUSH1 0x84 DUP5 ADD MSTORE PUSH1 0xA4 CALLDATALOAD SWAP14 DUP15 PUSH1 0xA4 DUP6 ADD MSTORE PUSH1 0xC4 DUP5 ADD MSTORE PUSH1 0xE4 DUP4 ADD MSTORE DUP1 PUSH2 0x104 DUP4 ADD MSTORE DUP1 PUSH1 0x24 PUSH2 0x124 SWAP5 ADD DUP5 DUP5 ADD CALLDATACOPY DUP2 DUP2 ADD DUP4 ADD DUP5 SWAP1 MSTORE PUSH1 0x1F ADD PUSH1 0x1F NOT AND DUP2 ADD SUB ADD SWAP3 GAS CALL DUP1 ISZERO PUSH2 0x469 JUMPI PUSH2 0x420 JUMPI JUMPDEST POP POP POP PUSH32 0x2DA466A7B24304F47E87FA2E1E5A81B9831CE54FEC19055CE277CA2F39BA42C4 SWAP2 PUSH1 0x20 SWAP2 MLOAD SWAP1 DUP2 MSTORE LOG2 DUP1 RETURN JUMPDEST DUP3 SWAP7 SWAP4 SWAP7 GT PUSH2 0x456 JUMPI POP DUP5 MSTORE SWAP3 DUP2 PUSH1 0x20 PUSH32 0x2DA466A7B24304F47E87FA2E1E5A81B9831CE54FEC19055CE277CA2F39BA42C4 PUSH2 0x3F0 JUMP JUMPDEST PUSH4 0x4E487B71 PUSH1 0xE0 SHL DUP4 MSTORE PUSH1 0x41 SWAP1 MSTORE PUSH1 0x24 DUP3 REVERT JUMPDEST DUP5 MLOAD RETURNDATASIZE DUP10 DUP3 RETURNDATACOPY RETURNDATASIZE SWAP1 REVERT JUMPDEST DUP5 DUP1 REVERT JUMPDEST DUP7 DUP1 REVERT JUMPDEST DUP6 DUP1 REVERT JUMPDEST DUP4 DUP1 REVERT JUMPDEST PUSH4 0x4E487B71 PUSH1 0xE0 SHL DUP9 MSTORE PUSH1 0x41 DUP4 MSTORE PUSH1 0x24 DUP9 REVERT JUMPDEST POP POP CALLVALUE PUSH2 0xC1 JUMPI DUP2 PUSH1 0x3 NOT CALLDATASIZE ADD SLT PUSH2 0xC1 JUMPI PUSH1 0x1 SLOAD SWAP1 MLOAD PUSH1 0x1 PUSH1 0x1 PUSH1 0xA0 SHL SUB SWAP1 SWAP2 AND DUP2 MSTORE PUSH1 0x20 SWAP1 RETURN JUMPDEST SWAP1 SWAP3 SWAP2 POP CALLVALUE PUSH2 0x47F JUMPI DUP4 PUSH1 0x3 NOT CALLDATASIZE ADD SLT PUSH2 0x47F JUMPI PUSH4 0x70A08231 PUSH1 0xE0 SHL DUP2 MSTORE ADDRESS DUP4 DUP3 ADD MSTORE PUSH1 0x20 DUP2 PUSH1 0x24 DUP2 PUSH32 0x0 PUSH1 0x1 PUSH1 0x1 PUSH1 0xA0 SHL SUB AND GAS STATICCALL SWAP3 DUP4 ISZERO PUSH2 0x591 JUMPI DUP5 SWAP4 PUSH2 0x52C JUMPI JUMPDEST PUSH1 0x20 DUP5 DUP5 MLOAD SWAP1 DUP2 MSTORE RETURN JUMPDEST SWAP1 SWAP2 SWAP3 POP PUSH1 0x20 SWAP1 RETURNDATASIZE DUP3 GT PUSH2 0x589 JUMPI JUMPDEST PUSH1 0x1F DUP3 ADD PUSH1 0x1F NOT AND DUP4 ADD SWAP1 PUSH8 0xFFFFFFFFFFFFFFFF DUP3 GT DUP5 DUP4 LT OR PUSH2 0x576 JUMPI POP PUSH1 0x20 SWAP2 DUP4 SWAP2 DUP6 MSTORE DUP2 ADD SUB SLT PUSH2 0x1C4 JUMPI PUSH1 0x20 SWAP3 POP MLOAD SWAP1 CODESIZE DUP1 PUSH2 0x522 JUMP JUMPDEST PUSH4 0x4E487B71 PUSH1 0xE0 SHL DUP7 MSTORE PUSH1 0x41 SWAP1 MSTORE PUSH1 0x24 DUP6 REVERT JUMPDEST RETURNDATASIZE SWAP2 POP PUSH2 0x53B JUMP JUMPDEST DUP3 MLOAD RETURNDATASIZE DUP7 DUP3 RETURNDATACOPY RETURNDATASIZE SWAP1 REVERT JUMPDEST PUSH1 0x4 CALLDATALOAD SWAP1 PUSH1 0x1 PUSH1 0x1 PUSH1 0xA0 SHL SUB DUP3 AND DUP3 SUB PUSH2 0x5B1 JUMPI JUMP JUMPDEST PUSH1 0x0 DUP1 REVERT JUMPDEST SWAP1 PUSH1 0x0 PUSH1 0x20 SWAP2 DUP3 DUP2 MLOAD SWAP2 ADD DUP3 DUP6 GAS CALL ISZERO PUSH2 0x612 JUMPI PUSH1 0x0 MLOAD RETURNDATASIZE PUSH2 0x609 JUMPI POP PUSH1 0x1 PUSH1 0x1 PUSH1 0xA0 SHL SUB DUP2 AND EXTCODESIZE ISZERO JUMPDEST PUSH2 0x5E7 JUMPI POP JUMP JUMPDEST PUSH1 0x40 MLOAD PUSH4 0x5274AFE7 PUSH1 0xE0 SHL DUP2 MSTORE PUSH1 0x1 PUSH1 0x1 PUSH1 0xA0 SHL SUB SWAP1 SWAP2 AND PUSH1 0x4 DUP3 ADD MSTORE PUSH1 0x24 SWAP1 REVERT JUMPDEST PUSH1 0x1 EQ ISZERO PUSH2 0x5E0 JUMP JUMPDEST PUSH1 0x40 MLOAD RETURNDATASIZE PUSH1 0x0 DUP3 RETURNDATACOPY RETURNDATASIZE SWAP1 REVERT INVALID LOG2 PUSH5 0x6970667358 0x22 SLT KECCAK256 COINBASE BLOCKHASH PUSH28 0x67812EBA92488705A62F305F9BB65EEFCF1DEF08A25BE23B8432FAD9 EXTCODEHASH PUSH5 0x736F6C6343 STOP ADDMOD EQ STOP CALLER "},"methodIdentifiers":{"deposit(uint256)":"b6b55f25","depositWithPermit(((address,uint256),uint256,uint256),(address,uint256),address,bytes)":"598eb234","getBalance()":"12065fe0","intentsContract()":"cf2c5259","permit2()":"12261ee7","token()":"fc0c546a","transfer(address,uint256)":"a9059cbb"}}}}}