{"contracts/permit2/AllowanceTransfer.sol":{"AllowanceTransfer":{"abi":[{"inputs":[{"internalType":"uint256","name":"deadline","type":"uint256"}],"name":"AllowanceExpired","type":"error"},{"inputs":[],"name":"ExcessiveInvalidation","type":"error"},{"inputs":[{"internalType":"uint256","name":"amount","type":"uint256"}],"name":"InsufficientAllowance","type":"error"},{"inputs":[],"name":"InvalidContractSignature","type":"error"},{"inputs":[],"name":"InvalidNonce","type":"error"},{"inputs":[],"name":"InvalidSignature","type":"error"},{"inputs":[],"name":"InvalidSignatureLength","type":"error"},{"inputs":[],"name":"InvalidSigner","type":"error"},{"inputs":[{"internalType":"uint256","name":"signatureDeadline","type":"uint256"}],"name":"SignatureExpired","type":"error"},{"anonymous":false,"inputs":[{"indexed":true,"internalType":"address","name":"owner","type":"address"},{"indexed":true,"internalType":"address","name":"token","type":"address"},{"indexed":true,"internalType":"address","name":"spender","type":"address"},{"indexed":false,"internalType":"uint160","name":"amount","type":"uint160"},{"indexed":false,"internalType":"uint48","name":"expiration","type":"uint48"}],"name":"Approval","type":"event"},{"anonymous":false,"inputs":[{"indexed":true,"internalType":"address","name":"owner","type":"address"},{"indexed":false,"internalType":"address","name":"token","type":"address"},{"indexed":false,"internalType":"address","name":"spender","type":"address"}],"name":"Lockdown","type":"event"},{"anonymous":false,"inputs":[{"indexed":true,"internalType":"address","name":"owner","type":"address"},{"indexed":true,"internalType":"address","name":"token","type":"address"},{"indexed":true,"internalType":"address","name":"spender","type":"address"},{"indexed":false,"internalType":"uint48","name":"newNonce","type":"uint48"},{"indexed":false,"internalType":"uint48","name":"oldNonce","type":"uint48"}],"name":"NonceInvalidation","type":"event"},{"anonymous":false,"inputs":[{"indexed":true,"internalType":"address","name":"owner","type":"address"},{"indexed":true,"internalType":"address","name":"token","type":"address"},{"indexed":true,"internalType":"address","name":"spender","type":"address"},{"indexed":false,"internalType":"uint160","name":"amount","type":"uint160"},{"indexed":false,"internalType":"uint48","name":"expiration","type":"uint48"},{"indexed":false,"internalType":"uint48","name":"nonce","type":"uint48"}],"name":"Permit","type":"event"},{"inputs":[],"name":"DOMAIN_SEPARATOR","outputs":[{"internalType":"bytes32","name":"","type":"bytes32"}],"stateMutability":"view","type":"function"},{"inputs":[{"internalType":"address","name":"","type":"address"},{"internalType":"address","name":"","type":"address"},{"internalType":"address","name":"","type":"address"}],"name":"allowance","outputs":[{"internalType":"uint160","name":"amount","type":"uint160"},{"internalType":"uint48","name":"expiration","type":"uint48"},{"internalType":"uint48","name":"nonce","type":"uint48"}],"stateMutability":"view","type":"function"},{"inputs":[{"internalType":"address","name":"token","type":"address"},{"internalType":"address","name":"spender","type":"address"},{"internalType":"uint160","name":"amount","type":"uint160"},{"internalType":"uint48","name":"expiration","type":"uint48"}],"name":"approve","outputs":[],"stateMutability":"nonpayable","type":"function"},{"inputs":[{"internalType":"address","name":"token","type":"address"},{"internalType":"address","name":"spender","type":"address"},{"internalType":"uint48","name":"newNonce","type":"uint48"}],"name":"invalidateNonces","outputs":[],"stateMutability":"nonpayable","type":"function"},{"inputs":[{"components":[{"internalType":"address","name":"token","type":"address"},{"internalType":"address","name":"spender","type":"address"}],"internalType":"struct IAllowanceTransfer.TokenSpenderPair[]","name":"approvals","type":"tuple[]"}],"name":"lockdown","outputs":[],"stateMutability":"nonpayable","type":"function"},{"inputs":[{"internalType":"address","name":"owner","type":"address"},{"components":[{"components":[{"internalType":"address","name":"token","type":"address"},{"internalType":"uint160","name":"amount","type":"uint160"},{"internalType":"uint48","name":"expiration","type":"uint48"},{"internalType":"uint48","name":"nonce","type":"uint48"}],"internalType":"struct IAllowanceTransfer.PermitDetails[]","name":"details","type":"tuple[]"},{"internalType":"address","name":"spender","type":"address"},{"internalType":"uint256","name":"sigDeadline","type":"uint256"}],"internalType":"struct IAllowanceTransfer.PermitBatch","name":"permitBatch","type":"tuple"},{"internalType":"bytes","name":"signature","type":"bytes"}],"name":"permit","outputs":[],"stateMutability":"nonpayable","type":"function"},{"inputs":[{"internalType":"address","name":"owner","type":"address"},{"components":[{"components":[{"internalType":"address","name":"token","type":"address"},{"internalType":"uint160","name":"amount","type":"uint160"},{"internalType":"uint48","name":"expiration","type":"uint48"},{"internalType":"uint48","name":"nonce","type":"uint48"}],"internalType":"struct IAllowanceTransfer.PermitDetails","name":"details","type":"tuple"},{"internalType":"address","name":"spender","type":"address"},{"internalType":"uint256","name":"sigDeadline","type":"uint256"}],"internalType":"struct IAllowanceTransfer.PermitSingle","name":"permitSingle","type":"tuple"},{"internalType":"bytes","name":"signature","type":"bytes"}],"name":"permit","outputs":[],"stateMutability":"nonpayable","type":"function"},{"inputs":[{"components":[{"internalType":"address","name":"from","type":"address"},{"internalType":"address","name":"to","type":"address"},{"internalType":"uint160","name":"amount","type":"uint160"},{"internalType":"address","name":"token","type":"address"}],"internalType":"struct IAllowanceTransfer.AllowanceTransferDetails[]","name":"transferDetails","type":"tuple[]"}],"name":"transferFrom","outputs":[],"stateMutability":"nonpayable","type":"function"},{"inputs":[{"internalType":"address","name":"from","type":"address"},{"internalType":"address","name":"to","type":"address"},{"internalType":"uint160","name":"amount","type":"uint160"},{"internalType":"address","name":"token","type":"address"}],"name":"transferFrom","outputs":[],"stateMutability":"nonpayable","type":"function"}],"evm":{"bytecode":{"linkReferences":{},"object":"60c0346100bb574660a052602081017f8cad95687ba82c2ce50e74f7b754645e5117c3a5bec8151c0726d5857980a86681527f9ac997416e8ff9d2ff6bebeb7149f65cdae5e32e2b90440b566bb3044041d36a60408301524660608301523060808301526080825260a082019180831060018060401b038411176100a557826040525190206080526110f490816100c1823960805181610d84015260a05181610d5e0152f35b634e487b7160e01b600052604160045260246000fd5b600080fdfe6080604052600436101561001257600080fd5b60003560e01c80630d58b1db146108ae5780632a2d80d1146105f35780632b67b570146104775780633644e5151461045457806336c785161461040c57806365d9723c146102ef57806387517c4514610209578063927da105146101885763cc53287f1461007f57600080fd5b34610183576020806003193601126101835767ffffffffffffffff906004358281116101835736602382011215610183578060040135928311610183576024810190602436918560061b0101116101835760005b8381106100dc57005b806100f26100ed6001938786610c2d565b610c3d565b61010785610101848988610c2d565b01610c3d565b3360005260008652604060002091848060a01b0380911692836000528752604060002091169081600052865260406000206bffffffffffffffffffffffff60a01b8154169055604051918252858201527f89b1add15eff56b3dfe299ad94e01f2b52fbcb80ae1a3baea6ae8c04cb2b98a460403392a2016100d3565b600080fd5b34610183576060366003190112610183576101a161098f565b6101a96109a5565b6101b16109bb565b6001600160a01b0392831660009081526020818152604080832094861683529381528382209285168252918252829020548251938116845265ffffffffffff60a082901c169184019190915260d01c90820152606090f35b346101835760803660031901126101835761022261098f565b61022a6109a5565b906102336109bb565b65ffffffffffff91606435838116918282036101835733600052600060205260406000209460018060a01b0380921695866000526020528160406000209716968760005260205260406000209284156000146102e757504216905b8254941693849165ffffffffffff60a01b9060a01b169065ffffffffffff60d01b161717905560405191825260208201527fda9fa7c1b00402c17d0161b249b1ab8bbec047c5a52207b9c112deffd817036b60403392a4005b90509061028e565b346101835760603660031901126101835761030861098f565b6103106109a5565b9060443565ffffffffffff8082169182810361018357336000526020906000825260406000209460018060a01b0380911695866000528352604060002096169586600052825260406000205460d01c92838511156103fa5761ffff9084830316116103e85733600052600082526040600020856000528252604060002086600052825260406000209081549065ffffffffffff60d01b9060d01b169060018060d01b03161790556040519283528201527f55eb90d810e1700b35a8e7e25395ff7f2b2259abd7415ca2284dfb1c246418f360403392a4005b604051631269ad1360e11b8152600490fd5b604051633ab3447f60e11b8152600490fd5b346101835760803660031901126101835761042561098f565b61042d6109a5565b6104356109bb565b606435916001600160a01b03831683036101835761045293610af4565b005b3461018357600036600319011261018357602061046f610d5b565b604051908152f35b34610183576101003660031901126101835761049161098f565b36602319019060c08212610183576080604051926104ae84610a17565b1261018357604051906104c0826109e5565b6001600160a01b03916024358381168103610183578152604435838116810361018357602082015265ffffffffffff60643581811681036101835760408301526084359081168103610183576060820152835260a435918083168303610183576020840192835260c435936040810185815260e43567ffffffffffffffff811161018357610552903690600401610a9c565b9190968042116105db5750610452966105d1926105cb87936105748751610e47565b90888b511690516040519160208301937ff3841cd1ff0085026a6327b620b67997ce40f282c88a8e905a7a5626e310f3d08552604084015260608301526080820152608081526105c381610a33565b519020610e16565b91610ee5565b5192511691610c51565b6024906040519063cd21db4f60e01b82526004820152fd5b34610183576003196060368201126101835761060d61098f565b906024359067ffffffffffffffff90818311610183576060908336030112610183576040519161063c83610a17565b80600401358281116101835781013660238201121561018357600481013561066381610a71565b916106716040519384610a4f565b8183526024602084019260071b8201019036821161018357602401915b81831061084c5750505083526044906106a9602482016109d1565b6020850152013590816040840152604435908111610183576106cf903690600401610a9c565b918042116105db575083835151916106e683610a71565b926106f46040519485610a4f565b808452601f1961070382610a71565b0136602086013760005b8181106107fc575050604051602081019081602086519196019060005b8181106107e35750505061074a816107ad9603601f198101835282610a4f565b519020936105cb60018060a01b03958660208901511660408901516040519160208301937faf1b0d30d2cab0380e68f0689007e3254993c596f2fdd0aaa7f4d04f794408638552604084015260608301526080820152608081526105c381610a33565b602082015116908051519160005b8381106107c457005b806107dd83876107d76001958851610aca565b51610c51565b016107bb565b825188526020978801978b97509092019160010161072a565b909193925061081561080f828851610aca565b51610e47565b61081f8285610aca565b52600019811461083657600101908692939161070d565b634e487b7160e01b600052601160045260246000fd5b608083360312610183576020608091604051610867816109e5565b610870866109d1565b815261087d8387016109d1565b8382015261088d60408701610a89565b604082015261089e60608701610a89565b606082015281520192019161068e565b34610183576020806003193601126101835767ffffffffffffffff6004358181116101835736602382011215610183578060040135918211610183576024906007368385831b840101116101835760005b84811061090857005b80821b830190608060231983360301126101835761098960019260405161092e816109e5565b6109398883016109d1565b808252606061094a604485016109d1565b92838d82015261096e6084610961606488016109d1565b96876040850152016109d1565b9182910152868060a01b038080809316951693169116610af4565b016108ff565b600435906001600160a01b038216820361018357565b602435906001600160a01b038216820361018357565b604435906001600160a01b038216820361018357565b35906001600160a01b038216820361018357565b6080810190811067ffffffffffffffff821117610a0157604052565b634e487b7160e01b600052604160045260246000fd5b6060810190811067ffffffffffffffff821117610a0157604052565b60a0810190811067ffffffffffffffff821117610a0157604052565b90601f8019910116810190811067ffffffffffffffff821117610a0157604052565b67ffffffffffffffff8111610a015760051b60200190565b359065ffffffffffff8216820361018357565b9181601f840112156101835782359167ffffffffffffffff8311610183576020838186019501011161018357565b8051821015610ade5760209160051b010190565b634e487b7160e01b600052603260045260246000fd5b909260018060a01b038092169060009282845283602052604094818686209316928386526020528585203386526020528585209687549765ffffffffffff8960a01c16804211610c16575083891698848a03610bce575b505086975092828697928796946064966020999551966323b872dd60e01b885260048801521660248601521660448401525af19051600114601f3d11163d15171615610b945750565b5162461bcd60e51b81526020600482015260146024820152731514905394d1915497d19493d357d1905253115160621b6044820152606490fd5b8985851611600014610bf257885163f96fb07160e01b8152600481018b9052602490fd5b6001600160a01b031916988390038416989098179097559495869590826020610b4b565b602490895190636c0d979760e11b82526004820152fd5b9190811015610ade5760061b0190565b356001600160a01b03811681036101835790565b9065ffffffffffff908160608401511660018060a01b039081855116948260208201511692808660408094015116951695600091878352826020528383208984526020528383209916988983526020528282209184835460d01c03610d4a579185610d3e94927fc6a377bfc4eb120024a8ac08eef205be16b817020812c73223e81d1bdb9708ec98979694508715600014610d435742165b6001850160d01b6001600160d01b03191660a09190911b65ffffffffffff60a01b1617179055516001600160a01b03909316835265ffffffffffff938416602084015290921660408201529081906060820190565b0390a4565b5086610ce9565b8351633ab3447f60e11b8152600490fd5b467f000000000000000000000000000000000000000000000000000000000000000003610da6577f000000000000000000000000000000000000000000000000000000000000000090565b60405160208101907f8cad95687ba82c2ce50e74f7b754645e5117c3a5bec8151c0726d5857980a86682527f9ac997416e8ff9d2ff6bebeb7149f65cdae5e32e2b90440b566bb3044041d36a604082015246606082015230608082015260808152610e1081610a33565b51902090565b610e1e610d5b565b9060405190602082019261190160f01b84526022830152604282015260428152610e10816109e5565b60405160208101917f65626cad6cb96493bf6f5ebea28756c966f023ab9e8a83a7101849d5573b3678835260018060a01b038082511660408401526020820151166060830152606065ffffffffffff9182604082015116608085015201511660a082015260a0815260c0810181811067ffffffffffffffff821117610a015760405251902090565b9190826040910312610183576020823592013590565b6000843b610fde575060418203610f8e57610f0282820182610ecf565b93909260401015610ade5760209360009360ff6040608095013560f81c5b60405194855216868401526040830152606082015282805260015afa15610f82576000516001600160a01b03908116918215610f70571603610f5e57565b604051632057875960e21b8152600490fd5b604051638baa579f60e01b8152600490fd5b6040513d6000823e3d90fd5b60408203610fcc57610fa291810190610ecf565b6001600160ff1b0381169260ff91821c601b019182116108365760209360009360ff608094610f20565b604051634be6321b60e01b8152600490fd5b918093946020926064604051809781958294630b135d3f60e11b9b8c8552600485015260406024850152816044850152848401378181018301889052601f01601f191681010301916001600160a01b03165afa9182156110b1578192611064575b50506001600160e01b0319160361105257565b604051632c19a72f60e21b8152600490fd5b9091506020813d82116110a9575b8161107f60209383610a4f565b810103126110a55751906001600160e01b0319821682036110a25750388061103f565b80fd5b5080fd5b3d9150611072565b50604051903d90823e3d90fdfea2646970667358221220125951e110821a039342cb09a014cf9cf22a18a8eff669ed5395f63545c17e4264736f6c63430008140033","opcodes":"PUSH1 0xC0 CALLVALUE PUSH2 0xBB JUMPI CHAINID PUSH1 0xA0 MSTORE PUSH1 0x20 DUP2 ADD PUSH32 0x8CAD95687BA82C2CE50E74F7B754645E5117C3A5BEC8151C0726D5857980A866 DUP2 MSTORE PUSH32 0x9AC997416E8FF9D2FF6BEBEB7149F65CDAE5E32E2B90440B566BB3044041D36A PUSH1 0x40 DUP4 ADD MSTORE CHAINID PUSH1 0x60 DUP4 ADD MSTORE ADDRESS PUSH1 0x80 DUP4 ADD MSTORE PUSH1 0x80 DUP3 MSTORE PUSH1 0xA0 DUP3 ADD SWAP2 DUP1 DUP4 LT PUSH1 0x1 DUP1 PUSH1 0x40 SHL SUB DUP5 GT OR PUSH2 0xA5 JUMPI DUP3 PUSH1 0x40 MSTORE MLOAD SWAP1 KECCAK256 PUSH1 0x80 MSTORE PUSH2 0x10F4 SWAP1 DUP2 PUSH2 0xC1 DUP3 CODECOPY PUSH1 0x80 MLOAD DUP2 PUSH2 0xD84 ADD MSTORE PUSH1 0xA0 MLOAD DUP2 PUSH2 0xD5E ADD MSTORE RETURN JUMPDEST PUSH4 0x4E487B71 PUSH1 0xE0 SHL PUSH1 0x0 MSTORE PUSH1 0x41 PUSH1 0x4 MSTORE PUSH1 0x24 PUSH1 0x0 REVERT JUMPDEST PUSH1 0x0 DUP1 REVERT INVALID PUSH1 0x80 PUSH1 0x40 MSTORE PUSH1 0x4 CALLDATASIZE LT ISZERO PUSH2 0x12 JUMPI PUSH1 0x0 DUP1 REVERT JUMPDEST PUSH1 0x0 CALLDATALOAD PUSH1 0xE0 SHR DUP1 PUSH4 0xD58B1DB EQ PUSH2 0x8AE JUMPI DUP1 PUSH4 0x2A2D80D1 EQ PUSH2 0x5F3 JUMPI DUP1 PUSH4 0x2B67B570 EQ PUSH2 0x477 JUMPI DUP1 PUSH4 0x3644E515 EQ PUSH2 0x454 JUMPI DUP1 PUSH4 0x36C78516 EQ PUSH2 0x40C JUMPI DUP1 PUSH4 0x65D9723C EQ PUSH2 0x2EF JUMPI DUP1 PUSH4 0x87517C45 EQ PUSH2 0x209 JUMPI DUP1 PUSH4 0x927DA105 EQ PUSH2 0x188 JUMPI PUSH4 0xCC53287F EQ PUSH2 0x7F JUMPI PUSH1 0x0 DUP1 REVERT JUMPDEST CALLVALUE PUSH2 0x183 JUMPI PUSH1 0x20 DUP1 PUSH1 0x3 NOT CALLDATASIZE ADD SLT PUSH2 0x183 JUMPI PUSH8 0xFFFFFFFFFFFFFFFF SWAP1 PUSH1 0x4 CALLDATALOAD DUP3 DUP2 GT PUSH2 0x183 JUMPI CALLDATASIZE PUSH1 0x23 DUP3 ADD SLT ISZERO PUSH2 0x183 JUMPI DUP1 PUSH1 0x4 ADD CALLDATALOAD SWAP3 DUP4 GT PUSH2 0x183 JUMPI PUSH1 0x24 DUP2 ADD SWAP1 PUSH1 0x24 CALLDATASIZE SWAP2 DUP6 PUSH1 0x6 SHL ADD ADD GT PUSH2 0x183 JUMPI PUSH1 0x0 JUMPDEST DUP4 DUP2 LT PUSH2 0xDC JUMPI STOP JUMPDEST DUP1 PUSH2 0xF2 PUSH2 0xED PUSH1 0x1 SWAP4 DUP8 DUP7 PUSH2 0xC2D JUMP JUMPDEST PUSH2 0xC3D JUMP JUMPDEST PUSH2 0x107 DUP6 PUSH2 0x101 DUP5 DUP10 DUP9 PUSH2 0xC2D JUMP JUMPDEST ADD PUSH2 0xC3D JUMP JUMPDEST CALLER PUSH1 0x0 MSTORE PUSH1 0x0 DUP7 MSTORE PUSH1 0x40 PUSH1 0x0 KECCAK256 SWAP2 DUP5 DUP1 PUSH1 0xA0 SHL SUB DUP1 SWAP2 AND SWAP3 DUP4 PUSH1 0x0 MSTORE DUP8 MSTORE PUSH1 0x40 PUSH1 0x0 KECCAK256 SWAP2 AND SWAP1 DUP2 PUSH1 0x0 MSTORE DUP7 MSTORE PUSH1 0x40 PUSH1 0x0 KECCAK256 PUSH12 0xFFFFFFFFFFFFFFFFFFFFFFFF PUSH1 0xA0 SHL DUP2 SLOAD AND SWAP1 SSTORE PUSH1 0x40 MLOAD SWAP2 DUP3 MSTORE DUP6 DUP3 ADD MSTORE PUSH32 0x89B1ADD15EFF56B3DFE299AD94E01F2B52FBCB80AE1A3BAEA6AE8C04CB2B98A4 PUSH1 0x40 CALLER SWAP3 LOG2 ADD PUSH2 0xD3 JUMP JUMPDEST PUSH1 0x0 DUP1 REVERT JUMPDEST CALLVALUE PUSH2 0x183 JUMPI PUSH1 0x60 CALLDATASIZE PUSH1 0x3 NOT ADD SLT PUSH2 0x183 JUMPI PUSH2 0x1A1 PUSH2 0x98F JUMP JUMPDEST PUSH2 0x1A9 PUSH2 0x9A5 JUMP JUMPDEST PUSH2 0x1B1 PUSH2 0x9BB JUMP JUMPDEST PUSH1 0x1 PUSH1 0x1 PUSH1 0xA0 SHL SUB SWAP3 DUP4 AND PUSH1 0x0 SWAP1 DUP2 MSTORE PUSH1 0x20 DUP2 DUP2 MSTORE PUSH1 0x40 DUP1 DUP4 KECCAK256 SWAP5 DUP7 AND DUP4 MSTORE SWAP4 DUP2 MSTORE DUP4 DUP3 KECCAK256 SWAP3 DUP6 AND DUP3 MSTORE SWAP2 DUP3 MSTORE DUP3 SWAP1 KECCAK256 SLOAD DUP3 MLOAD SWAP4 DUP2 AND DUP5 MSTORE PUSH6 0xFFFFFFFFFFFF PUSH1 0xA0 DUP3 SWAP1 SHR AND SWAP2 DUP5 ADD SWAP2 SWAP1 SWAP2 MSTORE PUSH1 0xD0 SHR SWAP1 DUP3 ADD MSTORE PUSH1 0x60 SWAP1 RETURN JUMPDEST CALLVALUE PUSH2 0x183 JUMPI PUSH1 0x80 CALLDATASIZE PUSH1 0x3 NOT ADD SLT PUSH2 0x183 JUMPI PUSH2 0x222 PUSH2 0x98F JUMP JUMPDEST PUSH2 0x22A PUSH2 0x9A5 JUMP JUMPDEST SWAP1 PUSH2 0x233 PUSH2 0x9BB JUMP JUMPDEST PUSH6 0xFFFFFFFFFFFF SWAP2 PUSH1 0x64 CALLDATALOAD DUP4 DUP2 AND SWAP2 DUP3 DUP3 SUB PUSH2 0x183 JUMPI CALLER PUSH1 0x0 MSTORE PUSH1 0x0 PUSH1 0x20 MSTORE PUSH1 0x40 PUSH1 0x0 KECCAK256 SWAP5 PUSH1 0x1 DUP1 PUSH1 0xA0 SHL SUB DUP1 SWAP3 AND SWAP6 DUP7 PUSH1 0x0 MSTORE PUSH1 0x20 MSTORE DUP2 PUSH1 0x40 PUSH1 0x0 KECCAK256 SWAP8 AND SWAP7 DUP8 PUSH1 0x0 MSTORE PUSH1 0x20 MSTORE PUSH1 0x40 PUSH1 0x0 KECCAK256 SWAP3 DUP5 ISZERO PUSH1 0x0 EQ PUSH2 0x2E7 JUMPI POP TIMESTAMP AND SWAP1 JUMPDEST DUP3 SLOAD SWAP5 AND SWAP4 DUP5 SWAP2 PUSH6 0xFFFFFFFFFFFF PUSH1 0xA0 SHL SWAP1 PUSH1 0xA0 SHL AND SWAP1 PUSH6 0xFFFFFFFFFFFF PUSH1 0xD0 SHL AND OR OR SWAP1 SSTORE PUSH1 0x40 MLOAD SWAP2 DUP3 MSTORE PUSH1 0x20 DUP3 ADD MSTORE PUSH32 0xDA9FA7C1B00402C17D0161B249B1AB8BBEC047C5A52207B9C112DEFFD817036B PUSH1 0x40 CALLER SWAP3 LOG4 STOP JUMPDEST SWAP1 POP SWAP1 PUSH2 0x28E JUMP JUMPDEST CALLVALUE PUSH2 0x183 JUMPI PUSH1 0x60 CALLDATASIZE PUSH1 0x3 NOT ADD SLT PUSH2 0x183 JUMPI PUSH2 0x308 PUSH2 0x98F JUMP JUMPDEST PUSH2 0x310 PUSH2 0x9A5 JUMP JUMPDEST SWAP1 PUSH1 0x44 CALLDATALOAD PUSH6 0xFFFFFFFFFFFF DUP1 DUP3 AND SWAP2 DUP3 DUP2 SUB PUSH2 0x183 JUMPI CALLER PUSH1 0x0 MSTORE PUSH1 0x20 SWAP1 PUSH1 0x0 DUP3 MSTORE PUSH1 0x40 PUSH1 0x0 KECCAK256 SWAP5 PUSH1 0x1 DUP1 PUSH1 0xA0 SHL SUB DUP1 SWAP2 AND SWAP6 DUP7 PUSH1 0x0 MSTORE DUP4 MSTORE PUSH1 0x40 PUSH1 0x0 KECCAK256 SWAP7 AND SWAP6 DUP7 PUSH1 0x0 MSTORE DUP3 MSTORE PUSH1 0x40 PUSH1 0x0 KECCAK256 SLOAD PUSH1 0xD0 SHR SWAP3 DUP4 DUP6 GT ISZERO PUSH2 0x3FA JUMPI PUSH2 0xFFFF SWAP1 DUP5 DUP4 SUB AND GT PUSH2 0x3E8 JUMPI CALLER PUSH1 0x0 MSTORE PUSH1 0x0 DUP3 MSTORE PUSH1 0x40 PUSH1 0x0 KECCAK256 DUP6 PUSH1 0x0 MSTORE DUP3 MSTORE PUSH1 0x40 PUSH1 0x0 KECCAK256 DUP7 PUSH1 0x0 MSTORE DUP3 MSTORE PUSH1 0x40 PUSH1 0x0 KECCAK256 SWAP1 DUP2 SLOAD SWAP1 PUSH6 0xFFFFFFFFFFFF PUSH1 0xD0 SHL SWAP1 PUSH1 0xD0 SHL AND SWAP1 PUSH1 0x1 DUP1 PUSH1 0xD0 SHL SUB AND OR SWAP1 SSTORE PUSH1 0x40 MLOAD SWAP3 DUP4 MSTORE DUP3 ADD MSTORE PUSH32 0x55EB90D810E1700B35A8E7E25395FF7F2B2259ABD7415CA2284DFB1C246418F3 PUSH1 0x40 CALLER SWAP3 LOG4 STOP JUMPDEST PUSH1 0x40 MLOAD PUSH4 0x1269AD13 PUSH1 0xE1 SHL DUP2 MSTORE PUSH1 0x4 SWAP1 REVERT JUMPDEST PUSH1 0x40 MLOAD PUSH4 0x3AB3447F PUSH1 0xE1 SHL DUP2 MSTORE PUSH1 0x4 SWAP1 REVERT JUMPDEST CALLVALUE PUSH2 0x183 JUMPI PUSH1 0x80 CALLDATASIZE PUSH1 0x3 NOT ADD SLT PUSH2 0x183 JUMPI PUSH2 0x425 PUSH2 0x98F JUMP JUMPDEST PUSH2 0x42D PUSH2 0x9A5 JUMP JUMPDEST PUSH2 0x435 PUSH2 0x9BB JUMP JUMPDEST PUSH1 0x64 CALLDATALOAD SWAP2 PUSH1 0x1 PUSH1 0x1 PUSH1 0xA0 SHL SUB DUP4 AND DUP4 SUB PUSH2 0x183 JUMPI PUSH2 0x452 SWAP4 PUSH2 0xAF4 JUMP JUMPDEST STOP JUMPDEST CALLVALUE PUSH2 0x183 JUMPI PUSH1 0x0 CALLDATASIZE PUSH1 0x3 NOT ADD SLT PUSH2 0x183 JUMPI PUSH1 0x20 PUSH2 0x46F PUSH2 0xD5B JUMP JUMPDEST PUSH1 0x40 MLOAD SWAP1 DUP2 MSTORE RETURN JUMPDEST CALLVALUE PUSH2 0x183 JUMPI PUSH2 0x100 CALLDATASIZE PUSH1 0x3 NOT ADD SLT PUSH2 0x183 JUMPI PUSH2 0x491 PUSH2 0x98F JUMP JUMPDEST CALLDATASIZE PUSH1 0x23 NOT ADD SWAP1 PUSH1 0xC0 DUP3 SLT PUSH2 0x183 JUMPI PUSH1 0x80 PUSH1 0x40 MLOAD SWAP3 PUSH2 0x4AE DUP5 PUSH2 0xA17 JUMP JUMPDEST SLT PUSH2 0x183 JUMPI PUSH1 0x40 MLOAD SWAP1 PUSH2 0x4C0 DUP3 PUSH2 0x9E5 JUMP JUMPDEST PUSH1 0x1 PUSH1 0x1 PUSH1 0xA0 SHL SUB SWAP2 PUSH1 0x24 CALLDATALOAD DUP4 DUP2 AND DUP2 SUB PUSH2 0x183 JUMPI DUP2 MSTORE PUSH1 0x44 CALLDATALOAD DUP4 DUP2 AND DUP2 SUB PUSH2 0x183 JUMPI PUSH1 0x20 DUP3 ADD MSTORE PUSH6 0xFFFFFFFFFFFF PUSH1 0x64 CALLDATALOAD DUP2 DUP2 AND DUP2 SUB PUSH2 0x183 JUMPI PUSH1 0x40 DUP4 ADD MSTORE PUSH1 0x84 CALLDATALOAD SWAP1 DUP2 AND DUP2 SUB PUSH2 0x183 JUMPI PUSH1 0x60 DUP3 ADD MSTORE DUP4 MSTORE PUSH1 0xA4 CALLDATALOAD SWAP2 DUP1 DUP4 AND DUP4 SUB PUSH2 0x183 JUMPI PUSH1 0x20 DUP5 ADD SWAP3 DUP4 MSTORE PUSH1 0xC4 CALLDATALOAD SWAP4 PUSH1 0x40 DUP2 ADD DUP6 DUP2 MSTORE PUSH1 0xE4 CALLDATALOAD PUSH8 0xFFFFFFFFFFFFFFFF DUP2 GT PUSH2 0x183 JUMPI PUSH2 0x552 SWAP1 CALLDATASIZE SWAP1 PUSH1 0x4 ADD PUSH2 0xA9C JUMP JUMPDEST SWAP2 SWAP1 SWAP7 DUP1 TIMESTAMP GT PUSH2 0x5DB JUMPI POP PUSH2 0x452 SWAP7 PUSH2 0x5D1 SWAP3 PUSH2 0x5CB DUP8 SWAP4 PUSH2 0x574 DUP8 MLOAD PUSH2 0xE47 JUMP JUMPDEST SWAP1 DUP9 DUP12 MLOAD AND SWAP1 MLOAD PUSH1 0x40 MLOAD SWAP2 PUSH1 0x20 DUP4 ADD SWAP4 PUSH32 0xF3841CD1FF0085026A6327B620B67997CE40F282C88A8E905A7A5626E310F3D0 DUP6 MSTORE PUSH1 0x40 DUP5 ADD MSTORE PUSH1 0x60 DUP4 ADD MSTORE PUSH1 0x80 DUP3 ADD MSTORE PUSH1 0x80 DUP2 MSTORE PUSH2 0x5C3 DUP2 PUSH2 0xA33 JUMP JUMPDEST MLOAD SWAP1 KECCAK256 PUSH2 0xE16 JUMP JUMPDEST SWAP2 PUSH2 0xEE5 JUMP JUMPDEST MLOAD SWAP3 MLOAD AND SWAP2 PUSH2 0xC51 JUMP JUMPDEST PUSH1 0x24 SWAP1 PUSH1 0x40 MLOAD SWAP1 PUSH4 0xCD21DB4F PUSH1 0xE0 SHL DUP3 MSTORE PUSH1 0x4 DUP3 ADD MSTORE REVERT JUMPDEST CALLVALUE PUSH2 0x183 JUMPI PUSH1 0x3 NOT PUSH1 0x60 CALLDATASIZE DUP3 ADD SLT PUSH2 0x183 JUMPI PUSH2 0x60D PUSH2 0x98F JUMP JUMPDEST SWAP1 PUSH1 0x24 CALLDATALOAD SWAP1 PUSH8 0xFFFFFFFFFFFFFFFF SWAP1 DUP2 DUP4 GT PUSH2 0x183 JUMPI PUSH1 0x60 SWAP1 DUP4 CALLDATASIZE SUB ADD SLT PUSH2 0x183 JUMPI PUSH1 0x40 MLOAD SWAP2 PUSH2 0x63C DUP4 PUSH2 0xA17 JUMP JUMPDEST DUP1 PUSH1 0x4 ADD CALLDATALOAD DUP3 DUP2 GT PUSH2 0x183 JUMPI DUP2 ADD CALLDATASIZE PUSH1 0x23 DUP3 ADD SLT ISZERO PUSH2 0x183 JUMPI PUSH1 0x4 DUP2 ADD CALLDATALOAD PUSH2 0x663 DUP2 PUSH2 0xA71 JUMP JUMPDEST SWAP2 PUSH2 0x671 PUSH1 0x40 MLOAD SWAP4 DUP5 PUSH2 0xA4F JUMP JUMPDEST DUP2 DUP4 MSTORE PUSH1 0x24 PUSH1 0x20 DUP5 ADD SWAP3 PUSH1 0x7 SHL DUP3 ADD ADD SWAP1 CALLDATASIZE DUP3 GT PUSH2 0x183 JUMPI PUSH1 0x24 ADD SWAP2 JUMPDEST DUP2 DUP4 LT PUSH2 0x84C JUMPI POP POP POP DUP4 MSTORE PUSH1 0x44 SWAP1 PUSH2 0x6A9 PUSH1 0x24 DUP3 ADD PUSH2 0x9D1 JUMP JUMPDEST PUSH1 0x20 DUP6 ADD MSTORE ADD CALLDATALOAD SWAP1 DUP2 PUSH1 0x40 DUP5 ADD MSTORE PUSH1 0x44 CALLDATALOAD SWAP1 DUP2 GT PUSH2 0x183 JUMPI PUSH2 0x6CF SWAP1 CALLDATASIZE SWAP1 PUSH1 0x4 ADD PUSH2 0xA9C JUMP JUMPDEST SWAP2 DUP1 TIMESTAMP GT PUSH2 0x5DB JUMPI POP DUP4 DUP4 MLOAD MLOAD SWAP2 PUSH2 0x6E6 DUP4 PUSH2 0xA71 JUMP JUMPDEST SWAP3 PUSH2 0x6F4 PUSH1 0x40 MLOAD SWAP5 DUP6 PUSH2 0xA4F JUMP JUMPDEST DUP1 DUP5 MSTORE PUSH1 0x1F NOT PUSH2 0x703 DUP3 PUSH2 0xA71 JUMP JUMPDEST ADD CALLDATASIZE PUSH1 0x20 DUP7 ADD CALLDATACOPY PUSH1 0x0 JUMPDEST DUP2 DUP2 LT PUSH2 0x7FC JUMPI POP POP PUSH1 0x40 MLOAD PUSH1 0x20 DUP2 ADD SWAP1 DUP2 PUSH1 0x20 DUP7 MLOAD SWAP2 SWAP7 ADD SWAP1 PUSH1 0x0 JUMPDEST DUP2 DUP2 LT PUSH2 0x7E3 JUMPI POP POP POP PUSH2 0x74A DUP2 PUSH2 0x7AD SWAP7 SUB PUSH1 0x1F NOT DUP2 ADD DUP4 MSTORE DUP3 PUSH2 0xA4F JUMP JUMPDEST MLOAD SWAP1 KECCAK256 SWAP4 PUSH2 0x5CB PUSH1 0x1 DUP1 PUSH1 0xA0 SHL SUB SWAP6 DUP7 PUSH1 0x20 DUP10 ADD MLOAD AND PUSH1 0x40 DUP10 ADD MLOAD PUSH1 0x40 MLOAD SWAP2 PUSH1 0x20 DUP4 ADD SWAP4 PUSH32 0xAF1B0D30D2CAB0380E68F0689007E3254993C596F2FDD0AAA7F4D04F79440863 DUP6 MSTORE PUSH1 0x40 DUP5 ADD MSTORE PUSH1 0x60 DUP4 ADD MSTORE PUSH1 0x80 DUP3 ADD MSTORE PUSH1 0x80 DUP2 MSTORE PUSH2 0x5C3 DUP2 PUSH2 0xA33 JUMP JUMPDEST PUSH1 0x20 DUP3 ADD MLOAD AND SWAP1 DUP1 MLOAD MLOAD SWAP2 PUSH1 0x0 JUMPDEST DUP4 DUP2 LT PUSH2 0x7C4 JUMPI STOP JUMPDEST DUP1 PUSH2 0x7DD DUP4 DUP8 PUSH2 0x7D7 PUSH1 0x1 SWAP6 DUP9 MLOAD PUSH2 0xACA JUMP JUMPDEST MLOAD PUSH2 0xC51 JUMP JUMPDEST ADD PUSH2 0x7BB JUMP JUMPDEST DUP3 MLOAD DUP9 MSTORE PUSH1 0x20 SWAP8 DUP9 ADD SWAP8 DUP12 SWAP8 POP SWAP1 SWAP3 ADD SWAP2 PUSH1 0x1 ADD PUSH2 0x72A JUMP JUMPDEST SWAP1 SWAP2 SWAP4 SWAP3 POP PUSH2 0x815 PUSH2 0x80F DUP3 DUP9 MLOAD PUSH2 0xACA JUMP JUMPDEST MLOAD PUSH2 0xE47 JUMP JUMPDEST PUSH2 0x81F DUP3 DUP6 PUSH2 0xACA JUMP JUMPDEST MSTORE PUSH1 0x0 NOT DUP2 EQ PUSH2 0x836 JUMPI PUSH1 0x1 ADD SWAP1 DUP7 SWAP3 SWAP4 SWAP2 PUSH2 0x70D JUMP JUMPDEST PUSH4 0x4E487B71 PUSH1 0xE0 SHL PUSH1 0x0 MSTORE PUSH1 0x11 PUSH1 0x4 MSTORE PUSH1 0x24 PUSH1 0x0 REVERT JUMPDEST PUSH1 0x80 DUP4 CALLDATASIZE SUB SLT PUSH2 0x183 JUMPI PUSH1 0x20 PUSH1 0x80 SWAP2 PUSH1 0x40 MLOAD PUSH2 0x867 DUP2 PUSH2 0x9E5 JUMP JUMPDEST PUSH2 0x870 DUP7 PUSH2 0x9D1 JUMP JUMPDEST DUP2 MSTORE PUSH2 0x87D DUP4 DUP8 ADD PUSH2 0x9D1 JUMP JUMPDEST DUP4 DUP3 ADD MSTORE PUSH2 0x88D PUSH1 0x40 DUP8 ADD PUSH2 0xA89 JUMP JUMPDEST PUSH1 0x40 DUP3 ADD MSTORE PUSH2 0x89E PUSH1 0x60 DUP8 ADD PUSH2 0xA89 JUMP JUMPDEST PUSH1 0x60 DUP3 ADD MSTORE DUP2 MSTORE ADD SWAP3 ADD SWAP2 PUSH2 0x68E JUMP JUMPDEST CALLVALUE PUSH2 0x183 JUMPI PUSH1 0x20 DUP1 PUSH1 0x3 NOT CALLDATASIZE ADD SLT PUSH2 0x183 JUMPI PUSH8 0xFFFFFFFFFFFFFFFF PUSH1 0x4 CALLDATALOAD DUP2 DUP2 GT PUSH2 0x183 JUMPI CALLDATASIZE PUSH1 0x23 DUP3 ADD SLT ISZERO PUSH2 0x183 JUMPI DUP1 PUSH1 0x4 ADD CALLDATALOAD SWAP2 DUP3 GT PUSH2 0x183 JUMPI PUSH1 0x24 SWAP1 PUSH1 0x7 CALLDATASIZE DUP4 DUP6 DUP4 SHL DUP5 ADD ADD GT PUSH2 0x183 JUMPI PUSH1 0x0 JUMPDEST DUP5 DUP2 LT PUSH2 0x908 JUMPI STOP JUMPDEST DUP1 DUP3 SHL DUP4 ADD SWAP1 PUSH1 0x80 PUSH1 0x23 NOT DUP4 CALLDATASIZE SUB ADD SLT PUSH2 0x183 JUMPI PUSH2 0x989 PUSH1 0x1 SWAP3 PUSH1 0x40 MLOAD PUSH2 0x92E DUP2 PUSH2 0x9E5 JUMP JUMPDEST PUSH2 0x939 DUP9 DUP4 ADD PUSH2 0x9D1 JUMP JUMPDEST DUP1 DUP3 MSTORE PUSH1 0x60 PUSH2 0x94A PUSH1 0x44 DUP6 ADD PUSH2 0x9D1 JUMP JUMPDEST SWAP3 DUP4 DUP14 DUP3 ADD MSTORE PUSH2 0x96E PUSH1 0x84 PUSH2 0x961 PUSH1 0x64 DUP9 ADD PUSH2 0x9D1 JUMP JUMPDEST SWAP7 DUP8 PUSH1 0x40 DUP6 ADD MSTORE ADD PUSH2 0x9D1 JUMP JUMPDEST SWAP2 DUP3 SWAP2 ADD MSTORE DUP7 DUP1 PUSH1 0xA0 SHL SUB DUP1 DUP1 DUP1 SWAP4 AND SWAP6 AND SWAP4 AND SWAP2 AND PUSH2 0xAF4 JUMP JUMPDEST ADD PUSH2 0x8FF JUMP JUMPDEST PUSH1 0x4 CALLDATALOAD SWAP1 PUSH1 0x1 PUSH1 0x1 PUSH1 0xA0 SHL SUB DUP3 AND DUP3 SUB PUSH2 0x183 JUMPI JUMP JUMPDEST PUSH1 0x24 CALLDATALOAD SWAP1 PUSH1 0x1 PUSH1 0x1 PUSH1 0xA0 SHL SUB DUP3 AND DUP3 SUB PUSH2 0x183 JUMPI JUMP JUMPDEST PUSH1 0x44 CALLDATALOAD SWAP1 PUSH1 0x1 PUSH1 0x1 PUSH1 0xA0 SHL SUB DUP3 AND DUP3 SUB PUSH2 0x183 JUMPI JUMP JUMPDEST CALLDATALOAD SWAP1 PUSH1 0x1 PUSH1 0x1 PUSH1 0xA0 SHL SUB DUP3 AND DUP3 SUB PUSH2 0x183 JUMPI JUMP JUMPDEST PUSH1 0x80 DUP2 ADD SWAP1 DUP2 LT PUSH8 0xFFFFFFFFFFFFFFFF DUP3 GT OR PUSH2 0xA01 JUMPI PUSH1 0x40 MSTORE JUMP JUMPDEST PUSH4 0x4E487B71 PUSH1 0xE0 SHL PUSH1 0x0 MSTORE PUSH1 0x41 PUSH1 0x4 MSTORE PUSH1 0x24 PUSH1 0x0 REVERT JUMPDEST PUSH1 0x60 DUP2 ADD SWAP1 DUP2 LT PUSH8 0xFFFFFFFFFFFFFFFF DUP3 GT OR PUSH2 0xA01 JUMPI PUSH1 0x40 MSTORE JUMP JUMPDEST PUSH1 0xA0 DUP2 ADD SWAP1 DUP2 LT PUSH8 0xFFFFFFFFFFFFFFFF DUP3 GT OR PUSH2 0xA01 JUMPI PUSH1 0x40 MSTORE JUMP JUMPDEST SWAP1 PUSH1 0x1F DUP1 NOT SWAP2 ADD AND DUP2 ADD SWAP1 DUP2 LT PUSH8 0xFFFFFFFFFFFFFFFF DUP3 GT OR PUSH2 0xA01 JUMPI PUSH1 0x40 MSTORE JUMP JUMPDEST PUSH8 0xFFFFFFFFFFFFFFFF DUP2 GT PUSH2 0xA01 JUMPI PUSH1 0x5 SHL PUSH1 0x20 ADD SWAP1 JUMP JUMPDEST CALLDATALOAD SWAP1 PUSH6 0xFFFFFFFFFFFF DUP3 AND DUP3 SUB PUSH2 0x183 JUMPI JUMP JUMPDEST SWAP2 DUP2 PUSH1 0x1F DUP5 ADD SLT ISZERO PUSH2 0x183 JUMPI DUP3 CALLDATALOAD SWAP2 PUSH8 0xFFFFFFFFFFFFFFFF DUP4 GT PUSH2 0x183 JUMPI PUSH1 0x20 DUP4 DUP2 DUP7 ADD SWAP6 ADD ADD GT PUSH2 0x183 JUMPI JUMP JUMPDEST DUP1 MLOAD DUP3 LT ISZERO PUSH2 0xADE JUMPI PUSH1 0x20 SWAP2 PUSH1 0x5 SHL ADD ADD SWAP1 JUMP JUMPDEST PUSH4 0x4E487B71 PUSH1 0xE0 SHL PUSH1 0x0 MSTORE PUSH1 0x32 PUSH1 0x4 MSTORE PUSH1 0x24 PUSH1 0x0 REVERT JUMPDEST SWAP1 SWAP3 PUSH1 0x1 DUP1 PUSH1 0xA0 SHL SUB DUP1 SWAP3 AND SWAP1 PUSH1 0x0 SWAP3 DUP3 DUP5 MSTORE DUP4 PUSH1 0x20 MSTORE PUSH1 0x40 SWAP5 DUP2 DUP7 DUP7 KECCAK256 SWAP4 AND SWAP3 DUP4 DUP7 MSTORE PUSH1 0x20 MSTORE DUP6 DUP6 KECCAK256 CALLER DUP7 MSTORE PUSH1 0x20 MSTORE DUP6 DUP6 KECCAK256 SWAP7 DUP8 SLOAD SWAP8 PUSH6 0xFFFFFFFFFFFF DUP10 PUSH1 0xA0 SHR AND DUP1 TIMESTAMP GT PUSH2 0xC16 JUMPI POP DUP4 DUP10 AND SWAP9 DUP5 DUP11 SUB PUSH2 0xBCE JUMPI JUMPDEST POP POP DUP7 SWAP8 POP SWAP3 DUP3 DUP7 SWAP8 SWAP3 DUP8 SWAP7 SWAP5 PUSH1 0x64 SWAP7 PUSH1 0x20 SWAP10 SWAP6 MLOAD SWAP7 PUSH4 0x23B872DD PUSH1 0xE0 SHL DUP9 MSTORE PUSH1 0x4 DUP9 ADD MSTORE AND PUSH1 0x24 DUP7 ADD MSTORE AND PUSH1 0x44 DUP5 ADD MSTORE GAS CALL SWAP1 MLOAD PUSH1 0x1 EQ PUSH1 0x1F RETURNDATASIZE GT AND RETURNDATASIZE ISZERO OR AND ISZERO PUSH2 0xB94 JUMPI POP JUMP JUMPDEST MLOAD PUSH3 0x461BCD PUSH1 0xE5 SHL DUP2 MSTORE PUSH1 0x20 PUSH1 0x4 DUP3 ADD MSTORE PUSH1 0x14 PUSH1 0x24 DUP3 ADD MSTORE PUSH20 0x1514905394D1915497D19493D357D19052531151 PUSH1 0x62 SHL PUSH1 0x44 DUP3 ADD MSTORE PUSH1 0x64 SWAP1 REVERT JUMPDEST DUP10 DUP6 DUP6 AND GT PUSH1 0x0 EQ PUSH2 0xBF2 JUMPI DUP9 MLOAD PUSH4 0xF96FB071 PUSH1 0xE0 SHL DUP2 MSTORE PUSH1 0x4 DUP2 ADD DUP12 SWAP1 MSTORE PUSH1 0x24 SWAP1 REVERT JUMPDEST PUSH1 0x1 PUSH1 0x1 PUSH1 0xA0 SHL SUB NOT AND SWAP9 DUP4 SWAP1 SUB DUP5 AND SWAP9 SWAP1 SWAP9 OR SWAP1 SWAP8 SSTORE SWAP5 SWAP6 DUP7 SWAP6 SWAP1 DUP3 PUSH1 0x20 PUSH2 0xB4B JUMP JUMPDEST PUSH1 0x24 SWAP1 DUP10 MLOAD SWAP1 PUSH4 0x6C0D9797 PUSH1 0xE1 SHL DUP3 MSTORE PUSH1 0x4 DUP3 ADD MSTORE REVERT JUMPDEST SWAP2 SWAP1 DUP2 LT ISZERO PUSH2 0xADE JUMPI PUSH1 0x6 SHL ADD SWAP1 JUMP JUMPDEST CALLDATALOAD PUSH1 0x1 PUSH1 0x1 PUSH1 0xA0 SHL SUB DUP2 AND DUP2 SUB PUSH2 0x183 JUMPI SWAP1 JUMP JUMPDEST SWAP1 PUSH6 0xFFFFFFFFFFFF SWAP1 DUP2 PUSH1 0x60 DUP5 ADD MLOAD AND PUSH1 0x1 DUP1 PUSH1 0xA0 SHL SUB SWAP1 DUP2 DUP6 MLOAD AND SWAP5 DUP3 PUSH1 0x20 DUP3 ADD MLOAD AND SWAP3 DUP1 DUP7 PUSH1 0x40 DUP1 SWAP5 ADD MLOAD AND SWAP6 AND SWAP6 PUSH1 0x0 SWAP2 DUP8 DUP4 MSTORE DUP3 PUSH1 0x20 MSTORE DUP4 DUP4 KECCAK256 DUP10 DUP5 MSTORE PUSH1 0x20 MSTORE DUP4 DUP4 KECCAK256 SWAP10 AND SWAP9 DUP10 DUP4 MSTORE PUSH1 0x20 MSTORE DUP3 DUP3 KECCAK256 SWAP2 DUP5 DUP4 SLOAD PUSH1 0xD0 SHR SUB PUSH2 0xD4A JUMPI SWAP2 DUP6 PUSH2 0xD3E SWAP5 SWAP3 PUSH32 0xC6A377BFC4EB120024A8AC08EEF205BE16B817020812C73223E81D1BDB9708EC SWAP9 SWAP8 SWAP7 SWAP5 POP DUP8 ISZERO PUSH1 0x0 EQ PUSH2 0xD43 JUMPI TIMESTAMP AND JUMPDEST PUSH1 0x1 DUP6 ADD PUSH1 0xD0 SHL PUSH1 0x1 PUSH1 0x1 PUSH1 0xD0 SHL SUB NOT AND PUSH1 0xA0 SWAP2 SWAP1 SWAP2 SHL PUSH6 0xFFFFFFFFFFFF PUSH1 0xA0 SHL AND OR OR SWAP1 SSTORE MLOAD PUSH1 0x1 PUSH1 0x1 PUSH1 0xA0 SHL SUB SWAP1 SWAP4 AND DUP4 MSTORE PUSH6 0xFFFFFFFFFFFF SWAP4 DUP5 AND PUSH1 0x20 DUP5 ADD MSTORE SWAP1 SWAP3 AND PUSH1 0x40 DUP3 ADD MSTORE SWAP1 DUP2 SWAP1 PUSH1 0x60 DUP3 ADD SWAP1 JUMP JUMPDEST SUB SWAP1 LOG4 JUMP JUMPDEST POP DUP7 PUSH2 0xCE9 JUMP JUMPDEST DUP4 MLOAD PUSH4 0x3AB3447F PUSH1 0xE1 SHL DUP2 MSTORE PUSH1 0x4 SWAP1 REVERT JUMPDEST CHAINID PUSH32 0x0 SUB PUSH2 0xDA6 JUMPI PUSH32 0x0 SWAP1 JUMP JUMPDEST PUSH1 0x40 MLOAD PUSH1 0x20 DUP2 ADD SWAP1 PUSH32 0x8CAD95687BA82C2CE50E74F7B754645E5117C3A5BEC8151C0726D5857980A866 DUP3 MSTORE PUSH32 0x9AC997416E8FF9D2FF6BEBEB7149F65CDAE5E32E2B90440B566BB3044041D36A PUSH1 0x40 DUP3 ADD MSTORE CHAINID PUSH1 0x60 DUP3 ADD MSTORE ADDRESS PUSH1 0x80 DUP3 ADD MSTORE PUSH1 0x80 DUP2 MSTORE PUSH2 0xE10 DUP2 PUSH2 0xA33 JUMP JUMPDEST MLOAD SWAP1 KECCAK256 SWAP1 JUMP JUMPDEST PUSH2 0xE1E PUSH2 0xD5B JUMP JUMPDEST SWAP1 PUSH1 0x40 MLOAD SWAP1 PUSH1 0x20 DUP3 ADD SWAP3 PUSH2 0x1901 PUSH1 0xF0 SHL DUP5 MSTORE PUSH1 0x22 DUP4 ADD MSTORE PUSH1 0x42 DUP3 ADD MSTORE PUSH1 0x42 DUP2 MSTORE PUSH2 0xE10 DUP2 PUSH2 0x9E5 JUMP JUMPDEST PUSH1 0x40 MLOAD PUSH1 0x20 DUP2 ADD SWAP2 PUSH32 0x65626CAD6CB96493BF6F5EBEA28756C966F023AB9E8A83A7101849D5573B3678 DUP4 MSTORE PUSH1 0x1 DUP1 PUSH1 0xA0 SHL SUB DUP1 DUP3 MLOAD AND PUSH1 0x40 DUP5 ADD MSTORE PUSH1 0x20 DUP3 ADD MLOAD AND PUSH1 0x60 DUP4 ADD MSTORE PUSH1 0x60 PUSH6 0xFFFFFFFFFFFF SWAP2 DUP3 PUSH1 0x40 DUP3 ADD MLOAD AND PUSH1 0x80 DUP6 ADD MSTORE ADD MLOAD AND PUSH1 0xA0 DUP3 ADD MSTORE PUSH1 0xA0 DUP2 MSTORE PUSH1 0xC0 DUP2 ADD DUP2 DUP2 LT PUSH8 0xFFFFFFFFFFFFFFFF DUP3 GT OR PUSH2 0xA01 JUMPI PUSH1 0x40 MSTORE MLOAD SWAP1 KECCAK256 SWAP1 JUMP JUMPDEST SWAP2 SWAP1 DUP3 PUSH1 0x40 SWAP2 SUB SLT PUSH2 0x183 JUMPI PUSH1 0x20 DUP3 CALLDATALOAD SWAP3 ADD CALLDATALOAD SWAP1 JUMP JUMPDEST PUSH1 0x0 DUP5 EXTCODESIZE PUSH2 0xFDE JUMPI POP PUSH1 0x41 DUP3 SUB PUSH2 0xF8E JUMPI PUSH2 0xF02 DUP3 DUP3 ADD DUP3 PUSH2 0xECF JUMP JUMPDEST SWAP4 SWAP1 SWAP3 PUSH1 0x40 LT ISZERO PUSH2 0xADE JUMPI PUSH1 0x20 SWAP4 PUSH1 0x0 SWAP4 PUSH1 0xFF PUSH1 0x40 PUSH1 0x80 SWAP6 ADD CALLDATALOAD PUSH1 0xF8 SHR JUMPDEST PUSH1 0x40 MLOAD SWAP5 DUP6 MSTORE AND DUP7 DUP5 ADD MSTORE PUSH1 0x40 DUP4 ADD MSTORE PUSH1 0x60 DUP3 ADD MSTORE DUP3 DUP1 MSTORE PUSH1 0x1 GAS STATICCALL ISZERO PUSH2 0xF82 JUMPI PUSH1 0x0 MLOAD PUSH1 0x1 PUSH1 0x1 PUSH1 0xA0 SHL SUB SWAP1 DUP2 AND SWAP2 DUP3 ISZERO PUSH2 0xF70 JUMPI AND SUB PUSH2 0xF5E JUMPI JUMP JUMPDEST PUSH1 0x40 MLOAD PUSH4 0x20578759 PUSH1 0xE2 SHL DUP2 MSTORE PUSH1 0x4 SWAP1 REVERT JUMPDEST PUSH1 0x40 MLOAD PUSH4 0x8BAA579F PUSH1 0xE0 SHL DUP2 MSTORE PUSH1 0x4 SWAP1 REVERT JUMPDEST PUSH1 0x40 MLOAD RETURNDATASIZE PUSH1 0x0 DUP3 RETURNDATACOPY RETURNDATASIZE SWAP1 REVERT JUMPDEST PUSH1 0x40 DUP3 SUB PUSH2 0xFCC JUMPI PUSH2 0xFA2 SWAP2 DUP2 ADD SWAP1 PUSH2 0xECF JUMP JUMPDEST PUSH1 0x1 PUSH1 0x1 PUSH1 0xFF SHL SUB DUP2 AND SWAP3 PUSH1 0xFF SWAP2 DUP3 SHR PUSH1 0x1B ADD SWAP2 DUP3 GT PUSH2 0x836 JUMPI PUSH1 0x20 SWAP4 PUSH1 0x0 SWAP4 PUSH1 0xFF PUSH1 0x80 SWAP5 PUSH2 0xF20 JUMP JUMPDEST PUSH1 0x40 MLOAD PUSH4 0x4BE6321B PUSH1 0xE0 SHL DUP2 MSTORE PUSH1 0x4 SWAP1 REVERT JUMPDEST SWAP2 DUP1 SWAP4 SWAP5 PUSH1 0x20 SWAP3 PUSH1 0x64 PUSH1 0x40 MLOAD DUP1 SWAP8 DUP2 SWAP6 DUP3 SWAP5 PUSH4 0xB135D3F PUSH1 0xE1 SHL SWAP12 DUP13 DUP6 MSTORE PUSH1 0x4 DUP6 ADD MSTORE PUSH1 0x40 PUSH1 0x24 DUP6 ADD MSTORE DUP2 PUSH1 0x44 DUP6 ADD MSTORE DUP5 DUP5 ADD CALLDATACOPY DUP2 DUP2 ADD DUP4 ADD DUP9 SWAP1 MSTORE PUSH1 0x1F ADD PUSH1 0x1F NOT AND DUP2 ADD SUB ADD SWAP2 PUSH1 0x1 PUSH1 0x1 PUSH1 0xA0 SHL SUB AND GAS STATICCALL SWAP2 DUP3 ISZERO PUSH2 0x10B1 JUMPI DUP2 SWAP3 PUSH2 0x1064 JUMPI JUMPDEST POP POP PUSH1 0x1 PUSH1 0x1 PUSH1 0xE0 SHL SUB NOT AND SUB PUSH2 0x1052 JUMPI JUMP JUMPDEST PUSH1 0x40 MLOAD PUSH4 0x2C19A72F PUSH1 0xE2 SHL DUP2 MSTORE PUSH1 0x4 SWAP1 REVERT JUMPDEST SWAP1 SWAP2 POP PUSH1 0x20 DUP2 RETURNDATASIZE DUP3 GT PUSH2 0x10A9 JUMPI JUMPDEST DUP2 PUSH2 0x107F PUSH1 0x20 SWAP4 DUP4 PUSH2 0xA4F JUMP JUMPDEST DUP2 ADD SUB SLT PUSH2 0x10A5 JUMPI MLOAD SWAP1 PUSH1 0x1 PUSH1 0x1 PUSH1 0xE0 SHL SUB NOT DUP3 AND DUP3 SUB PUSH2 0x10A2 JUMPI POP CODESIZE DUP1 PUSH2 0x103F JUMP JUMPDEST DUP1 REVERT JUMPDEST POP DUP1 REVERT JUMPDEST RETURNDATASIZE SWAP2 POP PUSH2 0x1072 JUMP JUMPDEST POP PUSH1 0x40 MLOAD SWAP1 RETURNDATASIZE SWAP1 DUP3 RETURNDATACOPY RETURNDATASIZE SWAP1 REVERT INVALID LOG2 PUSH5 0x6970667358 0x22 SLT KECCAK256 SLT MSIZE MLOAD 0xE1 LT DUP3 BYTE SUB SWAP4 TIMESTAMP 0xCB MULMOD LOG0 EQ 0xCF SWAP13 CALLCODE 0x2A XOR 0xA8 0xEF 0xF6 PUSH10 0xED5395F63545C17E4264 PUSH20 0x6F6C634300081400330000000000000000000000 "},"methodIdentifiers":{"DOMAIN_SEPARATOR()":"3644e515","allowance(address,address,address)":"927da105","approve(address,address,uint160,uint48)":"87517c45","invalidateNonces(address,address,uint48)":"65d9723c","lockdown((address,address)[])":"cc53287f","permit(address,((address,uint160,uint48,uint48),address,uint256),bytes)":"2b67b570","permit(address,((address,uint160,uint48,uint48)[],address,uint256),bytes)":"2a2d80d1","transferFrom((address,address,uint160,address)[])":"0d58b1db","transferFrom(address,address,uint160,address)":"36c78516"}}}}}