{"contracts/MultiSig.sol":{"MultiSig":{"abi":[{"inputs":[{"internalType":"address[]","name":"_owners","type":"address[]"},{"internalType":"uint256","name":"_requiredSignatures","type":"uint256"}],"stateMutability":"nonpayable","type":"constructor"},{"inputs":[],"name":"AlreadyAnOwner","type":"error"},{"inputs":[{"internalType":"uint256","name":"required","type":"uint256"}],"name":"InsufficientOwners","type":"error"},{"inputs":[],"name":"NotAnOwner","type":"error"},{"inputs":[],"name":"NotCustodian","type":"error"},{"inputs":[],"name":"NotOwner","type":"error"},{"anonymous":false,"inputs":[{"indexed":true,"internalType":"address","name":"newOwner","type":"address"}],"name":"OwnerAdded","type":"event"},{"anonymous":false,"inputs":[{"indexed":true,"internalType":"address","name":"removedOwner","type":"address"}],"name":"OwnerRemoved","type":"event"},{"anonymous":false,"inputs":[{"indexed":false,"internalType":"uint256","name":"newRequiredSignatures","type":"uint256"}],"name":"RequiredSignaturesChanged","type":"event"},{"inputs":[{"internalType":"address","name":"_owner","type":"address"}],"name":"addOwner","outputs":[],"stateMutability":"nonpayable","type":"function"},{"inputs":[{"internalType":"uint256","name":"_newRequiredSignatures","type":"uint256"}],"name":"changeRequiredSignatures","outputs":[],"stateMutability":"nonpayable","type":"function"},{"inputs":[],"name":"custodian","outputs":[{"internalType":"address","name":"","type":"address"}],"stateMutability":"view","type":"function"},{"inputs":[{"internalType":"address","name":"","type":"address"}],"name":"isOwnerMapping","outputs":[{"internalType":"bool","name":"","type":"bool"}],"stateMutability":"view","type":"function"},{"inputs":[{"internalType":"address","name":"","type":"address"}],"name":"ownerIndex","outputs":[{"internalType":"uint256","name":"","type":"uint256"}],"stateMutability":"view","type":"function"},{"inputs":[{"internalType":"uint256","name":"","type":"uint256"}],"name":"owners","outputs":[{"internalType":"address","name":"","type":"address"}],"stateMutability":"view","type":"function"},{"inputs":[{"internalType":"address","name":"_owner","type":"address"}],"name":"removeOwner","outputs":[],"stateMutability":"nonpayable","type":"function"},{"inputs":[],"name":"renounceCustodian","outputs":[],"stateMutability":"nonpayable","type":"function"},{"inputs":[{"internalType":"address","name":"_newCustodian","type":"address"}],"name":"replaceCustodian","outputs":[],"stateMutability":"nonpayable","type":"function"},{"inputs":[],"name":"requiredSignatures","outputs":[{"internalType":"uint256","name":"","type":"uint256"}],"stateMutability":"view","type":"function"}],"evm":{"bytecode":{"linkReferences":{},"object":"604060808152346101ea576107bd908138038061001b816101ef565b938439820181838203126101ea5782516001600160401b0391908281116101ea5784019181601f840112156101ea578251948186116101925760059086821b936020958661006a8188016101ef565b809a815201908782978201019283116101ea5790878094939201905b8282106101c057505050015195868151106101a857805192831161019257680100000000000000008311610192576001938454848655808510610168575b5096600093858552868520855b82811061014e5750505084959697506004553360018060a01b031984541617835582935b610108575b86516105a890816102158239f35b80518410156101495783821b81018601516001600160a01b0316835260028652868320805460ff1916861790556003865286832084905592840192846100f5565b6100fa565b8a516001600160a01b0316828201559988019987016100d1565b6000868152868689832093840193015b838110610187575050506100c4565b828155018790610178565b634e487b7160e01b600052604160045260246000fd5b8551630362bf2d60e51b815260048101889052602490fd5b815193945091929091906001600160a01b03811681036101ea578152879392918401908401610086565b600080fd5b6040519190601f01601f191682016001600160401b038111838210176101925760405256fe60406080815260048036101561001457600080fd5b600091823560e01c8063025e7c27146104e1578063086bb259146104a2578063173825d914610351578063375b74c31461032557806339f636ab146102a25780635d4bc6381461026c5780637065cb48146101415780638d068043146101235780639f8a64e2146100e95763f2f4655e1461008e57600080fd5b346100e55760203660031901126100e5576001600160a01b038235818116939192908490036100e157845492831633036100d45750506001600160a01b03191617815580f35b5163918cb1dd60e01b8152fd5b8480fd5b8280fd5b5090346100e55760203660031901126100e557356001600160a01b038116908190036100e557828291602094526003845220549051908152f35b5090346100e557826003193601126100e55760209250549051908152f35b5090346100e55760203660031901126100e5576001600160a01b038135818116939184820361026857855416330361025a57838552600260205260ff828620541661024c576001546801000000000000000081101561023957906101ae8260016101cd9401600155610525565b90919082549060031b9160018060a01b03809116831b921b1916179055565b8284526002602052808420600160ff19825416179055600154916000198301928311610226575082845260036020528320557f994a936646fe87ffe4f1e469d3d6aa417d6b855598397f323de5b449f765f0c38280a280f35b634e487b7160e01b855260119052602484fd5b634e487b7160e01b865260418452602486fd5b50516325cfe06f60e11b8152fd5b505163918cb1dd60e01b8152fd5b8580fd5b5090346100e557826003193601126100e5578254916001600160a01b03831633036100d45750506001600160a01b031916815580f35b50346100e55760203660031901126100e5578254823592906001600160a01b031633036103175760015483116103025791602091817f10dbc913050d3180c3b99f7da91fd514af7cbc9c1bb59a0da5d2bc38f0cf395a945551908152a180f35b826024925191630362bf2d60e51b8352820152fd5b905163918cb1dd60e01b8152fd5b83823461034d578160031936011261034d57905490516001600160a01b039091168152602090f35b5080fd5b50346100e55760208060031936011261049e576001600160a01b038335818116949085900361026857818654163303610490578486526002835260ff84872054161561048257848652600383528386205460015460001992919083810190811161046f57808591830361043f575b50505060015490811561042c5750918694939160039301906103e082610525565b9091825491861b1b191690556001558484526002815282842060ff198154169055528120557f58619076adf5bb0943d100ef88d52d7c3fd691b19d3a9071b555b651fbf418da8280a280f35b634e487b7160e01b885260319052602487fd5b61044890610525565b90549060031b1c1661045d816101ae84610525565b885260038552858820553883816103bf565b634e487b7160e01b895260118352602489fd5b8351631dd523ff60e31b8152fd5b835163918cb1dd60e01b8152fd5b8380fd5b5090346100e55760203660031901126100e557356001600160a01b038116908190036100e557818360ff92602095526002855220541690519015158152f35b5090346100e55760203660031901126100e5573591600154831015610522575061050c602092610525565b905491519160018060a01b039160031b1c168152f35b80fd5b60015481101561055c5760016000527fb10e2d527612073b26eecdfd717e6a320cf44b4afac2b0732d9fcbe2b7fa0cf60190600090565b634e487b7160e01b600052603260045260246000fdfea2646970667358221220cec51a44d002861f19efc7c71f9d595231e486644aa1bb1fea78639d2222d21764736f6c63430008140033","opcodes":"PUSH1 0x40 PUSH1 0x80 DUP2 MSTORE CALLVALUE PUSH2 0x1EA JUMPI PUSH2 0x7BD SWAP1 DUP2 CODESIZE SUB DUP1 PUSH2 0x1B DUP2 PUSH2 0x1EF JUMP JUMPDEST SWAP4 DUP5 CODECOPY DUP3 ADD DUP2 DUP4 DUP3 SUB SLT PUSH2 0x1EA JUMPI DUP3 MLOAD PUSH1 0x1 PUSH1 0x1 PUSH1 0x40 SHL SUB SWAP2 SWAP1 DUP3 DUP2 GT PUSH2 0x1EA JUMPI DUP5 ADD SWAP2 DUP2 PUSH1 0x1F DUP5 ADD SLT ISZERO PUSH2 0x1EA JUMPI DUP3 MLOAD SWAP5 DUP2 DUP7 GT PUSH2 0x192 JUMPI PUSH1 0x5 SWAP1 DUP7 DUP3 SHL SWAP4 PUSH1 0x20 SWAP6 DUP7 PUSH2 0x6A DUP2 DUP9 ADD PUSH2 0x1EF JUMP JUMPDEST DUP1 SWAP11 DUP2 MSTORE ADD SWAP1 DUP8 DUP3 SWAP8 DUP3 ADD ADD SWAP3 DUP4 GT PUSH2 0x1EA JUMPI SWAP1 DUP8 DUP1 SWAP5 SWAP4 SWAP3 ADD SWAP1 JUMPDEST DUP3 DUP3 LT PUSH2 0x1C0 JUMPI POP POP POP ADD MLOAD SWAP6 DUP7 DUP2 MLOAD LT PUSH2 0x1A8 JUMPI DUP1 MLOAD SWAP3 DUP4 GT PUSH2 0x192 JUMPI PUSH9 0x10000000000000000 DUP4 GT PUSH2 0x192 JUMPI PUSH1 0x1 SWAP4 DUP5 SLOAD DUP5 DUP7 SSTORE DUP1 DUP6 LT PUSH2 0x168 JUMPI JUMPDEST POP SWAP7 PUSH1 0x0 SWAP4 DUP6 DUP6 MSTORE DUP7 DUP6 KECCAK256 DUP6 JUMPDEST DUP3 DUP2 LT PUSH2 0x14E JUMPI POP POP POP DUP5 SWAP6 SWAP7 SWAP8 POP PUSH1 0x4 SSTORE CALLER PUSH1 0x1 DUP1 PUSH1 0xA0 SHL SUB NOT DUP5 SLOAD AND OR DUP4 SSTORE DUP3 SWAP4 JUMPDEST PUSH2 0x108 JUMPI JUMPDEST DUP7 MLOAD PUSH2 0x5A8 SWAP1 DUP2 PUSH2 0x215 DUP3 CODECOPY RETURN JUMPDEST DUP1 MLOAD DUP5 LT ISZERO PUSH2 0x149 JUMPI DUP4 DUP3 SHL DUP2 ADD DUP7 ADD MLOAD PUSH1 0x1 PUSH1 0x1 PUSH1 0xA0 SHL SUB AND DUP4 MSTORE PUSH1 0x2 DUP7 MSTORE DUP7 DUP4 KECCAK256 DUP1 SLOAD PUSH1 0xFF NOT AND DUP7 OR SWAP1 SSTORE PUSH1 0x3 DUP7 MSTORE DUP7 DUP4 KECCAK256 DUP5 SWAP1 SSTORE SWAP3 DUP5 ADD SWAP3 DUP5 PUSH2 0xF5 JUMP JUMPDEST PUSH2 0xFA JUMP JUMPDEST DUP11 MLOAD PUSH1 0x1 PUSH1 0x1 PUSH1 0xA0 SHL SUB AND DUP3 DUP3 ADD SSTORE SWAP10 DUP9 ADD SWAP10 DUP8 ADD PUSH2 0xD1 JUMP JUMPDEST PUSH1 0x0 DUP7 DUP2 MSTORE DUP7 DUP7 DUP10 DUP4 KECCAK256 SWAP4 DUP5 ADD SWAP4 ADD JUMPDEST DUP4 DUP2 LT PUSH2 0x187 JUMPI POP POP POP PUSH2 0xC4 JUMP JUMPDEST DUP3 DUP2 SSTORE ADD DUP8 SWAP1 PUSH2 0x178 JUMP JUMPDEST PUSH4 0x4E487B71 PUSH1 0xE0 SHL PUSH1 0x0 MSTORE PUSH1 0x41 PUSH1 0x4 MSTORE PUSH1 0x24 PUSH1 0x0 REVERT JUMPDEST DUP6 MLOAD PUSH4 0x362BF2D PUSH1 0xE5 SHL DUP2 MSTORE PUSH1 0x4 DUP2 ADD DUP9 SWAP1 MSTORE PUSH1 0x24 SWAP1 REVERT JUMPDEST DUP2 MLOAD SWAP4 SWAP5 POP SWAP2 SWAP3 SWAP1 SWAP2 SWAP1 PUSH1 0x1 PUSH1 0x1 PUSH1 0xA0 SHL SUB DUP2 AND DUP2 SUB PUSH2 0x1EA JUMPI DUP2 MSTORE DUP8 SWAP4 SWAP3 SWAP2 DUP5 ADD SWAP1 DUP5 ADD PUSH2 0x86 JUMP JUMPDEST PUSH1 0x0 DUP1 REVERT JUMPDEST PUSH1 0x40 MLOAD SWAP2 SWAP1 PUSH1 0x1F ADD PUSH1 0x1F NOT AND DUP3 ADD PUSH1 0x1 PUSH1 0x1 PUSH1 0x40 SHL SUB DUP2 GT DUP4 DUP3 LT OR PUSH2 0x192 JUMPI PUSH1 0x40 MSTORE JUMP INVALID PUSH1 0x40 PUSH1 0x80 DUP2 MSTORE PUSH1 0x4 DUP1 CALLDATASIZE LT ISZERO PUSH2 0x14 JUMPI PUSH1 0x0 DUP1 REVERT JUMPDEST PUSH1 0x0 SWAP2 DUP3 CALLDATALOAD PUSH1 0xE0 SHR DUP1 PUSH4 0x25E7C27 EQ PUSH2 0x4E1 JUMPI DUP1 PUSH4 0x86BB259 EQ PUSH2 0x4A2 JUMPI DUP1 PUSH4 0x173825D9 EQ PUSH2 0x351 JUMPI DUP1 PUSH4 0x375B74C3 EQ PUSH2 0x325 JUMPI DUP1 PUSH4 0x39F636AB EQ PUSH2 0x2A2 JUMPI DUP1 PUSH4 0x5D4BC638 EQ PUSH2 0x26C JUMPI DUP1 PUSH4 0x7065CB48 EQ PUSH2 0x141 JUMPI DUP1 PUSH4 0x8D068043 EQ PUSH2 0x123 JUMPI DUP1 PUSH4 0x9F8A64E2 EQ PUSH2 0xE9 JUMPI PUSH4 0xF2F4655E EQ PUSH2 0x8E JUMPI PUSH1 0x0 DUP1 REVERT JUMPDEST CALLVALUE PUSH2 0xE5 JUMPI PUSH1 0x20 CALLDATASIZE PUSH1 0x3 NOT ADD SLT PUSH2 0xE5 JUMPI PUSH1 0x1 PUSH1 0x1 PUSH1 0xA0 SHL SUB DUP3 CALLDATALOAD DUP2 DUP2 AND SWAP4 SWAP2 SWAP3 SWAP1 DUP5 SWAP1 SUB PUSH2 0xE1 JUMPI DUP5 SLOAD SWAP3 DUP4 AND CALLER SUB PUSH2 0xD4 JUMPI POP POP PUSH1 0x1 PUSH1 0x1 PUSH1 0xA0 SHL SUB NOT AND OR DUP2 SSTORE DUP1 RETURN JUMPDEST MLOAD PUSH4 0x918CB1DD PUSH1 0xE0 SHL DUP2 MSTORE REVERT JUMPDEST DUP5 DUP1 REVERT JUMPDEST DUP3 DUP1 REVERT JUMPDEST POP SWAP1 CALLVALUE PUSH2 0xE5 JUMPI PUSH1 0x20 CALLDATASIZE PUSH1 0x3 NOT ADD SLT PUSH2 0xE5 JUMPI CALLDATALOAD PUSH1 0x1 PUSH1 0x1 PUSH1 0xA0 SHL SUB DUP2 AND SWAP1 DUP2 SWAP1 SUB PUSH2 0xE5 JUMPI DUP3 DUP3 SWAP2 PUSH1 0x20 SWAP5 MSTORE PUSH1 0x3 DUP5 MSTORE KECCAK256 SLOAD SWAP1 MLOAD SWAP1 DUP2 MSTORE RETURN JUMPDEST POP SWAP1 CALLVALUE PUSH2 0xE5 JUMPI DUP3 PUSH1 0x3 NOT CALLDATASIZE ADD SLT PUSH2 0xE5 JUMPI PUSH1 0x20 SWAP3 POP SLOAD SWAP1 MLOAD SWAP1 DUP2 MSTORE RETURN JUMPDEST POP SWAP1 CALLVALUE PUSH2 0xE5 JUMPI PUSH1 0x20 CALLDATASIZE PUSH1 0x3 NOT ADD SLT PUSH2 0xE5 JUMPI PUSH1 0x1 PUSH1 0x1 PUSH1 0xA0 SHL SUB DUP2 CALLDATALOAD DUP2 DUP2 AND SWAP4 SWAP2 DUP5 DUP3 SUB PUSH2 0x268 JUMPI DUP6 SLOAD AND CALLER SUB PUSH2 0x25A JUMPI DUP4 DUP6 MSTORE PUSH1 0x2 PUSH1 0x20 MSTORE PUSH1 0xFF DUP3 DUP7 KECCAK256 SLOAD AND PUSH2 0x24C JUMPI PUSH1 0x1 SLOAD PUSH9 0x10000000000000000 DUP2 LT ISZERO PUSH2 0x239 JUMPI SWAP1 PUSH2 0x1AE DUP3 PUSH1 0x1 PUSH2 0x1CD SWAP5 ADD PUSH1 0x1 SSTORE PUSH2 0x525 JUMP JUMPDEST SWAP1 SWAP2 SWAP1 DUP3 SLOAD SWAP1 PUSH1 0x3 SHL SWAP2 PUSH1 0x1 DUP1 PUSH1 0xA0 SHL SUB DUP1 SWAP2 AND DUP4 SHL SWAP3 SHL NOT AND OR SWAP1 SSTORE JUMP JUMPDEST DUP3 DUP5 MSTORE PUSH1 0x2 PUSH1 0x20 MSTORE DUP1 DUP5 KECCAK256 PUSH1 0x1 PUSH1 0xFF NOT DUP3 SLOAD AND OR SWAP1 SSTORE PUSH1 0x1 SLOAD SWAP2 PUSH1 0x0 NOT DUP4 ADD SWAP3 DUP4 GT PUSH2 0x226 JUMPI POP DUP3 DUP5 MSTORE PUSH1 0x3 PUSH1 0x20 MSTORE DUP4 KECCAK256 SSTORE PUSH32 0x994A936646FE87FFE4F1E469D3D6AA417D6B855598397F323DE5B449F765F0C3 DUP3 DUP1 LOG2 DUP1 RETURN JUMPDEST PUSH4 0x4E487B71 PUSH1 0xE0 SHL DUP6 MSTORE PUSH1 0x11 SWAP1 MSTORE PUSH1 0x24 DUP5 REVERT JUMPDEST PUSH4 0x4E487B71 PUSH1 0xE0 SHL DUP7 MSTORE PUSH1 0x41 DUP5 MSTORE PUSH1 0x24 DUP7 REVERT JUMPDEST POP MLOAD PUSH4 0x25CFE06F PUSH1 0xE1 SHL DUP2 MSTORE REVERT JUMPDEST POP MLOAD PUSH4 0x918CB1DD PUSH1 0xE0 SHL DUP2 MSTORE REVERT JUMPDEST DUP6 DUP1 REVERT JUMPDEST POP SWAP1 CALLVALUE PUSH2 0xE5 JUMPI DUP3 PUSH1 0x3 NOT CALLDATASIZE ADD SLT PUSH2 0xE5 JUMPI DUP3 SLOAD SWAP2 PUSH1 0x1 PUSH1 0x1 PUSH1 0xA0 SHL SUB DUP4 AND CALLER SUB PUSH2 0xD4 JUMPI POP POP PUSH1 0x1 PUSH1 0x1 PUSH1 0xA0 SHL SUB NOT AND DUP2 SSTORE DUP1 RETURN JUMPDEST POP CALLVALUE PUSH2 0xE5 JUMPI PUSH1 0x20 CALLDATASIZE PUSH1 0x3 NOT ADD SLT PUSH2 0xE5 JUMPI DUP3 SLOAD DUP3 CALLDATALOAD SWAP3 SWAP1 PUSH1 0x1 PUSH1 0x1 PUSH1 0xA0 SHL SUB AND CALLER SUB PUSH2 0x317 JUMPI PUSH1 0x1 SLOAD DUP4 GT PUSH2 0x302 JUMPI SWAP2 PUSH1 0x20 SWAP2 DUP2 PUSH32 0x10DBC913050D3180C3B99F7DA91FD514AF7CBC9C1BB59A0DA5D2BC38F0CF395A SWAP5 SSTORE MLOAD SWAP1 DUP2 MSTORE LOG1 DUP1 RETURN JUMPDEST DUP3 PUSH1 0x24 SWAP3 MLOAD SWAP2 PUSH4 0x362BF2D PUSH1 0xE5 SHL DUP4 MSTORE DUP3 ADD MSTORE REVERT JUMPDEST SWAP1 MLOAD PUSH4 0x918CB1DD PUSH1 0xE0 SHL DUP2 MSTORE REVERT JUMPDEST DUP4 DUP3 CALLVALUE PUSH2 0x34D JUMPI DUP2 PUSH1 0x3 NOT CALLDATASIZE ADD SLT PUSH2 0x34D JUMPI SWAP1 SLOAD SWAP1 MLOAD PUSH1 0x1 PUSH1 0x1 PUSH1 0xA0 SHL SUB SWAP1 SWAP2 AND DUP2 MSTORE PUSH1 0x20 SWAP1 RETURN JUMPDEST POP DUP1 REVERT JUMPDEST POP CALLVALUE PUSH2 0xE5 JUMPI PUSH1 0x20 DUP1 PUSH1 0x3 NOT CALLDATASIZE ADD SLT PUSH2 0x49E JUMPI PUSH1 0x1 PUSH1 0x1 PUSH1 0xA0 SHL SUB DUP4 CALLDATALOAD DUP2 DUP2 AND SWAP5 SWAP1 DUP6 SWAP1 SUB PUSH2 0x268 JUMPI DUP2 DUP7 SLOAD AND CALLER SUB PUSH2 0x490 JUMPI DUP5 DUP7 MSTORE PUSH1 0x2 DUP4 MSTORE PUSH1 0xFF DUP5 DUP8 KECCAK256 SLOAD AND ISZERO PUSH2 0x482 JUMPI DUP5 DUP7 MSTORE PUSH1 0x3 DUP4 MSTORE DUP4 DUP7 KECCAK256 SLOAD PUSH1 0x1 SLOAD PUSH1 0x0 NOT SWAP3 SWAP2 SWAP1 DUP4 DUP2 ADD SWAP1 DUP2 GT PUSH2 0x46F JUMPI DUP1 DUP6 SWAP2 DUP4 SUB PUSH2 0x43F JUMPI JUMPDEST POP POP POP PUSH1 0x1 SLOAD SWAP1 DUP2 ISZERO PUSH2 0x42C JUMPI POP SWAP2 DUP7 SWAP5 SWAP4 SWAP2 PUSH1 0x3 SWAP4 ADD SWAP1 PUSH2 0x3E0 DUP3 PUSH2 0x525 JUMP JUMPDEST SWAP1 SWAP2 DUP3 SLOAD SWAP2 DUP7 SHL SHL NOT AND SWAP1 SSTORE PUSH1 0x1 SSTORE DUP5 DUP5 MSTORE PUSH1 0x2 DUP2 MSTORE DUP3 DUP5 KECCAK256 PUSH1 0xFF NOT DUP2 SLOAD AND SWAP1 SSTORE MSTORE DUP2 KECCAK256 SSTORE PUSH32 0x58619076ADF5BB0943D100EF88D52D7C3FD691B19D3A9071B555B651FBF418DA DUP3 DUP1 LOG2 DUP1 RETURN JUMPDEST PUSH4 0x4E487B71 PUSH1 0xE0 SHL DUP9 MSTORE PUSH1 0x31 SWAP1 MSTORE PUSH1 0x24 DUP8 REVERT JUMPDEST PUSH2 0x448 SWAP1 PUSH2 0x525 JUMP JUMPDEST SWAP1 SLOAD SWAP1 PUSH1 0x3 SHL SHR AND PUSH2 0x45D DUP2 PUSH2 0x1AE DUP5 PUSH2 0x525 JUMP JUMPDEST DUP9 MSTORE PUSH1 0x3 DUP6 MSTORE DUP6 DUP9 KECCAK256 SSTORE CODESIZE DUP4 DUP2 PUSH2 0x3BF JUMP JUMPDEST PUSH4 0x4E487B71 PUSH1 0xE0 SHL DUP10 MSTORE PUSH1 0x11 DUP4 MSTORE PUSH1 0x24 DUP10 REVERT JUMPDEST DUP4 MLOAD PUSH4 0x1DD523FF PUSH1 0xE3 SHL DUP2 MSTORE REVERT JUMPDEST DUP4 MLOAD PUSH4 0x918CB1DD PUSH1 0xE0 SHL DUP2 MSTORE REVERT JUMPDEST DUP4 DUP1 REVERT JUMPDEST POP SWAP1 CALLVALUE PUSH2 0xE5 JUMPI PUSH1 0x20 CALLDATASIZE PUSH1 0x3 NOT ADD SLT PUSH2 0xE5 JUMPI CALLDATALOAD PUSH1 0x1 PUSH1 0x1 PUSH1 0xA0 SHL SUB DUP2 AND SWAP1 DUP2 SWAP1 SUB PUSH2 0xE5 JUMPI DUP2 DUP4 PUSH1 0xFF SWAP3 PUSH1 0x20 SWAP6 MSTORE PUSH1 0x2 DUP6 MSTORE KECCAK256 SLOAD AND SWAP1 MLOAD SWAP1 ISZERO ISZERO DUP2 MSTORE RETURN JUMPDEST POP SWAP1 CALLVALUE PUSH2 0xE5 JUMPI PUSH1 0x20 CALLDATASIZE PUSH1 0x3 NOT ADD SLT PUSH2 0xE5 JUMPI CALLDATALOAD SWAP2 PUSH1 0x1 SLOAD DUP4 LT ISZERO PUSH2 0x522 JUMPI POP PUSH2 0x50C PUSH1 0x20 SWAP3 PUSH2 0x525 JUMP JUMPDEST SWAP1 SLOAD SWAP2 MLOAD SWAP2 PUSH1 0x1 DUP1 PUSH1 0xA0 SHL SUB SWAP2 PUSH1 0x3 SHL SHR AND DUP2 MSTORE RETURN JUMPDEST DUP1 REVERT JUMPDEST PUSH1 0x1 SLOAD DUP2 LT ISZERO PUSH2 0x55C JUMPI PUSH1 0x1 PUSH1 0x0 MSTORE PUSH32 0xB10E2D527612073B26EECDFD717E6A320CF44B4AFAC2B0732D9FCBE2B7FA0CF6 ADD SWAP1 PUSH1 0x0 SWAP1 JUMP JUMPDEST PUSH4 0x4E487B71 PUSH1 0xE0 SHL PUSH1 0x0 MSTORE PUSH1 0x32 PUSH1 0x4 MSTORE PUSH1 0x24 PUSH1 0x0 REVERT INVALID LOG2 PUSH5 0x6970667358 0x22 SLT KECCAK256 0xCE 0xC5 BYTE PREVRANDAO 0xD0 MUL DUP7 0x1F NOT 0xEF 0xC7 0xC7 0x1F SWAP14 MSIZE MSTORE BALANCE 0xE4 DUP7 PUSH5 0x4AA1BB1FEA PUSH25 0x639D2222D21764736F6C634300081400330000000000000000 "},"methodIdentifiers":{"addOwner(address)":"7065cb48","changeRequiredSignatures(uint256)":"39f636ab","custodian()":"375b74c3","isOwnerMapping(address)":"086bb259","ownerIndex(address)":"9f8a64e2","owners(uint256)":"025e7c27","removeOwner(address)":"173825d9","renounceCustodian()":"5d4bc638","replaceCustodian(address)":"f2f4655e","requiredSignatures()":"8d068043"}}}}}