{"contracts/permit2/Permit2.sol":{"Permit2":{"abi":[{"inputs":[{"internalType":"uint256","name":"deadline","type":"uint256"}],"name":"AllowanceExpired","type":"error"},{"inputs":[],"name":"ExcessiveInvalidation","type":"error"},{"inputs":[{"internalType":"uint256","name":"amount","type":"uint256"}],"name":"InsufficientAllowance","type":"error"},{"inputs":[{"internalType":"uint256","name":"maxAmount","type":"uint256"}],"name":"InvalidAmount","type":"error"},{"inputs":[],"name":"InvalidContractSignature","type":"error"},{"inputs":[],"name":"InvalidNonce","type":"error"},{"inputs":[],"name":"InvalidSignature","type":"error"},{"inputs":[],"name":"InvalidSignatureLength","type":"error"},{"inputs":[],"name":"InvalidSigner","type":"error"},{"inputs":[],"name":"LengthMismatch","type":"error"},{"inputs":[{"internalType":"uint256","name":"signatureDeadline","type":"uint256"}],"name":"SignatureExpired","type":"error"},{"anonymous":false,"inputs":[{"indexed":true,"internalType":"address","name":"owner","type":"address"},{"indexed":true,"internalType":"address","name":"token","type":"address"},{"indexed":true,"internalType":"address","name":"spender","type":"address"},{"indexed":false,"internalType":"uint160","name":"amount","type":"uint160"},{"indexed":false,"internalType":"uint48","name":"expiration","type":"uint48"}],"name":"Approval","type":"event"},{"anonymous":false,"inputs":[{"indexed":true,"internalType":"address","name":"owner","type":"address"},{"indexed":false,"internalType":"address","name":"token","type":"address"},{"indexed":false,"internalType":"address","name":"spender","type":"address"}],"name":"Lockdown","type":"event"},{"anonymous":false,"inputs":[{"indexed":true,"internalType":"address","name":"owner","type":"address"},{"indexed":true,"internalType":"address","name":"token","type":"address"},{"indexed":true,"internalType":"address","name":"spender","type":"address"},{"indexed":false,"internalType":"uint48","name":"newNonce","type":"uint48"},{"indexed":false,"internalType":"uint48","name":"oldNonce","type":"uint48"}],"name":"NonceInvalidation","type":"event"},{"anonymous":false,"inputs":[{"indexed":true,"internalType":"address","name":"owner","type":"address"},{"indexed":true,"internalType":"address","name":"token","type":"address"},{"indexed":true,"internalType":"address","name":"spender","type":"address"},{"indexed":false,"internalType":"uint160","name":"amount","type":"uint160"},{"indexed":false,"internalType":"uint48","name":"expiration","type":"uint48"},{"indexed":false,"internalType":"uint48","name":"nonce","type":"uint48"}],"name":"Permit","type":"event"},{"anonymous":false,"inputs":[{"indexed":true,"internalType":"address","name":"owner","type":"address"},{"indexed":false,"internalType":"uint256","name":"word","type":"uint256"},{"indexed":false,"internalType":"uint256","name":"mask","type":"uint256"}],"name":"UnorderedNonceInvalidation","type":"event"},{"inputs":[],"name":"DOMAIN_SEPARATOR","outputs":[{"internalType":"bytes32","name":"","type":"bytes32"}],"stateMutability":"view","type":"function"},{"inputs":[{"internalType":"address","name":"","type":"address"},{"internalType":"address","name":"","type":"address"},{"internalType":"address","name":"","type":"address"}],"name":"allowance","outputs":[{"internalType":"uint160","name":"amount","type":"uint160"},{"internalType":"uint48","name":"expiration","type":"uint48"},{"internalType":"uint48","name":"nonce","type":"uint48"}],"stateMutability":"view","type":"function"},{"inputs":[{"internalType":"address","name":"token","type":"address"},{"internalType":"address","name":"spender","type":"address"},{"internalType":"uint160","name":"amount","type":"uint160"},{"internalType":"uint48","name":"expiration","type":"uint48"}],"name":"approve","outputs":[],"stateMutability":"nonpayable","type":"function"},{"inputs":[{"internalType":"address","name":"token","type":"address"},{"internalType":"address","name":"spender","type":"address"},{"internalType":"uint48","name":"newNonce","type":"uint48"}],"name":"invalidateNonces","outputs":[],"stateMutability":"nonpayable","type":"function"},{"inputs":[{"internalType":"uint256","name":"wordPos","type":"uint256"},{"internalType":"uint256","name":"mask","type":"uint256"}],"name":"invalidateUnorderedNonces","outputs":[],"stateMutability":"nonpayable","type":"function"},{"inputs":[{"components":[{"internalType":"address","name":"token","type":"address"},{"internalType":"address","name":"spender","type":"address"}],"internalType":"struct IAllowanceTransfer.TokenSpenderPair[]","name":"approvals","type":"tuple[]"}],"name":"lockdown","outputs":[],"stateMutability":"nonpayable","type":"function"},{"inputs":[{"internalType":"address","name":"","type":"address"},{"internalType":"uint256","name":"","type":"uint256"}],"name":"nonceBitmap","outputs":[{"internalType":"uint256","name":"","type":"uint256"}],"stateMutability":"view","type":"function"},{"inputs":[{"internalType":"address","name":"owner","type":"address"},{"components":[{"components":[{"internalType":"address","name":"token","type":"address"},{"internalType":"uint160","name":"amount","type":"uint160"},{"internalType":"uint48","name":"expiration","type":"uint48"},{"internalType":"uint48","name":"nonce","type":"uint48"}],"internalType":"struct IAllowanceTransfer.PermitDetails[]","name":"details","type":"tuple[]"},{"internalType":"address","name":"spender","type":"address"},{"internalType":"uint256","name":"sigDeadline","type":"uint256"}],"internalType":"struct IAllowanceTransfer.PermitBatch","name":"permitBatch","type":"tuple"},{"internalType":"bytes","name":"signature","type":"bytes"}],"name":"permit","outputs":[],"stateMutability":"nonpayable","type":"function"},{"inputs":[{"internalType":"address","name":"owner","type":"address"},{"components":[{"components":[{"internalType":"address","name":"token","type":"address"},{"internalType":"uint160","name":"amount","type":"uint160"},{"internalType":"uint48","name":"expiration","type":"uint48"},{"internalType":"uint48","name":"nonce","type":"uint48"}],"internalType":"struct IAllowanceTransfer.PermitDetails","name":"details","type":"tuple"},{"internalType":"address","name":"spender","type":"address"},{"internalType":"uint256","name":"sigDeadline","type":"uint256"}],"internalType":"struct IAllowanceTransfer.PermitSingle","name":"permitSingle","type":"tuple"},{"internalType":"bytes","name":"signature","type":"bytes"}],"name":"permit","outputs":[],"stateMutability":"nonpayable","type":"function"},{"inputs":[{"components":[{"components":[{"internalType":"address","name":"token","type":"address"},{"internalType":"uint256","name":"amount","type":"uint256"}],"internalType":"struct ISignatureTransfer.TokenPermissions","name":"permitted","type":"tuple"},{"internalType":"uint256","name":"nonce","type":"uint256"},{"internalType":"uint256","name":"deadline","type":"uint256"}],"internalType":"struct ISignatureTransfer.PermitTransferFrom","name":"permit","type":"tuple"},{"components":[{"internalType":"address","name":"to","type":"address"},{"internalType":"uint256","name":"requestedAmount","type":"uint256"}],"internalType":"struct ISignatureTransfer.SignatureTransferDetails","name":"transferDetails","type":"tuple"},{"internalType":"address","name":"owner","type":"address"},{"internalType":"bytes","name":"signature","type":"bytes"}],"name":"permitTransferFrom","outputs":[],"stateMutability":"nonpayable","type":"function"},{"inputs":[{"components":[{"components":[{"internalType":"address","name":"token","type":"address"},{"internalType":"uint256","name":"amount","type":"uint256"}],"internalType":"struct ISignatureTransfer.TokenPermissions[]","name":"permitted","type":"tuple[]"},{"internalType":"uint256","name":"nonce","type":"uint256"},{"internalType":"uint256","name":"deadline","type":"uint256"}],"internalType":"struct ISignatureTransfer.PermitBatchTransferFrom","name":"permit","type":"tuple"},{"components":[{"internalType":"address","name":"to","type":"address"},{"internalType":"uint256","name":"requestedAmount","type":"uint256"}],"internalType":"struct ISignatureTransfer.SignatureTransferDetails[]","name":"transferDetails","type":"tuple[]"},{"internalType":"address","name":"owner","type":"address"},{"internalType":"bytes","name":"signature","type":"bytes"}],"name":"permitTransferFrom","outputs":[],"stateMutability":"nonpayable","type":"function"},{"inputs":[{"components":[{"components":[{"internalType":"address","name":"token","type":"address"},{"internalType":"uint256","name":"amount","type":"uint256"}],"internalType":"struct ISignatureTransfer.TokenPermissions","name":"permitted","type":"tuple"},{"internalType":"uint256","name":"nonce","type":"uint256"},{"internalType":"uint256","name":"deadline","type":"uint256"}],"internalType":"struct ISignatureTransfer.PermitTransferFrom","name":"permit","type":"tuple"},{"components":[{"internalType":"address","name":"to","type":"address"},{"internalType":"uint256","name":"requestedAmount","type":"uint256"}],"internalType":"struct ISignatureTransfer.SignatureTransferDetails","name":"transferDetails","type":"tuple"},{"internalType":"address","name":"owner","type":"address"},{"internalType":"bytes32","name":"witness","type":"bytes32"},{"internalType":"string","name":"witnessTypeString","type":"string"},{"internalType":"bytes","name":"signature","type":"bytes"}],"name":"permitWitnessTransferFrom","outputs":[],"stateMutability":"nonpayable","type":"function"},{"inputs":[{"components":[{"components":[{"internalType":"address","name":"token","type":"address"},{"internalType":"uint256","name":"amount","type":"uint256"}],"internalType":"struct ISignatureTransfer.TokenPermissions[]","name":"permitted","type":"tuple[]"},{"internalType":"uint256","name":"nonce","type":"uint256"},{"internalType":"uint256","name":"deadline","type":"uint256"}],"internalType":"struct ISignatureTransfer.PermitBatchTransferFrom","name":"permit","type":"tuple"},{"components":[{"internalType":"address","name":"to","type":"address"},{"internalType":"uint256","name":"requestedAmount","type":"uint256"}],"internalType":"struct ISignatureTransfer.SignatureTransferDetails[]","name":"transferDetails","type":"tuple[]"},{"internalType":"address","name":"owner","type":"address"},{"internalType":"bytes32","name":"witness","type":"bytes32"},{"internalType":"string","name":"witnessTypeString","type":"string"},{"internalType":"bytes","name":"signature","type":"bytes"}],"name":"permitWitnessTransferFrom","outputs":[],"stateMutability":"nonpayable","type":"function"},{"inputs":[{"components":[{"internalType":"address","name":"from","type":"address"},{"internalType":"address","name":"to","type":"address"},{"internalType":"uint160","name":"amount","type":"uint160"},{"internalType":"address","name":"token","type":"address"}],"internalType":"struct IAllowanceTransfer.AllowanceTransferDetails[]","name":"transferDetails","type":"tuple[]"}],"name":"transferFrom","outputs":[],"stateMutability":"nonpayable","type":"function"},{"inputs":[{"internalType":"address","name":"from","type":"address"},{"internalType":"address","name":"to","type":"address"},{"internalType":"uint160","name":"amount","type":"uint160"},{"internalType":"address","name":"token","type":"address"}],"name":"transferFrom","outputs":[],"stateMutability":"nonpayable","type":"function"}],"evm":{"bytecode":{"linkReferences":{},"object":"60c0346100bb574660a052602081017f8cad95687ba82c2ce50e74f7b754645e5117c3a5bec8151c0726d5857980a86681527f9ac997416e8ff9d2ff6bebeb7149f65cdae5e32e2b90440b566bb3044041d36a60408301524660608301523060808301526080825260a082019180831060018060401b038411176100a55782604052519020608052611b7690816100c18239608051816114ad015260a051816114870152f35b634e487b7160e01b600052604160045260246000fd5b600080fdfe6040608081526004908136101561001557600080fd5b600090813560e01c80630d58b1db14610e88578063137c29fe14610d055780632a2d80d114610abd5780632b67b5701461094757806330f28b7a146108845780633644e5151461086157806336c78516146108175780633ff9dcb1146107b55780634fe02b441461077657806365d9723c1461066657806387517c4514610584578063927da105146104f8578063cc53287f14610417578063edd9444b146102eb5763fe8ec1a7146100c657600080fd5b346102e75760c03660031901126102e7576001600160401b0383358181116102e3576100f5903690860161116e565b6024358281116102df5761010c903690870161113e565b610114611052565b916084358581116102db5761012c9036908a016110e7565b98909560a4359081116102d757610145913691016110e7565b96909581519061015482610fb4565b606b82527f5065726d697442617463685769746e6573735472616e7366657246726f6d285460208301527f6f6b656e5065726d697373696f6e735b5d207065726d69747465642c61646472838301527f657373207370656e6465722c75696e74323536206e6f6e63652c75696e74323560608301526a0d88191958591b1a5b994b60aa1b608083015282519a8b91816101f16020850180966117d0565b918237018a8152039961020c601f199b8c8101835282610fea565b5190209085515161021c8161174c565b908a5b8181106102aa5750506102a7999a61029e918351610251816102456020820180956117a3565b03848101835282610fea565b519020602089810151858b015195519182019687526040820192909252336060820152608081019190915260a081019390935260643560c08401528260e081015b03908101835282610fea565b51902093611603565b80f35b806102c26102bc6102d2938c51611267565b51611882565b6102cc8286611267565b5261177e565b61021f565b8880fd5b8780fd5b8480fd5b8380fd5b5080fd5b5091346102e75760803660031901126102e7576001600160401b039080358281116102e35761031d903690830161116e565b6024358381116102df57610334903690840161113e565b93909261033f611052565b9160643590811161041357610356913691016110e7565b949093835151976103668961174c565b98885b8181106103f15750506102a7979881516103998161038b6020820180956117a3565b03601f198101835282610fea565b5190206020860151828701519083519260208401947ffcf35f5ac6a2c28868dc44c302166470266239195f02b0ee408334829333b7668652840152336060840152608083015260a082015260a0815261029e81610fcf565b808b6102cc826104086102bc61040e968d51611267565b92611267565b610369565b8680fd5b5082346104f457602090816003193601126102e3578035906001600160401b0382116102df576104499136910161113e565b929091845b848110610459578580f35b8061046f61046a6001938888611355565b611365565b6104848461047e848a8a611355565b01611365565b33895283855285892091848060a01b0380911692838b528652868a20911690818a5285528589206bffffffffffffffffffffffff60a01b81541690558551918252848201527f89b1add15eff56b3dfe299ad94e01f2b52fbcb80ae1a3baea6ae8c04cb2b98a4853392a20161044e565b8280fd5b50346102e75760603660031901126102e75761058081610516611026565b9361051f61103c565b610527611052565b6001600160a01b03968716835260016020908152848420928816845291825283832090871683528152919020549251938316845260a083901c65ffffffffffff169084015260d09190911c604083015281906060820190565b0390f35b50346102e75760803660031901126102e75761059e611026565b906105a761103c565b916105b0611052565b906064359265ffffffffffff93848116908181036102db577fda9fa7c1b00402c17d0161b249b1ab8bbec047c5a52207b9c112deffd817036b9333895260016020528389209660018060a01b0380921697888b5260205281858b20991698898b52602052848a2092841560001461065e57504216905b82546001600160d01b03191660a09290921b65ffffffffffff60a01b169190911795169485179055815193845260208401523392a480f35b905090610626565b5082346104f45760603660031901126104f457610681611026565b9061068a61103c565b9265ffffffffffff60443581811693908481036102db57338852602091600183528489209660018060a01b0380911697888b528452858a20981697888a5283528489205460d01c93848711156107675761ffff90858403161161075957503380895260018352848920878a528352848920888a52835284892080546001600160d01b031660d09390931b6001600160d01b03191692909217909155835194855290840191909152917f55eb90d810e1700b35a8e7e25395ff7f2b2259abd7415ca2284dfb1c246418f39190a480f35b8451631269ad1360e11b8152fd5b508451633ab3447f60e11b8152fd5b50346102e757806003193601126102e75760209181906001600160a01b0361079c611026565b1681528084528181206024358252845220549051908152f35b5082346104f457816003193601126104f4577f3704902f963766a4e561bbaab6e6cdc1b1dd12f6e9e99648da8843b3f46b918d90359160243533855284602052818520848652602052818520818154179055815193845260208401523392a280f35b823461085e57608036600319011261085e57610831611026565b61083961103c565b610841611052565b606435916001600160a01b03831683036102df576102a793611291565b80fd5b50346102e757816003193601126102e75760209061087d611484565b9051908152f35b508290346104f4576101003660031901126104f4576108a23661107c565b90806083193601126102e3576108b661100b565b9160e4356001600160401b038111610943576102a7946108d8913691016110e7565b9390926108e58351611882565b6020840151828501519083519260208401947f939c21a48a8dbe3a9a2404a1d46691e4d39f6583d6ec6b35714604c986d801068652840152336060840152608083015260a082015260a0815261093a81610fcf565b51902091611570565b8580fd5b5091346102e7576101003660031901126102e757610963611026565b366023190160c081126102e357608085519161097e83610f99565b126102e35784519061098f82610f68565b6001600160a01b03916024358381168103610413578152604435838116810361041357602082015265ffffffffffff60643581811681036102db57888301526084359081168103610413576060820152815260a435938285168503610943576020820194855260c4359087830182815260e4356001600160401b0381116102d757610a1d90369084016110e7565b929093804211610aa7575050918591610a976102a7999a610a9d95610a4288516117fb565b90898c511690519083519260208401947ff3841cd1ff0085026a6327b620b67997ce40f282c88a8e905a7a5626e310f3d086528401526060830152608082015260808152610a8f81610fb4565b51902061153f565b916118e7565b5192511691611379565b8a5163cd21db4f60e01b81529182015260249150fd5b5091346102e75760606003199181833601126102e357610adb611026565b92602435916001600160401b0391828411610413578490843603011261094357865196610b0788610f99565b838201358381116102db578401366023820112156102db578281013590610b2d82611114565b90610b3a84519283610fea565b82825260209260248484019160071b83010191368311610d0157602401905b828210610ca55750505089526044610b7360248701611068565b95828b01968752013593828a0190858252604435908111610ca157610b9b90369086016110e7565b949095804211610c8b5750508998995151610bb58161174c565b908b5b818110610c6857505092889492610a9792610c3597958351610be18161038b86820180956117a3565b5190209060018060a01b039a8b8b51169151928551948501957faf1b0d30d2cab0380e68f0689007e3254993c596f2fdd0aaa7f4d04f794408638752850152830152608082015260808152610a8f81610fb4565b51169082515192845b848110610c49578580f35b80610c628585610c5c6001958751611267565b51611379565b01610c3e565b806102c2610c7d8e9f9e93610c839451611267565b516117fb565b9b9a9b610bb8565b845163cd21db4f60e01b81529182015260249150fd5b8980fd5b608082360312610d0157846080918751610cbe81610f68565b610cc785611068565b8152610cd4838601611068565b83820152610ce389860161112b565b89820152610cf28d860161112b565b8d820152815201910190610b59565b8b80fd5b5082346104f4576101403660031901126104f457610d223661107c565b91806083193601126102e357610d3661100b565b6001600160401b0393906101043585811161041357610d5890369086016110e7565b9093610124359687116102db57610d7861093a966102a7983691016110e7565b969095825190610d8782610fb4565b606482527f5065726d69745769746e6573735472616e7366657246726f6d28546f6b656e5060208301527f65726d697373696f6e73207065726d69747465642c6164647265737320737065848301527f6e6465722c75696e74323536206e6f6e63652c75696e7432353620646561646c6060830152631a5b994b60e21b6080830152835194859181610e1d6020850180966117d0565b918237018b81520393610e38601f1995868101835282610fea565b51902092610e468651611882565b6020878101518589015195519182019687526040820192909252336060820152608081019190915260a081019390935260e43560c08401528260e08101610292565b5082346104f4576020806003193601126102e35781356001600160401b03928382116109435736602383011215610943578101359283116102df576024906007368386831b8401011161041357865b858110610ee2578780f35b80821b830190608060231983360301126102d757610f62888760019460608351610f0b81610f68565b610f476084610f1b8d8601611068565b94858452610f2b60448201611068565b8097850152610f3c60648201611068565b809885015201611068565b9182910152868060a01b038080809316951693169116611291565b01610ed7565b608081019081106001600160401b03821117610f8357604052565b634e487b7160e01b600052604160045260246000fd5b606081019081106001600160401b03821117610f8357604052565b60a081019081106001600160401b03821117610f8357604052565b60c081019081106001600160401b03821117610f8357604052565b90601f801991011681019081106001600160401b03821117610f8357604052565b60c435906001600160a01b038216820361102157565b600080fd5b600435906001600160a01b038216820361102157565b602435906001600160a01b038216820361102157565b604435906001600160a01b038216820361102157565b35906001600160a01b038216820361102157565b60031901906080821261102157604080519061109782610f99565b808294126110215780518181018181106001600160401b03821117610f835782526004356001600160a01b0381168103611021578152602435602082015282526044356020830152606435910152565b9181601f84011215611021578235916001600160401b038311611021576020838186019501011161102157565b6001600160401b038111610f835760051b60200190565b359065ffffffffffff8216820361102157565b9181601f84011215611021578235916001600160401b038311611021576020808501948460061b01011161102157565b91909160608184031261102157604080519161118983610f99565b829481356001600160401b039081811161102157830182601f820112156110215780356111b581611114565b926111c287519485610fea565b818452602094858086019360061b85010193818511611021579086899897969594939201925b848410611205575050505050855280820135908501520135910152565b909192939495969784830312611021578851908982019082821085831117611252578a928992845261123687611068565b81528287013583820152815201930191908897969594936111e8565b60246000634e487b7160e01b81526041600452fd5b805182101561127b5760209160051b010190565b634e487b7160e01b600052603260045260246000fd5b92919260018060a01b03604060008284168152600160205282828220961695868252602052818120338252602052209485549565ffffffffffff8760a01c1680421161133d5750828716968388036112f4575b50506112f295501692611ab9565b565b87848416116000146113195760405163f96fb07160e01b815260048101899052602490fd5b83836112f2990316906bffffffffffffffffffffffff60a01b1617905538806112e4565b60249060405190636c0d979760e11b82526004820152fd5b919081101561127b5760061b0190565b356001600160a01b03811681036110215790565b9065ffffffffffff908160608401511660018060a01b03908185511694826020820151169280866040809401511695169560009187835260016020528383208984526020528383209916988983526020528282209184835460d01c0361147357918561146794927fc6a377bfc4eb120024a8ac08eef205be16b817020812c73223e81d1bdb9708ec9897969450871560001461146c5742165b6001850160d01b6001600160d01b03191660a09190911b65ffffffffffff60a01b1617179055516001600160a01b03909316835265ffffffffffff938416602084015290921660408201529081906060820190565b0390a4565b5086611412565b8351633ab3447f60e11b8152600490fd5b467f0000000000000000000000000000000000000000000000000000000000000000036114cf577f000000000000000000000000000000000000000000000000000000000000000090565b60405160208101907f8cad95687ba82c2ce50e74f7b754645e5117c3a5bec8151c0726d5857980a86682527f9ac997416e8ff9d2ff6bebeb7149f65cdae5e32e2b90440b566bb3044041d36a60408201524660608201523060808201526080815261153981610fb4565b51902090565b611547611484565b9060405190602082019261190160f01b8452602283015260428201526042815261153981610f68565b9192909360a4359360408401518042116115eb57506020845101518086116115d35750918591610a976115b0946115ab6020880151866116fe565b61153f565b51516001600160a01b03908116926084359182168203611021576112f293611ab9565b60249060405190633728b83d60e01b82526004820152fd5b6024906040519063cd21db4f60e01b82526004820152fd5b9590939580515195604092838301518042116116e757508488036116d35761163a918691610a9760209b6115ab8d880151866116fe565b60005b86811061164e575050505050505050565b611659818351611267565b518861166683878a611355565b013590898101518083116116bc575091818888886001968596611690575b5050505050500161163d565b6116b1956116ab9261046a928a8060a01b0390511695611355565b91611ab9565b803888888883611684565b602490865190633728b83d60e01b82526004820152fd5b83516001621398b960e31b03198152600490fd5b60249085519063cd21db4f60e01b82526004820152fd5b90600160ff82161b9160018060a01b0316600052600060205260406000209060081c600052602052604060002081815418809155161561173a57565b604051633ab3447f60e11b8152600490fd5b9061175682611114565b6117636040519182610fea565b8281528092611774601f1991611114565b0190602036910137565b600019811461178d5760010190565b634e487b7160e01b600052601160045260246000fd5b805160208092019160005b8281106117bc575050505090565b8351855293810193928101926001016117ae565b9081519160005b8381106117e8575050016000815290565b80602080928401015181850152016117d7565b60405160208101917f65626cad6cb96493bf6f5ebea28756c966f023ab9e8a83a7101849d5573b3678835260018060a01b038082511660408401526020820151166060830152606065ffffffffffff9182604082015116608085015201511660a082015260a0815260c081018181106001600160401b03821117610f835760405251902090565b6040516020808201927f618358ac3db8dc274f0cd8829da7e234bd48cd73c4a740aede1adec9846d06a1845260018060a01b038151166040840152015160608201526060815261153981610f68565b9190826040910312611021576020823592013590565b6000843b6119e057506041820361199057611904828201826118d1565b9390926040101561127b5760209360009360ff6040608095013560f81c5b60405194855216868401526040830152606082015282805260015afa15611984576000516001600160a01b0390811691821561197257160361196057565b604051632057875960e21b8152600490fd5b604051638baa579f60e01b8152600490fd5b6040513d6000823e3d90fd5b604082036119ce576119a4918101906118d1565b6001600160ff1b0381169260ff91821c601b0191821161178d5760209360009360ff608094611922565b604051634be6321b60e01b8152600490fd5b918093946020926064604051809781958294630b135d3f60e11b9b8c8552600485015260406024850152816044850152848401378181018301889052601f01601f191681010301916001600160a01b03165afa918215611aac578192611a66575b50506001600160e01b03191603611a5457565b604051632c19a72f60e21b8152600490fd5b9091506020813d8211611aa4575b81611a8160209383610fea565b810103126102e75751906001600160e01b03198216820361085e57503880611a41565b3d9150611a74565b50604051903d90823e3d90fd5b9160008093602095606494604051946323b872dd60e01b865260018060a01b03809216600487015216602485015260448401525af13d15601f3d1160016000511416171615611b0457565b60405162461bcd60e51b81526020600482015260146024820152731514905394d1915497d19493d357d1905253115160621b6044820152606490fdfea26469706673582212202048ac4c02782d0096ca572b7ced0a9f055d5a0dde8161a8bbaf3b84dd0e916764736f6c63430008140033","opcodes":"PUSH1 0xC0 CALLVALUE PUSH2 0xBB JUMPI CHAINID PUSH1 0xA0 MSTORE PUSH1 0x20 DUP2 ADD PUSH32 0x8CAD95687BA82C2CE50E74F7B754645E5117C3A5BEC8151C0726D5857980A866 DUP2 MSTORE PUSH32 0x9AC997416E8FF9D2FF6BEBEB7149F65CDAE5E32E2B90440B566BB3044041D36A PUSH1 0x40 DUP4 ADD MSTORE CHAINID PUSH1 0x60 DUP4 ADD MSTORE ADDRESS PUSH1 0x80 DUP4 ADD MSTORE PUSH1 0x80 DUP3 MSTORE PUSH1 0xA0 DUP3 ADD SWAP2 DUP1 DUP4 LT PUSH1 0x1 DUP1 PUSH1 0x40 SHL SUB DUP5 GT OR PUSH2 0xA5 JUMPI DUP3 PUSH1 0x40 MSTORE MLOAD SWAP1 KECCAK256 PUSH1 0x80 MSTORE PUSH2 0x1B76 SWAP1 DUP2 PUSH2 0xC1 DUP3 CODECOPY PUSH1 0x80 MLOAD DUP2 PUSH2 0x14AD ADD MSTORE PUSH1 0xA0 MLOAD DUP2 PUSH2 0x1487 ADD MSTORE RETURN JUMPDEST PUSH4 0x4E487B71 PUSH1 0xE0 SHL PUSH1 0x0 MSTORE PUSH1 0x41 PUSH1 0x4 MSTORE PUSH1 0x24 PUSH1 0x0 REVERT JUMPDEST PUSH1 0x0 DUP1 REVERT INVALID PUSH1 0x40 PUSH1 0x80 DUP2 MSTORE PUSH1 0x4 SWAP1 DUP2 CALLDATASIZE LT ISZERO PUSH2 0x15 JUMPI PUSH1 0x0 DUP1 REVERT JUMPDEST PUSH1 0x0 SWAP1 DUP2 CALLDATALOAD PUSH1 0xE0 SHR DUP1 PUSH4 0xD58B1DB EQ PUSH2 0xE88 JUMPI DUP1 PUSH4 0x137C29FE EQ PUSH2 0xD05 JUMPI DUP1 PUSH4 0x2A2D80D1 EQ PUSH2 0xABD JUMPI DUP1 PUSH4 0x2B67B570 EQ PUSH2 0x947 JUMPI DUP1 PUSH4 0x30F28B7A EQ PUSH2 0x884 JUMPI DUP1 PUSH4 0x3644E515 EQ PUSH2 0x861 JUMPI DUP1 PUSH4 0x36C78516 EQ PUSH2 0x817 JUMPI DUP1 PUSH4 0x3FF9DCB1 EQ PUSH2 0x7B5 JUMPI DUP1 PUSH4 0x4FE02B44 EQ PUSH2 0x776 JUMPI DUP1 PUSH4 0x65D9723C EQ PUSH2 0x666 JUMPI DUP1 PUSH4 0x87517C45 EQ PUSH2 0x584 JUMPI DUP1 PUSH4 0x927DA105 EQ PUSH2 0x4F8 JUMPI DUP1 PUSH4 0xCC53287F EQ PUSH2 0x417 JUMPI DUP1 PUSH4 0xEDD9444B EQ PUSH2 0x2EB JUMPI PUSH4 0xFE8EC1A7 EQ PUSH2 0xC6 JUMPI PUSH1 0x0 DUP1 REVERT JUMPDEST CALLVALUE PUSH2 0x2E7 JUMPI PUSH1 0xC0 CALLDATASIZE PUSH1 0x3 NOT ADD SLT PUSH2 0x2E7 JUMPI PUSH1 0x1 PUSH1 0x1 PUSH1 0x40 SHL SUB DUP4 CALLDATALOAD DUP2 DUP2 GT PUSH2 0x2E3 JUMPI PUSH2 0xF5 SWAP1 CALLDATASIZE SWAP1 DUP7 ADD PUSH2 0x116E JUMP JUMPDEST PUSH1 0x24 CALLDATALOAD DUP3 DUP2 GT PUSH2 0x2DF JUMPI PUSH2 0x10C SWAP1 CALLDATASIZE SWAP1 DUP8 ADD PUSH2 0x113E JUMP JUMPDEST PUSH2 0x114 PUSH2 0x1052 JUMP JUMPDEST SWAP2 PUSH1 0x84 CALLDATALOAD DUP6 DUP2 GT PUSH2 0x2DB JUMPI PUSH2 0x12C SWAP1 CALLDATASIZE SWAP1 DUP11 ADD PUSH2 0x10E7 JUMP JUMPDEST SWAP9 SWAP1 SWAP6 PUSH1 0xA4 CALLDATALOAD SWAP1 DUP2 GT PUSH2 0x2D7 JUMPI PUSH2 0x145 SWAP2 CALLDATASIZE SWAP2 ADD PUSH2 0x10E7 JUMP JUMPDEST SWAP7 SWAP1 SWAP6 DUP2 MLOAD SWAP1 PUSH2 0x154 DUP3 PUSH2 0xFB4 JUMP JUMPDEST PUSH1 0x6B DUP3 MSTORE PUSH32 0x5065726D697442617463685769746E6573735472616E7366657246726F6D2854 PUSH1 0x20 DUP4 ADD MSTORE PUSH32 0x6F6B656E5065726D697373696F6E735B5D207065726D69747465642C61646472 DUP4 DUP4 ADD MSTORE PUSH32 0x657373207370656E6465722C75696E74323536206E6F6E63652C75696E743235 PUSH1 0x60 DUP4 ADD MSTORE PUSH11 0xD88191958591B1A5B994B PUSH1 0xAA SHL PUSH1 0x80 DUP4 ADD MSTORE DUP3 MLOAD SWAP11 DUP12 SWAP2 DUP2 PUSH2 0x1F1 PUSH1 0x20 DUP6 ADD DUP1 SWAP7 PUSH2 0x17D0 JUMP JUMPDEST SWAP2 DUP3 CALLDATACOPY ADD DUP11 DUP2 MSTORE SUB SWAP10 PUSH2 0x20C PUSH1 0x1F NOT SWAP12 DUP13 DUP2 ADD DUP4 MSTORE DUP3 PUSH2 0xFEA JUMP JUMPDEST MLOAD SWAP1 KECCAK256 SWAP1 DUP6 MLOAD MLOAD PUSH2 0x21C DUP2 PUSH2 0x174C JUMP JUMPDEST SWAP1 DUP11 JUMPDEST DUP2 DUP2 LT PUSH2 0x2AA JUMPI POP POP PUSH2 0x2A7 SWAP10 SWAP11 PUSH2 0x29E SWAP2 DUP4 MLOAD PUSH2 0x251 DUP2 PUSH2 0x245 PUSH1 0x20 DUP3 ADD DUP1 SWAP6 PUSH2 0x17A3 JUMP JUMPDEST SUB DUP5 DUP2 ADD DUP4 MSTORE DUP3 PUSH2 0xFEA JUMP JUMPDEST MLOAD SWAP1 KECCAK256 PUSH1 0x20 DUP10 DUP2 ADD MLOAD DUP6 DUP12 ADD MLOAD SWAP6 MLOAD SWAP2 DUP3 ADD SWAP7 DUP8 MSTORE PUSH1 0x40 DUP3 ADD SWAP3 SWAP1 SWAP3 MSTORE CALLER PUSH1 0x60 DUP3 ADD MSTORE PUSH1 0x80 DUP2 ADD SWAP2 SWAP1 SWAP2 MSTORE PUSH1 0xA0 DUP2 ADD SWAP4 SWAP1 SWAP4 MSTORE PUSH1 0x64 CALLDATALOAD PUSH1 0xC0 DUP5 ADD MSTORE DUP3 PUSH1 0xE0 DUP2 ADD JUMPDEST SUB SWAP1 DUP2 ADD DUP4 MSTORE DUP3 PUSH2 0xFEA JUMP JUMPDEST MLOAD SWAP1 KECCAK256 SWAP4 PUSH2 0x1603 JUMP JUMPDEST DUP1 RETURN JUMPDEST DUP1 PUSH2 0x2C2 PUSH2 0x2BC PUSH2 0x2D2 SWAP4 DUP13 MLOAD PUSH2 0x1267 JUMP JUMPDEST MLOAD PUSH2 0x1882 JUMP JUMPDEST PUSH2 0x2CC DUP3 DUP7 PUSH2 0x1267 JUMP JUMPDEST MSTORE PUSH2 0x177E JUMP JUMPDEST PUSH2 0x21F JUMP JUMPDEST DUP9 DUP1 REVERT JUMPDEST DUP8 DUP1 REVERT JUMPDEST DUP5 DUP1 REVERT JUMPDEST DUP4 DUP1 REVERT JUMPDEST POP DUP1 REVERT JUMPDEST POP SWAP2 CALLVALUE PUSH2 0x2E7 JUMPI PUSH1 0x80 CALLDATASIZE PUSH1 0x3 NOT ADD SLT PUSH2 0x2E7 JUMPI PUSH1 0x1 PUSH1 0x1 PUSH1 0x40 SHL SUB SWAP1 DUP1 CALLDATALOAD DUP3 DUP2 GT PUSH2 0x2E3 JUMPI PUSH2 0x31D SWAP1 CALLDATASIZE SWAP1 DUP4 ADD PUSH2 0x116E JUMP JUMPDEST PUSH1 0x24 CALLDATALOAD DUP4 DUP2 GT PUSH2 0x2DF JUMPI PUSH2 0x334 SWAP1 CALLDATASIZE SWAP1 DUP5 ADD PUSH2 0x113E JUMP JUMPDEST SWAP4 SWAP1 SWAP3 PUSH2 0x33F PUSH2 0x1052 JUMP JUMPDEST SWAP2 PUSH1 0x64 CALLDATALOAD SWAP1 DUP2 GT PUSH2 0x413 JUMPI PUSH2 0x356 SWAP2 CALLDATASIZE SWAP2 ADD PUSH2 0x10E7 JUMP JUMPDEST SWAP5 SWAP1 SWAP4 DUP4 MLOAD MLOAD SWAP8 PUSH2 0x366 DUP10 PUSH2 0x174C JUMP JUMPDEST SWAP9 DUP9 JUMPDEST DUP2 DUP2 LT PUSH2 0x3F1 JUMPI POP POP PUSH2 0x2A7 SWAP8 SWAP9 DUP2 MLOAD PUSH2 0x399 DUP2 PUSH2 0x38B PUSH1 0x20 DUP3 ADD DUP1 SWAP6 PUSH2 0x17A3 JUMP JUMPDEST SUB PUSH1 0x1F NOT DUP2 ADD DUP4 MSTORE DUP3 PUSH2 0xFEA JUMP JUMPDEST MLOAD SWAP1 KECCAK256 PUSH1 0x20 DUP7 ADD MLOAD DUP3 DUP8 ADD MLOAD SWAP1 DUP4 MLOAD SWAP3 PUSH1 0x20 DUP5 ADD SWAP5 PUSH32 0xFCF35F5AC6A2C28868DC44C302166470266239195F02B0EE408334829333B766 DUP7 MSTORE DUP5 ADD MSTORE CALLER PUSH1 0x60 DUP5 ADD MSTORE PUSH1 0x80 DUP4 ADD MSTORE PUSH1 0xA0 DUP3 ADD MSTORE PUSH1 0xA0 DUP2 MSTORE PUSH2 0x29E DUP2 PUSH2 0xFCF JUMP JUMPDEST DUP1 DUP12 PUSH2 0x2CC DUP3 PUSH2 0x408 PUSH2 0x2BC PUSH2 0x40E SWAP7 DUP14 MLOAD PUSH2 0x1267 JUMP JUMPDEST SWAP3 PUSH2 0x1267 JUMP JUMPDEST PUSH2 0x369 JUMP JUMPDEST DUP7 DUP1 REVERT JUMPDEST POP DUP3 CALLVALUE PUSH2 0x4F4 JUMPI PUSH1 0x20 SWAP1 DUP2 PUSH1 0x3 NOT CALLDATASIZE ADD SLT PUSH2 0x2E3 JUMPI DUP1 CALLDATALOAD SWAP1 PUSH1 0x1 PUSH1 0x1 PUSH1 0x40 SHL SUB DUP3 GT PUSH2 0x2DF JUMPI PUSH2 0x449 SWAP2 CALLDATASIZE SWAP2 ADD PUSH2 0x113E JUMP JUMPDEST SWAP3 SWAP1 SWAP2 DUP5 JUMPDEST DUP5 DUP2 LT PUSH2 0x459 JUMPI DUP6 DUP1 RETURN JUMPDEST DUP1 PUSH2 0x46F PUSH2 0x46A PUSH1 0x1 SWAP4 DUP9 DUP9 PUSH2 0x1355 JUMP JUMPDEST PUSH2 0x1365 JUMP JUMPDEST PUSH2 0x484 DUP5 PUSH2 0x47E DUP5 DUP11 DUP11 PUSH2 0x1355 JUMP JUMPDEST ADD PUSH2 0x1365 JUMP JUMPDEST CALLER DUP10 MSTORE DUP4 DUP6 MSTORE DUP6 DUP10 KECCAK256 SWAP2 DUP5 DUP1 PUSH1 0xA0 SHL SUB DUP1 SWAP2 AND SWAP3 DUP4 DUP12 MSTORE DUP7 MSTORE DUP7 DUP11 KECCAK256 SWAP2 AND SWAP1 DUP2 DUP11 MSTORE DUP6 MSTORE DUP6 DUP10 KECCAK256 PUSH12 0xFFFFFFFFFFFFFFFFFFFFFFFF PUSH1 0xA0 SHL DUP2 SLOAD AND SWAP1 SSTORE DUP6 MLOAD SWAP2 DUP3 MSTORE DUP5 DUP3 ADD MSTORE PUSH32 0x89B1ADD15EFF56B3DFE299AD94E01F2B52FBCB80AE1A3BAEA6AE8C04CB2B98A4 DUP6 CALLER SWAP3 LOG2 ADD PUSH2 0x44E JUMP JUMPDEST DUP3 DUP1 REVERT JUMPDEST POP CALLVALUE PUSH2 0x2E7 JUMPI PUSH1 0x60 CALLDATASIZE PUSH1 0x3 NOT ADD SLT PUSH2 0x2E7 JUMPI PUSH2 0x580 DUP2 PUSH2 0x516 PUSH2 0x1026 JUMP JUMPDEST SWAP4 PUSH2 0x51F PUSH2 0x103C JUMP JUMPDEST PUSH2 0x527 PUSH2 0x1052 JUMP JUMPDEST PUSH1 0x1 PUSH1 0x1 PUSH1 0xA0 SHL SUB SWAP7 DUP8 AND DUP4 MSTORE PUSH1 0x1 PUSH1 0x20 SWAP1 DUP2 MSTORE DUP5 DUP5 KECCAK256 SWAP3 DUP9 AND DUP5 MSTORE SWAP2 DUP3 MSTORE DUP4 DUP4 KECCAK256 SWAP1 DUP8 AND DUP4 MSTORE DUP2 MSTORE SWAP2 SWAP1 KECCAK256 SLOAD SWAP3 MLOAD SWAP4 DUP4 AND DUP5 MSTORE PUSH1 0xA0 DUP4 SWAP1 SHR PUSH6 0xFFFFFFFFFFFF AND SWAP1 DUP5 ADD MSTORE PUSH1 0xD0 SWAP2 SWAP1 SWAP2 SHR PUSH1 0x40 DUP4 ADD MSTORE DUP2 SWAP1 PUSH1 0x60 DUP3 ADD SWAP1 JUMP JUMPDEST SUB SWAP1 RETURN JUMPDEST POP CALLVALUE PUSH2 0x2E7 JUMPI PUSH1 0x80 CALLDATASIZE PUSH1 0x3 NOT ADD SLT PUSH2 0x2E7 JUMPI PUSH2 0x59E PUSH2 0x1026 JUMP JUMPDEST SWAP1 PUSH2 0x5A7 PUSH2 0x103C JUMP JUMPDEST SWAP2 PUSH2 0x5B0 PUSH2 0x1052 JUMP JUMPDEST SWAP1 PUSH1 0x64 CALLDATALOAD SWAP3 PUSH6 0xFFFFFFFFFFFF SWAP4 DUP5 DUP2 AND SWAP1 DUP2 DUP2 SUB PUSH2 0x2DB JUMPI PUSH32 0xDA9FA7C1B00402C17D0161B249B1AB8BBEC047C5A52207B9C112DEFFD817036B SWAP4 CALLER DUP10 MSTORE PUSH1 0x1 PUSH1 0x20 MSTORE DUP4 DUP10 KECCAK256 SWAP7 PUSH1 0x1 DUP1 PUSH1 0xA0 SHL SUB DUP1 SWAP3 AND SWAP8 DUP9 DUP12 MSTORE PUSH1 0x20 MSTORE DUP2 DUP6 DUP12 KECCAK256 SWAP10 AND SWAP9 DUP10 DUP12 MSTORE PUSH1 0x20 MSTORE DUP5 DUP11 KECCAK256 SWAP3 DUP5 ISZERO PUSH1 0x0 EQ PUSH2 0x65E JUMPI POP TIMESTAMP AND SWAP1 JUMPDEST DUP3 SLOAD PUSH1 0x1 PUSH1 0x1 PUSH1 0xD0 SHL SUB NOT AND PUSH1 0xA0 SWAP3 SWAP1 SWAP3 SHL PUSH6 0xFFFFFFFFFFFF PUSH1 0xA0 SHL AND SWAP2 SWAP1 SWAP2 OR SWAP6 AND SWAP5 DUP6 OR SWAP1 SSTORE DUP2 MLOAD SWAP4 DUP5 MSTORE PUSH1 0x20 DUP5 ADD MSTORE CALLER SWAP3 LOG4 DUP1 RETURN JUMPDEST SWAP1 POP SWAP1 PUSH2 0x626 JUMP JUMPDEST POP DUP3 CALLVALUE PUSH2 0x4F4 JUMPI PUSH1 0x60 CALLDATASIZE PUSH1 0x3 NOT ADD SLT PUSH2 0x4F4 JUMPI PUSH2 0x681 PUSH2 0x1026 JUMP JUMPDEST SWAP1 PUSH2 0x68A PUSH2 0x103C JUMP JUMPDEST SWAP3 PUSH6 0xFFFFFFFFFFFF PUSH1 0x44 CALLDATALOAD DUP2 DUP2 AND SWAP4 SWAP1 DUP5 DUP2 SUB PUSH2 0x2DB JUMPI CALLER DUP9 MSTORE PUSH1 0x20 SWAP2 PUSH1 0x1 DUP4 MSTORE DUP5 DUP10 KECCAK256 SWAP7 PUSH1 0x1 DUP1 PUSH1 0xA0 SHL SUB DUP1 SWAP2 AND SWAP8 DUP9 DUP12 MSTORE DUP5 MSTORE DUP6 DUP11 KECCAK256 SWAP9 AND SWAP8 DUP9 DUP11 MSTORE DUP4 MSTORE DUP5 DUP10 KECCAK256 SLOAD PUSH1 0xD0 SHR SWAP4 DUP5 DUP8 GT ISZERO PUSH2 0x767 JUMPI PUSH2 0xFFFF SWAP1 DUP6 DUP5 SUB AND GT PUSH2 0x759 JUMPI POP CALLER DUP1 DUP10 MSTORE PUSH1 0x1 DUP4 MSTORE DUP5 DUP10 KECCAK256 DUP8 DUP11 MSTORE DUP4 MSTORE DUP5 DUP10 KECCAK256 DUP9 DUP11 MSTORE DUP4 MSTORE DUP5 DUP10 KECCAK256 DUP1 SLOAD PUSH1 0x1 PUSH1 0x1 PUSH1 0xD0 SHL SUB AND PUSH1 0xD0 SWAP4 SWAP1 SWAP4 SHL PUSH1 0x1 PUSH1 0x1 PUSH1 0xD0 SHL SUB NOT AND SWAP3 SWAP1 SWAP3 OR SWAP1 SWAP2 SSTORE DUP4 MLOAD SWAP5 DUP6 MSTORE SWAP1 DUP5 ADD SWAP2 SWAP1 SWAP2 MSTORE SWAP2 PUSH32 0x55EB90D810E1700B35A8E7E25395FF7F2B2259ABD7415CA2284DFB1C246418F3 SWAP2 SWAP1 LOG4 DUP1 RETURN JUMPDEST DUP5 MLOAD PUSH4 0x1269AD13 PUSH1 0xE1 SHL DUP2 MSTORE REVERT JUMPDEST POP DUP5 MLOAD PUSH4 0x3AB3447F PUSH1 0xE1 SHL DUP2 MSTORE REVERT JUMPDEST POP CALLVALUE PUSH2 0x2E7 JUMPI DUP1 PUSH1 0x3 NOT CALLDATASIZE ADD SLT PUSH2 0x2E7 JUMPI PUSH1 0x20 SWAP2 DUP2 SWAP1 PUSH1 0x1 PUSH1 0x1 PUSH1 0xA0 SHL SUB PUSH2 0x79C PUSH2 0x1026 JUMP JUMPDEST AND DUP2 MSTORE DUP1 DUP5 MSTORE DUP2 DUP2 KECCAK256 PUSH1 0x24 CALLDATALOAD DUP3 MSTORE DUP5 MSTORE KECCAK256 SLOAD SWAP1 MLOAD SWAP1 DUP2 MSTORE RETURN JUMPDEST POP DUP3 CALLVALUE PUSH2 0x4F4 JUMPI DUP2 PUSH1 0x3 NOT CALLDATASIZE ADD SLT PUSH2 0x4F4 JUMPI PUSH32 0x3704902F963766A4E561BBAAB6E6CDC1B1DD12F6E9E99648DA8843B3F46B918D SWAP1 CALLDATALOAD SWAP2 PUSH1 0x24 CALLDATALOAD CALLER DUP6 MSTORE DUP5 PUSH1 0x20 MSTORE DUP2 DUP6 KECCAK256 DUP5 DUP7 MSTORE PUSH1 0x20 MSTORE DUP2 DUP6 KECCAK256 DUP2 DUP2 SLOAD OR SWAP1 SSTORE DUP2 MLOAD SWAP4 DUP5 MSTORE PUSH1 0x20 DUP5 ADD MSTORE CALLER SWAP3 LOG2 DUP1 RETURN JUMPDEST DUP3 CALLVALUE PUSH2 0x85E JUMPI PUSH1 0x80 CALLDATASIZE PUSH1 0x3 NOT ADD SLT PUSH2 0x85E JUMPI PUSH2 0x831 PUSH2 0x1026 JUMP JUMPDEST PUSH2 0x839 PUSH2 0x103C JUMP JUMPDEST PUSH2 0x841 PUSH2 0x1052 JUMP JUMPDEST PUSH1 0x64 CALLDATALOAD SWAP2 PUSH1 0x1 PUSH1 0x1 PUSH1 0xA0 SHL SUB DUP4 AND DUP4 SUB PUSH2 0x2DF JUMPI PUSH2 0x2A7 SWAP4 PUSH2 0x1291 JUMP JUMPDEST DUP1 REVERT JUMPDEST POP CALLVALUE PUSH2 0x2E7 JUMPI DUP2 PUSH1 0x3 NOT CALLDATASIZE ADD SLT PUSH2 0x2E7 JUMPI PUSH1 0x20 SWAP1 PUSH2 0x87D PUSH2 0x1484 JUMP JUMPDEST SWAP1 MLOAD SWAP1 DUP2 MSTORE RETURN JUMPDEST POP DUP3 SWAP1 CALLVALUE PUSH2 0x4F4 JUMPI PUSH2 0x100 CALLDATASIZE PUSH1 0x3 NOT ADD SLT PUSH2 0x4F4 JUMPI PUSH2 0x8A2 CALLDATASIZE PUSH2 0x107C JUMP JUMPDEST SWAP1 DUP1 PUSH1 0x83 NOT CALLDATASIZE ADD SLT PUSH2 0x2E3 JUMPI PUSH2 0x8B6 PUSH2 0x100B JUMP JUMPDEST SWAP2 PUSH1 0xE4 CALLDATALOAD PUSH1 0x1 PUSH1 0x1 PUSH1 0x40 SHL SUB DUP2 GT PUSH2 0x943 JUMPI PUSH2 0x2A7 SWAP5 PUSH2 0x8D8 SWAP2 CALLDATASIZE SWAP2 ADD PUSH2 0x10E7 JUMP JUMPDEST SWAP4 SWAP1 SWAP3 PUSH2 0x8E5 DUP4 MLOAD PUSH2 0x1882 JUMP JUMPDEST PUSH1 0x20 DUP5 ADD MLOAD DUP3 DUP6 ADD MLOAD SWAP1 DUP4 MLOAD SWAP3 PUSH1 0x20 DUP5 ADD SWAP5 PUSH32 0x939C21A48A8DBE3A9A2404A1D46691E4D39F6583D6EC6B35714604C986D80106 DUP7 MSTORE DUP5 ADD MSTORE CALLER PUSH1 0x60 DUP5 ADD MSTORE PUSH1 0x80 DUP4 ADD MSTORE PUSH1 0xA0 DUP3 ADD MSTORE PUSH1 0xA0 DUP2 MSTORE PUSH2 0x93A DUP2 PUSH2 0xFCF JUMP JUMPDEST MLOAD SWAP1 KECCAK256 SWAP2 PUSH2 0x1570 JUMP JUMPDEST DUP6 DUP1 REVERT JUMPDEST POP SWAP2 CALLVALUE PUSH2 0x2E7 JUMPI PUSH2 0x100 CALLDATASIZE PUSH1 0x3 NOT ADD SLT PUSH2 0x2E7 JUMPI PUSH2 0x963 PUSH2 0x1026 JUMP JUMPDEST CALLDATASIZE PUSH1 0x23 NOT ADD PUSH1 0xC0 DUP2 SLT PUSH2 0x2E3 JUMPI PUSH1 0x80 DUP6 MLOAD SWAP2 PUSH2 0x97E DUP4 PUSH2 0xF99 JUMP JUMPDEST SLT PUSH2 0x2E3 JUMPI DUP5 MLOAD SWAP1 PUSH2 0x98F DUP3 PUSH2 0xF68 JUMP JUMPDEST PUSH1 0x1 PUSH1 0x1 PUSH1 0xA0 SHL SUB SWAP2 PUSH1 0x24 CALLDATALOAD DUP4 DUP2 AND DUP2 SUB PUSH2 0x413 JUMPI DUP2 MSTORE PUSH1 0x44 CALLDATALOAD DUP4 DUP2 AND DUP2 SUB PUSH2 0x413 JUMPI PUSH1 0x20 DUP3 ADD MSTORE PUSH6 0xFFFFFFFFFFFF PUSH1 0x64 CALLDATALOAD DUP2 DUP2 AND DUP2 SUB PUSH2 0x2DB JUMPI DUP9 DUP4 ADD MSTORE PUSH1 0x84 CALLDATALOAD SWAP1 DUP2 AND DUP2 SUB PUSH2 0x413 JUMPI PUSH1 0x60 DUP3 ADD MSTORE DUP2 MSTORE PUSH1 0xA4 CALLDATALOAD SWAP4 DUP3 DUP6 AND DUP6 SUB PUSH2 0x943 JUMPI PUSH1 0x20 DUP3 ADD SWAP5 DUP6 MSTORE PUSH1 0xC4 CALLDATALOAD SWAP1 DUP8 DUP4 ADD DUP3 DUP2 MSTORE PUSH1 0xE4 CALLDATALOAD PUSH1 0x1 PUSH1 0x1 PUSH1 0x40 SHL SUB DUP2 GT PUSH2 0x2D7 JUMPI PUSH2 0xA1D SWAP1 CALLDATASIZE SWAP1 DUP5 ADD PUSH2 0x10E7 JUMP JUMPDEST SWAP3 SWAP1 SWAP4 DUP1 TIMESTAMP GT PUSH2 0xAA7 JUMPI POP POP SWAP2 DUP6 SWAP2 PUSH2 0xA97 PUSH2 0x2A7 SWAP10 SWAP11 PUSH2 0xA9D SWAP6 PUSH2 0xA42 DUP9 MLOAD PUSH2 0x17FB JUMP JUMPDEST SWAP1 DUP10 DUP13 MLOAD AND SWAP1 MLOAD SWAP1 DUP4 MLOAD SWAP3 PUSH1 0x20 DUP5 ADD SWAP5 PUSH32 0xF3841CD1FF0085026A6327B620B67997CE40F282C88A8E905A7A5626E310F3D0 DUP7 MSTORE DUP5 ADD MSTORE PUSH1 0x60 DUP4 ADD MSTORE PUSH1 0x80 DUP3 ADD MSTORE PUSH1 0x80 DUP2 MSTORE PUSH2 0xA8F DUP2 PUSH2 0xFB4 JUMP JUMPDEST MLOAD SWAP1 KECCAK256 PUSH2 0x153F JUMP JUMPDEST SWAP2 PUSH2 0x18E7 JUMP JUMPDEST MLOAD SWAP3 MLOAD AND SWAP2 PUSH2 0x1379 JUMP JUMPDEST DUP11 MLOAD PUSH4 0xCD21DB4F PUSH1 0xE0 SHL DUP2 MSTORE SWAP2 DUP3 ADD MSTORE PUSH1 0x24 SWAP2 POP REVERT JUMPDEST POP SWAP2 CALLVALUE PUSH2 0x2E7 JUMPI PUSH1 0x60 PUSH1 0x3 NOT SWAP2 DUP2 DUP4 CALLDATASIZE ADD SLT PUSH2 0x2E3 JUMPI PUSH2 0xADB PUSH2 0x1026 JUMP JUMPDEST SWAP3 PUSH1 0x24 CALLDATALOAD SWAP2 PUSH1 0x1 PUSH1 0x1 PUSH1 0x40 SHL SUB SWAP2 DUP3 DUP5 GT PUSH2 0x413 JUMPI DUP5 SWAP1 DUP5 CALLDATASIZE SUB ADD SLT PUSH2 0x943 JUMPI DUP7 MLOAD SWAP7 PUSH2 0xB07 DUP9 PUSH2 0xF99 JUMP JUMPDEST DUP4 DUP3 ADD CALLDATALOAD DUP4 DUP2 GT PUSH2 0x2DB JUMPI DUP5 ADD CALLDATASIZE PUSH1 0x23 DUP3 ADD SLT ISZERO PUSH2 0x2DB JUMPI DUP3 DUP2 ADD CALLDATALOAD SWAP1 PUSH2 0xB2D DUP3 PUSH2 0x1114 JUMP JUMPDEST SWAP1 PUSH2 0xB3A DUP5 MLOAD SWAP3 DUP4 PUSH2 0xFEA JUMP JUMPDEST DUP3 DUP3 MSTORE PUSH1 0x20 SWAP3 PUSH1 0x24 DUP5 DUP5 ADD SWAP2 PUSH1 0x7 SHL DUP4 ADD ADD SWAP2 CALLDATASIZE DUP4 GT PUSH2 0xD01 JUMPI PUSH1 0x24 ADD SWAP1 JUMPDEST DUP3 DUP3 LT PUSH2 0xCA5 JUMPI POP POP POP DUP10 MSTORE PUSH1 0x44 PUSH2 0xB73 PUSH1 0x24 DUP8 ADD PUSH2 0x1068 JUMP JUMPDEST SWAP6 DUP3 DUP12 ADD SWAP7 DUP8 MSTORE ADD CALLDATALOAD SWAP4 DUP3 DUP11 ADD SWAP1 DUP6 DUP3 MSTORE PUSH1 0x44 CALLDATALOAD SWAP1 DUP2 GT PUSH2 0xCA1 JUMPI PUSH2 0xB9B SWAP1 CALLDATASIZE SWAP1 DUP7 ADD PUSH2 0x10E7 JUMP JUMPDEST SWAP5 SWAP1 SWAP6 DUP1 TIMESTAMP GT PUSH2 0xC8B JUMPI POP POP DUP10 SWAP9 SWAP10 MLOAD MLOAD PUSH2 0xBB5 DUP2 PUSH2 0x174C JUMP JUMPDEST SWAP1 DUP12 JUMPDEST DUP2 DUP2 LT PUSH2 0xC68 JUMPI POP POP SWAP3 DUP9 SWAP5 SWAP3 PUSH2 0xA97 SWAP3 PUSH2 0xC35 SWAP8 SWAP6 DUP4 MLOAD PUSH2 0xBE1 DUP2 PUSH2 0x38B DUP7 DUP3 ADD DUP1 SWAP6 PUSH2 0x17A3 JUMP JUMPDEST MLOAD SWAP1 KECCAK256 SWAP1 PUSH1 0x1 DUP1 PUSH1 0xA0 SHL SUB SWAP11 DUP12 DUP12 MLOAD AND SWAP2 MLOAD SWAP3 DUP6 MLOAD SWAP5 DUP6 ADD SWAP6 PUSH32 0xAF1B0D30D2CAB0380E68F0689007E3254993C596F2FDD0AAA7F4D04F79440863 DUP8 MSTORE DUP6 ADD MSTORE DUP4 ADD MSTORE PUSH1 0x80 DUP3 ADD MSTORE PUSH1 0x80 DUP2 MSTORE PUSH2 0xA8F DUP2 PUSH2 0xFB4 JUMP JUMPDEST MLOAD AND SWAP1 DUP3 MLOAD MLOAD SWAP3 DUP5 JUMPDEST DUP5 DUP2 LT PUSH2 0xC49 JUMPI DUP6 DUP1 RETURN JUMPDEST DUP1 PUSH2 0xC62 DUP6 DUP6 PUSH2 0xC5C PUSH1 0x1 SWAP6 DUP8 MLOAD PUSH2 0x1267 JUMP JUMPDEST MLOAD PUSH2 0x1379 JUMP JUMPDEST ADD PUSH2 0xC3E JUMP JUMPDEST DUP1 PUSH2 0x2C2 PUSH2 0xC7D DUP15 SWAP16 SWAP15 SWAP4 PUSH2 0xC83 SWAP5 MLOAD PUSH2 0x1267 JUMP JUMPDEST MLOAD PUSH2 0x17FB JUMP JUMPDEST SWAP12 SWAP11 SWAP12 PUSH2 0xBB8 JUMP JUMPDEST DUP5 MLOAD PUSH4 0xCD21DB4F PUSH1 0xE0 SHL DUP2 MSTORE SWAP2 DUP3 ADD MSTORE PUSH1 0x24 SWAP2 POP REVERT JUMPDEST DUP10 DUP1 REVERT JUMPDEST PUSH1 0x80 DUP3 CALLDATASIZE SUB SLT PUSH2 0xD01 JUMPI DUP5 PUSH1 0x80 SWAP2 DUP8 MLOAD PUSH2 0xCBE DUP2 PUSH2 0xF68 JUMP JUMPDEST PUSH2 0xCC7 DUP6 PUSH2 0x1068 JUMP JUMPDEST DUP2 MSTORE PUSH2 0xCD4 DUP4 DUP7 ADD PUSH2 0x1068 JUMP JUMPDEST DUP4 DUP3 ADD MSTORE PUSH2 0xCE3 DUP10 DUP7 ADD PUSH2 0x112B JUMP JUMPDEST DUP10 DUP3 ADD MSTORE PUSH2 0xCF2 DUP14 DUP7 ADD PUSH2 0x112B JUMP JUMPDEST DUP14 DUP3 ADD MSTORE DUP2 MSTORE ADD SWAP2 ADD SWAP1 PUSH2 0xB59 JUMP JUMPDEST DUP12 DUP1 REVERT JUMPDEST POP DUP3 CALLVALUE PUSH2 0x4F4 JUMPI PUSH2 0x140 CALLDATASIZE PUSH1 0x3 NOT ADD SLT PUSH2 0x4F4 JUMPI PUSH2 0xD22 CALLDATASIZE PUSH2 0x107C JUMP JUMPDEST SWAP2 DUP1 PUSH1 0x83 NOT CALLDATASIZE ADD SLT PUSH2 0x2E3 JUMPI PUSH2 0xD36 PUSH2 0x100B JUMP JUMPDEST PUSH1 0x1 PUSH1 0x1 PUSH1 0x40 SHL SUB SWAP4 SWAP1 PUSH2 0x104 CALLDATALOAD DUP6 DUP2 GT PUSH2 0x413 JUMPI PUSH2 0xD58 SWAP1 CALLDATASIZE SWAP1 DUP7 ADD PUSH2 0x10E7 JUMP JUMPDEST SWAP1 SWAP4 PUSH2 0x124 CALLDATALOAD SWAP7 DUP8 GT PUSH2 0x2DB JUMPI PUSH2 0xD78 PUSH2 0x93A SWAP7 PUSH2 0x2A7 SWAP9 CALLDATASIZE SWAP2 ADD PUSH2 0x10E7 JUMP JUMPDEST SWAP7 SWAP1 SWAP6 DUP3 MLOAD SWAP1 PUSH2 0xD87 DUP3 PUSH2 0xFB4 JUMP JUMPDEST PUSH1 0x64 DUP3 MSTORE PUSH32 0x5065726D69745769746E6573735472616E7366657246726F6D28546F6B656E50 PUSH1 0x20 DUP4 ADD MSTORE PUSH32 0x65726D697373696F6E73207065726D69747465642C6164647265737320737065 DUP5 DUP4 ADD MSTORE PUSH32 0x6E6465722C75696E74323536206E6F6E63652C75696E7432353620646561646C PUSH1 0x60 DUP4 ADD MSTORE PUSH4 0x1A5B994B PUSH1 0xE2 SHL PUSH1 0x80 DUP4 ADD MSTORE DUP4 MLOAD SWAP5 DUP6 SWAP2 DUP2 PUSH2 0xE1D PUSH1 0x20 DUP6 ADD DUP1 SWAP7 PUSH2 0x17D0 JUMP JUMPDEST SWAP2 DUP3 CALLDATACOPY ADD DUP12 DUP2 MSTORE SUB SWAP4 PUSH2 0xE38 PUSH1 0x1F NOT SWAP6 DUP7 DUP2 ADD DUP4 MSTORE DUP3 PUSH2 0xFEA JUMP JUMPDEST MLOAD SWAP1 KECCAK256 SWAP3 PUSH2 0xE46 DUP7 MLOAD PUSH2 0x1882 JUMP JUMPDEST PUSH1 0x20 DUP8 DUP2 ADD MLOAD DUP6 DUP10 ADD MLOAD SWAP6 MLOAD SWAP2 DUP3 ADD SWAP7 DUP8 MSTORE PUSH1 0x40 DUP3 ADD SWAP3 SWAP1 SWAP3 MSTORE CALLER PUSH1 0x60 DUP3 ADD MSTORE PUSH1 0x80 DUP2 ADD SWAP2 SWAP1 SWAP2 MSTORE PUSH1 0xA0 DUP2 ADD SWAP4 SWAP1 SWAP4 MSTORE PUSH1 0xE4 CALLDATALOAD PUSH1 0xC0 DUP5 ADD MSTORE DUP3 PUSH1 0xE0 DUP2 ADD PUSH2 0x292 JUMP JUMPDEST POP DUP3 CALLVALUE PUSH2 0x4F4 JUMPI PUSH1 0x20 DUP1 PUSH1 0x3 NOT CALLDATASIZE ADD SLT PUSH2 0x2E3 JUMPI DUP2 CALLDATALOAD PUSH1 0x1 PUSH1 0x1 PUSH1 0x40 SHL SUB SWAP3 DUP4 DUP3 GT PUSH2 0x943 JUMPI CALLDATASIZE PUSH1 0x23 DUP4 ADD SLT ISZERO PUSH2 0x943 JUMPI DUP2 ADD CALLDATALOAD SWAP3 DUP4 GT PUSH2 0x2DF JUMPI PUSH1 0x24 SWAP1 PUSH1 0x7 CALLDATASIZE DUP4 DUP7 DUP4 SHL DUP5 ADD ADD GT PUSH2 0x413 JUMPI DUP7 JUMPDEST DUP6 DUP2 LT PUSH2 0xEE2 JUMPI DUP8 DUP1 RETURN JUMPDEST DUP1 DUP3 SHL DUP4 ADD SWAP1 PUSH1 0x80 PUSH1 0x23 NOT DUP4 CALLDATASIZE SUB ADD SLT PUSH2 0x2D7 JUMPI PUSH2 0xF62 DUP9 DUP8 PUSH1 0x1 SWAP5 PUSH1 0x60 DUP4 MLOAD PUSH2 0xF0B DUP2 PUSH2 0xF68 JUMP JUMPDEST PUSH2 0xF47 PUSH1 0x84 PUSH2 0xF1B DUP14 DUP7 ADD PUSH2 0x1068 JUMP JUMPDEST SWAP5 DUP6 DUP5 MSTORE PUSH2 0xF2B PUSH1 0x44 DUP3 ADD PUSH2 0x1068 JUMP JUMPDEST DUP1 SWAP8 DUP6 ADD MSTORE PUSH2 0xF3C PUSH1 0x64 DUP3 ADD PUSH2 0x1068 JUMP JUMPDEST DUP1 SWAP9 DUP6 ADD MSTORE ADD PUSH2 0x1068 JUMP JUMPDEST SWAP2 DUP3 SWAP2 ADD MSTORE DUP7 DUP1 PUSH1 0xA0 SHL SUB DUP1 DUP1 DUP1 SWAP4 AND SWAP6 AND SWAP4 AND SWAP2 AND PUSH2 0x1291 JUMP JUMPDEST ADD PUSH2 0xED7 JUMP JUMPDEST PUSH1 0x80 DUP2 ADD SWAP1 DUP2 LT PUSH1 0x1 PUSH1 0x1 PUSH1 0x40 SHL SUB DUP3 GT OR PUSH2 0xF83 JUMPI PUSH1 0x40 MSTORE JUMP JUMPDEST PUSH4 0x4E487B71 PUSH1 0xE0 SHL PUSH1 0x0 MSTORE PUSH1 0x41 PUSH1 0x4 MSTORE PUSH1 0x24 PUSH1 0x0 REVERT JUMPDEST PUSH1 0x60 DUP2 ADD SWAP1 DUP2 LT PUSH1 0x1 PUSH1 0x1 PUSH1 0x40 SHL SUB DUP3 GT OR PUSH2 0xF83 JUMPI PUSH1 0x40 MSTORE JUMP JUMPDEST PUSH1 0xA0 DUP2 ADD SWAP1 DUP2 LT PUSH1 0x1 PUSH1 0x1 PUSH1 0x40 SHL SUB DUP3 GT OR PUSH2 0xF83 JUMPI PUSH1 0x40 MSTORE JUMP JUMPDEST PUSH1 0xC0 DUP2 ADD SWAP1 DUP2 LT PUSH1 0x1 PUSH1 0x1 PUSH1 0x40 SHL SUB DUP3 GT OR PUSH2 0xF83 JUMPI PUSH1 0x40 MSTORE JUMP JUMPDEST SWAP1 PUSH1 0x1F DUP1 NOT SWAP2 ADD AND DUP2 ADD SWAP1 DUP2 LT PUSH1 0x1 PUSH1 0x1 PUSH1 0x40 SHL SUB DUP3 GT OR PUSH2 0xF83 JUMPI PUSH1 0x40 MSTORE JUMP JUMPDEST PUSH1 0xC4 CALLDATALOAD SWAP1 PUSH1 0x1 PUSH1 0x1 PUSH1 0xA0 SHL SUB DUP3 AND DUP3 SUB PUSH2 0x1021 JUMPI JUMP JUMPDEST PUSH1 0x0 DUP1 REVERT JUMPDEST PUSH1 0x4 CALLDATALOAD SWAP1 PUSH1 0x1 PUSH1 0x1 PUSH1 0xA0 SHL SUB DUP3 AND DUP3 SUB PUSH2 0x1021 JUMPI JUMP JUMPDEST PUSH1 0x24 CALLDATALOAD SWAP1 PUSH1 0x1 PUSH1 0x1 PUSH1 0xA0 SHL SUB DUP3 AND DUP3 SUB PUSH2 0x1021 JUMPI JUMP JUMPDEST PUSH1 0x44 CALLDATALOAD SWAP1 PUSH1 0x1 PUSH1 0x1 PUSH1 0xA0 SHL SUB DUP3 AND DUP3 SUB PUSH2 0x1021 JUMPI JUMP JUMPDEST CALLDATALOAD SWAP1 PUSH1 0x1 PUSH1 0x1 PUSH1 0xA0 SHL SUB DUP3 AND DUP3 SUB PUSH2 0x1021 JUMPI JUMP JUMPDEST PUSH1 0x3 NOT ADD SWAP1 PUSH1 0x80 DUP3 SLT PUSH2 0x1021 JUMPI PUSH1 0x40 DUP1 MLOAD SWAP1 PUSH2 0x1097 DUP3 PUSH2 0xF99 JUMP JUMPDEST DUP1 DUP3 SWAP5 SLT PUSH2 0x1021 JUMPI DUP1 MLOAD DUP2 DUP2 ADD DUP2 DUP2 LT PUSH1 0x1 PUSH1 0x1 PUSH1 0x40 SHL SUB DUP3 GT OR PUSH2 0xF83 JUMPI DUP3 MSTORE PUSH1 0x4 CALLDATALOAD PUSH1 0x1 PUSH1 0x1 PUSH1 0xA0 SHL SUB DUP2 AND DUP2 SUB PUSH2 0x1021 JUMPI DUP2 MSTORE PUSH1 0x24 CALLDATALOAD PUSH1 0x20 DUP3 ADD MSTORE DUP3 MSTORE PUSH1 0x44 CALLDATALOAD PUSH1 0x20 DUP4 ADD MSTORE PUSH1 0x64 CALLDATALOAD SWAP2 ADD MSTORE JUMP JUMPDEST SWAP2 DUP2 PUSH1 0x1F DUP5 ADD SLT ISZERO PUSH2 0x1021 JUMPI DUP3 CALLDATALOAD SWAP2 PUSH1 0x1 PUSH1 0x1 PUSH1 0x40 SHL SUB DUP4 GT PUSH2 0x1021 JUMPI PUSH1 0x20 DUP4 DUP2 DUP7 ADD SWAP6 ADD ADD GT PUSH2 0x1021 JUMPI JUMP JUMPDEST PUSH1 0x1 PUSH1 0x1 PUSH1 0x40 SHL SUB DUP2 GT PUSH2 0xF83 JUMPI PUSH1 0x5 SHL PUSH1 0x20 ADD SWAP1 JUMP JUMPDEST CALLDATALOAD SWAP1 PUSH6 0xFFFFFFFFFFFF DUP3 AND DUP3 SUB PUSH2 0x1021 JUMPI JUMP JUMPDEST SWAP2 DUP2 PUSH1 0x1F DUP5 ADD SLT ISZERO PUSH2 0x1021 JUMPI DUP3 CALLDATALOAD SWAP2 PUSH1 0x1 PUSH1 0x1 PUSH1 0x40 SHL SUB DUP4 GT PUSH2 0x1021 JUMPI PUSH1 0x20 DUP1 DUP6 ADD SWAP5 DUP5 PUSH1 0x6 SHL ADD ADD GT PUSH2 0x1021 JUMPI JUMP JUMPDEST SWAP2 SWAP1 SWAP2 PUSH1 0x60 DUP2 DUP5 SUB SLT PUSH2 0x1021 JUMPI PUSH1 0x40 DUP1 MLOAD SWAP2 PUSH2 0x1189 DUP4 PUSH2 0xF99 JUMP JUMPDEST DUP3 SWAP5 DUP2 CALLDATALOAD PUSH1 0x1 PUSH1 0x1 PUSH1 0x40 SHL SUB SWAP1 DUP2 DUP2 GT PUSH2 0x1021 JUMPI DUP4 ADD DUP3 PUSH1 0x1F DUP3 ADD SLT ISZERO PUSH2 0x1021 JUMPI DUP1 CALLDATALOAD PUSH2 0x11B5 DUP2 PUSH2 0x1114 JUMP JUMPDEST SWAP3 PUSH2 0x11C2 DUP8 MLOAD SWAP5 DUP6 PUSH2 0xFEA JUMP JUMPDEST DUP2 DUP5 MSTORE PUSH1 0x20 SWAP5 DUP6 DUP1 DUP7 ADD SWAP4 PUSH1 0x6 SHL DUP6 ADD ADD SWAP4 DUP2 DUP6 GT PUSH2 0x1021 JUMPI SWAP1 DUP7 DUP10 SWAP9 SWAP8 SWAP7 SWAP6 SWAP5 SWAP4 SWAP3 ADD SWAP3 JUMPDEST DUP5 DUP5 LT PUSH2 0x1205 JUMPI POP POP POP POP POP DUP6 MSTORE DUP1 DUP3 ADD CALLDATALOAD SWAP1 DUP6 ADD MSTORE ADD CALLDATALOAD SWAP2 ADD MSTORE JUMP JUMPDEST SWAP1 SWAP2 SWAP3 SWAP4 SWAP5 SWAP6 SWAP7 SWAP8 DUP5 DUP4 SUB SLT PUSH2 0x1021 JUMPI DUP9 MLOAD SWAP1 DUP10 DUP3 ADD SWAP1 DUP3 DUP3 LT DUP6 DUP4 GT OR PUSH2 0x1252 JUMPI DUP11 SWAP3 DUP10 SWAP3 DUP5 MSTORE PUSH2 0x1236 DUP8 PUSH2 0x1068 JUMP JUMPDEST DUP2 MSTORE DUP3 DUP8 ADD CALLDATALOAD DUP4 DUP3 ADD MSTORE DUP2 MSTORE ADD SWAP4 ADD SWAP2 SWAP1 DUP9 SWAP8 SWAP7 SWAP6 SWAP5 SWAP4 PUSH2 0x11E8 JUMP JUMPDEST PUSH1 0x24 PUSH1 0x0 PUSH4 0x4E487B71 PUSH1 0xE0 SHL DUP2 MSTORE PUSH1 0x41 PUSH1 0x4 MSTORE REVERT JUMPDEST DUP1 MLOAD DUP3 LT ISZERO PUSH2 0x127B JUMPI PUSH1 0x20 SWAP2 PUSH1 0x5 SHL ADD ADD SWAP1 JUMP JUMPDEST PUSH4 0x4E487B71 PUSH1 0xE0 SHL PUSH1 0x0 MSTORE PUSH1 0x32 PUSH1 0x4 MSTORE PUSH1 0x24 PUSH1 0x0 REVERT JUMPDEST SWAP3 SWAP2 SWAP3 PUSH1 0x1 DUP1 PUSH1 0xA0 SHL SUB PUSH1 0x40 PUSH1 0x0 DUP3 DUP5 AND DUP2 MSTORE PUSH1 0x1 PUSH1 0x20 MSTORE DUP3 DUP3 DUP3 KECCAK256 SWAP7 AND SWAP6 DUP7 DUP3 MSTORE PUSH1 0x20 MSTORE DUP2 DUP2 KECCAK256 CALLER DUP3 MSTORE PUSH1 0x20 MSTORE KECCAK256 SWAP5 DUP6 SLOAD SWAP6 PUSH6 0xFFFFFFFFFFFF DUP8 PUSH1 0xA0 SHR AND DUP1 TIMESTAMP GT PUSH2 0x133D JUMPI POP DUP3 DUP8 AND SWAP7 DUP4 DUP9 SUB PUSH2 0x12F4 JUMPI JUMPDEST POP POP PUSH2 0x12F2 SWAP6 POP AND SWAP3 PUSH2 0x1AB9 JUMP JUMPDEST JUMP JUMPDEST DUP8 DUP5 DUP5 AND GT PUSH1 0x0 EQ PUSH2 0x1319 JUMPI PUSH1 0x40 MLOAD PUSH4 0xF96FB071 PUSH1 0xE0 SHL DUP2 MSTORE PUSH1 0x4 DUP2 ADD DUP10 SWAP1 MSTORE PUSH1 0x24 SWAP1 REVERT JUMPDEST DUP4 DUP4 PUSH2 0x12F2 SWAP10 SUB AND SWAP1 PUSH12 0xFFFFFFFFFFFFFFFFFFFFFFFF PUSH1 0xA0 SHL AND OR SWAP1 SSTORE CODESIZE DUP1 PUSH2 0x12E4 JUMP JUMPDEST PUSH1 0x24 SWAP1 PUSH1 0x40 MLOAD SWAP1 PUSH4 0x6C0D9797 PUSH1 0xE1 SHL DUP3 MSTORE PUSH1 0x4 DUP3 ADD MSTORE REVERT JUMPDEST SWAP2 SWAP1 DUP2 LT ISZERO PUSH2 0x127B JUMPI PUSH1 0x6 SHL ADD SWAP1 JUMP JUMPDEST CALLDATALOAD PUSH1 0x1 PUSH1 0x1 PUSH1 0xA0 SHL SUB DUP2 AND DUP2 SUB PUSH2 0x1021 JUMPI SWAP1 JUMP JUMPDEST SWAP1 PUSH6 0xFFFFFFFFFFFF SWAP1 DUP2 PUSH1 0x60 DUP5 ADD MLOAD AND PUSH1 0x1 DUP1 PUSH1 0xA0 SHL SUB SWAP1 DUP2 DUP6 MLOAD AND SWAP5 DUP3 PUSH1 0x20 DUP3 ADD MLOAD AND SWAP3 DUP1 DUP7 PUSH1 0x40 DUP1 SWAP5 ADD MLOAD AND SWAP6 AND SWAP6 PUSH1 0x0 SWAP2 DUP8 DUP4 MSTORE PUSH1 0x1 PUSH1 0x20 MSTORE DUP4 DUP4 KECCAK256 DUP10 DUP5 MSTORE PUSH1 0x20 MSTORE DUP4 DUP4 KECCAK256 SWAP10 AND SWAP9 DUP10 DUP4 MSTORE PUSH1 0x20 MSTORE DUP3 DUP3 KECCAK256 SWAP2 DUP5 DUP4 SLOAD PUSH1 0xD0 SHR SUB PUSH2 0x1473 JUMPI SWAP2 DUP6 PUSH2 0x1467 SWAP5 SWAP3 PUSH32 0xC6A377BFC4EB120024A8AC08EEF205BE16B817020812C73223E81D1BDB9708EC SWAP9 SWAP8 SWAP7 SWAP5 POP DUP8 ISZERO PUSH1 0x0 EQ PUSH2 0x146C JUMPI TIMESTAMP AND JUMPDEST PUSH1 0x1 DUP6 ADD PUSH1 0xD0 SHL PUSH1 0x1 PUSH1 0x1 PUSH1 0xD0 SHL SUB NOT AND PUSH1 0xA0 SWAP2 SWAP1 SWAP2 SHL PUSH6 0xFFFFFFFFFFFF PUSH1 0xA0 SHL AND OR OR SWAP1 SSTORE MLOAD PUSH1 0x1 PUSH1 0x1 PUSH1 0xA0 SHL SUB SWAP1 SWAP4 AND DUP4 MSTORE PUSH6 0xFFFFFFFFFFFF SWAP4 DUP5 AND PUSH1 0x20 DUP5 ADD MSTORE SWAP1 SWAP3 AND PUSH1 0x40 DUP3 ADD MSTORE SWAP1 DUP2 SWAP1 PUSH1 0x60 DUP3 ADD SWAP1 JUMP JUMPDEST SUB SWAP1 LOG4 JUMP JUMPDEST POP DUP7 PUSH2 0x1412 JUMP JUMPDEST DUP4 MLOAD PUSH4 0x3AB3447F PUSH1 0xE1 SHL DUP2 MSTORE PUSH1 0x4 SWAP1 REVERT JUMPDEST CHAINID PUSH32 0x0 SUB PUSH2 0x14CF JUMPI PUSH32 0x0 SWAP1 JUMP JUMPDEST PUSH1 0x40 MLOAD PUSH1 0x20 DUP2 ADD SWAP1 PUSH32 0x8CAD95687BA82C2CE50E74F7B754645E5117C3A5BEC8151C0726D5857980A866 DUP3 MSTORE PUSH32 0x9AC997416E8FF9D2FF6BEBEB7149F65CDAE5E32E2B90440B566BB3044041D36A PUSH1 0x40 DUP3 ADD MSTORE CHAINID PUSH1 0x60 DUP3 ADD MSTORE ADDRESS PUSH1 0x80 DUP3 ADD MSTORE PUSH1 0x80 DUP2 MSTORE PUSH2 0x1539 DUP2 PUSH2 0xFB4 JUMP JUMPDEST MLOAD SWAP1 KECCAK256 SWAP1 JUMP JUMPDEST PUSH2 0x1547 PUSH2 0x1484 JUMP JUMPDEST SWAP1 PUSH1 0x40 MLOAD SWAP1 PUSH1 0x20 DUP3 ADD SWAP3 PUSH2 0x1901 PUSH1 0xF0 SHL DUP5 MSTORE PUSH1 0x22 DUP4 ADD MSTORE PUSH1 0x42 DUP3 ADD MSTORE PUSH1 0x42 DUP2 MSTORE PUSH2 0x1539 DUP2 PUSH2 0xF68 JUMP JUMPDEST SWAP2 SWAP3 SWAP1 SWAP4 PUSH1 0xA4 CALLDATALOAD SWAP4 PUSH1 0x40 DUP5 ADD MLOAD DUP1 TIMESTAMP GT PUSH2 0x15EB JUMPI POP PUSH1 0x20 DUP5 MLOAD ADD MLOAD DUP1 DUP7 GT PUSH2 0x15D3 JUMPI POP SWAP2 DUP6 SWAP2 PUSH2 0xA97 PUSH2 0x15B0 SWAP5 PUSH2 0x15AB PUSH1 0x20 DUP9 ADD MLOAD DUP7 PUSH2 0x16FE JUMP JUMPDEST PUSH2 0x153F JUMP JUMPDEST MLOAD MLOAD PUSH1 0x1 PUSH1 0x1 PUSH1 0xA0 SHL SUB SWAP1 DUP2 AND SWAP3 PUSH1 0x84 CALLDATALOAD SWAP2 DUP3 AND DUP3 SUB PUSH2 0x1021 JUMPI PUSH2 0x12F2 SWAP4 PUSH2 0x1AB9 JUMP JUMPDEST PUSH1 0x24 SWAP1 PUSH1 0x40 MLOAD SWAP1 PUSH4 0x3728B83D PUSH1 0xE0 SHL DUP3 MSTORE PUSH1 0x4 DUP3 ADD MSTORE REVERT JUMPDEST PUSH1 0x24 SWAP1 PUSH1 0x40 MLOAD SWAP1 PUSH4 0xCD21DB4F PUSH1 0xE0 SHL DUP3 MSTORE PUSH1 0x4 DUP3 ADD MSTORE REVERT JUMPDEST SWAP6 SWAP1 SWAP4 SWAP6 DUP1 MLOAD MLOAD SWAP6 PUSH1 0x40 SWAP3 DUP4 DUP4 ADD MLOAD DUP1 TIMESTAMP GT PUSH2 0x16E7 JUMPI POP DUP5 DUP9 SUB PUSH2 0x16D3 JUMPI PUSH2 0x163A SWAP2 DUP7 SWAP2 PUSH2 0xA97 PUSH1 0x20 SWAP12 PUSH2 0x15AB DUP14 DUP9 ADD MLOAD DUP7 PUSH2 0x16FE JUMP JUMPDEST PUSH1 0x0 JUMPDEST DUP7 DUP2 LT PUSH2 0x164E JUMPI POP POP POP POP POP POP POP POP JUMP JUMPDEST PUSH2 0x1659 DUP2 DUP4 MLOAD PUSH2 0x1267 JUMP JUMPDEST MLOAD DUP9 PUSH2 0x1666 DUP4 DUP8 DUP11 PUSH2 0x1355 JUMP JUMPDEST ADD CALLDATALOAD SWAP1 DUP10 DUP2 ADD MLOAD DUP1 DUP4 GT PUSH2 0x16BC JUMPI POP SWAP2 DUP2 DUP9 DUP9 DUP9 PUSH1 0x1 SWAP7 DUP6 SWAP7 PUSH2 0x1690 JUMPI JUMPDEST POP POP POP POP POP POP ADD PUSH2 0x163D JUMP JUMPDEST PUSH2 0x16B1 SWAP6 PUSH2 0x16AB SWAP3 PUSH2 0x46A SWAP3 DUP11 DUP1 PUSH1 0xA0 SHL SUB SWAP1 MLOAD AND SWAP6 PUSH2 0x1355 JUMP JUMPDEST SWAP2 PUSH2 0x1AB9 JUMP JUMPDEST DUP1 CODESIZE DUP9 DUP9 DUP9 DUP4 PUSH2 0x1684 JUMP JUMPDEST PUSH1 0x24 SWAP1 DUP7 MLOAD SWAP1 PUSH4 0x3728B83D PUSH1 0xE0 SHL DUP3 MSTORE PUSH1 0x4 DUP3 ADD MSTORE REVERT JUMPDEST DUP4 MLOAD PUSH1 0x1 PUSH3 0x1398B9 PUSH1 0xE3 SHL SUB NOT DUP2 MSTORE PUSH1 0x4 SWAP1 REVERT JUMPDEST PUSH1 0x24 SWAP1 DUP6 MLOAD SWAP1 PUSH4 0xCD21DB4F PUSH1 0xE0 SHL DUP3 MSTORE PUSH1 0x4 DUP3 ADD MSTORE REVERT JUMPDEST SWAP1 PUSH1 0x1 PUSH1 0xFF DUP3 AND SHL SWAP2 PUSH1 0x1 DUP1 PUSH1 0xA0 SHL SUB AND PUSH1 0x0 MSTORE PUSH1 0x0 PUSH1 0x20 MSTORE PUSH1 0x40 PUSH1 0x0 KECCAK256 SWAP1 PUSH1 0x8 SHR PUSH1 0x0 MSTORE PUSH1 0x20 MSTORE PUSH1 0x40 PUSH1 0x0 KECCAK256 DUP2 DUP2 SLOAD XOR DUP1 SWAP2 SSTORE AND ISZERO PUSH2 0x173A JUMPI JUMP JUMPDEST PUSH1 0x40 MLOAD PUSH4 0x3AB3447F PUSH1 0xE1 SHL DUP2 MSTORE PUSH1 0x4 SWAP1 REVERT JUMPDEST SWAP1 PUSH2 0x1756 DUP3 PUSH2 0x1114 JUMP JUMPDEST PUSH2 0x1763 PUSH1 0x40 MLOAD SWAP2 DUP3 PUSH2 0xFEA JUMP JUMPDEST DUP3 DUP2 MSTORE DUP1 SWAP3 PUSH2 0x1774 PUSH1 0x1F NOT SWAP2 PUSH2 0x1114 JUMP JUMPDEST ADD SWAP1 PUSH1 0x20 CALLDATASIZE SWAP2 ADD CALLDATACOPY JUMP JUMPDEST PUSH1 0x0 NOT DUP2 EQ PUSH2 0x178D JUMPI PUSH1 0x1 ADD SWAP1 JUMP JUMPDEST PUSH4 0x4E487B71 PUSH1 0xE0 SHL PUSH1 0x0 MSTORE PUSH1 0x11 PUSH1 0x4 MSTORE PUSH1 0x24 PUSH1 0x0 REVERT JUMPDEST DUP1 MLOAD PUSH1 0x20 DUP1 SWAP3 ADD SWAP2 PUSH1 0x0 JUMPDEST DUP3 DUP2 LT PUSH2 0x17BC JUMPI POP POP POP POP SWAP1 JUMP JUMPDEST DUP4 MLOAD DUP6 MSTORE SWAP4 DUP2 ADD SWAP4 SWAP3 DUP2 ADD SWAP3 PUSH1 0x1 ADD PUSH2 0x17AE JUMP JUMPDEST SWAP1 DUP2 MLOAD SWAP2 PUSH1 0x0 JUMPDEST DUP4 DUP2 LT PUSH2 0x17E8 JUMPI POP POP ADD PUSH1 0x0 DUP2 MSTORE SWAP1 JUMP JUMPDEST DUP1 PUSH1 0x20 DUP1 SWAP3 DUP5 ADD ADD MLOAD DUP2 DUP6 ADD MSTORE ADD PUSH2 0x17D7 JUMP JUMPDEST PUSH1 0x40 MLOAD PUSH1 0x20 DUP2 ADD SWAP2 PUSH32 0x65626CAD6CB96493BF6F5EBEA28756C966F023AB9E8A83A7101849D5573B3678 DUP4 MSTORE PUSH1 0x1 DUP1 PUSH1 0xA0 SHL SUB DUP1 DUP3 MLOAD AND PUSH1 0x40 DUP5 ADD MSTORE PUSH1 0x20 DUP3 ADD MLOAD AND PUSH1 0x60 DUP4 ADD MSTORE PUSH1 0x60 PUSH6 0xFFFFFFFFFFFF SWAP2 DUP3 PUSH1 0x40 DUP3 ADD MLOAD AND PUSH1 0x80 DUP6 ADD MSTORE ADD MLOAD AND PUSH1 0xA0 DUP3 ADD MSTORE PUSH1 0xA0 DUP2 MSTORE PUSH1 0xC0 DUP2 ADD DUP2 DUP2 LT PUSH1 0x1 PUSH1 0x1 PUSH1 0x40 SHL SUB DUP3 GT OR PUSH2 0xF83 JUMPI PUSH1 0x40 MSTORE MLOAD SWAP1 KECCAK256 SWAP1 JUMP JUMPDEST PUSH1 0x40 MLOAD PUSH1 0x20 DUP1 DUP3 ADD SWAP3 PUSH32 0x618358AC3DB8DC274F0CD8829DA7E234BD48CD73C4A740AEDE1ADEC9846D06A1 DUP5 MSTORE PUSH1 0x1 DUP1 PUSH1 0xA0 SHL SUB DUP2 MLOAD AND PUSH1 0x40 DUP5 ADD MSTORE ADD MLOAD PUSH1 0x60 DUP3 ADD MSTORE PUSH1 0x60 DUP2 MSTORE PUSH2 0x1539 DUP2 PUSH2 0xF68 JUMP JUMPDEST SWAP2 SWAP1 DUP3 PUSH1 0x40 SWAP2 SUB SLT PUSH2 0x1021 JUMPI PUSH1 0x20 DUP3 CALLDATALOAD SWAP3 ADD CALLDATALOAD SWAP1 JUMP JUMPDEST PUSH1 0x0 DUP5 EXTCODESIZE PUSH2 0x19E0 JUMPI POP PUSH1 0x41 DUP3 SUB PUSH2 0x1990 JUMPI PUSH2 0x1904 DUP3 DUP3 ADD DUP3 PUSH2 0x18D1 JUMP JUMPDEST SWAP4 SWAP1 SWAP3 PUSH1 0x40 LT ISZERO PUSH2 0x127B JUMPI PUSH1 0x20 SWAP4 PUSH1 0x0 SWAP4 PUSH1 0xFF PUSH1 0x40 PUSH1 0x80 SWAP6 ADD CALLDATALOAD PUSH1 0xF8 SHR JUMPDEST PUSH1 0x40 MLOAD SWAP5 DUP6 MSTORE AND DUP7 DUP5 ADD MSTORE PUSH1 0x40 DUP4 ADD MSTORE PUSH1 0x60 DUP3 ADD MSTORE DUP3 DUP1 MSTORE PUSH1 0x1 GAS STATICCALL ISZERO PUSH2 0x1984 JUMPI PUSH1 0x0 MLOAD PUSH1 0x1 PUSH1 0x1 PUSH1 0xA0 SHL SUB SWAP1 DUP2 AND SWAP2 DUP3 ISZERO PUSH2 0x1972 JUMPI AND SUB PUSH2 0x1960 JUMPI JUMP JUMPDEST PUSH1 0x40 MLOAD PUSH4 0x20578759 PUSH1 0xE2 SHL DUP2 MSTORE PUSH1 0x4 SWAP1 REVERT JUMPDEST PUSH1 0x40 MLOAD PUSH4 0x8BAA579F PUSH1 0xE0 SHL DUP2 MSTORE PUSH1 0x4 SWAP1 REVERT JUMPDEST PUSH1 0x40 MLOAD RETURNDATASIZE PUSH1 0x0 DUP3 RETURNDATACOPY RETURNDATASIZE SWAP1 REVERT JUMPDEST PUSH1 0x40 DUP3 SUB PUSH2 0x19CE JUMPI PUSH2 0x19A4 SWAP2 DUP2 ADD SWAP1 PUSH2 0x18D1 JUMP JUMPDEST PUSH1 0x1 PUSH1 0x1 PUSH1 0xFF SHL SUB DUP2 AND SWAP3 PUSH1 0xFF SWAP2 DUP3 SHR PUSH1 0x1B ADD SWAP2 DUP3 GT PUSH2 0x178D JUMPI PUSH1 0x20 SWAP4 PUSH1 0x0 SWAP4 PUSH1 0xFF PUSH1 0x80 SWAP5 PUSH2 0x1922 JUMP JUMPDEST PUSH1 0x40 MLOAD PUSH4 0x4BE6321B PUSH1 0xE0 SHL DUP2 MSTORE PUSH1 0x4 SWAP1 REVERT JUMPDEST SWAP2 DUP1 SWAP4 SWAP5 PUSH1 0x20 SWAP3 PUSH1 0x64 PUSH1 0x40 MLOAD DUP1 SWAP8 DUP2 SWAP6 DUP3 SWAP5 PUSH4 0xB135D3F PUSH1 0xE1 SHL SWAP12 DUP13 DUP6 MSTORE PUSH1 0x4 DUP6 ADD MSTORE PUSH1 0x40 PUSH1 0x24 DUP6 ADD MSTORE DUP2 PUSH1 0x44 DUP6 ADD MSTORE DUP5 DUP5 ADD CALLDATACOPY DUP2 DUP2 ADD DUP4 ADD DUP9 SWAP1 MSTORE PUSH1 0x1F ADD PUSH1 0x1F NOT AND DUP2 ADD SUB ADD SWAP2 PUSH1 0x1 PUSH1 0x1 PUSH1 0xA0 SHL SUB AND GAS STATICCALL SWAP2 DUP3 ISZERO PUSH2 0x1AAC JUMPI DUP2 SWAP3 PUSH2 0x1A66 JUMPI JUMPDEST POP POP PUSH1 0x1 PUSH1 0x1 PUSH1 0xE0 SHL SUB NOT AND SUB PUSH2 0x1A54 JUMPI JUMP JUMPDEST PUSH1 0x40 MLOAD PUSH4 0x2C19A72F PUSH1 0xE2 SHL DUP2 MSTORE PUSH1 0x4 SWAP1 REVERT JUMPDEST SWAP1 SWAP2 POP PUSH1 0x20 DUP2 RETURNDATASIZE DUP3 GT PUSH2 0x1AA4 JUMPI JUMPDEST DUP2 PUSH2 0x1A81 PUSH1 0x20 SWAP4 DUP4 PUSH2 0xFEA JUMP JUMPDEST DUP2 ADD SUB SLT PUSH2 0x2E7 JUMPI MLOAD SWAP1 PUSH1 0x1 PUSH1 0x1 PUSH1 0xE0 SHL SUB NOT DUP3 AND DUP3 SUB PUSH2 0x85E JUMPI POP CODESIZE DUP1 PUSH2 0x1A41 JUMP JUMPDEST RETURNDATASIZE SWAP2 POP PUSH2 0x1A74 JUMP JUMPDEST POP PUSH1 0x40 MLOAD SWAP1 RETURNDATASIZE SWAP1 DUP3 RETURNDATACOPY RETURNDATASIZE SWAP1 REVERT JUMPDEST SWAP2 PUSH1 0x0 DUP1 SWAP4 PUSH1 0x20 SWAP6 PUSH1 0x64 SWAP5 PUSH1 0x40 MLOAD SWAP5 PUSH4 0x23B872DD PUSH1 0xE0 SHL DUP7 MSTORE PUSH1 0x1 DUP1 PUSH1 0xA0 SHL SUB DUP1 SWAP3 AND PUSH1 0x4 DUP8 ADD MSTORE AND PUSH1 0x24 DUP6 ADD MSTORE PUSH1 0x44 DUP5 ADD MSTORE GAS CALL RETURNDATASIZE ISZERO PUSH1 0x1F RETURNDATASIZE GT PUSH1 0x1 PUSH1 0x0 MLOAD EQ AND OR AND ISZERO PUSH2 0x1B04 JUMPI JUMP JUMPDEST PUSH1 0x40 MLOAD PUSH3 0x461BCD PUSH1 0xE5 SHL DUP2 MSTORE PUSH1 0x20 PUSH1 0x4 DUP3 ADD MSTORE PUSH1 0x14 PUSH1 0x24 DUP3 ADD MSTORE PUSH20 0x1514905394D1915497D19493D357D19052531151 PUSH1 0x62 SHL PUSH1 0x44 DUP3 ADD MSTORE PUSH1 0x64 SWAP1 REVERT INVALID LOG2 PUSH5 0x6970667358 0x22 SLT KECCAK256 KECCAK256 BASEFEE 0xAC 0x4C MUL PUSH25 0x2D0096CA572B7CED0A9F055D5A0DDE8161A8BBAF3B84DD0E91 PUSH8 0x64736F6C63430008 EQ STOP CALLER "},"methodIdentifiers":{"DOMAIN_SEPARATOR()":"3644e515","allowance(address,address,address)":"927da105","approve(address,address,uint160,uint48)":"87517c45","invalidateNonces(address,address,uint48)":"65d9723c","invalidateUnorderedNonces(uint256,uint256)":"3ff9dcb1","lockdown((address,address)[])":"cc53287f","nonceBitmap(address,uint256)":"4fe02b44","permit(address,((address,uint160,uint48,uint48),address,uint256),bytes)":"2b67b570","permit(address,((address,uint160,uint48,uint48)[],address,uint256),bytes)":"2a2d80d1","permitTransferFrom(((address,uint256),uint256,uint256),(address,uint256),address,bytes)":"30f28b7a","permitTransferFrom(((address,uint256)[],uint256,uint256),(address,uint256)[],address,bytes)":"edd9444b","permitWitnessTransferFrom(((address,uint256),uint256,uint256),(address,uint256),address,bytes32,string,bytes)":"137c29fe","permitWitnessTransferFrom(((address,uint256)[],uint256,uint256),(address,uint256)[],address,bytes32,string,bytes)":"fe8ec1a7","transferFrom((address,address,uint160,address)[])":"0d58b1db","transferFrom(address,address,uint160,address)":"36c78516"}}}}}