{"contracts/permit2/SignatureTransfer.sol":{"SignatureTransfer":{"abi":[{"inputs":[{"internalType":"uint256","name":"maxAmount","type":"uint256"}],"name":"InvalidAmount","type":"error"},{"inputs":[],"name":"InvalidContractSignature","type":"error"},{"inputs":[],"name":"InvalidNonce","type":"error"},{"inputs":[],"name":"InvalidSignature","type":"error"},{"inputs":[],"name":"InvalidSignatureLength","type":"error"},{"inputs":[],"name":"InvalidSigner","type":"error"},{"inputs":[],"name":"LengthMismatch","type":"error"},{"inputs":[{"internalType":"uint256","name":"signatureDeadline","type":"uint256"}],"name":"SignatureExpired","type":"error"},{"anonymous":false,"inputs":[{"indexed":true,"internalType":"address","name":"owner","type":"address"},{"indexed":false,"internalType":"uint256","name":"word","type":"uint256"},{"indexed":false,"internalType":"uint256","name":"mask","type":"uint256"}],"name":"UnorderedNonceInvalidation","type":"event"},{"inputs":[],"name":"DOMAIN_SEPARATOR","outputs":[{"internalType":"bytes32","name":"","type":"bytes32"}],"stateMutability":"view","type":"function"},{"inputs":[{"internalType":"uint256","name":"wordPos","type":"uint256"},{"internalType":"uint256","name":"mask","type":"uint256"}],"name":"invalidateUnorderedNonces","outputs":[],"stateMutability":"nonpayable","type":"function"},{"inputs":[{"internalType":"address","name":"","type":"address"},{"internalType":"uint256","name":"","type":"uint256"}],"name":"nonceBitmap","outputs":[{"internalType":"uint256","name":"","type":"uint256"}],"stateMutability":"view","type":"function"},{"inputs":[{"components":[{"components":[{"internalType":"address","name":"token","type":"address"},{"internalType":"uint256","name":"amount","type":"uint256"}],"internalType":"struct ISignatureTransfer.TokenPermissions","name":"permitted","type":"tuple"},{"internalType":"uint256","name":"nonce","type":"uint256"},{"internalType":"uint256","name":"deadline","type":"uint256"}],"internalType":"struct ISignatureTransfer.PermitTransferFrom","name":"permit","type":"tuple"},{"components":[{"internalType":"address","name":"to","type":"address"},{"internalType":"uint256","name":"requestedAmount","type":"uint256"}],"internalType":"struct ISignatureTransfer.SignatureTransferDetails","name":"transferDetails","type":"tuple"},{"internalType":"address","name":"owner","type":"address"},{"internalType":"bytes","name":"signature","type":"bytes"}],"name":"permitTransferFrom","outputs":[],"stateMutability":"nonpayable","type":"function"},{"inputs":[{"components":[{"components":[{"internalType":"address","name":"token","type":"address"},{"internalType":"uint256","name":"amount","type":"uint256"}],"internalType":"struct ISignatureTransfer.TokenPermissions[]","name":"permitted","type":"tuple[]"},{"internalType":"uint256","name":"nonce","type":"uint256"},{"internalType":"uint256","name":"deadline","type":"uint256"}],"internalType":"struct ISignatureTransfer.PermitBatchTransferFrom","name":"permit","type":"tuple"},{"components":[{"internalType":"address","name":"to","type":"address"},{"internalType":"uint256","name":"requestedAmount","type":"uint256"}],"internalType":"struct ISignatureTransfer.SignatureTransferDetails[]","name":"transferDetails","type":"tuple[]"},{"internalType":"address","name":"owner","type":"address"},{"internalType":"bytes","name":"signature","type":"bytes"}],"name":"permitTransferFrom","outputs":[],"stateMutability":"nonpayable","type":"function"},{"inputs":[{"components":[{"components":[{"internalType":"address","name":"token","type":"address"},{"internalType":"uint256","name":"amount","type":"uint256"}],"internalType":"struct ISignatureTransfer.TokenPermissions","name":"permitted","type":"tuple"},{"internalType":"uint256","name":"nonce","type":"uint256"},{"internalType":"uint256","name":"deadline","type":"uint256"}],"internalType":"struct ISignatureTransfer.PermitTransferFrom","name":"permit","type":"tuple"},{"components":[{"internalType":"address","name":"to","type":"address"},{"internalType":"uint256","name":"requestedAmount","type":"uint256"}],"internalType":"struct ISignatureTransfer.SignatureTransferDetails","name":"transferDetails","type":"tuple"},{"internalType":"address","name":"owner","type":"address"},{"internalType":"bytes32","name":"witness","type":"bytes32"},{"internalType":"string","name":"witnessTypeString","type":"string"},{"internalType":"bytes","name":"signature","type":"bytes"}],"name":"permitWitnessTransferFrom","outputs":[],"stateMutability":"nonpayable","type":"function"},{"inputs":[{"components":[{"components":[{"internalType":"address","name":"token","type":"address"},{"internalType":"uint256","name":"amount","type":"uint256"}],"internalType":"struct ISignatureTransfer.TokenPermissions[]","name":"permitted","type":"tuple[]"},{"internalType":"uint256","name":"nonce","type":"uint256"},{"internalType":"uint256","name":"deadline","type":"uint256"}],"internalType":"struct ISignatureTransfer.PermitBatchTransferFrom","name":"permit","type":"tuple"},{"components":[{"internalType":"address","name":"to","type":"address"},{"internalType":"uint256","name":"requestedAmount","type":"uint256"}],"internalType":"struct ISignatureTransfer.SignatureTransferDetails[]","name":"transferDetails","type":"tuple[]"},{"internalType":"address","name":"owner","type":"address"},{"internalType":"bytes32","name":"witness","type":"bytes32"},{"internalType":"string","name":"witnessTypeString","type":"string"},{"internalType":"bytes","name":"signature","type":"bytes"}],"name":"permitWitnessTransferFrom","outputs":[],"stateMutability":"nonpayable","type":"function"}],"evm":{"bytecode":{"linkReferences":{},"object":"60c0346100bb574660a052602081017f8cad95687ba82c2ce50e74f7b754645e5117c3a5bec8151c0726d5857980a86681527f9ac997416e8ff9d2ff6bebeb7149f65cdae5e32e2b90440b566bb3044041d36a60408301524660608301523060808301526080825260a082019180831060018060401b038411176100a5578260405251902060805261103990816100c18239608051816109ae015260a051816109880152f35b634e487b7160e01b600052604160045260246000fd5b600080fdfe6040608081526004908136101561001557600080fd5b600090813560e01c8063137c29fe1461054d57806330f28b7a1461048a5780633644e515146104675780633ff9dcb1146104055780634fe02b44146103bf578063edd9444b146102935763fe8ec1a71461006e57600080fd5b3461028f5760c036600319011261028f576001600160401b03833581811161028b5761009d9036908601610853565b602435828111610287576100b49036908701610955565b6100bc61078e565b91608435858111610283576100d49036908a0161080f565b98909560a43590811161027f576100ed9136910161080f565b9690958151906100fc82610701565b606b82527f5065726d697442617463685769746e6573735472616e7366657246726f6d285460208301527f6f6b656e5065726d697373696f6e735b5d207065726d69747465642c61646472838301527f657373207370656e6465722c75696e74323536206e6f6e63652c75696e74323560608301526a0d88191958591b1a5b994b60aa1b608083015282519a8b9181610199602085018096610d17565b918237018a815203996101b4601f199b8c8101835282610752565b519020908551516101c481610c93565b908a5b81811061025257505061024f999a6102469183516101f9816101ed602082018095610cea565b03848101835282610752565b519020602089810151858b015195519182019687526040820192909252336060820152608081019190915260a081019390935260643560c08401528260e081015b03908101835282610752565b51902093610b46565b80f35b8061026a61026461027a938c51610b0c565b51610d42565b6102748286610b0c565b52610cc5565b6101c7565b8880fd5b8780fd5b8480fd5b8380fd5b5080fd5b50913461028f57608036600319011261028f576001600160401b0390803582811161028b576102c59036908301610853565b602435838111610287576102dc9036908401610955565b9390926102e761078e565b916064359081116103bb576102fe9136910161080f565b9490938351519761030e89610c93565b98885b81811061039957505061024f9798815161034181610333602082018095610cea565b03601f198101835282610752565b5190206020860151828701519083519260208401947ffcf35f5ac6a2c28868dc44c302166470266239195f02b0ee408334829333b7668652840152336060840152608083015260a082015260a0815261024681610737565b808b610274826103b06102646103b6968d51610b0c565b92610b0c565b610311565b8680fd5b508234610401578160031936011261040157356001600160a01b0381169081900361040157828291602094528084528181206024358252845220549051908152f35b8280fd5b5082346104015781600319360112610401577f3704902f963766a4e561bbaab6e6cdc1b1dd12f6e9e99648da8843b3f46b918d90359160243533855284602052818520848652602052818520818154179055815193845260208401523392a280f35b503461028f578160031936011261028f57602090610483610985565b9051908152f35b5082903461040157610100366003190112610401576104a8366107a4565b908060831936011261028b576104bc610773565b9160e4356001600160401b0381116105495761024f946104de9136910161080f565b9390926104eb8351610d42565b6020840151828501519083519260208401947f939c21a48a8dbe3a9a2404a1d46691e4d39f6583d6ec6b35714604c986d801068652840152336060840152608083015260a082015260a0815261054081610737565b51902091610a40565b8580fd5b508234610401576101403660031901126104015761056a366107a4565b918060831936011261028b5761057e610773565b6001600160401b039390610104358581116103bb576105a0903690860161080f565b909361012435968711610283576105c06105409661024f9836910161080f565b9690958251906105cf82610701565b606482527f5065726d69745769746e6573735472616e7366657246726f6d28546f6b656e5060208301527f65726d697373696f6e73207065726d69747465642c6164647265737320737065848301527f6e6465722c75696e74323536206e6f6e63652c75696e7432353620646561646c6060830152631a5b994b60e21b6080830152835194859181610665602085018096610d17565b918237018b81520393610680601f1995868101835282610752565b5190209261068e8651610d42565b6020878101518589015195519182019687526040820192909252336060820152608081019190915260a081019390935260e43560c08401528260e0810161023a565b606081019081106001600160401b038211176106eb57604052565b634e487b7160e01b600052604160045260246000fd5b60a081019081106001600160401b038211176106eb57604052565b608081019081106001600160401b038211176106eb57604052565b60c081019081106001600160401b038211176106eb57604052565b90601f801991011681019081106001600160401b038211176106eb57604052565b60c435906001600160a01b038216820361078957565b600080fd5b604435906001600160a01b038216820361078957565b6003190190608082126107895760408051906107bf826106d0565b808294126107895780518181018181106001600160401b038211176106eb5782526004356001600160a01b0381168103610789578152602435602082015282526044356020830152606435910152565b9181601f84011215610789578235916001600160401b038311610789576020838186019501011161078957565b6001600160401b0381116106eb5760051b60200190565b91909160608184031261078957604080519161086e836106d0565b829481356001600160401b039081811161078957830182601f8201121561078957803561089a8161083c565b926108a787519485610752565b818452602094858086019360061b85010193818511610789579086899897969594939201925b8484106108ea575050505050855280820135908501520135910152565b9091929394959697848303126107895788519089820182811085821117610940578a528435906001600160a01b0382168203610789578289928c94528287013583820152815201930191908897969594936108cd565b60246000634e487b7160e01b81526041600452fd5b9181601f84011215610789578235916001600160401b038311610789576020808501948460061b01011161078957565b467f0000000000000000000000000000000000000000000000000000000000000000036109d0577f000000000000000000000000000000000000000000000000000000000000000090565b60405160208101907f8cad95687ba82c2ce50e74f7b754645e5117c3a5bec8151c0726d5857980a86682527f9ac997416e8ff9d2ff6bebeb7149f65cdae5e32e2b90440b566bb3044041d36a604082015246606082015230608082015260808152610a3a81610701565b51902090565b9192909360a435936040840151804211610ac35750602084510151808611610aab5750918591610a80610a8694610a7b602088015186610c45565b610adb565b91610da7565b51516001600160a01b0390811692608435918216820361078957610aa993610f7c565b565b60249060405190633728b83d60e01b82526004820152fd5b6024906040519063cd21db4f60e01b82526004820152fd5b610ae3610985565b9060405190602082019261190160f01b84526022830152604282015260428152610a3a8161071c565b8051821015610b205760209160051b010190565b634e487b7160e01b600052603260045260246000fd5b9190811015610b205760061b0190565b90919593958151519560409586840151804211610c2e5750828803610c1a57610b7e918691610a8060209b610a7b8d89015186610c45565b600091825b878110610b9557505050505050505050565b610ba0818351610b0c565b5189610bad838689610b36565b0135908a810151808311610c03575081610bcc575b5050600101610b83565b516001600160a01b03908116610be384878a610b36565b3591821682036103bb5791610bfc918960019594610f7c565b9038610bc2565b6024908a5190633728b83d60e01b82526004820152fd5b86516001621398b960e31b03198152600490fd5b60249088519063cd21db4f60e01b82526004820152fd5b90600160ff82161b9160018060a01b0316600052600060205260406000209060081c6000526020526040600020818154188091551615610c8157565b604051633ab3447f60e11b8152600490fd5b90610c9d8261083c565b610caa6040519182610752565b8281528092610cbb601f199161083c565b0190602036910137565b6000198114610cd45760010190565b634e487b7160e01b600052601160045260246000fd5b805160208092019160005b828110610d03575050505090565b835185529381019392810192600101610cf5565b9081519160005b838110610d2f575050016000815290565b8060208092840101518185015201610d1e565b6040516020808201927f618358ac3db8dc274f0cd8829da7e234bd48cd73c4a740aede1adec9846d06a1845260018060a01b0381511660408401520151606082015260608152610a3a8161071c565b9190826040910312610789576020823592013590565b6000843b610ea0575060418203610e5057610dc482820182610d91565b93909260401015610b205760209360009360ff6040608095013560f81c5b60405194855216868401526040830152606082015282805260015afa15610e44576000516001600160a01b03908116918215610e32571603610e2057565b604051632057875960e21b8152600490fd5b604051638baa579f60e01b8152600490fd5b6040513d6000823e3d90fd5b60408203610e8e57610e6491810190610d91565b6001600160ff1b0381169260ff91821c601b01918211610cd45760209360009360ff608094610de2565b604051634be6321b60e01b8152600490fd5b918093946020926064604051809781958294630b135d3f60e11b9b8c8552600485015260406024850152816044850152848401378181018301889052601f01601f191681010301916001600160a01b03165afa918215610f6f578192610f26575b50506001600160e01b03191603610f1457565b604051632c19a72f60e21b8152600490fd5b9091506020813d8211610f67575b81610f4160209383610752565b8101031261028f5751906001600160e01b031982168203610f6457503880610f01565b80fd5b3d9150610f34565b50604051903d90823e3d90fd5b9160008093602095606494604051946323b872dd60e01b865260018060a01b03809216600487015216602485015260448401525af13d15601f3d1160016000511416171615610fc757565b60405162461bcd60e51b81526020600482015260146024820152731514905394d1915497d19493d357d1905253115160621b6044820152606490fdfea26469706673582212204c6dcef249c4bd7a2c5c9da4ae63e1f186cd00394a0a5e7e3c0ffc0e9e167cf464736f6c63430008140033","opcodes":"PUSH1 0xC0 CALLVALUE PUSH2 0xBB JUMPI CHAINID PUSH1 0xA0 MSTORE PUSH1 0x20 DUP2 ADD PUSH32 0x8CAD95687BA82C2CE50E74F7B754645E5117C3A5BEC8151C0726D5857980A866 DUP2 MSTORE PUSH32 0x9AC997416E8FF9D2FF6BEBEB7149F65CDAE5E32E2B90440B566BB3044041D36A PUSH1 0x40 DUP4 ADD MSTORE CHAINID PUSH1 0x60 DUP4 ADD MSTORE ADDRESS PUSH1 0x80 DUP4 ADD MSTORE PUSH1 0x80 DUP3 MSTORE PUSH1 0xA0 DUP3 ADD SWAP2 DUP1 DUP4 LT PUSH1 0x1 DUP1 PUSH1 0x40 SHL SUB DUP5 GT OR PUSH2 0xA5 JUMPI DUP3 PUSH1 0x40 MSTORE MLOAD SWAP1 KECCAK256 PUSH1 0x80 MSTORE PUSH2 0x1039 SWAP1 DUP2 PUSH2 0xC1 DUP3 CODECOPY PUSH1 0x80 MLOAD DUP2 PUSH2 0x9AE ADD MSTORE PUSH1 0xA0 MLOAD DUP2 PUSH2 0x988 ADD MSTORE RETURN JUMPDEST PUSH4 0x4E487B71 PUSH1 0xE0 SHL PUSH1 0x0 MSTORE PUSH1 0x41 PUSH1 0x4 MSTORE PUSH1 0x24 PUSH1 0x0 REVERT JUMPDEST PUSH1 0x0 DUP1 REVERT INVALID PUSH1 0x40 PUSH1 0x80 DUP2 MSTORE PUSH1 0x4 SWAP1 DUP2 CALLDATASIZE LT ISZERO PUSH2 0x15 JUMPI PUSH1 0x0 DUP1 REVERT JUMPDEST PUSH1 0x0 SWAP1 DUP2 CALLDATALOAD PUSH1 0xE0 SHR DUP1 PUSH4 0x137C29FE EQ PUSH2 0x54D JUMPI DUP1 PUSH4 0x30F28B7A EQ PUSH2 0x48A JUMPI DUP1 PUSH4 0x3644E515 EQ PUSH2 0x467 JUMPI DUP1 PUSH4 0x3FF9DCB1 EQ PUSH2 0x405 JUMPI DUP1 PUSH4 0x4FE02B44 EQ PUSH2 0x3BF JUMPI DUP1 PUSH4 0xEDD9444B EQ PUSH2 0x293 JUMPI PUSH4 0xFE8EC1A7 EQ PUSH2 0x6E JUMPI PUSH1 0x0 DUP1 REVERT JUMPDEST CALLVALUE PUSH2 0x28F JUMPI PUSH1 0xC0 CALLDATASIZE PUSH1 0x3 NOT ADD SLT PUSH2 0x28F JUMPI PUSH1 0x1 PUSH1 0x1 PUSH1 0x40 SHL SUB DUP4 CALLDATALOAD DUP2 DUP2 GT PUSH2 0x28B JUMPI PUSH2 0x9D SWAP1 CALLDATASIZE SWAP1 DUP7 ADD PUSH2 0x853 JUMP JUMPDEST PUSH1 0x24 CALLDATALOAD DUP3 DUP2 GT PUSH2 0x287 JUMPI PUSH2 0xB4 SWAP1 CALLDATASIZE SWAP1 DUP8 ADD PUSH2 0x955 JUMP JUMPDEST PUSH2 0xBC PUSH2 0x78E JUMP JUMPDEST SWAP2 PUSH1 0x84 CALLDATALOAD DUP6 DUP2 GT PUSH2 0x283 JUMPI PUSH2 0xD4 SWAP1 CALLDATASIZE SWAP1 DUP11 ADD PUSH2 0x80F JUMP JUMPDEST SWAP9 SWAP1 SWAP6 PUSH1 0xA4 CALLDATALOAD SWAP1 DUP2 GT PUSH2 0x27F JUMPI PUSH2 0xED SWAP2 CALLDATASIZE SWAP2 ADD PUSH2 0x80F JUMP JUMPDEST SWAP7 SWAP1 SWAP6 DUP2 MLOAD SWAP1 PUSH2 0xFC DUP3 PUSH2 0x701 JUMP JUMPDEST PUSH1 0x6B DUP3 MSTORE PUSH32 0x5065726D697442617463685769746E6573735472616E7366657246726F6D2854 PUSH1 0x20 DUP4 ADD MSTORE PUSH32 0x6F6B656E5065726D697373696F6E735B5D207065726D69747465642C61646472 DUP4 DUP4 ADD MSTORE PUSH32 0x657373207370656E6465722C75696E74323536206E6F6E63652C75696E743235 PUSH1 0x60 DUP4 ADD MSTORE PUSH11 0xD88191958591B1A5B994B PUSH1 0xAA SHL PUSH1 0x80 DUP4 ADD MSTORE DUP3 MLOAD SWAP11 DUP12 SWAP2 DUP2 PUSH2 0x199 PUSH1 0x20 DUP6 ADD DUP1 SWAP7 PUSH2 0xD17 JUMP JUMPDEST SWAP2 DUP3 CALLDATACOPY ADD DUP11 DUP2 MSTORE SUB SWAP10 PUSH2 0x1B4 PUSH1 0x1F NOT SWAP12 DUP13 DUP2 ADD DUP4 MSTORE DUP3 PUSH2 0x752 JUMP JUMPDEST MLOAD SWAP1 KECCAK256 SWAP1 DUP6 MLOAD MLOAD PUSH2 0x1C4 DUP2 PUSH2 0xC93 JUMP JUMPDEST SWAP1 DUP11 JUMPDEST DUP2 DUP2 LT PUSH2 0x252 JUMPI POP POP PUSH2 0x24F SWAP10 SWAP11 PUSH2 0x246 SWAP2 DUP4 MLOAD PUSH2 0x1F9 DUP2 PUSH2 0x1ED PUSH1 0x20 DUP3 ADD DUP1 SWAP6 PUSH2 0xCEA JUMP JUMPDEST SUB DUP5 DUP2 ADD DUP4 MSTORE DUP3 PUSH2 0x752 JUMP JUMPDEST MLOAD SWAP1 KECCAK256 PUSH1 0x20 DUP10 DUP2 ADD MLOAD DUP6 DUP12 ADD MLOAD SWAP6 MLOAD SWAP2 DUP3 ADD SWAP7 DUP8 MSTORE PUSH1 0x40 DUP3 ADD SWAP3 SWAP1 SWAP3 MSTORE CALLER PUSH1 0x60 DUP3 ADD MSTORE PUSH1 0x80 DUP2 ADD SWAP2 SWAP1 SWAP2 MSTORE PUSH1 0xA0 DUP2 ADD SWAP4 SWAP1 SWAP4 MSTORE PUSH1 0x64 CALLDATALOAD PUSH1 0xC0 DUP5 ADD MSTORE DUP3 PUSH1 0xE0 DUP2 ADD JUMPDEST SUB SWAP1 DUP2 ADD DUP4 MSTORE DUP3 PUSH2 0x752 JUMP JUMPDEST MLOAD SWAP1 KECCAK256 SWAP4 PUSH2 0xB46 JUMP JUMPDEST DUP1 RETURN JUMPDEST DUP1 PUSH2 0x26A PUSH2 0x264 PUSH2 0x27A SWAP4 DUP13 MLOAD PUSH2 0xB0C JUMP JUMPDEST MLOAD PUSH2 0xD42 JUMP JUMPDEST PUSH2 0x274 DUP3 DUP7 PUSH2 0xB0C JUMP JUMPDEST MSTORE PUSH2 0xCC5 JUMP JUMPDEST PUSH2 0x1C7 JUMP JUMPDEST DUP9 DUP1 REVERT JUMPDEST DUP8 DUP1 REVERT JUMPDEST DUP5 DUP1 REVERT JUMPDEST DUP4 DUP1 REVERT JUMPDEST POP DUP1 REVERT JUMPDEST POP SWAP2 CALLVALUE PUSH2 0x28F JUMPI PUSH1 0x80 CALLDATASIZE PUSH1 0x3 NOT ADD SLT PUSH2 0x28F JUMPI PUSH1 0x1 PUSH1 0x1 PUSH1 0x40 SHL SUB SWAP1 DUP1 CALLDATALOAD DUP3 DUP2 GT PUSH2 0x28B JUMPI PUSH2 0x2C5 SWAP1 CALLDATASIZE SWAP1 DUP4 ADD PUSH2 0x853 JUMP JUMPDEST PUSH1 0x24 CALLDATALOAD DUP4 DUP2 GT PUSH2 0x287 JUMPI PUSH2 0x2DC SWAP1 CALLDATASIZE SWAP1 DUP5 ADD PUSH2 0x955 JUMP JUMPDEST SWAP4 SWAP1 SWAP3 PUSH2 0x2E7 PUSH2 0x78E JUMP JUMPDEST SWAP2 PUSH1 0x64 CALLDATALOAD SWAP1 DUP2 GT PUSH2 0x3BB JUMPI PUSH2 0x2FE SWAP2 CALLDATASIZE SWAP2 ADD PUSH2 0x80F JUMP JUMPDEST SWAP5 SWAP1 SWAP4 DUP4 MLOAD MLOAD SWAP8 PUSH2 0x30E DUP10 PUSH2 0xC93 JUMP JUMPDEST SWAP9 DUP9 JUMPDEST DUP2 DUP2 LT PUSH2 0x399 JUMPI POP POP PUSH2 0x24F SWAP8 SWAP9 DUP2 MLOAD PUSH2 0x341 DUP2 PUSH2 0x333 PUSH1 0x20 DUP3 ADD DUP1 SWAP6 PUSH2 0xCEA JUMP JUMPDEST SUB PUSH1 0x1F NOT DUP2 ADD DUP4 MSTORE DUP3 PUSH2 0x752 JUMP JUMPDEST MLOAD SWAP1 KECCAK256 PUSH1 0x20 DUP7 ADD MLOAD DUP3 DUP8 ADD MLOAD SWAP1 DUP4 MLOAD SWAP3 PUSH1 0x20 DUP5 ADD SWAP5 PUSH32 0xFCF35F5AC6A2C28868DC44C302166470266239195F02B0EE408334829333B766 DUP7 MSTORE DUP5 ADD MSTORE CALLER PUSH1 0x60 DUP5 ADD MSTORE PUSH1 0x80 DUP4 ADD MSTORE PUSH1 0xA0 DUP3 ADD MSTORE PUSH1 0xA0 DUP2 MSTORE PUSH2 0x246 DUP2 PUSH2 0x737 JUMP JUMPDEST DUP1 DUP12 PUSH2 0x274 DUP3 PUSH2 0x3B0 PUSH2 0x264 PUSH2 0x3B6 SWAP7 DUP14 MLOAD PUSH2 0xB0C JUMP JUMPDEST SWAP3 PUSH2 0xB0C JUMP JUMPDEST PUSH2 0x311 JUMP JUMPDEST DUP7 DUP1 REVERT JUMPDEST POP DUP3 CALLVALUE PUSH2 0x401 JUMPI DUP2 PUSH1 0x3 NOT CALLDATASIZE ADD SLT PUSH2 0x401 JUMPI CALLDATALOAD PUSH1 0x1 PUSH1 0x1 PUSH1 0xA0 SHL SUB DUP2 AND SWAP1 DUP2 SWAP1 SUB PUSH2 0x401 JUMPI DUP3 DUP3 SWAP2 PUSH1 0x20 SWAP5 MSTORE DUP1 DUP5 MSTORE DUP2 DUP2 KECCAK256 PUSH1 0x24 CALLDATALOAD DUP3 MSTORE DUP5 MSTORE KECCAK256 SLOAD SWAP1 MLOAD SWAP1 DUP2 MSTORE RETURN JUMPDEST DUP3 DUP1 REVERT JUMPDEST POP DUP3 CALLVALUE PUSH2 0x401 JUMPI DUP2 PUSH1 0x3 NOT CALLDATASIZE ADD SLT PUSH2 0x401 JUMPI PUSH32 0x3704902F963766A4E561BBAAB6E6CDC1B1DD12F6E9E99648DA8843B3F46B918D SWAP1 CALLDATALOAD SWAP2 PUSH1 0x24 CALLDATALOAD CALLER DUP6 MSTORE DUP5 PUSH1 0x20 MSTORE DUP2 DUP6 KECCAK256 DUP5 DUP7 MSTORE PUSH1 0x20 MSTORE DUP2 DUP6 KECCAK256 DUP2 DUP2 SLOAD OR SWAP1 SSTORE DUP2 MLOAD SWAP4 DUP5 MSTORE PUSH1 0x20 DUP5 ADD MSTORE CALLER SWAP3 LOG2 DUP1 RETURN JUMPDEST POP CALLVALUE PUSH2 0x28F JUMPI DUP2 PUSH1 0x3 NOT CALLDATASIZE ADD SLT PUSH2 0x28F JUMPI PUSH1 0x20 SWAP1 PUSH2 0x483 PUSH2 0x985 JUMP JUMPDEST SWAP1 MLOAD SWAP1 DUP2 MSTORE RETURN JUMPDEST POP DUP3 SWAP1 CALLVALUE PUSH2 0x401 JUMPI PUSH2 0x100 CALLDATASIZE PUSH1 0x3 NOT ADD SLT PUSH2 0x401 JUMPI PUSH2 0x4A8 CALLDATASIZE PUSH2 0x7A4 JUMP JUMPDEST SWAP1 DUP1 PUSH1 0x83 NOT CALLDATASIZE ADD SLT PUSH2 0x28B JUMPI PUSH2 0x4BC PUSH2 0x773 JUMP JUMPDEST SWAP2 PUSH1 0xE4 CALLDATALOAD PUSH1 0x1 PUSH1 0x1 PUSH1 0x40 SHL SUB DUP2 GT PUSH2 0x549 JUMPI PUSH2 0x24F SWAP5 PUSH2 0x4DE SWAP2 CALLDATASIZE SWAP2 ADD PUSH2 0x80F JUMP JUMPDEST SWAP4 SWAP1 SWAP3 PUSH2 0x4EB DUP4 MLOAD PUSH2 0xD42 JUMP JUMPDEST PUSH1 0x20 DUP5 ADD MLOAD DUP3 DUP6 ADD MLOAD SWAP1 DUP4 MLOAD SWAP3 PUSH1 0x20 DUP5 ADD SWAP5 PUSH32 0x939C21A48A8DBE3A9A2404A1D46691E4D39F6583D6EC6B35714604C986D80106 DUP7 MSTORE DUP5 ADD MSTORE CALLER PUSH1 0x60 DUP5 ADD MSTORE PUSH1 0x80 DUP4 ADD MSTORE PUSH1 0xA0 DUP3 ADD MSTORE PUSH1 0xA0 DUP2 MSTORE PUSH2 0x540 DUP2 PUSH2 0x737 JUMP JUMPDEST MLOAD SWAP1 KECCAK256 SWAP2 PUSH2 0xA40 JUMP JUMPDEST DUP6 DUP1 REVERT JUMPDEST POP DUP3 CALLVALUE PUSH2 0x401 JUMPI PUSH2 0x140 CALLDATASIZE PUSH1 0x3 NOT ADD SLT PUSH2 0x401 JUMPI PUSH2 0x56A CALLDATASIZE PUSH2 0x7A4 JUMP JUMPDEST SWAP2 DUP1 PUSH1 0x83 NOT CALLDATASIZE ADD SLT PUSH2 0x28B JUMPI PUSH2 0x57E PUSH2 0x773 JUMP JUMPDEST PUSH1 0x1 PUSH1 0x1 PUSH1 0x40 SHL SUB SWAP4 SWAP1 PUSH2 0x104 CALLDATALOAD DUP6 DUP2 GT PUSH2 0x3BB JUMPI PUSH2 0x5A0 SWAP1 CALLDATASIZE SWAP1 DUP7 ADD PUSH2 0x80F JUMP JUMPDEST SWAP1 SWAP4 PUSH2 0x124 CALLDATALOAD SWAP7 DUP8 GT PUSH2 0x283 JUMPI PUSH2 0x5C0 PUSH2 0x540 SWAP7 PUSH2 0x24F SWAP9 CALLDATASIZE SWAP2 ADD PUSH2 0x80F JUMP JUMPDEST SWAP7 SWAP1 SWAP6 DUP3 MLOAD SWAP1 PUSH2 0x5CF DUP3 PUSH2 0x701 JUMP JUMPDEST PUSH1 0x64 DUP3 MSTORE PUSH32 0x5065726D69745769746E6573735472616E7366657246726F6D28546F6B656E50 PUSH1 0x20 DUP4 ADD MSTORE PUSH32 0x65726D697373696F6E73207065726D69747465642C6164647265737320737065 DUP5 DUP4 ADD MSTORE PUSH32 0x6E6465722C75696E74323536206E6F6E63652C75696E7432353620646561646C PUSH1 0x60 DUP4 ADD MSTORE PUSH4 0x1A5B994B PUSH1 0xE2 SHL PUSH1 0x80 DUP4 ADD MSTORE DUP4 MLOAD SWAP5 DUP6 SWAP2 DUP2 PUSH2 0x665 PUSH1 0x20 DUP6 ADD DUP1 SWAP7 PUSH2 0xD17 JUMP JUMPDEST SWAP2 DUP3 CALLDATACOPY ADD DUP12 DUP2 MSTORE SUB SWAP4 PUSH2 0x680 PUSH1 0x1F NOT SWAP6 DUP7 DUP2 ADD DUP4 MSTORE DUP3 PUSH2 0x752 JUMP JUMPDEST MLOAD SWAP1 KECCAK256 SWAP3 PUSH2 0x68E DUP7 MLOAD PUSH2 0xD42 JUMP JUMPDEST PUSH1 0x20 DUP8 DUP2 ADD MLOAD DUP6 DUP10 ADD MLOAD SWAP6 MLOAD SWAP2 DUP3 ADD SWAP7 DUP8 MSTORE PUSH1 0x40 DUP3 ADD SWAP3 SWAP1 SWAP3 MSTORE CALLER PUSH1 0x60 DUP3 ADD MSTORE PUSH1 0x80 DUP2 ADD SWAP2 SWAP1 SWAP2 MSTORE PUSH1 0xA0 DUP2 ADD SWAP4 SWAP1 SWAP4 MSTORE PUSH1 0xE4 CALLDATALOAD PUSH1 0xC0 DUP5 ADD MSTORE DUP3 PUSH1 0xE0 DUP2 ADD PUSH2 0x23A JUMP JUMPDEST PUSH1 0x60 DUP2 ADD SWAP1 DUP2 LT PUSH1 0x1 PUSH1 0x1 PUSH1 0x40 SHL SUB DUP3 GT OR PUSH2 0x6EB JUMPI PUSH1 0x40 MSTORE JUMP JUMPDEST PUSH4 0x4E487B71 PUSH1 0xE0 SHL PUSH1 0x0 MSTORE PUSH1 0x41 PUSH1 0x4 MSTORE PUSH1 0x24 PUSH1 0x0 REVERT JUMPDEST PUSH1 0xA0 DUP2 ADD SWAP1 DUP2 LT PUSH1 0x1 PUSH1 0x1 PUSH1 0x40 SHL SUB DUP3 GT OR PUSH2 0x6EB JUMPI PUSH1 0x40 MSTORE JUMP JUMPDEST PUSH1 0x80 DUP2 ADD SWAP1 DUP2 LT PUSH1 0x1 PUSH1 0x1 PUSH1 0x40 SHL SUB DUP3 GT OR PUSH2 0x6EB JUMPI PUSH1 0x40 MSTORE JUMP JUMPDEST PUSH1 0xC0 DUP2 ADD SWAP1 DUP2 LT PUSH1 0x1 PUSH1 0x1 PUSH1 0x40 SHL SUB DUP3 GT OR PUSH2 0x6EB JUMPI PUSH1 0x40 MSTORE JUMP JUMPDEST SWAP1 PUSH1 0x1F DUP1 NOT SWAP2 ADD AND DUP2 ADD SWAP1 DUP2 LT PUSH1 0x1 PUSH1 0x1 PUSH1 0x40 SHL SUB DUP3 GT OR PUSH2 0x6EB JUMPI PUSH1 0x40 MSTORE JUMP JUMPDEST PUSH1 0xC4 CALLDATALOAD SWAP1 PUSH1 0x1 PUSH1 0x1 PUSH1 0xA0 SHL SUB DUP3 AND DUP3 SUB PUSH2 0x789 JUMPI JUMP JUMPDEST PUSH1 0x0 DUP1 REVERT JUMPDEST PUSH1 0x44 CALLDATALOAD SWAP1 PUSH1 0x1 PUSH1 0x1 PUSH1 0xA0 SHL SUB DUP3 AND DUP3 SUB PUSH2 0x789 JUMPI JUMP JUMPDEST PUSH1 0x3 NOT ADD SWAP1 PUSH1 0x80 DUP3 SLT PUSH2 0x789 JUMPI PUSH1 0x40 DUP1 MLOAD SWAP1 PUSH2 0x7BF DUP3 PUSH2 0x6D0 JUMP JUMPDEST DUP1 DUP3 SWAP5 SLT PUSH2 0x789 JUMPI DUP1 MLOAD DUP2 DUP2 ADD DUP2 DUP2 LT PUSH1 0x1 PUSH1 0x1 PUSH1 0x40 SHL SUB DUP3 GT OR PUSH2 0x6EB JUMPI DUP3 MSTORE PUSH1 0x4 CALLDATALOAD PUSH1 0x1 PUSH1 0x1 PUSH1 0xA0 SHL SUB DUP2 AND DUP2 SUB PUSH2 0x789 JUMPI DUP2 MSTORE PUSH1 0x24 CALLDATALOAD PUSH1 0x20 DUP3 ADD MSTORE DUP3 MSTORE PUSH1 0x44 CALLDATALOAD PUSH1 0x20 DUP4 ADD MSTORE PUSH1 0x64 CALLDATALOAD SWAP2 ADD MSTORE JUMP JUMPDEST SWAP2 DUP2 PUSH1 0x1F DUP5 ADD SLT ISZERO PUSH2 0x789 JUMPI DUP3 CALLDATALOAD SWAP2 PUSH1 0x1 PUSH1 0x1 PUSH1 0x40 SHL SUB DUP4 GT PUSH2 0x789 JUMPI PUSH1 0x20 DUP4 DUP2 DUP7 ADD SWAP6 ADD ADD GT PUSH2 0x789 JUMPI JUMP JUMPDEST PUSH1 0x1 PUSH1 0x1 PUSH1 0x40 SHL SUB DUP2 GT PUSH2 0x6EB JUMPI PUSH1 0x5 SHL PUSH1 0x20 ADD SWAP1 JUMP JUMPDEST SWAP2 SWAP1 SWAP2 PUSH1 0x60 DUP2 DUP5 SUB SLT PUSH2 0x789 JUMPI PUSH1 0x40 DUP1 MLOAD SWAP2 PUSH2 0x86E DUP4 PUSH2 0x6D0 JUMP JUMPDEST DUP3 SWAP5 DUP2 CALLDATALOAD PUSH1 0x1 PUSH1 0x1 PUSH1 0x40 SHL SUB SWAP1 DUP2 DUP2 GT PUSH2 0x789 JUMPI DUP4 ADD DUP3 PUSH1 0x1F DUP3 ADD SLT ISZERO PUSH2 0x789 JUMPI DUP1 CALLDATALOAD PUSH2 0x89A DUP2 PUSH2 0x83C JUMP JUMPDEST SWAP3 PUSH2 0x8A7 DUP8 MLOAD SWAP5 DUP6 PUSH2 0x752 JUMP JUMPDEST DUP2 DUP5 MSTORE PUSH1 0x20 SWAP5 DUP6 DUP1 DUP7 ADD SWAP4 PUSH1 0x6 SHL DUP6 ADD ADD SWAP4 DUP2 DUP6 GT PUSH2 0x789 JUMPI SWAP1 DUP7 DUP10 SWAP9 SWAP8 SWAP7 SWAP6 SWAP5 SWAP4 SWAP3 ADD SWAP3 JUMPDEST DUP5 DUP5 LT PUSH2 0x8EA JUMPI POP POP POP POP POP DUP6 MSTORE DUP1 DUP3 ADD CALLDATALOAD SWAP1 DUP6 ADD MSTORE ADD CALLDATALOAD SWAP2 ADD MSTORE JUMP JUMPDEST SWAP1 SWAP2 SWAP3 SWAP4 SWAP5 SWAP6 SWAP7 SWAP8 DUP5 DUP4 SUB SLT PUSH2 0x789 JUMPI DUP9 MLOAD SWAP1 DUP10 DUP3 ADD DUP3 DUP2 LT DUP6 DUP3 GT OR PUSH2 0x940 JUMPI DUP11 MSTORE DUP5 CALLDATALOAD SWAP1 PUSH1 0x1 PUSH1 0x1 PUSH1 0xA0 SHL SUB DUP3 AND DUP3 SUB PUSH2 0x789 JUMPI DUP3 DUP10 SWAP3 DUP13 SWAP5 MSTORE DUP3 DUP8 ADD CALLDATALOAD DUP4 DUP3 ADD MSTORE DUP2 MSTORE ADD SWAP4 ADD SWAP2 SWAP1 DUP9 SWAP8 SWAP7 SWAP6 SWAP5 SWAP4 PUSH2 0x8CD JUMP JUMPDEST PUSH1 0x24 PUSH1 0x0 PUSH4 0x4E487B71 PUSH1 0xE0 SHL DUP2 MSTORE PUSH1 0x41 PUSH1 0x4 MSTORE REVERT JUMPDEST SWAP2 DUP2 PUSH1 0x1F DUP5 ADD SLT ISZERO PUSH2 0x789 JUMPI DUP3 CALLDATALOAD SWAP2 PUSH1 0x1 PUSH1 0x1 PUSH1 0x40 SHL SUB DUP4 GT PUSH2 0x789 JUMPI PUSH1 0x20 DUP1 DUP6 ADD SWAP5 DUP5 PUSH1 0x6 SHL ADD ADD GT PUSH2 0x789 JUMPI JUMP JUMPDEST CHAINID PUSH32 0x0 SUB PUSH2 0x9D0 JUMPI PUSH32 0x0 SWAP1 JUMP JUMPDEST PUSH1 0x40 MLOAD PUSH1 0x20 DUP2 ADD SWAP1 PUSH32 0x8CAD95687BA82C2CE50E74F7B754645E5117C3A5BEC8151C0726D5857980A866 DUP3 MSTORE PUSH32 0x9AC997416E8FF9D2FF6BEBEB7149F65CDAE5E32E2B90440B566BB3044041D36A PUSH1 0x40 DUP3 ADD MSTORE CHAINID PUSH1 0x60 DUP3 ADD MSTORE ADDRESS PUSH1 0x80 DUP3 ADD MSTORE PUSH1 0x80 DUP2 MSTORE PUSH2 0xA3A DUP2 PUSH2 0x701 JUMP JUMPDEST MLOAD SWAP1 KECCAK256 SWAP1 JUMP JUMPDEST SWAP2 SWAP3 SWAP1 SWAP4 PUSH1 0xA4 CALLDATALOAD SWAP4 PUSH1 0x40 DUP5 ADD MLOAD DUP1 TIMESTAMP GT PUSH2 0xAC3 JUMPI POP PUSH1 0x20 DUP5 MLOAD ADD MLOAD DUP1 DUP7 GT PUSH2 0xAAB JUMPI POP SWAP2 DUP6 SWAP2 PUSH2 0xA80 PUSH2 0xA86 SWAP5 PUSH2 0xA7B PUSH1 0x20 DUP9 ADD MLOAD DUP7 PUSH2 0xC45 JUMP JUMPDEST PUSH2 0xADB JUMP JUMPDEST SWAP2 PUSH2 0xDA7 JUMP JUMPDEST MLOAD MLOAD PUSH1 0x1 PUSH1 0x1 PUSH1 0xA0 SHL SUB SWAP1 DUP2 AND SWAP3 PUSH1 0x84 CALLDATALOAD SWAP2 DUP3 AND DUP3 SUB PUSH2 0x789 JUMPI PUSH2 0xAA9 SWAP4 PUSH2 0xF7C JUMP JUMPDEST JUMP JUMPDEST PUSH1 0x24 SWAP1 PUSH1 0x40 MLOAD SWAP1 PUSH4 0x3728B83D PUSH1 0xE0 SHL DUP3 MSTORE PUSH1 0x4 DUP3 ADD MSTORE REVERT JUMPDEST PUSH1 0x24 SWAP1 PUSH1 0x40 MLOAD SWAP1 PUSH4 0xCD21DB4F PUSH1 0xE0 SHL DUP3 MSTORE PUSH1 0x4 DUP3 ADD MSTORE REVERT JUMPDEST PUSH2 0xAE3 PUSH2 0x985 JUMP JUMPDEST SWAP1 PUSH1 0x40 MLOAD SWAP1 PUSH1 0x20 DUP3 ADD SWAP3 PUSH2 0x1901 PUSH1 0xF0 SHL DUP5 MSTORE PUSH1 0x22 DUP4 ADD MSTORE PUSH1 0x42 DUP3 ADD MSTORE PUSH1 0x42 DUP2 MSTORE PUSH2 0xA3A DUP2 PUSH2 0x71C JUMP JUMPDEST DUP1 MLOAD DUP3 LT ISZERO PUSH2 0xB20 JUMPI PUSH1 0x20 SWAP2 PUSH1 0x5 SHL ADD ADD SWAP1 JUMP JUMPDEST PUSH4 0x4E487B71 PUSH1 0xE0 SHL PUSH1 0x0 MSTORE PUSH1 0x32 PUSH1 0x4 MSTORE PUSH1 0x24 PUSH1 0x0 REVERT JUMPDEST SWAP2 SWAP1 DUP2 LT ISZERO PUSH2 0xB20 JUMPI PUSH1 0x6 SHL ADD SWAP1 JUMP JUMPDEST SWAP1 SWAP2 SWAP6 SWAP4 SWAP6 DUP2 MLOAD MLOAD SWAP6 PUSH1 0x40 SWAP6 DUP7 DUP5 ADD MLOAD DUP1 TIMESTAMP GT PUSH2 0xC2E JUMPI POP DUP3 DUP9 SUB PUSH2 0xC1A JUMPI PUSH2 0xB7E SWAP2 DUP7 SWAP2 PUSH2 0xA80 PUSH1 0x20 SWAP12 PUSH2 0xA7B DUP14 DUP10 ADD MLOAD DUP7 PUSH2 0xC45 JUMP JUMPDEST PUSH1 0x0 SWAP2 DUP3 JUMPDEST DUP8 DUP2 LT PUSH2 0xB95 JUMPI POP POP POP POP POP POP POP POP POP JUMP JUMPDEST PUSH2 0xBA0 DUP2 DUP4 MLOAD PUSH2 0xB0C JUMP JUMPDEST MLOAD DUP10 PUSH2 0xBAD DUP4 DUP7 DUP10 PUSH2 0xB36 JUMP JUMPDEST ADD CALLDATALOAD SWAP1 DUP11 DUP2 ADD MLOAD DUP1 DUP4 GT PUSH2 0xC03 JUMPI POP DUP2 PUSH2 0xBCC JUMPI JUMPDEST POP POP PUSH1 0x1 ADD PUSH2 0xB83 JUMP JUMPDEST MLOAD PUSH1 0x1 PUSH1 0x1 PUSH1 0xA0 SHL SUB SWAP1 DUP2 AND PUSH2 0xBE3 DUP5 DUP8 DUP11 PUSH2 0xB36 JUMP JUMPDEST CALLDATALOAD SWAP2 DUP3 AND DUP3 SUB PUSH2 0x3BB JUMPI SWAP2 PUSH2 0xBFC SWAP2 DUP10 PUSH1 0x1 SWAP6 SWAP5 PUSH2 0xF7C JUMP JUMPDEST SWAP1 CODESIZE PUSH2 0xBC2 JUMP JUMPDEST PUSH1 0x24 SWAP1 DUP11 MLOAD SWAP1 PUSH4 0x3728B83D PUSH1 0xE0 SHL DUP3 MSTORE PUSH1 0x4 DUP3 ADD MSTORE REVERT JUMPDEST DUP7 MLOAD PUSH1 0x1 PUSH3 0x1398B9 PUSH1 0xE3 SHL SUB NOT DUP2 MSTORE PUSH1 0x4 SWAP1 REVERT JUMPDEST PUSH1 0x24 SWAP1 DUP9 MLOAD SWAP1 PUSH4 0xCD21DB4F PUSH1 0xE0 SHL DUP3 MSTORE PUSH1 0x4 DUP3 ADD MSTORE REVERT JUMPDEST SWAP1 PUSH1 0x1 PUSH1 0xFF DUP3 AND SHL SWAP2 PUSH1 0x1 DUP1 PUSH1 0xA0 SHL SUB AND PUSH1 0x0 MSTORE PUSH1 0x0 PUSH1 0x20 MSTORE PUSH1 0x40 PUSH1 0x0 KECCAK256 SWAP1 PUSH1 0x8 SHR PUSH1 0x0 MSTORE PUSH1 0x20 MSTORE PUSH1 0x40 PUSH1 0x0 KECCAK256 DUP2 DUP2 SLOAD XOR DUP1 SWAP2 SSTORE AND ISZERO PUSH2 0xC81 JUMPI JUMP JUMPDEST PUSH1 0x40 MLOAD PUSH4 0x3AB3447F PUSH1 0xE1 SHL DUP2 MSTORE PUSH1 0x4 SWAP1 REVERT JUMPDEST SWAP1 PUSH2 0xC9D DUP3 PUSH2 0x83C JUMP JUMPDEST PUSH2 0xCAA PUSH1 0x40 MLOAD SWAP2 DUP3 PUSH2 0x752 JUMP JUMPDEST DUP3 DUP2 MSTORE DUP1 SWAP3 PUSH2 0xCBB PUSH1 0x1F NOT SWAP2 PUSH2 0x83C JUMP JUMPDEST ADD SWAP1 PUSH1 0x20 CALLDATASIZE SWAP2 ADD CALLDATACOPY JUMP JUMPDEST PUSH1 0x0 NOT DUP2 EQ PUSH2 0xCD4 JUMPI PUSH1 0x1 ADD SWAP1 JUMP JUMPDEST PUSH4 0x4E487B71 PUSH1 0xE0 SHL PUSH1 0x0 MSTORE PUSH1 0x11 PUSH1 0x4 MSTORE PUSH1 0x24 PUSH1 0x0 REVERT JUMPDEST DUP1 MLOAD PUSH1 0x20 DUP1 SWAP3 ADD SWAP2 PUSH1 0x0 JUMPDEST DUP3 DUP2 LT PUSH2 0xD03 JUMPI POP POP POP POP SWAP1 JUMP JUMPDEST DUP4 MLOAD DUP6 MSTORE SWAP4 DUP2 ADD SWAP4 SWAP3 DUP2 ADD SWAP3 PUSH1 0x1 ADD PUSH2 0xCF5 JUMP JUMPDEST SWAP1 DUP2 MLOAD SWAP2 PUSH1 0x0 JUMPDEST DUP4 DUP2 LT PUSH2 0xD2F JUMPI POP POP ADD PUSH1 0x0 DUP2 MSTORE SWAP1 JUMP JUMPDEST DUP1 PUSH1 0x20 DUP1 SWAP3 DUP5 ADD ADD MLOAD DUP2 DUP6 ADD MSTORE ADD PUSH2 0xD1E JUMP JUMPDEST PUSH1 0x40 MLOAD PUSH1 0x20 DUP1 DUP3 ADD SWAP3 PUSH32 0x618358AC3DB8DC274F0CD8829DA7E234BD48CD73C4A740AEDE1ADEC9846D06A1 DUP5 MSTORE PUSH1 0x1 DUP1 PUSH1 0xA0 SHL SUB DUP2 MLOAD AND PUSH1 0x40 DUP5 ADD MSTORE ADD MLOAD PUSH1 0x60 DUP3 ADD MSTORE PUSH1 0x60 DUP2 MSTORE PUSH2 0xA3A DUP2 PUSH2 0x71C JUMP JUMPDEST SWAP2 SWAP1 DUP3 PUSH1 0x40 SWAP2 SUB SLT PUSH2 0x789 JUMPI PUSH1 0x20 DUP3 CALLDATALOAD SWAP3 ADD CALLDATALOAD SWAP1 JUMP JUMPDEST PUSH1 0x0 DUP5 EXTCODESIZE PUSH2 0xEA0 JUMPI POP PUSH1 0x41 DUP3 SUB PUSH2 0xE50 JUMPI PUSH2 0xDC4 DUP3 DUP3 ADD DUP3 PUSH2 0xD91 JUMP JUMPDEST SWAP4 SWAP1 SWAP3 PUSH1 0x40 LT ISZERO PUSH2 0xB20 JUMPI PUSH1 0x20 SWAP4 PUSH1 0x0 SWAP4 PUSH1 0xFF PUSH1 0x40 PUSH1 0x80 SWAP6 ADD CALLDATALOAD PUSH1 0xF8 SHR JUMPDEST PUSH1 0x40 MLOAD SWAP5 DUP6 MSTORE AND DUP7 DUP5 ADD MSTORE PUSH1 0x40 DUP4 ADD MSTORE PUSH1 0x60 DUP3 ADD MSTORE DUP3 DUP1 MSTORE PUSH1 0x1 GAS STATICCALL ISZERO PUSH2 0xE44 JUMPI PUSH1 0x0 MLOAD PUSH1 0x1 PUSH1 0x1 PUSH1 0xA0 SHL SUB SWAP1 DUP2 AND SWAP2 DUP3 ISZERO PUSH2 0xE32 JUMPI AND SUB PUSH2 0xE20 JUMPI JUMP JUMPDEST PUSH1 0x40 MLOAD PUSH4 0x20578759 PUSH1 0xE2 SHL DUP2 MSTORE PUSH1 0x4 SWAP1 REVERT JUMPDEST PUSH1 0x40 MLOAD PUSH4 0x8BAA579F PUSH1 0xE0 SHL DUP2 MSTORE PUSH1 0x4 SWAP1 REVERT JUMPDEST PUSH1 0x40 MLOAD RETURNDATASIZE PUSH1 0x0 DUP3 RETURNDATACOPY RETURNDATASIZE SWAP1 REVERT JUMPDEST PUSH1 0x40 DUP3 SUB PUSH2 0xE8E JUMPI PUSH2 0xE64 SWAP2 DUP2 ADD SWAP1 PUSH2 0xD91 JUMP JUMPDEST PUSH1 0x1 PUSH1 0x1 PUSH1 0xFF SHL SUB DUP2 AND SWAP3 PUSH1 0xFF SWAP2 DUP3 SHR PUSH1 0x1B ADD SWAP2 DUP3 GT PUSH2 0xCD4 JUMPI PUSH1 0x20 SWAP4 PUSH1 0x0 SWAP4 PUSH1 0xFF PUSH1 0x80 SWAP5 PUSH2 0xDE2 JUMP JUMPDEST PUSH1 0x40 MLOAD PUSH4 0x4BE6321B PUSH1 0xE0 SHL DUP2 MSTORE PUSH1 0x4 SWAP1 REVERT JUMPDEST SWAP2 DUP1 SWAP4 SWAP5 PUSH1 0x20 SWAP3 PUSH1 0x64 PUSH1 0x40 MLOAD DUP1 SWAP8 DUP2 SWAP6 DUP3 SWAP5 PUSH4 0xB135D3F PUSH1 0xE1 SHL SWAP12 DUP13 DUP6 MSTORE PUSH1 0x4 DUP6 ADD MSTORE PUSH1 0x40 PUSH1 0x24 DUP6 ADD MSTORE DUP2 PUSH1 0x44 DUP6 ADD MSTORE DUP5 DUP5 ADD CALLDATACOPY DUP2 DUP2 ADD DUP4 ADD DUP9 SWAP1 MSTORE PUSH1 0x1F ADD PUSH1 0x1F NOT AND DUP2 ADD SUB ADD SWAP2 PUSH1 0x1 PUSH1 0x1 PUSH1 0xA0 SHL SUB AND GAS STATICCALL SWAP2 DUP3 ISZERO PUSH2 0xF6F JUMPI DUP2 SWAP3 PUSH2 0xF26 JUMPI JUMPDEST POP POP PUSH1 0x1 PUSH1 0x1 PUSH1 0xE0 SHL SUB NOT AND SUB PUSH2 0xF14 JUMPI JUMP JUMPDEST PUSH1 0x40 MLOAD PUSH4 0x2C19A72F PUSH1 0xE2 SHL DUP2 MSTORE PUSH1 0x4 SWAP1 REVERT JUMPDEST SWAP1 SWAP2 POP PUSH1 0x20 DUP2 RETURNDATASIZE DUP3 GT PUSH2 0xF67 JUMPI JUMPDEST DUP2 PUSH2 0xF41 PUSH1 0x20 SWAP4 DUP4 PUSH2 0x752 JUMP JUMPDEST DUP2 ADD SUB SLT PUSH2 0x28F JUMPI MLOAD SWAP1 PUSH1 0x1 PUSH1 0x1 PUSH1 0xE0 SHL SUB NOT DUP3 AND DUP3 SUB PUSH2 0xF64 JUMPI POP CODESIZE DUP1 PUSH2 0xF01 JUMP JUMPDEST DUP1 REVERT JUMPDEST RETURNDATASIZE SWAP2 POP PUSH2 0xF34 JUMP JUMPDEST POP PUSH1 0x40 MLOAD SWAP1 RETURNDATASIZE SWAP1 DUP3 RETURNDATACOPY RETURNDATASIZE SWAP1 REVERT JUMPDEST SWAP2 PUSH1 0x0 DUP1 SWAP4 PUSH1 0x20 SWAP6 PUSH1 0x64 SWAP5 PUSH1 0x40 MLOAD SWAP5 PUSH4 0x23B872DD PUSH1 0xE0 SHL DUP7 MSTORE PUSH1 0x1 DUP1 PUSH1 0xA0 SHL SUB DUP1 SWAP3 AND PUSH1 0x4 DUP8 ADD MSTORE AND PUSH1 0x24 DUP6 ADD MSTORE PUSH1 0x44 DUP5 ADD MSTORE GAS CALL RETURNDATASIZE ISZERO PUSH1 0x1F RETURNDATASIZE GT PUSH1 0x1 PUSH1 0x0 MLOAD EQ AND OR AND ISZERO PUSH2 0xFC7 JUMPI JUMP JUMPDEST PUSH1 0x40 MLOAD PUSH3 0x461BCD PUSH1 0xE5 SHL DUP2 MSTORE PUSH1 0x20 PUSH1 0x4 DUP3 ADD MSTORE PUSH1 0x14 PUSH1 0x24 DUP3 ADD MSTORE PUSH20 0x1514905394D1915497D19493D357D19052531151 PUSH1 0x62 SHL PUSH1 0x44 DUP3 ADD MSTORE PUSH1 0x64 SWAP1 REVERT INVALID LOG2 PUSH5 0x6970667358 0x22 SLT KECCAK256 0x4C PUSH14 0xCEF249C4BD7A2C5C9DA4AE63E1F1 DUP7 0xCD STOP CODECOPY 0x4A EXP 0x5E PUSH31 0x3C0FFC0E9E167CF464736F6C63430008140033000000000000000000000000 "},"methodIdentifiers":{"DOMAIN_SEPARATOR()":"3644e515","invalidateUnorderedNonces(uint256,uint256)":"3ff9dcb1","nonceBitmap(address,uint256)":"4fe02b44","permitTransferFrom(((address,uint256),uint256,uint256),(address,uint256),address,bytes)":"30f28b7a","permitTransferFrom(((address,uint256)[],uint256,uint256),(address,uint256)[],address,bytes)":"edd9444b","permitWitnessTransferFrom(((address,uint256),uint256,uint256),(address,uint256),address,bytes32,string,bytes)":"137c29fe","permitWitnessTransferFrom(((address,uint256)[],uint256,uint256),(address,uint256)[],address,bytes32,string,bytes)":"fe8ec1a7"}}}}}