{"contracts/Intents.sol":{"Intents":{"abi":[{"inputs":[{"internalType":"address","name":"_treasury","type":"address"},{"internalType":"address[]","name":"_owners","type":"address[]"},{"internalType":"uint256","name":"_requiredSignatures","type":"uint256"},{"internalType":"uint256","name":"_threshold","type":"uint256"},{"internalType":"uint32","name":"_timeLock","type":"uint32"}],"stateMutability":"nonpayable","type":"constructor"},{"inputs":[],"name":"AlreadyAnOwner","type":"error"},{"inputs":[],"name":"AlreadySigned","type":"error"},{"inputs":[],"name":"AmountMustBeGreaterThanZero","type":"error"},{"inputs":[],"name":"ExecutionTimeNotReached","type":"error"},{"inputs":[{"internalType":"uint256","name":"required","type":"uint256"}],"name":"InsufficientOwners","type":"error"},{"inputs":[],"name":"IntentAlreadyExecuted","type":"error"},{"inputs":[],"name":"NotAnOwner","type":"error"},{"inputs":[],"name":"NotCustodian","type":"error"},{"inputs":[],"name":"NotEnoughSignatures","type":"error"},{"inputs":[],"name":"NotOwner","type":"error"},{"anonymous":false,"inputs":[{"indexed":true,"internalType":"uint256","name":"intentId","type":"uint256"},{"indexed":true,"internalType":"address","name":"owner","type":"address"}],"name":"IntentApproved","type":"event"},{"anonymous":false,"inputs":[{"indexed":true,"internalType":"uint256","name":"intentId","type":"uint256"},{"indexed":true,"internalType":"address","name":"user","type":"address"},{"indexed":true,"internalType":"address","name":"to","type":"address"},{"indexed":false,"internalType":"uint128","name":"amount","type":"uint128"},{"indexed":false,"internalType":"uint32","name":"timestamp","type":"uint32"}],"name":"IntentCreated","type":"event"},{"anonymous":false,"inputs":[{"indexed":true,"internalType":"uint256","name":"intentId","type":"uint256"},{"indexed":true,"internalType":"address","name":"to","type":"address"},{"indexed":false,"internalType":"uint128","name":"amount","type":"uint128"}],"name":"IntentExecuted","type":"event"},{"anonymous":false,"inputs":[{"indexed":true,"internalType":"address","name":"newOwner","type":"address"}],"name":"OwnerAdded","type":"event"},{"anonymous":false,"inputs":[{"indexed":true,"internalType":"address","name":"removedOwner","type":"address"}],"name":"OwnerRemoved","type":"event"},{"anonymous":false,"inputs":[{"indexed":false,"internalType":"uint256","name":"newRequiredSignatures","type":"uint256"}],"name":"RequiredSignaturesChanged","type":"event"},{"inputs":[{"internalType":"address","name":"_owner","type":"address"}],"name":"addOwner","outputs":[],"stateMutability":"nonpayable","type":"function"},{"inputs":[{"internalType":"uint256","name":"_intentId","type":"uint256"}],"name":"approveIntent","outputs":[],"stateMutability":"nonpayable","type":"function"},{"inputs":[{"internalType":"uint256","name":"_newRequiredSignatures","type":"uint256"}],"name":"changeRequiredSignatures","outputs":[],"stateMutability":"nonpayable","type":"function"},{"inputs":[{"internalType":"address","name":"_to","type":"address"},{"internalType":"uint128","name":"_amount","type":"uint128"},{"internalType":"uint32","name":"_timestamp","type":"uint32"}],"name":"createIntent","outputs":[],"stateMutability":"nonpayable","type":"function"},{"inputs":[],"name":"custodian","outputs":[{"internalType":"address","name":"","type":"address"}],"stateMutability":"view","type":"function"},{"inputs":[{"internalType":"uint256","name":"_intentId","type":"uint256"}],"name":"executeApprovedIntent","outputs":[],"stateMutability":"nonpayable","type":"function"},{"inputs":[{"internalType":"uint256","name":"","type":"uint256"}],"name":"intents","outputs":[{"internalType":"address","name":"user","type":"address"},{"internalType":"address","name":"to","type":"address"},{"internalType":"uint128","name":"amount","type":"uint128"},{"internalType":"uint32","name":"timestamp","type":"uint32"},{"internalType":"uint8","name":"signaturesCount","type":"uint8"},{"internalType":"bool","name":"executed","type":"bool"}],"stateMutability":"view","type":"function"},{"inputs":[{"internalType":"address","name":"","type":"address"}],"name":"isOwnerMapping","outputs":[{"internalType":"bool","name":"","type":"bool"}],"stateMutability":"view","type":"function"},{"inputs":[{"internalType":"address","name":"","type":"address"}],"name":"lastIntentTimestamp","outputs":[{"internalType":"uint32","name":"","type":"uint32"}],"stateMutability":"view","type":"function"},{"inputs":[],"name":"nextIntentId","outputs":[{"internalType":"uint256","name":"","type":"uint256"}],"stateMutability":"view","type":"function"},{"inputs":[{"internalType":"address","name":"","type":"address"}],"name":"ownerIndex","outputs":[{"internalType":"uint256","name":"","type":"uint256"}],"stateMutability":"view","type":"function"},{"inputs":[{"internalType":"uint256","name":"","type":"uint256"}],"name":"owners","outputs":[{"internalType":"address","name":"","type":"address"}],"stateMutability":"view","type":"function"},{"inputs":[{"internalType":"address","name":"_owner","type":"address"}],"name":"removeOwner","outputs":[],"stateMutability":"nonpayable","type":"function"},{"inputs":[],"name":"renounceCustodian","outputs":[],"stateMutability":"nonpayable","type":"function"},{"inputs":[{"internalType":"address","name":"_newCustodian","type":"address"}],"name":"replaceCustodian","outputs":[],"stateMutability":"nonpayable","type":"function"},{"inputs":[],"name":"requiredSignatures","outputs":[{"internalType":"uint256","name":"","type":"uint256"}],"stateMutability":"view","type":"function"},{"inputs":[{"internalType":"uint256","name":"","type":"uint256"},{"internalType":"address","name":"","type":"address"}],"name":"signatures","outputs":[{"internalType":"bool","name":"","type":"bool"}],"stateMutability":"view","type":"function"},{"inputs":[],"name":"threshold","outputs":[{"internalType":"uint256","name":"","type":"uint256"}],"stateMutability":"view","type":"function"},{"inputs":[],"name":"timeLock","outputs":[{"internalType":"uint32","name":"","type":"uint32"}],"stateMutability":"view","type":"function"},{"inputs":[],"name":"treasury","outputs":[{"internalType":"contract ITreasury","name":"","type":"address"}],"stateMutability":"view","type":"function"}],"evm":{"bytecode":{"linkReferences":{},"object":"604060c0815234620002455762000fbc803803806200001e8162000265565b92833981019060a08183031262000245576200003a816200028b565b6020808301516001600160401b03949293929190858111620002455783019382601f860112156200024557845191868311620002185760059383851b968262000085818a0162000265565b809681520190838299820101928311620002455783809101915b8383106200024a57505050508785015195608060608701519601519663ffffffff881688036200024557808551106200022e5784519889116200021857680100000000000000008911620002185760019182548a8455808b10620001eb575b5098600099838b52848b20848c5b848110620001cf57505050600492909255505087546001600160a01b031990811633178955938890825b62000186575b5050505060018060a01b03169082541617905560805260a05260065551610d1b9081620002a1823960805181818161084f0152610973015260a05181818161017901526102090152f35b8051821015620001c95781871b81018401516001600160a01b03168a52600284528a8a20805460ff191684179055600384528a8a20829055908201908262000136565b6200013c565b83516001600160a01b031683820155928701928691016200010c565b6000848152848c87832093840193015b8381106200020c57505050620000fe565b828155018590620001fb565b634e487b7160e01b600052604160045260246000fd5b6024908a5190630362bf2d60e51b82526004820152fd5b600080fd5b819062000257846200028b565b81520191019083906200009f565b6040519190601f01601f191682016001600160401b038111838210176200021857604052565b51906001600160a01b0382168203620002455756fe6040608081526004908136101561001557600080fd5b600091823560e01c8063025e7c2714610c3f578063086bb25914610c01578063173825d914610aae578063208310fc1461091e578063375b74c3146108f657806339f636ab1461087257806342cde4e81461083757806346a1a095146107bd5780635d4bc6381461078857806361d027b31461075f5780637065cb481461063757806383b316c0146105e75780638d068043146105ca5780639907035e1461058b5780639b7b7b1e1461056c5780639f8a64e214610534578063afff1b5b146103f2578063cfac4b31146101a1578063d085835a1461015c5763f2f4655e146100fd57600080fd5b3461015857602036600319011261015857610116610ccf565b83546001600160a01b0393919291908416330361014b575050166bffffffffffffffffffffffff60a01b600054161760005580f35b5163918cb1dd60e01b8152fd5b8280fd5b50503461019d578160031936011261019d576020905163ffffffff7f0000000000000000000000000000000000000000000000000000000000000000168152f35b5080fd5b509034610158576060366003190112610158576101bc610ccf565b6024356001600160801b03938482168092036103ee576044359063ffffffff908183168093036103ea5783156103dc5781421691828411156103cd57338952600860205280878a205416817f000000000000000000000000000000000000000000000000000000000000000016018181116103ba571682106103ac57600654946000198614610399576001860160065586519160c083019083821067ffffffffffffffff831117610384575086918a9189523384526020840190600160a01b600190038091169a8b83528a8601958987526060810193898552838d608084019780895260a0850199818b528152600760205220925116936bffffffffffffffffffffffff60a01b948584541617835560018301915116848254161790556002019551169085549263ffffffff60801b905160801b169216171783555160ff1661031b90839081549060ff60a01b9060a01b169060ff60a01b1916179055565b51815460ff60a81b191690151560a81b60ff60a81b161790553380885260086020908152868920805463ffffffff1916909317909255855193845290830191909152927f8d384d23ee135ff20efe00aab2e88dcad82c936abe26d359a780c598fc42227791a480f35b604190634e487b7160e01b6000525260246000fd5b634e487b7160e01b895260118252602489fd5b855163629d783360e11b8152fd5b634e487b7160e01b8a526011835260248afd5b50855163629d783360e11b8152fd5b8551635e85ae7360e01b8152fd5b8780fd5b8580fd5b5091903461019d57602080600319360112610158578335913384526002825260ff90818186205416156105255783855260078352600281862001928354838160a81c166105155763ffffffff808260801c16904216106105055785875260098252828720336000528252838360002054166104f5578388549160a01c1610156104e55784865260098152818620336000908152915220805460ff19166001908117909155825460ff60a01b19811660a091821c841690920190921690911b60ff60a01b1617905590915033907fef7ffbf356e547f873a6fb7c839da25a1cd97452db13f07758e307472a54449b8380a380f35b815163e246dc6360e01b81528790fd5b825163585eb56560e11b81528890fd5b825163629d783360e11b81528890fd5b8251633b68b0fd60e01b81528890fd5b516330cd747160e01b81528590fd5b50503461019d57602036600319011261019d5760209181906001600160a01b0361055c610ccf565b1681526003845220549051908152f35b50503461019d578160031936011261019d576020906006549051908152f35b50503461019d57602036600319011261019d5760209163ffffffff9082906001600160a01b036105b9610ccf565b168152600885522054169051908152f35b503461015857826003193601126101585760209250549051908152f35b50346101585781600319360112610158576024356001600160a01b0381169190829003610632576020938391358152600985522090600052825260ff81600020541690519015158152f35b600080fd5b503461015857602036600319011261015857610651610ccf565b83549092906001600160a01b03908116330361075157831692838552600260205260ff8286205416610743576001546801000000000000000081101561073057906106a58260016106c49401600155610c82565b90919082549060031b9160018060a01b03809116831b921b1916179055565b8284526002602052808420600160ff1982541617905560015491600019830192831161071d575082845260036020528320557f994a936646fe87ffe4f1e469d3d6aa417d6b855598397f323de5b449f765f0c38280a280f35b634e487b7160e01b855260119052602484fd5b634e487b7160e01b865260418452602486fd5b50516325cfe06f60e11b8152fd5b505163918cb1dd60e01b8152fd5b50503461019d578160031936011261019d5760055490516001600160a01b039091168152602090f35b50346101585782600319360112610158578254916001600160a01b038316330361014b5750506001600160a01b031916815580f35b5034610158576020366003190112610158578160c09360ff9235815260076020522060018060a01b03926002848354169460018401541692015491815194855260208501526001600160801b0382169084015263ffffffff8160801c166060840152818160a01c16608084015260a81c16151560a0820152f35b50503461019d578160031936011261019d57602090517f00000000000000000000000000000000000000000000000000000000000000008152f35b509034610158576020366003190112610158578254823592906001600160a01b031633036108e85760015483116108d35791602091817f10dbc913050d3180c3b99f7da91fd514af7cbc9c1bb59a0da5d2bc38f0cf395a945551908152a180f35b826024925191630362bf2d60e51b8352820152fd5b905163918cb1dd60e01b8152fd5b50503461019d578160031936011261019d57905490516001600160a01b039091168152602090f35b5090346101585760203660031901126101585781359081845260076020528084206002810193845460ff8160a81c16610a9f5763ffffffff808260801c1690421610610a90576001600160801b0392818416917f0000000000000000000000000000000000000000000000000000000000000000831015610a895760015b60ff8260a01c1610610a795760ff60a81b1916600160a81b17875560055460019190910180546001600160a01b03949193928516928a918616843b1561015857604490838a51968794859363a9059cbb60e01b85528885015260248401525af18015610a6f57610a3e575b5050917f9db1bbbacf5e283cebe05e63b9c854e833f450d02abea7916b8994d1695bac84939160209354169554169051908152a380f35b67ffffffffffffffff8299939911610a5c5750845295816020610a07565b634e487b7160e01b835260419052602482fd5b86513d8b823e3d90fd5b855163e246dc6360e01b81528490fd5b835461099c565b50825163629d783360e11b8152fd5b508251633b68b0fd60e01b8152fd5b50903461015857602080600319360112610bfd57610aca610ccf565b84546001600160a01b03919082163303610bed578116938486526002835260ff848720541615610bdf578486526003835283862054600154600019929190838101908111610bcc578085918303610b9c575b505050600154908115610b89575091869493916003930190610b3d82610c82565b9091825491861b1b191690556001558484526002815282842060ff198154169055528120557f58619076adf5bb0943d100ef88d52d7c3fd691b19d3a9071b555b651fbf418da8280a280f35b634e487b7160e01b885260319052602487fd5b610ba590610c82565b90549060031b1c16610bba816106a584610c82565b88526003855285882055388381610b1c565b634e487b7160e01b895260118352602489fd5b8351631dd523ff60e31b8152fd5b5050505163918cb1dd60e01b8152fd5b8380fd5b50503461019d57602036600319011261019d5760209160ff9082906001600160a01b03610c2c610ccf565b1681526002855220541690519015158152f35b5034610158576020366003190112610158573591600154831015610c7f5750610c69602092610c82565b905491519160018060a01b039160031b1c168152f35b80fd5b600154811015610cb95760016000527fb10e2d527612073b26eecdfd717e6a320cf44b4afac2b0732d9fcbe2b7fa0cf60190600090565b634e487b7160e01b600052603260045260246000fd5b600435906001600160a01b03821682036106325756fea2646970667358221220ecd53a438df981c44fb5fa27d581e9cf0bd6ba5b1a91b42e214adfbcc64e2b1964736f6c63430008140033","opcodes":"PUSH1 0x40 PUSH1 0xC0 DUP2 MSTORE CALLVALUE PUSH3 0x245 JUMPI PUSH3 0xFBC DUP1 CODESIZE SUB DUP1 PUSH3 0x1E DUP2 PUSH3 0x265 JUMP JUMPDEST SWAP3 DUP4 CODECOPY DUP2 ADD SWAP1 PUSH1 0xA0 DUP2 DUP4 SUB SLT PUSH3 0x245 JUMPI PUSH3 0x3A DUP2 PUSH3 0x28B JUMP JUMPDEST PUSH1 0x20 DUP1 DUP4 ADD MLOAD PUSH1 0x1 PUSH1 0x1 PUSH1 0x40 SHL SUB SWAP5 SWAP3 SWAP4 SWAP3 SWAP2 SWAP1 DUP6 DUP2 GT PUSH3 0x245 JUMPI DUP4 ADD SWAP4 DUP3 PUSH1 0x1F DUP7 ADD SLT ISZERO PUSH3 0x245 JUMPI DUP5 MLOAD SWAP2 DUP7 DUP4 GT PUSH3 0x218 JUMPI PUSH1 0x5 SWAP4 DUP4 DUP6 SHL SWAP7 DUP3 PUSH3 0x85 DUP2 DUP11 ADD PUSH3 0x265 JUMP JUMPDEST DUP1 SWAP7 DUP2 MSTORE ADD SWAP1 DUP4 DUP3 SWAP10 DUP3 ADD ADD SWAP3 DUP4 GT PUSH3 0x245 JUMPI DUP4 DUP1 SWAP2 ADD SWAP2 JUMPDEST DUP4 DUP4 LT PUSH3 0x24A JUMPI POP POP POP POP DUP8 DUP6 ADD MLOAD SWAP6 PUSH1 0x80 PUSH1 0x60 DUP8 ADD MLOAD SWAP7 ADD MLOAD SWAP7 PUSH4 0xFFFFFFFF DUP9 AND DUP9 SUB PUSH3 0x245 JUMPI DUP1 DUP6 MLOAD LT PUSH3 0x22E JUMPI DUP5 MLOAD SWAP9 DUP10 GT PUSH3 0x218 JUMPI PUSH9 0x10000000000000000 DUP10 GT PUSH3 0x218 JUMPI PUSH1 0x1 SWAP2 DUP3 SLOAD DUP11 DUP5 SSTORE DUP1 DUP12 LT PUSH3 0x1EB JUMPI JUMPDEST POP SWAP9 PUSH1 0x0 SWAP10 DUP4 DUP12 MSTORE DUP5 DUP12 KECCAK256 DUP5 DUP13 JUMPDEST DUP5 DUP2 LT PUSH3 0x1CF JUMPI POP POP POP PUSH1 0x4 SWAP3 SWAP1 SWAP3 SSTORE POP POP DUP8 SLOAD PUSH1 0x1 PUSH1 0x1 PUSH1 0xA0 SHL SUB NOT SWAP1 DUP2 AND CALLER OR DUP10 SSTORE SWAP4 DUP9 SWAP1 DUP3 JUMPDEST PUSH3 0x186 JUMPI JUMPDEST POP POP POP POP PUSH1 0x1 DUP1 PUSH1 0xA0 SHL SUB AND SWAP1 DUP3 SLOAD AND OR SWAP1 SSTORE PUSH1 0x80 MSTORE PUSH1 0xA0 MSTORE PUSH1 0x6 SSTORE MLOAD PUSH2 0xD1B SWAP1 DUP2 PUSH3 0x2A1 DUP3 CODECOPY PUSH1 0x80 MLOAD DUP2 DUP2 DUP2 PUSH2 0x84F ADD MSTORE PUSH2 0x973 ADD MSTORE PUSH1 0xA0 MLOAD DUP2 DUP2 DUP2 PUSH2 0x179 ADD MSTORE PUSH2 0x209 ADD MSTORE RETURN JUMPDEST DUP1 MLOAD DUP3 LT ISZERO PUSH3 0x1C9 JUMPI DUP2 DUP8 SHL DUP2 ADD DUP5 ADD MLOAD PUSH1 0x1 PUSH1 0x1 PUSH1 0xA0 SHL SUB AND DUP11 MSTORE PUSH1 0x2 DUP5 MSTORE DUP11 DUP11 KECCAK256 DUP1 SLOAD PUSH1 0xFF NOT AND DUP5 OR SWAP1 SSTORE PUSH1 0x3 DUP5 MSTORE DUP11 DUP11 KECCAK256 DUP3 SWAP1 SSTORE SWAP1 DUP3 ADD SWAP1 DUP3 PUSH3 0x136 JUMP JUMPDEST PUSH3 0x13C JUMP JUMPDEST DUP4 MLOAD PUSH1 0x1 PUSH1 0x1 PUSH1 0xA0 SHL SUB AND DUP4 DUP3 ADD SSTORE SWAP3 DUP8 ADD SWAP3 DUP7 SWAP2 ADD PUSH3 0x10C JUMP JUMPDEST PUSH1 0x0 DUP5 DUP2 MSTORE DUP5 DUP13 DUP8 DUP4 KECCAK256 SWAP4 DUP5 ADD SWAP4 ADD JUMPDEST DUP4 DUP2 LT PUSH3 0x20C JUMPI POP POP POP PUSH3 0xFE JUMP JUMPDEST DUP3 DUP2 SSTORE ADD DUP6 SWAP1 PUSH3 0x1FB JUMP JUMPDEST PUSH4 0x4E487B71 PUSH1 0xE0 SHL PUSH1 0x0 MSTORE PUSH1 0x41 PUSH1 0x4 MSTORE PUSH1 0x24 PUSH1 0x0 REVERT JUMPDEST PUSH1 0x24 SWAP1 DUP11 MLOAD SWAP1 PUSH4 0x362BF2D PUSH1 0xE5 SHL DUP3 MSTORE PUSH1 0x4 DUP3 ADD MSTORE REVERT JUMPDEST PUSH1 0x0 DUP1 REVERT JUMPDEST DUP2 SWAP1 PUSH3 0x257 DUP5 PUSH3 0x28B JUMP JUMPDEST DUP2 MSTORE ADD SWAP2 ADD SWAP1 DUP4 SWAP1 PUSH3 0x9F JUMP JUMPDEST PUSH1 0x40 MLOAD SWAP2 SWAP1 PUSH1 0x1F ADD PUSH1 0x1F NOT AND DUP3 ADD PUSH1 0x1 PUSH1 0x1 PUSH1 0x40 SHL SUB DUP2 GT DUP4 DUP3 LT OR PUSH3 0x218 JUMPI PUSH1 0x40 MSTORE JUMP JUMPDEST MLOAD SWAP1 PUSH1 0x1 PUSH1 0x1 PUSH1 0xA0 SHL SUB DUP3 AND DUP3 SUB PUSH3 0x245 JUMPI JUMP INVALID PUSH1 0x40 PUSH1 0x80 DUP2 MSTORE PUSH1 0x4 SWAP1 DUP2 CALLDATASIZE LT ISZERO PUSH2 0x15 JUMPI PUSH1 0x0 DUP1 REVERT JUMPDEST PUSH1 0x0 SWAP2 DUP3 CALLDATALOAD PUSH1 0xE0 SHR DUP1 PUSH4 0x25E7C27 EQ PUSH2 0xC3F JUMPI DUP1 PUSH4 0x86BB259 EQ PUSH2 0xC01 JUMPI DUP1 PUSH4 0x173825D9 EQ PUSH2 0xAAE JUMPI DUP1 PUSH4 0x208310FC EQ PUSH2 0x91E JUMPI DUP1 PUSH4 0x375B74C3 EQ PUSH2 0x8F6 JUMPI DUP1 PUSH4 0x39F636AB EQ PUSH2 0x872 JUMPI DUP1 PUSH4 0x42CDE4E8 EQ PUSH2 0x837 JUMPI DUP1 PUSH4 0x46A1A095 EQ PUSH2 0x7BD JUMPI DUP1 PUSH4 0x5D4BC638 EQ PUSH2 0x788 JUMPI DUP1 PUSH4 0x61D027B3 EQ PUSH2 0x75F JUMPI DUP1 PUSH4 0x7065CB48 EQ PUSH2 0x637 JUMPI DUP1 PUSH4 0x83B316C0 EQ PUSH2 0x5E7 JUMPI DUP1 PUSH4 0x8D068043 EQ PUSH2 0x5CA JUMPI DUP1 PUSH4 0x9907035E EQ PUSH2 0x58B JUMPI DUP1 PUSH4 0x9B7B7B1E EQ PUSH2 0x56C JUMPI DUP1 PUSH4 0x9F8A64E2 EQ PUSH2 0x534 JUMPI DUP1 PUSH4 0xAFFF1B5B EQ PUSH2 0x3F2 JUMPI DUP1 PUSH4 0xCFAC4B31 EQ PUSH2 0x1A1 JUMPI DUP1 PUSH4 0xD085835A EQ PUSH2 0x15C JUMPI PUSH4 0xF2F4655E EQ PUSH2 0xFD JUMPI PUSH1 0x0 DUP1 REVERT JUMPDEST CALLVALUE PUSH2 0x158 JUMPI PUSH1 0x20 CALLDATASIZE PUSH1 0x3 NOT ADD SLT PUSH2 0x158 JUMPI PUSH2 0x116 PUSH2 0xCCF JUMP JUMPDEST DUP4 SLOAD PUSH1 0x1 PUSH1 0x1 PUSH1 0xA0 SHL SUB SWAP4 SWAP2 SWAP3 SWAP2 SWAP1 DUP5 AND CALLER SUB PUSH2 0x14B JUMPI POP POP AND PUSH12 0xFFFFFFFFFFFFFFFFFFFFFFFF PUSH1 0xA0 SHL PUSH1 0x0 SLOAD AND OR PUSH1 0x0 SSTORE DUP1 RETURN JUMPDEST MLOAD PUSH4 0x918CB1DD PUSH1 0xE0 SHL DUP2 MSTORE REVERT JUMPDEST DUP3 DUP1 REVERT JUMPDEST POP POP CALLVALUE PUSH2 0x19D JUMPI DUP2 PUSH1 0x3 NOT CALLDATASIZE ADD SLT PUSH2 0x19D JUMPI PUSH1 0x20 SWAP1 MLOAD PUSH4 0xFFFFFFFF PUSH32 0x0 AND DUP2 MSTORE RETURN JUMPDEST POP DUP1 REVERT JUMPDEST POP SWAP1 CALLVALUE PUSH2 0x158 JUMPI PUSH1 0x60 CALLDATASIZE PUSH1 0x3 NOT ADD SLT PUSH2 0x158 JUMPI PUSH2 0x1BC PUSH2 0xCCF JUMP JUMPDEST PUSH1 0x24 CALLDATALOAD PUSH1 0x1 PUSH1 0x1 PUSH1 0x80 SHL SUB SWAP4 DUP5 DUP3 AND DUP1 SWAP3 SUB PUSH2 0x3EE JUMPI PUSH1 0x44 CALLDATALOAD SWAP1 PUSH4 0xFFFFFFFF SWAP1 DUP2 DUP4 AND DUP1 SWAP4 SUB PUSH2 0x3EA JUMPI DUP4 ISZERO PUSH2 0x3DC JUMPI DUP2 TIMESTAMP AND SWAP2 DUP3 DUP5 GT ISZERO PUSH2 0x3CD JUMPI CALLER DUP10 MSTORE PUSH1 0x8 PUSH1 0x20 MSTORE DUP1 DUP8 DUP11 KECCAK256 SLOAD AND DUP2 PUSH32 0x0 AND ADD DUP2 DUP2 GT PUSH2 0x3BA JUMPI AND DUP3 LT PUSH2 0x3AC JUMPI PUSH1 0x6 SLOAD SWAP5 PUSH1 0x0 NOT DUP7 EQ PUSH2 0x399 JUMPI PUSH1 0x1 DUP7 ADD PUSH1 0x6 SSTORE DUP7 MLOAD SWAP2 PUSH1 0xC0 DUP4 ADD SWAP1 DUP4 DUP3 LT PUSH8 0xFFFFFFFFFFFFFFFF DUP4 GT OR PUSH2 0x384 JUMPI POP DUP7 SWAP2 DUP11 SWAP2 DUP10 MSTORE CALLER DUP5 MSTORE PUSH1 0x20 DUP5 ADD SWAP1 PUSH1 0x1 PUSH1 0xA0 SHL PUSH1 0x1 SWAP1 SUB DUP1 SWAP2 AND SWAP11 DUP12 DUP4 MSTORE DUP11 DUP7 ADD SWAP6 DUP10 DUP8 MSTORE PUSH1 0x60 DUP2 ADD SWAP4 DUP10 DUP6 MSTORE DUP4 DUP14 PUSH1 0x80 DUP5 ADD SWAP8 DUP1 DUP10 MSTORE PUSH1 0xA0 DUP6 ADD SWAP10 DUP2 DUP12 MSTORE DUP2 MSTORE PUSH1 0x7 PUSH1 0x20 MSTORE KECCAK256 SWAP3 MLOAD AND SWAP4 PUSH12 0xFFFFFFFFFFFFFFFFFFFFFFFF PUSH1 0xA0 SHL SWAP5 DUP6 DUP5 SLOAD AND OR DUP4 SSTORE PUSH1 0x1 DUP4 ADD SWAP2 MLOAD AND DUP5 DUP3 SLOAD AND OR SWAP1 SSTORE PUSH1 0x2 ADD SWAP6 MLOAD AND SWAP1 DUP6 SLOAD SWAP3 PUSH4 0xFFFFFFFF PUSH1 0x80 SHL SWAP1 MLOAD PUSH1 0x80 SHL AND SWAP3 AND OR OR DUP4 SSTORE MLOAD PUSH1 0xFF AND PUSH2 0x31B SWAP1 DUP4 SWAP1 DUP2 SLOAD SWAP1 PUSH1 0xFF PUSH1 0xA0 SHL SWAP1 PUSH1 0xA0 SHL AND SWAP1 PUSH1 0xFF PUSH1 0xA0 SHL NOT AND OR SWAP1 SSTORE JUMP JUMPDEST MLOAD DUP2 SLOAD PUSH1 0xFF PUSH1 0xA8 SHL NOT AND SWAP1 ISZERO ISZERO PUSH1 0xA8 SHL PUSH1 0xFF PUSH1 0xA8 SHL AND OR SWAP1 SSTORE CALLER DUP1 DUP9 MSTORE PUSH1 0x8 PUSH1 0x20 SWAP1 DUP2 MSTORE DUP7 DUP10 KECCAK256 DUP1 SLOAD PUSH4 0xFFFFFFFF NOT AND SWAP1 SWAP4 OR SWAP1 SWAP3 SSTORE DUP6 MLOAD SWAP4 DUP5 MSTORE SWAP1 DUP4 ADD SWAP2 SWAP1 SWAP2 MSTORE SWAP3 PUSH32 0x8D384D23EE135FF20EFE00AAB2E88DCAD82C936ABE26D359A780C598FC422277 SWAP2 LOG4 DUP1 RETURN JUMPDEST PUSH1 0x41 SWAP1 PUSH4 0x4E487B71 PUSH1 0xE0 SHL PUSH1 0x0 MSTORE MSTORE PUSH1 0x24 PUSH1 0x0 REVERT JUMPDEST PUSH4 0x4E487B71 PUSH1 0xE0 SHL DUP10 MSTORE PUSH1 0x11 DUP3 MSTORE PUSH1 0x24 DUP10 REVERT JUMPDEST DUP6 MLOAD PUSH4 0x629D7833 PUSH1 0xE1 SHL DUP2 MSTORE REVERT JUMPDEST PUSH4 0x4E487B71 PUSH1 0xE0 SHL DUP11 MSTORE PUSH1 0x11 DUP4 MSTORE PUSH1 0x24 DUP11 REVERT JUMPDEST POP DUP6 MLOAD PUSH4 0x629D7833 PUSH1 0xE1 SHL DUP2 MSTORE REVERT JUMPDEST DUP6 MLOAD PUSH4 0x5E85AE73 PUSH1 0xE0 SHL DUP2 MSTORE REVERT JUMPDEST DUP8 DUP1 REVERT JUMPDEST DUP6 DUP1 REVERT JUMPDEST POP SWAP2 SWAP1 CALLVALUE PUSH2 0x19D JUMPI PUSH1 0x20 DUP1 PUSH1 0x3 NOT CALLDATASIZE ADD SLT PUSH2 0x158 JUMPI DUP4 CALLDATALOAD SWAP2 CALLER DUP5 MSTORE PUSH1 0x2 DUP3 MSTORE PUSH1 0xFF SWAP1 DUP2 DUP2 DUP7 KECCAK256 SLOAD AND ISZERO PUSH2 0x525 JUMPI DUP4 DUP6 MSTORE PUSH1 0x7 DUP4 MSTORE PUSH1 0x2 DUP2 DUP7 KECCAK256 ADD SWAP3 DUP4 SLOAD DUP4 DUP2 PUSH1 0xA8 SHR AND PUSH2 0x515 JUMPI PUSH4 0xFFFFFFFF DUP1 DUP3 PUSH1 0x80 SHR AND SWAP1 TIMESTAMP AND LT PUSH2 0x505 JUMPI DUP6 DUP8 MSTORE PUSH1 0x9 DUP3 MSTORE DUP3 DUP8 KECCAK256 CALLER PUSH1 0x0 MSTORE DUP3 MSTORE DUP4 DUP4 PUSH1 0x0 KECCAK256 SLOAD AND PUSH2 0x4F5 JUMPI DUP4 DUP9 SLOAD SWAP2 PUSH1 0xA0 SHR AND LT ISZERO PUSH2 0x4E5 JUMPI DUP5 DUP7 MSTORE PUSH1 0x9 DUP2 MSTORE DUP2 DUP7 KECCAK256 CALLER PUSH1 0x0 SWAP1 DUP2 MSTORE SWAP2 MSTORE KECCAK256 DUP1 SLOAD PUSH1 0xFF NOT AND PUSH1 0x1 SWAP1 DUP2 OR SWAP1 SWAP2 SSTORE DUP3 SLOAD PUSH1 0xFF PUSH1 0xA0 SHL NOT DUP2 AND PUSH1 0xA0 SWAP2 DUP3 SHR DUP5 AND SWAP1 SWAP3 ADD SWAP1 SWAP3 AND SWAP1 SWAP2 SHL PUSH1 0xFF PUSH1 0xA0 SHL AND OR SWAP1 SSTORE SWAP1 SWAP2 POP CALLER SWAP1 PUSH32 0xEF7FFBF356E547F873A6FB7C839DA25A1CD97452DB13F07758E307472A54449B DUP4 DUP1 LOG3 DUP1 RETURN JUMPDEST DUP2 MLOAD PUSH4 0xE246DC63 PUSH1 0xE0 SHL DUP2 MSTORE DUP8 SWAP1 REVERT JUMPDEST DUP3 MLOAD PUSH4 0x585EB565 PUSH1 0xE1 SHL DUP2 MSTORE DUP9 SWAP1 REVERT JUMPDEST DUP3 MLOAD PUSH4 0x629D7833 PUSH1 0xE1 SHL DUP2 MSTORE DUP9 SWAP1 REVERT JUMPDEST DUP3 MLOAD PUSH4 0x3B68B0FD PUSH1 0xE0 SHL DUP2 MSTORE DUP9 SWAP1 REVERT JUMPDEST MLOAD PUSH4 0x30CD7471 PUSH1 0xE0 SHL DUP2 MSTORE DUP6 SWAP1 REVERT JUMPDEST POP POP CALLVALUE PUSH2 0x19D JUMPI PUSH1 0x20 CALLDATASIZE PUSH1 0x3 NOT ADD SLT PUSH2 0x19D JUMPI PUSH1 0x20 SWAP2 DUP2 SWAP1 PUSH1 0x1 PUSH1 0x1 PUSH1 0xA0 SHL SUB PUSH2 0x55C PUSH2 0xCCF JUMP JUMPDEST AND DUP2 MSTORE PUSH1 0x3 DUP5 MSTORE KECCAK256 SLOAD SWAP1 MLOAD SWAP1 DUP2 MSTORE RETURN JUMPDEST POP POP CALLVALUE PUSH2 0x19D JUMPI DUP2 PUSH1 0x3 NOT CALLDATASIZE ADD SLT PUSH2 0x19D JUMPI PUSH1 0x20 SWAP1 PUSH1 0x6 SLOAD SWAP1 MLOAD SWAP1 DUP2 MSTORE RETURN JUMPDEST POP POP CALLVALUE PUSH2 0x19D JUMPI PUSH1 0x20 CALLDATASIZE PUSH1 0x3 NOT ADD SLT PUSH2 0x19D JUMPI PUSH1 0x20 SWAP2 PUSH4 0xFFFFFFFF SWAP1 DUP3 SWAP1 PUSH1 0x1 PUSH1 0x1 PUSH1 0xA0 SHL SUB PUSH2 0x5B9 PUSH2 0xCCF JUMP JUMPDEST AND DUP2 MSTORE PUSH1 0x8 DUP6 MSTORE KECCAK256 SLOAD AND SWAP1 MLOAD SWAP1 DUP2 MSTORE RETURN JUMPDEST POP CALLVALUE PUSH2 0x158 JUMPI DUP3 PUSH1 0x3 NOT CALLDATASIZE ADD SLT PUSH2 0x158 JUMPI PUSH1 0x20 SWAP3 POP SLOAD SWAP1 MLOAD SWAP1 DUP2 MSTORE RETURN JUMPDEST POP CALLVALUE PUSH2 0x158 JUMPI DUP2 PUSH1 0x3 NOT CALLDATASIZE ADD SLT PUSH2 0x158 JUMPI PUSH1 0x24 CALLDATALOAD PUSH1 0x1 PUSH1 0x1 PUSH1 0xA0 SHL SUB DUP2 AND SWAP2 SWAP1 DUP3 SWAP1 SUB PUSH2 0x632 JUMPI PUSH1 0x20 SWAP4 DUP4 SWAP2 CALLDATALOAD DUP2 MSTORE PUSH1 0x9 DUP6 MSTORE KECCAK256 SWAP1 PUSH1 0x0 MSTORE DUP3 MSTORE PUSH1 0xFF DUP2 PUSH1 0x0 KECCAK256 SLOAD AND SWAP1 MLOAD SWAP1 ISZERO ISZERO DUP2 MSTORE RETURN JUMPDEST PUSH1 0x0 DUP1 REVERT JUMPDEST POP CALLVALUE PUSH2 0x158 JUMPI PUSH1 0x20 CALLDATASIZE PUSH1 0x3 NOT ADD SLT PUSH2 0x158 JUMPI PUSH2 0x651 PUSH2 0xCCF JUMP JUMPDEST DUP4 SLOAD SWAP1 SWAP3 SWAP1 PUSH1 0x1 PUSH1 0x1 PUSH1 0xA0 SHL SUB SWAP1 DUP2 AND CALLER SUB PUSH2 0x751 JUMPI DUP4 AND SWAP3 DUP4 DUP6 MSTORE PUSH1 0x2 PUSH1 0x20 MSTORE PUSH1 0xFF DUP3 DUP7 KECCAK256 SLOAD AND PUSH2 0x743 JUMPI PUSH1 0x1 SLOAD PUSH9 0x10000000000000000 DUP2 LT ISZERO PUSH2 0x730 JUMPI SWAP1 PUSH2 0x6A5 DUP3 PUSH1 0x1 PUSH2 0x6C4 SWAP5 ADD PUSH1 0x1 SSTORE PUSH2 0xC82 JUMP JUMPDEST SWAP1 SWAP2 SWAP1 DUP3 SLOAD SWAP1 PUSH1 0x3 SHL SWAP2 PUSH1 0x1 DUP1 PUSH1 0xA0 SHL SUB DUP1 SWAP2 AND DUP4 SHL SWAP3 SHL NOT AND OR SWAP1 SSTORE JUMP JUMPDEST DUP3 DUP5 MSTORE PUSH1 0x2 PUSH1 0x20 MSTORE DUP1 DUP5 KECCAK256 PUSH1 0x1 PUSH1 0xFF NOT DUP3 SLOAD AND OR SWAP1 SSTORE PUSH1 0x1 SLOAD SWAP2 PUSH1 0x0 NOT DUP4 ADD SWAP3 DUP4 GT PUSH2 0x71D JUMPI POP DUP3 DUP5 MSTORE PUSH1 0x3 PUSH1 0x20 MSTORE DUP4 KECCAK256 SSTORE PUSH32 0x994A936646FE87FFE4F1E469D3D6AA417D6B855598397F323DE5B449F765F0C3 DUP3 DUP1 LOG2 DUP1 RETURN JUMPDEST PUSH4 0x4E487B71 PUSH1 0xE0 SHL DUP6 MSTORE PUSH1 0x11 SWAP1 MSTORE PUSH1 0x24 DUP5 REVERT JUMPDEST PUSH4 0x4E487B71 PUSH1 0xE0 SHL DUP7 MSTORE PUSH1 0x41 DUP5 MSTORE PUSH1 0x24 DUP7 REVERT JUMPDEST POP MLOAD PUSH4 0x25CFE06F PUSH1 0xE1 SHL DUP2 MSTORE REVERT JUMPDEST POP MLOAD PUSH4 0x918CB1DD PUSH1 0xE0 SHL DUP2 MSTORE REVERT JUMPDEST POP POP CALLVALUE PUSH2 0x19D JUMPI DUP2 PUSH1 0x3 NOT CALLDATASIZE ADD SLT PUSH2 0x19D JUMPI PUSH1 0x5 SLOAD SWAP1 MLOAD PUSH1 0x1 PUSH1 0x1 PUSH1 0xA0 SHL SUB SWAP1 SWAP2 AND DUP2 MSTORE PUSH1 0x20 SWAP1 RETURN JUMPDEST POP CALLVALUE PUSH2 0x158 JUMPI DUP3 PUSH1 0x3 NOT CALLDATASIZE ADD SLT PUSH2 0x158 JUMPI DUP3 SLOAD SWAP2 PUSH1 0x1 PUSH1 0x1 PUSH1 0xA0 SHL SUB DUP4 AND CALLER SUB PUSH2 0x14B JUMPI POP POP PUSH1 0x1 PUSH1 0x1 PUSH1 0xA0 SHL SUB NOT AND DUP2 SSTORE DUP1 RETURN JUMPDEST POP CALLVALUE PUSH2 0x158 JUMPI PUSH1 0x20 CALLDATASIZE PUSH1 0x3 NOT ADD SLT PUSH2 0x158 JUMPI DUP2 PUSH1 0xC0 SWAP4 PUSH1 0xFF SWAP3 CALLDATALOAD DUP2 MSTORE PUSH1 0x7 PUSH1 0x20 MSTORE KECCAK256 PUSH1 0x1 DUP1 PUSH1 0xA0 SHL SUB SWAP3 PUSH1 0x2 DUP5 DUP4 SLOAD AND SWAP5 PUSH1 0x1 DUP5 ADD SLOAD AND SWAP3 ADD SLOAD SWAP2 DUP2 MLOAD SWAP5 DUP6 MSTORE PUSH1 0x20 DUP6 ADD MSTORE PUSH1 0x1 PUSH1 0x1 PUSH1 0x80 SHL SUB DUP3 AND SWAP1 DUP5 ADD MSTORE PUSH4 0xFFFFFFFF DUP2 PUSH1 0x80 SHR AND PUSH1 0x60 DUP5 ADD MSTORE DUP2 DUP2 PUSH1 0xA0 SHR AND PUSH1 0x80 DUP5 ADD MSTORE PUSH1 0xA8 SHR AND ISZERO ISZERO PUSH1 0xA0 DUP3 ADD MSTORE RETURN JUMPDEST POP POP CALLVALUE PUSH2 0x19D JUMPI DUP2 PUSH1 0x3 NOT CALLDATASIZE ADD SLT PUSH2 0x19D JUMPI PUSH1 0x20 SWAP1 MLOAD PUSH32 0x0 DUP2 MSTORE RETURN JUMPDEST POP SWAP1 CALLVALUE PUSH2 0x158 JUMPI PUSH1 0x20 CALLDATASIZE PUSH1 0x3 NOT ADD SLT PUSH2 0x158 JUMPI DUP3 SLOAD DUP3 CALLDATALOAD SWAP3 SWAP1 PUSH1 0x1 PUSH1 0x1 PUSH1 0xA0 SHL SUB AND CALLER SUB PUSH2 0x8E8 JUMPI PUSH1 0x1 SLOAD DUP4 GT PUSH2 0x8D3 JUMPI SWAP2 PUSH1 0x20 SWAP2 DUP2 PUSH32 0x10DBC913050D3180C3B99F7DA91FD514AF7CBC9C1BB59A0DA5D2BC38F0CF395A SWAP5 SSTORE MLOAD SWAP1 DUP2 MSTORE LOG1 DUP1 RETURN JUMPDEST DUP3 PUSH1 0x24 SWAP3 MLOAD SWAP2 PUSH4 0x362BF2D PUSH1 0xE5 SHL DUP4 MSTORE DUP3 ADD MSTORE REVERT JUMPDEST SWAP1 MLOAD PUSH4 0x918CB1DD PUSH1 0xE0 SHL DUP2 MSTORE REVERT JUMPDEST POP POP CALLVALUE PUSH2 0x19D JUMPI DUP2 PUSH1 0x3 NOT CALLDATASIZE ADD SLT PUSH2 0x19D JUMPI SWAP1 SLOAD SWAP1 MLOAD PUSH1 0x1 PUSH1 0x1 PUSH1 0xA0 SHL SUB SWAP1 SWAP2 AND DUP2 MSTORE PUSH1 0x20 SWAP1 RETURN JUMPDEST POP SWAP1 CALLVALUE PUSH2 0x158 JUMPI PUSH1 0x20 CALLDATASIZE PUSH1 0x3 NOT ADD SLT PUSH2 0x158 JUMPI DUP2 CALLDATALOAD SWAP1 DUP2 DUP5 MSTORE PUSH1 0x7 PUSH1 0x20 MSTORE DUP1 DUP5 KECCAK256 PUSH1 0x2 DUP2 ADD SWAP4 DUP5 SLOAD PUSH1 0xFF DUP2 PUSH1 0xA8 SHR AND PUSH2 0xA9F JUMPI PUSH4 0xFFFFFFFF DUP1 DUP3 PUSH1 0x80 SHR AND SWAP1 TIMESTAMP AND LT PUSH2 0xA90 JUMPI PUSH1 0x1 PUSH1 0x1 PUSH1 0x80 SHL SUB SWAP3 DUP2 DUP5 AND SWAP2 PUSH32 0x0 DUP4 LT ISZERO PUSH2 0xA89 JUMPI PUSH1 0x1 JUMPDEST PUSH1 0xFF DUP3 PUSH1 0xA0 SHR AND LT PUSH2 0xA79 JUMPI PUSH1 0xFF PUSH1 0xA8 SHL NOT AND PUSH1 0x1 PUSH1 0xA8 SHL OR DUP8 SSTORE PUSH1 0x5 SLOAD PUSH1 0x1 SWAP2 SWAP1 SWAP2 ADD DUP1 SLOAD PUSH1 0x1 PUSH1 0x1 PUSH1 0xA0 SHL SUB SWAP5 SWAP2 SWAP4 SWAP3 DUP6 AND SWAP3 DUP11 SWAP2 DUP7 AND DUP5 EXTCODESIZE ISZERO PUSH2 0x158 JUMPI PUSH1 0x44 SWAP1 DUP4 DUP11 MLOAD SWAP7 DUP8 SWAP5 DUP6 SWAP4 PUSH4 0xA9059CBB PUSH1 0xE0 SHL DUP6 MSTORE DUP9 DUP6 ADD MSTORE PUSH1 0x24 DUP5 ADD MSTORE GAS CALL DUP1 ISZERO PUSH2 0xA6F JUMPI PUSH2 0xA3E JUMPI JUMPDEST POP POP SWAP2 PUSH32 0x9DB1BBBACF5E283CEBE05E63B9C854E833F450D02ABEA7916B8994D1695BAC84 SWAP4 SWAP2 PUSH1 0x20 SWAP4 SLOAD AND SWAP6 SLOAD AND SWAP1 MLOAD SWAP1 DUP2 MSTORE LOG3 DUP1 RETURN JUMPDEST PUSH8 0xFFFFFFFFFFFFFFFF DUP3 SWAP10 SWAP4 SWAP10 GT PUSH2 0xA5C JUMPI POP DUP5 MSTORE SWAP6 DUP2 PUSH1 0x20 PUSH2 0xA07 JUMP JUMPDEST PUSH4 0x4E487B71 PUSH1 0xE0 SHL DUP4 MSTORE PUSH1 0x41 SWAP1 MSTORE PUSH1 0x24 DUP3 REVERT JUMPDEST DUP7 MLOAD RETURNDATASIZE DUP12 DUP3 RETURNDATACOPY RETURNDATASIZE SWAP1 REVERT JUMPDEST DUP6 MLOAD PUSH4 0xE246DC63 PUSH1 0xE0 SHL DUP2 MSTORE DUP5 SWAP1 REVERT JUMPDEST DUP4 SLOAD PUSH2 0x99C JUMP JUMPDEST POP DUP3 MLOAD PUSH4 0x629D7833 PUSH1 0xE1 SHL DUP2 MSTORE REVERT JUMPDEST POP DUP3 MLOAD PUSH4 0x3B68B0FD PUSH1 0xE0 SHL DUP2 MSTORE REVERT JUMPDEST POP SWAP1 CALLVALUE PUSH2 0x158 JUMPI PUSH1 0x20 DUP1 PUSH1 0x3 NOT CALLDATASIZE ADD SLT PUSH2 0xBFD JUMPI PUSH2 0xACA PUSH2 0xCCF JUMP JUMPDEST DUP5 SLOAD PUSH1 0x1 PUSH1 0x1 PUSH1 0xA0 SHL SUB SWAP2 SWAP1 DUP3 AND CALLER SUB PUSH2 0xBED JUMPI DUP2 AND SWAP4 DUP5 DUP7 MSTORE PUSH1 0x2 DUP4 MSTORE PUSH1 0xFF DUP5 DUP8 KECCAK256 SLOAD AND ISZERO PUSH2 0xBDF JUMPI DUP5 DUP7 MSTORE PUSH1 0x3 DUP4 MSTORE DUP4 DUP7 KECCAK256 SLOAD PUSH1 0x1 SLOAD PUSH1 0x0 NOT SWAP3 SWAP2 SWAP1 DUP4 DUP2 ADD SWAP1 DUP2 GT PUSH2 0xBCC JUMPI DUP1 DUP6 SWAP2 DUP4 SUB PUSH2 0xB9C JUMPI JUMPDEST POP POP POP PUSH1 0x1 SLOAD SWAP1 DUP2 ISZERO PUSH2 0xB89 JUMPI POP SWAP2 DUP7 SWAP5 SWAP4 SWAP2 PUSH1 0x3 SWAP4 ADD SWAP1 PUSH2 0xB3D DUP3 PUSH2 0xC82 JUMP JUMPDEST SWAP1 SWAP2 DUP3 SLOAD SWAP2 DUP7 SHL SHL NOT AND SWAP1 SSTORE PUSH1 0x1 SSTORE DUP5 DUP5 MSTORE PUSH1 0x2 DUP2 MSTORE DUP3 DUP5 KECCAK256 PUSH1 0xFF NOT DUP2 SLOAD AND SWAP1 SSTORE MSTORE DUP2 KECCAK256 SSTORE PUSH32 0x58619076ADF5BB0943D100EF88D52D7C3FD691B19D3A9071B555B651FBF418DA DUP3 DUP1 LOG2 DUP1 RETURN JUMPDEST PUSH4 0x4E487B71 PUSH1 0xE0 SHL DUP9 MSTORE PUSH1 0x31 SWAP1 MSTORE PUSH1 0x24 DUP8 REVERT JUMPDEST PUSH2 0xBA5 SWAP1 PUSH2 0xC82 JUMP JUMPDEST SWAP1 SLOAD SWAP1 PUSH1 0x3 SHL SHR AND PUSH2 0xBBA DUP2 PUSH2 0x6A5 DUP5 PUSH2 0xC82 JUMP JUMPDEST DUP9 MSTORE PUSH1 0x3 DUP6 MSTORE DUP6 DUP9 KECCAK256 SSTORE CODESIZE DUP4 DUP2 PUSH2 0xB1C JUMP JUMPDEST PUSH4 0x4E487B71 PUSH1 0xE0 SHL DUP10 MSTORE PUSH1 0x11 DUP4 MSTORE PUSH1 0x24 DUP10 REVERT JUMPDEST DUP4 MLOAD PUSH4 0x1DD523FF PUSH1 0xE3 SHL DUP2 MSTORE REVERT JUMPDEST POP POP POP MLOAD PUSH4 0x918CB1DD PUSH1 0xE0 SHL DUP2 MSTORE REVERT JUMPDEST DUP4 DUP1 REVERT JUMPDEST POP POP CALLVALUE PUSH2 0x19D JUMPI PUSH1 0x20 CALLDATASIZE PUSH1 0x3 NOT ADD SLT PUSH2 0x19D JUMPI PUSH1 0x20 SWAP2 PUSH1 0xFF SWAP1 DUP3 SWAP1 PUSH1 0x1 PUSH1 0x1 PUSH1 0xA0 SHL SUB PUSH2 0xC2C PUSH2 0xCCF JUMP JUMPDEST AND DUP2 MSTORE PUSH1 0x2 DUP6 MSTORE KECCAK256 SLOAD AND SWAP1 MLOAD SWAP1 ISZERO ISZERO DUP2 MSTORE RETURN JUMPDEST POP CALLVALUE PUSH2 0x158 JUMPI PUSH1 0x20 CALLDATASIZE PUSH1 0x3 NOT ADD SLT PUSH2 0x158 JUMPI CALLDATALOAD SWAP2 PUSH1 0x1 SLOAD DUP4 LT ISZERO PUSH2 0xC7F JUMPI POP PUSH2 0xC69 PUSH1 0x20 SWAP3 PUSH2 0xC82 JUMP JUMPDEST SWAP1 SLOAD SWAP2 MLOAD SWAP2 PUSH1 0x1 DUP1 PUSH1 0xA0 SHL SUB SWAP2 PUSH1 0x3 SHL SHR AND DUP2 MSTORE RETURN JUMPDEST DUP1 REVERT JUMPDEST PUSH1 0x1 SLOAD DUP2 LT ISZERO PUSH2 0xCB9 JUMPI PUSH1 0x1 PUSH1 0x0 MSTORE PUSH32 0xB10E2D527612073B26EECDFD717E6A320CF44B4AFAC2B0732D9FCBE2B7FA0CF6 ADD SWAP1 PUSH1 0x0 SWAP1 JUMP JUMPDEST PUSH4 0x4E487B71 PUSH1 0xE0 SHL PUSH1 0x0 MSTORE PUSH1 0x32 PUSH1 0x4 MSTORE PUSH1 0x24 PUSH1 0x0 REVERT JUMPDEST PUSH1 0x4 CALLDATALOAD SWAP1 PUSH1 0x1 PUSH1 0x1 PUSH1 0xA0 SHL SUB DUP3 AND DUP3 SUB PUSH2 0x632 JUMPI JUMP INVALID LOG2 PUSH5 0x6970667358 0x22 SLT KECCAK256 0xEC 0xD5 GASPRICE NUMBER DUP14 0xF9 DUP2 0xC4 0x4F 0xB5 STATICCALL 0x27 0xD5 DUP2 0xE9 0xCF SIGNEXTEND 0xD6 0xBA JUMPDEST BYTE SWAP2 0xB4 0x2E 0x21 0x4A 0xDF 0xBC 0xC6 0x4E 0x2B NOT PUSH5 0x736F6C6343 STOP ADDMOD EQ STOP CALLER "},"methodIdentifiers":{"addOwner(address)":"7065cb48","approveIntent(uint256)":"afff1b5b","changeRequiredSignatures(uint256)":"39f636ab","createIntent(address,uint128,uint32)":"cfac4b31","custodian()":"375b74c3","executeApprovedIntent(uint256)":"208310fc","intents(uint256)":"46a1a095","isOwnerMapping(address)":"086bb259","lastIntentTimestamp(address)":"9907035e","nextIntentId()":"9b7b7b1e","ownerIndex(address)":"9f8a64e2","owners(uint256)":"025e7c27","removeOwner(address)":"173825d9","renounceCustodian()":"5d4bc638","replaceCustodian(address)":"f2f4655e","requiredSignatures()":"8d068043","signatures(uint256,address)":"83b316c0","threshold()":"42cde4e8","timeLock()":"d085835a","treasury()":"61d027b3"}}}}}