{"contracts/Intents.sol":{"Intents":{"abi":[{"inputs":[{"internalType":"address","name":"_treasury","type":"address"},{"internalType":"address[]","name":"_owners","type":"address[]"},{"internalType":"uint256","name":"_requiredSignatures","type":"uint256"},{"internalType":"uint256","name":"_threshold","type":"uint256"},{"internalType":"uint256","name":"_timeLock","type":"uint256"}],"stateMutability":"nonpayable","type":"constructor"},{"inputs":[],"name":"AlreadyAnOwner","type":"error"},{"inputs":[],"name":"AlreadySigned","type":"error"},{"inputs":[],"name":"AmountMustBeGreaterThanZero","type":"error"},{"inputs":[],"name":"ExecutionTimeNotReached","type":"error"},{"inputs":[{"internalType":"uint256","name":"required","type":"uint256"}],"name":"InsufficientOwners","type":"error"},{"inputs":[],"name":"IntentAlreadyExecuted","type":"error"},{"inputs":[],"name":"NotAnOwner","type":"error"},{"inputs":[],"name":"NotCustodian","type":"error"},{"inputs":[],"name":"NotEnoughSignatures","type":"error"},{"inputs":[],"name":"NotOwner","type":"error"},{"anonymous":false,"inputs":[{"indexed":true,"internalType":"uint256","name":"intentId","type":"uint256"},{"indexed":true,"internalType":"address","name":"owner","type":"address"}],"name":"IntentApproved","type":"event"},{"anonymous":false,"inputs":[{"indexed":true,"internalType":"uint256","name":"intentId","type":"uint256"},{"indexed":true,"internalType":"address","name":"user","type":"address"},{"indexed":true,"internalType":"address","name":"to","type":"address"},{"indexed":false,"internalType":"uint128","name":"amount","type":"uint128"},{"indexed":false,"internalType":"uint256","name":"timestamp","type":"uint256"}],"name":"IntentCreated","type":"event"},{"anonymous":false,"inputs":[{"indexed":true,"internalType":"uint256","name":"intentId","type":"uint256"}],"name":"IntentExecuted","type":"event"},{"anonymous":false,"inputs":[{"indexed":true,"internalType":"address","name":"newOwner","type":"address"}],"name":"OwnerAdded","type":"event"},{"anonymous":false,"inputs":[{"indexed":true,"internalType":"address","name":"removedOwner","type":"address"}],"name":"OwnerRemoved","type":"event"},{"anonymous":false,"inputs":[{"indexed":false,"internalType":"uint256","name":"newRequiredSignatures","type":"uint256"}],"name":"RequiredSignaturesChanged","type":"event"},{"inputs":[{"internalType":"address","name":"_owner","type":"address"}],"name":"addOwner","outputs":[],"stateMutability":"nonpayable","type":"function"},{"inputs":[{"internalType":"uint256","name":"_intentId","type":"uint256"}],"name":"approveIntent","outputs":[],"stateMutability":"nonpayable","type":"function"},{"inputs":[{"internalType":"uint256","name":"_newRequiredSignatures","type":"uint256"}],"name":"changeRequiredSignatures","outputs":[],"stateMutability":"nonpayable","type":"function"},{"inputs":[{"internalType":"address","name":"_to","type":"address"},{"internalType":"uint128","name":"_amount","type":"uint128"},{"internalType":"uint256","name":"_timestamp","type":"uint256"}],"name":"createIntent","outputs":[],"stateMutability":"nonpayable","type":"function"},{"inputs":[],"name":"custodian","outputs":[{"internalType":"address","name":"","type":"address"}],"stateMutability":"view","type":"function"},{"inputs":[{"internalType":"uint256","name":"_intentId","type":"uint256"}],"name":"executeApprovedIntent","outputs":[],"stateMutability":"nonpayable","type":"function"},{"inputs":[{"internalType":"uint256","name":"","type":"uint256"}],"name":"intents","outputs":[{"internalType":"address","name":"user","type":"address"},{"internalType":"address","name":"to","type":"address"},{"internalType":"uint128","name":"amount","type":"uint128"},{"internalType":"uint256","name":"timestamp","type":"uint256"},{"internalType":"bool","name":"executed","type":"bool"},{"internalType":"uint8","name":"signaturesCount","type":"uint8"}],"stateMutability":"view","type":"function"},{"inputs":[{"internalType":"address","name":"","type":"address"}],"name":"isOwnerMapping","outputs":[{"internalType":"bool","name":"","type":"bool"}],"stateMutability":"view","type":"function"},{"inputs":[{"internalType":"address","name":"","type":"address"}],"name":"lastIntentTimestamp","outputs":[{"internalType":"uint256","name":"","type":"uint256"}],"stateMutability":"view","type":"function"},{"inputs":[],"name":"nextIntentId","outputs":[{"internalType":"uint256","name":"","type":"uint256"}],"stateMutability":"view","type":"function"},{"inputs":[{"internalType":"address","name":"","type":"address"}],"name":"ownerIndex","outputs":[{"internalType":"uint256","name":"","type":"uint256"}],"stateMutability":"view","type":"function"},{"inputs":[{"internalType":"uint256","name":"","type":"uint256"}],"name":"owners","outputs":[{"internalType":"address","name":"","type":"address"}],"stateMutability":"view","type":"function"},{"inputs":[{"internalType":"address","name":"_owner","type":"address"}],"name":"removeOwner","outputs":[],"stateMutability":"nonpayable","type":"function"},{"inputs":[],"name":"renounceCustodian","outputs":[],"stateMutability":"nonpayable","type":"function"},{"inputs":[{"internalType":"address","name":"_newCustodian","type":"address"}],"name":"replaceCustodian","outputs":[],"stateMutability":"nonpayable","type":"function"},{"inputs":[],"name":"requiredSignatures","outputs":[{"internalType":"uint256","name":"","type":"uint256"}],"stateMutability":"view","type":"function"},{"inputs":[{"internalType":"uint256","name":"","type":"uint256"},{"internalType":"address","name":"","type":"address"}],"name":"signatures","outputs":[{"internalType":"bool","name":"","type":"bool"}],"stateMutability":"view","type":"function"},{"inputs":[],"name":"threshold","outputs":[{"internalType":"uint256","name":"","type":"uint256"}],"stateMutability":"view","type":"function"},{"inputs":[],"name":"timeLock","outputs":[{"internalType":"uint256","name":"","type":"uint256"}],"stateMutability":"view","type":"function"},{"inputs":[],"name":"treasury","outputs":[{"internalType":"contract Treasury","name":"","type":"address"}],"stateMutability":"view","type":"function"}],"evm":{"bytecode":{"linkReferences":{},"object":"60e06040523480156200001157600080fd5b5060405162001131380380620011318339810160408190526200003491620001cf565b84848480825110156200006157604051630362bf2d60e51b81526004810182905260240160405180910390fd5b6001600160a01b0383166080528151620000839060019060208501906200011b565b506004819055600080546001600160a01b031916331781555b825181101562000104576000838281518110620000bd57620000bd620002d1565b6020908102919091018101516001600160a01b03166000908152600282526040808220805460ff19166001908117909155600390935290208390559190910190506200009c565b50505060a09290925260c05250620002e792505050565b82805482825590600052602060002090810192821562000173579160200282015b828111156200017357825182546001600160a01b0319166001600160a01b039091161782556020909201916001909101906200013c565b506200018192915062000185565b5090565b5b8082111562000181576000815560010162000186565b80516001600160a01b0381168114620001b457600080fd5b919050565b634e487b7160e01b600052604160045260246000fd5b600080600080600060a08688031215620001e857600080fd5b620001f3866200019c565b602087810151919650906001600160401b03808211156200021357600080fd5b818901915089601f8301126200022857600080fd5b8151818111156200023d576200023d620001b9565b8060051b604051601f19603f83011681018181108582111715620002655762000265620001b9565b60405291825284820192508381018501918c8311156200028457600080fd5b938501935b82851015620002ad576200029d856200019c565b8452938501939285019262000289565b60408c015160608d01516080909d01519b9e919d509b9a9950975050505050505050565b634e487b7160e01b600052603260045260246000fd5b60805160a05160c051610e056200032c600039600081816103ac015261083c0152600081816101e701526106260152600081816102df01526106bf0152610e056000f3fe608060405234801561001057600080fd5b506004361061012c5760003560e01c806361d027b3116100ad5780639b7b7b1e116100715780639b7b7b1e1461036b5780639f8a64e214610374578063afff1b5b14610394578063d085835a146103a7578063f2f4655e146103ce57600080fd5b806361d027b3146102da5780637065cb481461030157806383b316c0146103145780638d068043146103425780639907035e1461034b57600080fd5b806339f636ab116100f457806339f636ab146101cf57806342cde4e8146101e257806346a1a095146102175780635be23c12146102bf5780635d4bc638146102d257600080fd5b8063025e7c2714610131578063086bb25914610161578063173825d914610194578063208310fc146101a9578063375b74c3146101bc575b600080fd5b61014461013f366004610c93565b6103e1565b6040516001600160a01b0390911681526020015b60405180910390f35b61018461016f366004610cc8565b60026020526000908152604090205460ff1681565b6040519015158152602001610158565b6101a76101a2366004610cc8565b61040b565b005b6101a76101b7366004610c93565b6105ad565b600054610144906001600160a01b031681565b6101a76101dd366004610c93565b61074c565b6102097f000000000000000000000000000000000000000000000000000000000000000081565b604051908152602001610158565b610276610225366004610c93565b600660205260009081526040902080546001820154600283015460038401546004909401546001600160a01b039384169493909216926001600160801b039091169160ff8082169161010090041686565b604080516001600160a01b0397881681529690951660208701526001600160801b03909316938501939093526060840152901515608083015260ff1660a082015260c001610158565b6101a76102cd366004610cea565b6107dc565b6101a76109b4565b6101447f000000000000000000000000000000000000000000000000000000000000000081565b6101a761030f366004610cc8565b6109f1565b610184610322366004610d35565b600860209081526000928352604080842090915290825290205460ff1681565b61020960045481565b610209610359366004610cc8565b60076020526000908152604090205481565b61020960055481565b610209610382366004610cc8565b60036020526000908152604090205481565b6101a76103a2366004610c93565b610b08565b6102097f000000000000000000000000000000000000000000000000000000000000000081565b6101a76103dc366004610cc8565b610c46565b600181815481106103f157600080fd5b6000918252602090912001546001600160a01b0316905081565b6000546001600160a01b031633146104365760405163918cb1dd60e01b815260040160405180910390fd5b6001600160a01b03811660009081526002602052604090205460ff1661046f57604051631dd523ff60e31b815260040160405180910390fd5b6001600160a01b038116600090815260036020526040812054600180549192916104999190610d77565b9050808214610521576000600182815481106104b7576104b7610d90565b600091825260209091200154600180546001600160a01b0390921692508291859081106104e6576104e6610d90565b600091825260208083209190910180546001600160a01b0319166001600160a01b039485161790559290911681526003909152604090208290555b600180548061053257610532610da6565b60008281526020808220830160001990810180546001600160a01b03191690559092019092556001600160a01b038516808352600282526040808420805460ff191690556003909252818320839055905190917f58619076adf5bb0943d100ef88d52d7c3fd691b19d3a9071b555b651fbf418da91a2505050565b6000818152600660205260409020600481015460ff16156105e157604051633b68b0fd60e01b815260040160405180910390fd5b80600301544210156106065760405163629d783360e11b815260040160405180910390fd5b600281015460048201546001600160801b0390911690610100900460ff167f0000000000000000000000000000000000000000000000000000000000000000821061065357600454610656565b60015b8160ff1610156106795760405163e246dc6360e01b815260040160405180910390fd5b6004838101805460ff1916600190811790915584015460405163a9059cbb60e01b81526001600160a01b03918216928101929092526001600160801b03841660248301527f0000000000000000000000000000000000000000000000000000000000000000169063a9059cbb90604401600060405180830381600087803b15801561070357600080fd5b505af1158015610717573d6000803e3d6000fd5b50506040518692507ff0c6c99b11035113bf510013043afc18365a61a112c542b9f7491fd1574cfc5b9150600090a250505050565b6000546001600160a01b031633146107775760405163918cb1dd60e01b815260040160405180910390fd5b6001548111156107a157604051630362bf2d60e51b81526004810182905260240160405180910390fd5b60048190556040518181527f10dbc913050d3180c3b99f7da91fd514af7cbc9c1bb59a0da5d2bc38f0cf395a9060200160405180910390a150565b816001600160801b031660000361080657604051635e85ae7360e01b815260040160405180910390fd5b4281116108265760405163629d783360e11b815260040160405180910390fd5b33600090815260076020526040902054610861907f000000000000000000000000000000000000000000000000000000000000000090610dbc565b4210156108815760405163629d783360e11b815260040160405180910390fd5b6040805160c081018252338082526001600160a01b0386811660208085018281526001600160801b03898116878901818152606089018b8152600060808b0181815260a08c0182815260058054845260068a528e84209d518e54908d166001600160a01b0319918216178f55985160018f01805491909d16991698909817909a55925160028c018054919096166fffffffffffffffffffffffffffffffff19909116179094555160038a01555160049098018054965160ff166101000261ff00199915159990991661ffff19909716969096179790971790945584845260078252928690204290559154855194855291840186905293919290917f98d5c3f50f672101142dfbd8ff56c172cbd9d86dbf6ee092e5b0f4a5a9cbf1d0910160405180910390a4505060058054600101905550565b6000546001600160a01b031633146109df5760405163918cb1dd60e01b815260040160405180910390fd5b600080546001600160a01b0319169055565b6000546001600160a01b03163314610a1c5760405163918cb1dd60e01b815260040160405180910390fd5b6001600160a01b03811660009081526002602052604090205460ff1615610a56576040516325cfe06f60e11b815260040160405180910390fd5b6001805480820182557fb10e2d527612073b26eecdfd717e6a320cf44b4afac2b0732d9fcbe2b7fa0cf60180546001600160a01b0319166001600160a01b0384169081179091556000908152600260205260409020805460ff1916821790558054610ac19190610d77565b6001600160a01b03821660008181526003602052604080822093909355915190917f994a936646fe87ffe4f1e469d3d6aa417d6b855598397f323de5b449f765f0c391a250565b3360009081526002602052604090205460ff16610b38576040516330cd747160e01b815260040160405180910390fd5b6000818152600660205260409020600481015460ff1615610b6c57604051633b68b0fd60e01b815260040160405180910390fd5b8060030154421015610b915760405163629d783360e11b815260040160405180910390fd5b600082815260086020908152604080832033845290915290205460ff1615610bcc5760405163585eb56560e11b815260040160405180910390fd5b60008281526008602090815260408083203380855292528083208054600160ff19909116811790915560048501805461ff0019811660ff6101009283900481169094019093160291909117905551909184917fef7ffbf356e547f873a6fb7c839da25a1cd97452db13f07758e307472a54449b9190a35050565b6000546001600160a01b03163314610c715760405163918cb1dd60e01b815260040160405180910390fd5b600080546001600160a01b0319166001600160a01b0392909216919091179055565b600060208284031215610ca557600080fd5b5035919050565b80356001600160a01b0381168114610cc357600080fd5b919050565b600060208284031215610cda57600080fd5b610ce382610cac565b9392505050565b600080600060608486031215610cff57600080fd5b610d0884610cac565b925060208401356001600160801b0381168114610d2457600080fd5b929592945050506040919091013590565b60008060408385031215610d4857600080fd5b82359150610d5860208401610cac565b90509250929050565b634e487b7160e01b600052601160045260246000fd5b81810381811115610d8a57610d8a610d61565b92915050565b634e487b7160e01b600052603260045260246000fd5b634e487b7160e01b600052603160045260246000fd5b80820180821115610d8a57610d8a610d6156fea264697066735822122050e96e7819b38a83ed7501327fae0d006024ee00c8408acb3b9dbd0b1452c6c364736f6c63430008140033","opcodes":"PUSH1 0xE0 PUSH1 0x40 MSTORE CALLVALUE DUP1 ISZERO PUSH3 0x11 JUMPI PUSH1 0x0 DUP1 REVERT JUMPDEST POP PUSH1 0x40 MLOAD PUSH3 0x1131 CODESIZE SUB DUP1 PUSH3 0x1131 DUP4 CODECOPY DUP2 ADD PUSH1 0x40 DUP2 SWAP1 MSTORE PUSH3 0x34 SWAP2 PUSH3 0x1CF JUMP JUMPDEST DUP5 DUP5 DUP5 DUP1 DUP3 MLOAD LT ISZERO PUSH3 0x61 JUMPI PUSH1 0x40 MLOAD PUSH4 0x362BF2D PUSH1 0xE5 SHL DUP2 MSTORE PUSH1 0x4 DUP2 ADD DUP3 SWAP1 MSTORE PUSH1 0x24 ADD PUSH1 0x40 MLOAD DUP1 SWAP2 SUB SWAP1 REVERT JUMPDEST PUSH1 0x1 PUSH1 0x1 PUSH1 0xA0 SHL SUB DUP4 AND PUSH1 0x80 MSTORE DUP2 MLOAD PUSH3 0x83 SWAP1 PUSH1 0x1 SWAP1 PUSH1 0x20 DUP6 ADD SWAP1 PUSH3 0x11B JUMP JUMPDEST POP PUSH1 0x4 DUP2 SWAP1 SSTORE PUSH1 0x0 DUP1 SLOAD PUSH1 0x1 PUSH1 0x1 PUSH1 0xA0 SHL SUB NOT AND CALLER OR DUP2 SSTORE JUMPDEST DUP3 MLOAD DUP2 LT ISZERO PUSH3 0x104 JUMPI PUSH1 0x0 DUP4 DUP3 DUP2 MLOAD DUP2 LT PUSH3 0xBD JUMPI PUSH3 0xBD PUSH3 0x2D1 JUMP JUMPDEST PUSH1 0x20 SWAP1 DUP2 MUL SWAP2 SWAP1 SWAP2 ADD DUP2 ADD MLOAD PUSH1 0x1 PUSH1 0x1 PUSH1 0xA0 SHL SUB AND PUSH1 0x0 SWAP1 DUP2 MSTORE PUSH1 0x2 DUP3 MSTORE PUSH1 0x40 DUP1 DUP3 KECCAK256 DUP1 SLOAD PUSH1 0xFF NOT AND PUSH1 0x1 SWAP1 DUP2 OR SWAP1 SWAP2 SSTORE PUSH1 0x3 SWAP1 SWAP4 MSTORE SWAP1 KECCAK256 DUP4 SWAP1 SSTORE SWAP2 SWAP1 SWAP2 ADD SWAP1 POP PUSH3 0x9C JUMP JUMPDEST POP POP POP PUSH1 0xA0 SWAP3 SWAP1 SWAP3 MSTORE PUSH1 0xC0 MSTORE POP PUSH3 0x2E7 SWAP3 POP POP POP JUMP JUMPDEST DUP3 DUP1 SLOAD DUP3 DUP3 SSTORE SWAP1 PUSH1 0x0 MSTORE PUSH1 0x20 PUSH1 0x0 KECCAK256 SWAP1 DUP2 ADD SWAP3 DUP3 ISZERO PUSH3 0x173 JUMPI SWAP2 PUSH1 0x20 MUL DUP3 ADD JUMPDEST DUP3 DUP2 GT ISZERO PUSH3 0x173 JUMPI DUP3 MLOAD DUP3 SLOAD PUSH1 0x1 PUSH1 0x1 PUSH1 0xA0 SHL SUB NOT AND PUSH1 0x1 PUSH1 0x1 PUSH1 0xA0 SHL SUB SWAP1 SWAP2 AND OR DUP3 SSTORE PUSH1 0x20 SWAP1 SWAP3 ADD SWAP2 PUSH1 0x1 SWAP1 SWAP2 ADD SWAP1 PUSH3 0x13C JUMP JUMPDEST POP PUSH3 0x181 SWAP3 SWAP2 POP PUSH3 0x185 JUMP JUMPDEST POP SWAP1 JUMP JUMPDEST JUMPDEST DUP1 DUP3 GT ISZERO PUSH3 0x181 JUMPI PUSH1 0x0 DUP2 SSTORE PUSH1 0x1 ADD PUSH3 0x186 JUMP JUMPDEST DUP1 MLOAD PUSH1 0x1 PUSH1 0x1 PUSH1 0xA0 SHL SUB DUP2 AND DUP2 EQ PUSH3 0x1B4 JUMPI PUSH1 0x0 DUP1 REVERT JUMPDEST SWAP2 SWAP1 POP JUMP JUMPDEST PUSH4 0x4E487B71 PUSH1 0xE0 SHL PUSH1 0x0 MSTORE PUSH1 0x41 PUSH1 0x4 MSTORE PUSH1 0x24 PUSH1 0x0 REVERT JUMPDEST PUSH1 0x0 DUP1 PUSH1 0x0 DUP1 PUSH1 0x0 PUSH1 0xA0 DUP7 DUP9 SUB SLT ISZERO PUSH3 0x1E8 JUMPI PUSH1 0x0 DUP1 REVERT JUMPDEST PUSH3 0x1F3 DUP7 PUSH3 0x19C JUMP JUMPDEST PUSH1 0x20 DUP8 DUP2 ADD MLOAD SWAP2 SWAP7 POP SWAP1 PUSH1 0x1 PUSH1 0x1 PUSH1 0x40 SHL SUB DUP1 DUP3 GT ISZERO PUSH3 0x213 JUMPI PUSH1 0x0 DUP1 REVERT JUMPDEST DUP2 DUP10 ADD SWAP2 POP DUP10 PUSH1 0x1F DUP4 ADD SLT PUSH3 0x228 JUMPI PUSH1 0x0 DUP1 REVERT JUMPDEST DUP2 MLOAD DUP2 DUP2 GT ISZERO PUSH3 0x23D JUMPI PUSH3 0x23D PUSH3 0x1B9 JUMP JUMPDEST DUP1 PUSH1 0x5 SHL PUSH1 0x40 MLOAD PUSH1 0x1F NOT PUSH1 0x3F DUP4 ADD AND DUP2 ADD DUP2 DUP2 LT DUP6 DUP3 GT OR ISZERO PUSH3 0x265 JUMPI PUSH3 0x265 PUSH3 0x1B9 JUMP JUMPDEST PUSH1 0x40 MSTORE SWAP2 DUP3 MSTORE DUP5 DUP3 ADD SWAP3 POP DUP4 DUP2 ADD DUP6 ADD SWAP2 DUP13 DUP4 GT ISZERO PUSH3 0x284 JUMPI PUSH1 0x0 DUP1 REVERT JUMPDEST SWAP4 DUP6 ADD SWAP4 JUMPDEST DUP3 DUP6 LT ISZERO PUSH3 0x2AD JUMPI PUSH3 0x29D DUP6 PUSH3 0x19C JUMP JUMPDEST DUP5 MSTORE SWAP4 DUP6 ADD SWAP4 SWAP3 DUP6 ADD SWAP3 PUSH3 0x289 JUMP JUMPDEST PUSH1 0x40 DUP13 ADD MLOAD PUSH1 0x60 DUP14 ADD MLOAD PUSH1 0x80 SWAP1 SWAP14 ADD MLOAD SWAP12 SWAP15 SWAP2 SWAP14 POP SWAP12 SWAP11 SWAP10 POP SWAP8 POP POP POP POP POP POP POP POP JUMP JUMPDEST PUSH4 0x4E487B71 PUSH1 0xE0 SHL PUSH1 0x0 MSTORE PUSH1 0x32 PUSH1 0x4 MSTORE PUSH1 0x24 PUSH1 0x0 REVERT JUMPDEST PUSH1 0x80 MLOAD PUSH1 0xA0 MLOAD PUSH1 0xC0 MLOAD PUSH2 0xE05 PUSH3 0x32C PUSH1 0x0 CODECOPY PUSH1 0x0 DUP2 DUP2 PUSH2 0x3AC ADD MSTORE PUSH2 0x83C ADD MSTORE PUSH1 0x0 DUP2 DUP2 PUSH2 0x1E7 ADD MSTORE PUSH2 0x626 ADD MSTORE PUSH1 0x0 DUP2 DUP2 PUSH2 0x2DF ADD MSTORE PUSH2 0x6BF ADD MSTORE PUSH2 0xE05 PUSH1 0x0 RETURN INVALID PUSH1 0x80 PUSH1 0x40 MSTORE CALLVALUE DUP1 ISZERO PUSH2 0x10 JUMPI PUSH1 0x0 DUP1 REVERT JUMPDEST POP PUSH1 0x4 CALLDATASIZE LT PUSH2 0x12C JUMPI PUSH1 0x0 CALLDATALOAD PUSH1 0xE0 SHR DUP1 PUSH4 0x61D027B3 GT PUSH2 0xAD JUMPI DUP1 PUSH4 0x9B7B7B1E GT PUSH2 0x71 JUMPI DUP1 PUSH4 0x9B7B7B1E EQ PUSH2 0x36B JUMPI DUP1 PUSH4 0x9F8A64E2 EQ PUSH2 0x374 JUMPI DUP1 PUSH4 0xAFFF1B5B EQ PUSH2 0x394 JUMPI DUP1 PUSH4 0xD085835A EQ PUSH2 0x3A7 JUMPI DUP1 PUSH4 0xF2F4655E EQ PUSH2 0x3CE JUMPI PUSH1 0x0 DUP1 REVERT JUMPDEST DUP1 PUSH4 0x61D027B3 EQ PUSH2 0x2DA JUMPI DUP1 PUSH4 0x7065CB48 EQ PUSH2 0x301 JUMPI DUP1 PUSH4 0x83B316C0 EQ PUSH2 0x314 JUMPI DUP1 PUSH4 0x8D068043 EQ PUSH2 0x342 JUMPI DUP1 PUSH4 0x9907035E EQ PUSH2 0x34B JUMPI PUSH1 0x0 DUP1 REVERT JUMPDEST DUP1 PUSH4 0x39F636AB GT PUSH2 0xF4 JUMPI DUP1 PUSH4 0x39F636AB EQ PUSH2 0x1CF JUMPI DUP1 PUSH4 0x42CDE4E8 EQ PUSH2 0x1E2 JUMPI DUP1 PUSH4 0x46A1A095 EQ PUSH2 0x217 JUMPI DUP1 PUSH4 0x5BE23C12 EQ PUSH2 0x2BF JUMPI DUP1 PUSH4 0x5D4BC638 EQ PUSH2 0x2D2 JUMPI PUSH1 0x0 DUP1 REVERT JUMPDEST DUP1 PUSH4 0x25E7C27 EQ PUSH2 0x131 JUMPI DUP1 PUSH4 0x86BB259 EQ PUSH2 0x161 JUMPI DUP1 PUSH4 0x173825D9 EQ PUSH2 0x194 JUMPI DUP1 PUSH4 0x208310FC EQ PUSH2 0x1A9 JUMPI DUP1 PUSH4 0x375B74C3 EQ PUSH2 0x1BC JUMPI JUMPDEST PUSH1 0x0 DUP1 REVERT JUMPDEST PUSH2 0x144 PUSH2 0x13F CALLDATASIZE PUSH1 0x4 PUSH2 0xC93 JUMP JUMPDEST PUSH2 0x3E1 JUMP JUMPDEST PUSH1 0x40 MLOAD PUSH1 0x1 PUSH1 0x1 PUSH1 0xA0 SHL SUB SWAP1 SWAP2 AND DUP2 MSTORE PUSH1 0x20 ADD JUMPDEST PUSH1 0x40 MLOAD DUP1 SWAP2 SUB SWAP1 RETURN JUMPDEST PUSH2 0x184 PUSH2 0x16F CALLDATASIZE PUSH1 0x4 PUSH2 0xCC8 JUMP JUMPDEST PUSH1 0x2 PUSH1 0x20 MSTORE PUSH1 0x0 SWAP1 DUP2 MSTORE PUSH1 0x40 SWAP1 KECCAK256 SLOAD PUSH1 0xFF AND DUP2 JUMP JUMPDEST PUSH1 0x40 MLOAD SWAP1 ISZERO ISZERO DUP2 MSTORE PUSH1 0x20 ADD PUSH2 0x158 JUMP JUMPDEST PUSH2 0x1A7 PUSH2 0x1A2 CALLDATASIZE PUSH1 0x4 PUSH2 0xCC8 JUMP JUMPDEST PUSH2 0x40B JUMP JUMPDEST STOP JUMPDEST PUSH2 0x1A7 PUSH2 0x1B7 CALLDATASIZE PUSH1 0x4 PUSH2 0xC93 JUMP JUMPDEST PUSH2 0x5AD JUMP JUMPDEST PUSH1 0x0 SLOAD PUSH2 0x144 SWAP1 PUSH1 0x1 PUSH1 0x1 PUSH1 0xA0 SHL SUB AND DUP2 JUMP JUMPDEST PUSH2 0x1A7 PUSH2 0x1DD CALLDATASIZE PUSH1 0x4 PUSH2 0xC93 JUMP JUMPDEST PUSH2 0x74C JUMP JUMPDEST PUSH2 0x209 PUSH32 0x0 DUP2 JUMP JUMPDEST PUSH1 0x40 MLOAD SWAP1 DUP2 MSTORE PUSH1 0x20 ADD PUSH2 0x158 JUMP JUMPDEST PUSH2 0x276 PUSH2 0x225 CALLDATASIZE PUSH1 0x4 PUSH2 0xC93 JUMP JUMPDEST PUSH1 0x6 PUSH1 0x20 MSTORE PUSH1 0x0 SWAP1 DUP2 MSTORE PUSH1 0x40 SWAP1 KECCAK256 DUP1 SLOAD PUSH1 0x1 DUP3 ADD SLOAD PUSH1 0x2 DUP4 ADD SLOAD PUSH1 0x3 DUP5 ADD SLOAD PUSH1 0x4 SWAP1 SWAP5 ADD SLOAD PUSH1 0x1 PUSH1 0x1 PUSH1 0xA0 SHL SUB SWAP4 DUP5 AND SWAP5 SWAP4 SWAP1 SWAP3 AND SWAP3 PUSH1 0x1 PUSH1 0x1 PUSH1 0x80 SHL SUB SWAP1 SWAP2 AND SWAP2 PUSH1 0xFF DUP1 DUP3 AND SWAP2 PUSH2 0x100 SWAP1 DIV AND DUP7 JUMP JUMPDEST PUSH1 0x40 DUP1 MLOAD PUSH1 0x1 PUSH1 0x1 PUSH1 0xA0 SHL SUB SWAP8 DUP9 AND DUP2 MSTORE SWAP7 SWAP1 SWAP6 AND PUSH1 0x20 DUP8 ADD MSTORE PUSH1 0x1 PUSH1 0x1 PUSH1 0x80 SHL SUB SWAP1 SWAP4 AND SWAP4 DUP6 ADD SWAP4 SWAP1 SWAP4 MSTORE PUSH1 0x60 DUP5 ADD MSTORE SWAP1 ISZERO ISZERO PUSH1 0x80 DUP4 ADD MSTORE PUSH1 0xFF AND PUSH1 0xA0 DUP3 ADD MSTORE PUSH1 0xC0 ADD PUSH2 0x158 JUMP JUMPDEST PUSH2 0x1A7 PUSH2 0x2CD CALLDATASIZE PUSH1 0x4 PUSH2 0xCEA JUMP JUMPDEST PUSH2 0x7DC JUMP JUMPDEST PUSH2 0x1A7 PUSH2 0x9B4 JUMP JUMPDEST PUSH2 0x144 PUSH32 0x0 DUP2 JUMP JUMPDEST PUSH2 0x1A7 PUSH2 0x30F CALLDATASIZE PUSH1 0x4 PUSH2 0xCC8 JUMP JUMPDEST PUSH2 0x9F1 JUMP JUMPDEST PUSH2 0x184 PUSH2 0x322 CALLDATASIZE PUSH1 0x4 PUSH2 0xD35 JUMP JUMPDEST PUSH1 0x8 PUSH1 0x20 SWAP1 DUP2 MSTORE PUSH1 0x0 SWAP3 DUP4 MSTORE PUSH1 0x40 DUP1 DUP5 KECCAK256 SWAP1 SWAP2 MSTORE SWAP1 DUP3 MSTORE SWAP1 KECCAK256 SLOAD PUSH1 0xFF AND DUP2 JUMP JUMPDEST PUSH2 0x209 PUSH1 0x4 SLOAD DUP2 JUMP JUMPDEST PUSH2 0x209 PUSH2 0x359 CALLDATASIZE PUSH1 0x4 PUSH2 0xCC8 JUMP JUMPDEST PUSH1 0x7 PUSH1 0x20 MSTORE PUSH1 0x0 SWAP1 DUP2 MSTORE PUSH1 0x40 SWAP1 KECCAK256 SLOAD DUP2 JUMP JUMPDEST PUSH2 0x209 PUSH1 0x5 SLOAD DUP2 JUMP JUMPDEST PUSH2 0x209 PUSH2 0x382 CALLDATASIZE PUSH1 0x4 PUSH2 0xCC8 JUMP JUMPDEST PUSH1 0x3 PUSH1 0x20 MSTORE PUSH1 0x0 SWAP1 DUP2 MSTORE PUSH1 0x40 SWAP1 KECCAK256 SLOAD DUP2 JUMP JUMPDEST PUSH2 0x1A7 PUSH2 0x3A2 CALLDATASIZE PUSH1 0x4 PUSH2 0xC93 JUMP JUMPDEST PUSH2 0xB08 JUMP JUMPDEST PUSH2 0x209 PUSH32 0x0 DUP2 JUMP JUMPDEST PUSH2 0x1A7 PUSH2 0x3DC CALLDATASIZE PUSH1 0x4 PUSH2 0xCC8 JUMP JUMPDEST PUSH2 0xC46 JUMP JUMPDEST PUSH1 0x1 DUP2 DUP2 SLOAD DUP2 LT PUSH2 0x3F1 JUMPI PUSH1 0x0 DUP1 REVERT JUMPDEST PUSH1 0x0 SWAP2 DUP3 MSTORE PUSH1 0x20 SWAP1 SWAP2 KECCAK256 ADD SLOAD PUSH1 0x1 PUSH1 0x1 PUSH1 0xA0 SHL SUB AND SWAP1 POP DUP2 JUMP JUMPDEST PUSH1 0x0 SLOAD PUSH1 0x1 PUSH1 0x1 PUSH1 0xA0 SHL SUB AND CALLER EQ PUSH2 0x436 JUMPI PUSH1 0x40 MLOAD PUSH4 0x918CB1DD PUSH1 0xE0 SHL DUP2 MSTORE PUSH1 0x4 ADD PUSH1 0x40 MLOAD DUP1 SWAP2 SUB SWAP1 REVERT JUMPDEST PUSH1 0x1 PUSH1 0x1 PUSH1 0xA0 SHL SUB DUP2 AND PUSH1 0x0 SWAP1 DUP2 MSTORE PUSH1 0x2 PUSH1 0x20 MSTORE PUSH1 0x40 SWAP1 KECCAK256 SLOAD PUSH1 0xFF AND PUSH2 0x46F JUMPI PUSH1 0x40 MLOAD PUSH4 0x1DD523FF PUSH1 0xE3 SHL DUP2 MSTORE PUSH1 0x4 ADD PUSH1 0x40 MLOAD DUP1 SWAP2 SUB SWAP1 REVERT JUMPDEST PUSH1 0x1 PUSH1 0x1 PUSH1 0xA0 SHL SUB DUP2 AND PUSH1 0x0 SWAP1 DUP2 MSTORE PUSH1 0x3 PUSH1 0x20 MSTORE PUSH1 0x40 DUP2 KECCAK256 SLOAD PUSH1 0x1 DUP1 SLOAD SWAP2 SWAP3 SWAP2 PUSH2 0x499 SWAP2 SWAP1 PUSH2 0xD77 JUMP JUMPDEST SWAP1 POP DUP1 DUP3 EQ PUSH2 0x521 JUMPI PUSH1 0x0 PUSH1 0x1 DUP3 DUP2 SLOAD DUP2 LT PUSH2 0x4B7 JUMPI PUSH2 0x4B7 PUSH2 0xD90 JUMP JUMPDEST PUSH1 0x0 SWAP2 DUP3 MSTORE PUSH1 0x20 SWAP1 SWAP2 KECCAK256 ADD SLOAD PUSH1 0x1 DUP1 SLOAD PUSH1 0x1 PUSH1 0x1 PUSH1 0xA0 SHL SUB SWAP1 SWAP3 AND SWAP3 POP DUP3 SWAP2 DUP6 SWAP1 DUP2 LT PUSH2 0x4E6 JUMPI PUSH2 0x4E6 PUSH2 0xD90 JUMP JUMPDEST PUSH1 0x0 SWAP2 DUP3 MSTORE PUSH1 0x20 DUP1 DUP4 KECCAK256 SWAP2 SWAP1 SWAP2 ADD DUP1 SLOAD PUSH1 0x1 PUSH1 0x1 PUSH1 0xA0 SHL SUB NOT AND PUSH1 0x1 PUSH1 0x1 PUSH1 0xA0 SHL SUB SWAP5 DUP6 AND OR SWAP1 SSTORE SWAP3 SWAP1 SWAP2 AND DUP2 MSTORE PUSH1 0x3 SWAP1 SWAP2 MSTORE PUSH1 0x40 SWAP1 KECCAK256 DUP3 SWAP1 SSTORE JUMPDEST PUSH1 0x1 DUP1 SLOAD DUP1 PUSH2 0x532 JUMPI PUSH2 0x532 PUSH2 0xDA6 JUMP JUMPDEST PUSH1 0x0 DUP3 DUP2 MSTORE PUSH1 0x20 DUP1 DUP3 KECCAK256 DUP4 ADD PUSH1 0x0 NOT SWAP1 DUP2 ADD DUP1 SLOAD PUSH1 0x1 PUSH1 0x1 PUSH1 0xA0 SHL SUB NOT AND SWAP1 SSTORE SWAP1 SWAP3 ADD SWAP1 SWAP3 SSTORE PUSH1 0x1 PUSH1 0x1 PUSH1 0xA0 SHL SUB DUP6 AND DUP1 DUP4 MSTORE PUSH1 0x2 DUP3 MSTORE PUSH1 0x40 DUP1 DUP5 KECCAK256 DUP1 SLOAD PUSH1 0xFF NOT AND SWAP1 SSTORE PUSH1 0x3 SWAP1 SWAP3 MSTORE DUP2 DUP4 KECCAK256 DUP4 SWAP1 SSTORE SWAP1 MLOAD SWAP1 SWAP2 PUSH32 0x58619076ADF5BB0943D100EF88D52D7C3FD691B19D3A9071B555B651FBF418DA SWAP2 LOG2 POP POP POP JUMP JUMPDEST PUSH1 0x0 DUP2 DUP2 MSTORE PUSH1 0x6 PUSH1 0x20 MSTORE PUSH1 0x40 SWAP1 KECCAK256 PUSH1 0x4 DUP2 ADD SLOAD PUSH1 0xFF AND ISZERO PUSH2 0x5E1 JUMPI PUSH1 0x40 MLOAD PUSH4 0x3B68B0FD PUSH1 0xE0 SHL DUP2 MSTORE PUSH1 0x4 ADD PUSH1 0x40 MLOAD DUP1 SWAP2 SUB SWAP1 REVERT JUMPDEST DUP1 PUSH1 0x3 ADD SLOAD TIMESTAMP LT ISZERO PUSH2 0x606 JUMPI PUSH1 0x40 MLOAD PUSH4 0x629D7833 PUSH1 0xE1 SHL DUP2 MSTORE PUSH1 0x4 ADD PUSH1 0x40 MLOAD DUP1 SWAP2 SUB SWAP1 REVERT JUMPDEST PUSH1 0x2 DUP2 ADD SLOAD PUSH1 0x4 DUP3 ADD SLOAD PUSH1 0x1 PUSH1 0x1 PUSH1 0x80 SHL SUB SWAP1 SWAP2 AND SWAP1 PUSH2 0x100 SWAP1 DIV PUSH1 0xFF AND PUSH32 0x0 DUP3 LT PUSH2 0x653 JUMPI PUSH1 0x4 SLOAD PUSH2 0x656 JUMP JUMPDEST PUSH1 0x1 JUMPDEST DUP2 PUSH1 0xFF AND LT ISZERO PUSH2 0x679 JUMPI PUSH1 0x40 MLOAD PUSH4 0xE246DC63 PUSH1 0xE0 SHL DUP2 MSTORE PUSH1 0x4 ADD PUSH1 0x40 MLOAD DUP1 SWAP2 SUB SWAP1 REVERT JUMPDEST PUSH1 0x4 DUP4 DUP2 ADD DUP1 SLOAD PUSH1 0xFF NOT AND PUSH1 0x1 SWAP1 DUP2 OR SWAP1 SWAP2 SSTORE DUP5 ADD SLOAD PUSH1 0x40 MLOAD PUSH4 0xA9059CBB PUSH1 0xE0 SHL DUP2 MSTORE PUSH1 0x1 PUSH1 0x1 PUSH1 0xA0 SHL SUB SWAP2 DUP3 AND SWAP3 DUP2 ADD SWAP3 SWAP1 SWAP3 MSTORE PUSH1 0x1 PUSH1 0x1 PUSH1 0x80 SHL SUB DUP5 AND PUSH1 0x24 DUP4 ADD MSTORE PUSH32 0x0 AND SWAP1 PUSH4 0xA9059CBB SWAP1 PUSH1 0x44 ADD PUSH1 0x0 PUSH1 0x40 MLOAD DUP1 DUP4 SUB DUP2 PUSH1 0x0 DUP8 DUP1 EXTCODESIZE ISZERO DUP1 ISZERO PUSH2 0x703 JUMPI PUSH1 0x0 DUP1 REVERT JUMPDEST POP GAS CALL ISZERO DUP1 ISZERO PUSH2 0x717 JUMPI RETURNDATASIZE PUSH1 0x0 DUP1 RETURNDATACOPY RETURNDATASIZE PUSH1 0x0 REVERT JUMPDEST POP POP PUSH1 0x40 MLOAD DUP7 SWAP3 POP PUSH32 0xF0C6C99B11035113BF510013043AFC18365A61A112C542B9F7491FD1574CFC5B SWAP2 POP PUSH1 0x0 SWAP1 LOG2 POP POP POP POP JUMP JUMPDEST PUSH1 0x0 SLOAD PUSH1 0x1 PUSH1 0x1 PUSH1 0xA0 SHL SUB AND CALLER EQ PUSH2 0x777 JUMPI PUSH1 0x40 MLOAD PUSH4 0x918CB1DD PUSH1 0xE0 SHL DUP2 MSTORE PUSH1 0x4 ADD PUSH1 0x40 MLOAD DUP1 SWAP2 SUB SWAP1 REVERT JUMPDEST PUSH1 0x1 SLOAD DUP2 GT ISZERO PUSH2 0x7A1 JUMPI PUSH1 0x40 MLOAD PUSH4 0x362BF2D PUSH1 0xE5 SHL DUP2 MSTORE PUSH1 0x4 DUP2 ADD DUP3 SWAP1 MSTORE PUSH1 0x24 ADD PUSH1 0x40 MLOAD DUP1 SWAP2 SUB SWAP1 REVERT JUMPDEST PUSH1 0x4 DUP2 SWAP1 SSTORE PUSH1 0x40 MLOAD DUP2 DUP2 MSTORE PUSH32 0x10DBC913050D3180C3B99F7DA91FD514AF7CBC9C1BB59A0DA5D2BC38F0CF395A SWAP1 PUSH1 0x20 ADD PUSH1 0x40 MLOAD DUP1 SWAP2 SUB SWAP1 LOG1 POP JUMP JUMPDEST DUP2 PUSH1 0x1 PUSH1 0x1 PUSH1 0x80 SHL SUB AND PUSH1 0x0 SUB PUSH2 0x806 JUMPI PUSH1 0x40 MLOAD PUSH4 0x5E85AE73 PUSH1 0xE0 SHL DUP2 MSTORE PUSH1 0x4 ADD PUSH1 0x40 MLOAD DUP1 SWAP2 SUB SWAP1 REVERT JUMPDEST TIMESTAMP DUP2 GT PUSH2 0x826 JUMPI PUSH1 0x40 MLOAD PUSH4 0x629D7833 PUSH1 0xE1 SHL DUP2 MSTORE PUSH1 0x4 ADD PUSH1 0x40 MLOAD DUP1 SWAP2 SUB SWAP1 REVERT JUMPDEST CALLER PUSH1 0x0 SWAP1 DUP2 MSTORE PUSH1 0x7 PUSH1 0x20 MSTORE PUSH1 0x40 SWAP1 KECCAK256 SLOAD PUSH2 0x861 SWAP1 PUSH32 0x0 SWAP1 PUSH2 0xDBC JUMP JUMPDEST TIMESTAMP LT ISZERO PUSH2 0x881 JUMPI PUSH1 0x40 MLOAD PUSH4 0x629D7833 PUSH1 0xE1 SHL DUP2 MSTORE PUSH1 0x4 ADD PUSH1 0x40 MLOAD DUP1 SWAP2 SUB SWAP1 REVERT JUMPDEST PUSH1 0x40 DUP1 MLOAD PUSH1 0xC0 DUP2 ADD DUP3 MSTORE CALLER DUP1 DUP3 MSTORE PUSH1 0x1 PUSH1 0x1 PUSH1 0xA0 SHL SUB DUP7 DUP2 AND PUSH1 0x20 DUP1 DUP6 ADD DUP3 DUP2 MSTORE PUSH1 0x1 PUSH1 0x1 PUSH1 0x80 SHL SUB DUP10 DUP2 AND DUP8 DUP10 ADD DUP2 DUP2 MSTORE PUSH1 0x60 DUP10 ADD DUP12 DUP2 MSTORE PUSH1 0x0 PUSH1 0x80 DUP12 ADD DUP2 DUP2 MSTORE PUSH1 0xA0 DUP13 ADD DUP3 DUP2 MSTORE PUSH1 0x5 DUP1 SLOAD DUP5 MSTORE PUSH1 0x6 DUP11 MSTORE DUP15 DUP5 KECCAK256 SWAP14 MLOAD DUP15 SLOAD SWAP1 DUP14 AND PUSH1 0x1 PUSH1 0x1 PUSH1 0xA0 SHL SUB NOT SWAP2 DUP3 AND OR DUP16 SSTORE SWAP9 MLOAD PUSH1 0x1 DUP16 ADD DUP1 SLOAD SWAP2 SWAP1 SWAP14 AND SWAP10 AND SWAP9 SWAP1 SWAP9 OR SWAP1 SWAP11 SSTORE SWAP3 MLOAD PUSH1 0x2 DUP13 ADD DUP1 SLOAD SWAP2 SWAP1 SWAP7 AND PUSH16 0xFFFFFFFFFFFFFFFFFFFFFFFFFFFFFFFF NOT SWAP1 SWAP2 AND OR SWAP1 SWAP5 SSTORE MLOAD PUSH1 0x3 DUP11 ADD SSTORE MLOAD PUSH1 0x4 SWAP1 SWAP9 ADD DUP1 SLOAD SWAP7 MLOAD PUSH1 0xFF AND PUSH2 0x100 MUL PUSH2 0xFF00 NOT SWAP10 ISZERO ISZERO SWAP10 SWAP1 SWAP10 AND PUSH2 0xFFFF NOT SWAP1 SWAP8 AND SWAP7 SWAP1 SWAP7 OR SWAP8 SWAP1 SWAP8 OR SWAP1 SWAP5 SSTORE DUP5 DUP5 MSTORE PUSH1 0x7 DUP3 MSTORE SWAP3 DUP7 SWAP1 KECCAK256 TIMESTAMP SWAP1 SSTORE SWAP2 SLOAD DUP6 MLOAD SWAP5 DUP6 MSTORE SWAP2 DUP5 ADD DUP7 SWAP1 MSTORE SWAP4 SWAP2 SWAP3 SWAP1 SWAP2 PUSH32 0x98D5C3F50F672101142DFBD8FF56C172CBD9D86DBF6EE092E5B0F4A5A9CBF1D0 SWAP2 ADD PUSH1 0x40 MLOAD DUP1 SWAP2 SUB SWAP1 LOG4 POP POP PUSH1 0x5 DUP1 SLOAD PUSH1 0x1 ADD SWAP1 SSTORE POP JUMP JUMPDEST PUSH1 0x0 SLOAD PUSH1 0x1 PUSH1 0x1 PUSH1 0xA0 SHL SUB AND CALLER EQ PUSH2 0x9DF JUMPI PUSH1 0x40 MLOAD PUSH4 0x918CB1DD PUSH1 0xE0 SHL DUP2 MSTORE PUSH1 0x4 ADD PUSH1 0x40 MLOAD DUP1 SWAP2 SUB SWAP1 REVERT JUMPDEST PUSH1 0x0 DUP1 SLOAD PUSH1 0x1 PUSH1 0x1 PUSH1 0xA0 SHL SUB NOT AND SWAP1 SSTORE JUMP JUMPDEST PUSH1 0x0 SLOAD PUSH1 0x1 PUSH1 0x1 PUSH1 0xA0 SHL SUB AND CALLER EQ PUSH2 0xA1C JUMPI PUSH1 0x40 MLOAD PUSH4 0x918CB1DD PUSH1 0xE0 SHL DUP2 MSTORE PUSH1 0x4 ADD PUSH1 0x40 MLOAD DUP1 SWAP2 SUB SWAP1 REVERT JUMPDEST PUSH1 0x1 PUSH1 0x1 PUSH1 0xA0 SHL SUB DUP2 AND PUSH1 0x0 SWAP1 DUP2 MSTORE PUSH1 0x2 PUSH1 0x20 MSTORE PUSH1 0x40 SWAP1 KECCAK256 SLOAD PUSH1 0xFF AND ISZERO PUSH2 0xA56 JUMPI PUSH1 0x40 MLOAD PUSH4 0x25CFE06F PUSH1 0xE1 SHL DUP2 MSTORE PUSH1 0x4 ADD PUSH1 0x40 MLOAD DUP1 SWAP2 SUB SWAP1 REVERT JUMPDEST PUSH1 0x1 DUP1 SLOAD DUP1 DUP3 ADD DUP3 SSTORE PUSH32 0xB10E2D527612073B26EECDFD717E6A320CF44B4AFAC2B0732D9FCBE2B7FA0CF6 ADD DUP1 SLOAD PUSH1 0x1 PUSH1 0x1 PUSH1 0xA0 SHL SUB NOT AND PUSH1 0x1 PUSH1 0x1 PUSH1 0xA0 SHL SUB DUP5 AND SWAP1 DUP2 OR SWAP1 SWAP2 SSTORE PUSH1 0x0 SWAP1 DUP2 MSTORE PUSH1 0x2 PUSH1 0x20 MSTORE PUSH1 0x40 SWAP1 KECCAK256 DUP1 SLOAD PUSH1 0xFF NOT AND DUP3 OR SWAP1 SSTORE DUP1 SLOAD PUSH2 0xAC1 SWAP2 SWAP1 PUSH2 0xD77 JUMP JUMPDEST PUSH1 0x1 PUSH1 0x1 PUSH1 0xA0 SHL SUB DUP3 AND PUSH1 0x0 DUP2 DUP2 MSTORE PUSH1 0x3 PUSH1 0x20 MSTORE PUSH1 0x40 DUP1 DUP3 KECCAK256 SWAP4 SWAP1 SWAP4 SSTORE SWAP2 MLOAD SWAP1 SWAP2 PUSH32 0x994A936646FE87FFE4F1E469D3D6AA417D6B855598397F323DE5B449F765F0C3 SWAP2 LOG2 POP JUMP JUMPDEST CALLER PUSH1 0x0 SWAP1 DUP2 MSTORE PUSH1 0x2 PUSH1 0x20 MSTORE PUSH1 0x40 SWAP1 KECCAK256 SLOAD PUSH1 0xFF AND PUSH2 0xB38 JUMPI PUSH1 0x40 MLOAD PUSH4 0x30CD7471 PUSH1 0xE0 SHL DUP2 MSTORE PUSH1 0x4 ADD PUSH1 0x40 MLOAD DUP1 SWAP2 SUB SWAP1 REVERT JUMPDEST PUSH1 0x0 DUP2 DUP2 MSTORE PUSH1 0x6 PUSH1 0x20 MSTORE PUSH1 0x40 SWAP1 KECCAK256 PUSH1 0x4 DUP2 ADD SLOAD PUSH1 0xFF AND ISZERO PUSH2 0xB6C JUMPI PUSH1 0x40 MLOAD PUSH4 0x3B68B0FD PUSH1 0xE0 SHL DUP2 MSTORE PUSH1 0x4 ADD PUSH1 0x40 MLOAD DUP1 SWAP2 SUB SWAP1 REVERT JUMPDEST DUP1 PUSH1 0x3 ADD SLOAD TIMESTAMP LT ISZERO PUSH2 0xB91 JUMPI PUSH1 0x40 MLOAD PUSH4 0x629D7833 PUSH1 0xE1 SHL DUP2 MSTORE PUSH1 0x4 ADD PUSH1 0x40 MLOAD DUP1 SWAP2 SUB SWAP1 REVERT JUMPDEST PUSH1 0x0 DUP3 DUP2 MSTORE PUSH1 0x8 PUSH1 0x20 SWAP1 DUP2 MSTORE PUSH1 0x40 DUP1 DUP4 KECCAK256 CALLER DUP5 MSTORE SWAP1 SWAP2 MSTORE SWAP1 KECCAK256 SLOAD PUSH1 0xFF AND ISZERO PUSH2 0xBCC JUMPI PUSH1 0x40 MLOAD PUSH4 0x585EB565 PUSH1 0xE1 SHL DUP2 MSTORE PUSH1 0x4 ADD PUSH1 0x40 MLOAD DUP1 SWAP2 SUB SWAP1 REVERT JUMPDEST PUSH1 0x0 DUP3 DUP2 MSTORE PUSH1 0x8 PUSH1 0x20 SWAP1 DUP2 MSTORE PUSH1 0x40 DUP1 DUP4 KECCAK256 CALLER DUP1 DUP6 MSTORE SWAP3 MSTORE DUP1 DUP4 KECCAK256 DUP1 SLOAD PUSH1 0x1 PUSH1 0xFF NOT SWAP1 SWAP2 AND DUP2 OR SWAP1 SWAP2 SSTORE PUSH1 0x4 DUP6 ADD DUP1 SLOAD PUSH2 0xFF00 NOT DUP2 AND PUSH1 0xFF PUSH2 0x100 SWAP3 DUP4 SWAP1 DIV DUP2 AND SWAP1 SWAP5 ADD SWAP1 SWAP4 AND MUL SWAP2 SWAP1 SWAP2 OR SWAP1 SSTORE MLOAD SWAP1 SWAP2 DUP5 SWAP2 PUSH32 0xEF7FFBF356E547F873A6FB7C839DA25A1CD97452DB13F07758E307472A54449B SWAP2 SWAP1 LOG3 POP POP JUMP JUMPDEST PUSH1 0x0 SLOAD PUSH1 0x1 PUSH1 0x1 PUSH1 0xA0 SHL SUB AND CALLER EQ PUSH2 0xC71 JUMPI PUSH1 0x40 MLOAD PUSH4 0x918CB1DD PUSH1 0xE0 SHL DUP2 MSTORE PUSH1 0x4 ADD PUSH1 0x40 MLOAD DUP1 SWAP2 SUB SWAP1 REVERT JUMPDEST PUSH1 0x0 DUP1 SLOAD PUSH1 0x1 PUSH1 0x1 PUSH1 0xA0 SHL SUB NOT AND PUSH1 0x1 PUSH1 0x1 PUSH1 0xA0 SHL SUB SWAP3 SWAP1 SWAP3 AND SWAP2 SWAP1 SWAP2 OR SWAP1 SSTORE JUMP JUMPDEST PUSH1 0x0 PUSH1 0x20 DUP3 DUP5 SUB SLT ISZERO PUSH2 0xCA5 JUMPI PUSH1 0x0 DUP1 REVERT JUMPDEST POP CALLDATALOAD SWAP2 SWAP1 POP JUMP JUMPDEST DUP1 CALLDATALOAD PUSH1 0x1 PUSH1 0x1 PUSH1 0xA0 SHL SUB DUP2 AND DUP2 EQ PUSH2 0xCC3 JUMPI PUSH1 0x0 DUP1 REVERT JUMPDEST SWAP2 SWAP1 POP JUMP JUMPDEST PUSH1 0x0 PUSH1 0x20 DUP3 DUP5 SUB SLT ISZERO PUSH2 0xCDA JUMPI PUSH1 0x0 DUP1 REVERT JUMPDEST PUSH2 0xCE3 DUP3 PUSH2 0xCAC JUMP JUMPDEST SWAP4 SWAP3 POP POP POP JUMP JUMPDEST PUSH1 0x0 DUP1 PUSH1 0x0 PUSH1 0x60 DUP5 DUP7 SUB SLT ISZERO PUSH2 0xCFF JUMPI PUSH1 0x0 DUP1 REVERT JUMPDEST PUSH2 0xD08 DUP5 PUSH2 0xCAC JUMP JUMPDEST SWAP3 POP PUSH1 0x20 DUP5 ADD CALLDATALOAD PUSH1 0x1 PUSH1 0x1 PUSH1 0x80 SHL SUB DUP2 AND DUP2 EQ PUSH2 0xD24 JUMPI PUSH1 0x0 DUP1 REVERT JUMPDEST SWAP3 SWAP6 SWAP3 SWAP5 POP POP POP PUSH1 0x40 SWAP2 SWAP1 SWAP2 ADD CALLDATALOAD SWAP1 JUMP JUMPDEST PUSH1 0x0 DUP1 PUSH1 0x40 DUP4 DUP6 SUB SLT ISZERO PUSH2 0xD48 JUMPI PUSH1 0x0 DUP1 REVERT JUMPDEST DUP3 CALLDATALOAD SWAP2 POP PUSH2 0xD58 PUSH1 0x20 DUP5 ADD PUSH2 0xCAC JUMP JUMPDEST SWAP1 POP SWAP3 POP SWAP3 SWAP1 POP JUMP JUMPDEST PUSH4 0x4E487B71 PUSH1 0xE0 SHL PUSH1 0x0 MSTORE PUSH1 0x11 PUSH1 0x4 MSTORE PUSH1 0x24 PUSH1 0x0 REVERT JUMPDEST DUP2 DUP2 SUB DUP2 DUP2 GT ISZERO PUSH2 0xD8A JUMPI PUSH2 0xD8A PUSH2 0xD61 JUMP JUMPDEST SWAP3 SWAP2 POP POP JUMP JUMPDEST PUSH4 0x4E487B71 PUSH1 0xE0 SHL PUSH1 0x0 MSTORE PUSH1 0x32 PUSH1 0x4 MSTORE PUSH1 0x24 PUSH1 0x0 REVERT JUMPDEST PUSH4 0x4E487B71 PUSH1 0xE0 SHL PUSH1 0x0 MSTORE PUSH1 0x31 PUSH1 0x4 MSTORE PUSH1 0x24 PUSH1 0x0 REVERT JUMPDEST DUP1 DUP3 ADD DUP1 DUP3 GT ISZERO PUSH2 0xD8A JUMPI PUSH2 0xD8A PUSH2 0xD61 JUMP INVALID LOG2 PUSH5 0x6970667358 0x22 SLT KECCAK256 POP 0xE9 PUSH15 0x7819B38A83ED7501327FAE0D006024 0xEE STOP 0xC8 BLOCKHASH DUP11 0xCB EXTCODESIZE SWAP14 0xBD SIGNEXTEND EQ MSTORE 0xC6 0xC3 PUSH5 0x736F6C6343 STOP ADDMOD EQ STOP CALLER "},"methodIdentifiers":{"addOwner(address)":"7065cb48","approveIntent(uint256)":"afff1b5b","changeRequiredSignatures(uint256)":"39f636ab","createIntent(address,uint128,uint256)":"5be23c12","custodian()":"375b74c3","executeApprovedIntent(uint256)":"208310fc","intents(uint256)":"46a1a095","isOwnerMapping(address)":"086bb259","lastIntentTimestamp(address)":"9907035e","nextIntentId()":"9b7b7b1e","ownerIndex(address)":"9f8a64e2","owners(uint256)":"025e7c27","removeOwner(address)":"173825d9","renounceCustodian()":"5d4bc638","replaceCustodian(address)":"f2f4655e","requiredSignatures()":"8d068043","signatures(uint256,address)":"83b316c0","threshold()":"42cde4e8","timeLock()":"d085835a","treasury()":"61d027b3"}}}}}