{"contracts/MultiSig.sol":{"MultiSig":{"abi":[{"inputs":[{"internalType":"address[]","name":"_owners","type":"address[]"},{"internalType":"uint256","name":"_requiredSignatures","type":"uint256"},{"internalType":"uint256","name":"_threshold","type":"uint256"}],"stateMutability":"nonpayable","type":"constructor"},{"inputs":[],"name":"AlreadyAnOwner","type":"error"},{"inputs":[{"internalType":"uint256","name":"required","type":"uint256"}],"name":"InsufficientOwners","type":"error"},{"inputs":[],"name":"NotAnOwner","type":"error"},{"inputs":[],"name":"NotCustodian","type":"error"},{"inputs":[],"name":"NotOwner","type":"error"},{"inputs":[],"name":"ThresholdMustBeGreaterThanZero","type":"error"},{"anonymous":false,"inputs":[{"indexed":true,"internalType":"address","name":"newOwner","type":"address"}],"name":"OwnerAdded","type":"event"},{"anonymous":false,"inputs":[{"indexed":true,"internalType":"address","name":"removedOwner","type":"address"}],"name":"OwnerRemoved","type":"event"},{"anonymous":false,"inputs":[{"indexed":false,"internalType":"uint256","name":"newRequiredSignatures","type":"uint256"}],"name":"RequiredSignaturesChanged","type":"event"},{"anonymous":false,"inputs":[{"indexed":false,"internalType":"uint256","name":"newThreshold","type":"uint256"}],"name":"ThresholdChanged","type":"event"},{"inputs":[{"internalType":"address","name":"_owner","type":"address"}],"name":"addOwner","outputs":[],"stateMutability":"nonpayable","type":"function"},{"inputs":[{"internalType":"uint256","name":"_newRequiredSignatures","type":"uint256"}],"name":"changeRequiredSignatures","outputs":[],"stateMutability":"nonpayable","type":"function"},{"inputs":[],"name":"custodian","outputs":[{"internalType":"address","name":"","type":"address"}],"stateMutability":"view","type":"function"},{"inputs":[],"name":"getOwners","outputs":[{"internalType":"address[]","name":"","type":"address[]"}],"stateMutability":"view","type":"function"},{"inputs":[{"internalType":"address","name":"","type":"address"}],"name":"isOwnerMapping","outputs":[{"internalType":"bool","name":"","type":"bool"}],"stateMutability":"view","type":"function"},{"inputs":[{"internalType":"uint256","name":"","type":"uint256"}],"name":"owners","outputs":[{"internalType":"address","name":"","type":"address"}],"stateMutability":"view","type":"function"},{"inputs":[{"internalType":"address","name":"_owner","type":"address"}],"name":"removeOwner","outputs":[],"stateMutability":"nonpayable","type":"function"},{"inputs":[],"name":"renounceCustodian","outputs":[],"stateMutability":"nonpayable","type":"function"},{"inputs":[{"internalType":"address","name":"_newCustodian","type":"address"}],"name":"replaceCustodian","outputs":[],"stateMutability":"nonpayable","type":"function"},{"inputs":[],"name":"requiredSignatures","outputs":[{"internalType":"uint256","name":"","type":"uint256"}],"stateMutability":"view","type":"function"},{"inputs":[],"name":"threshold","outputs":[{"internalType":"uint256","name":"","type":"uint256"}],"stateMutability":"view","type":"function"}],"evm":{"bytecode":{"linkReferences":{},"object":"6040608081523461021557610916908138038061001b8161021a565b93843982016060838203126102155782516001600160401b039081811161021557840182601f82011215610215578051908282116101b757600582811b946020928361006881890161021a565b809681520190848298820101928311610215578401905b8282106101f657505050858288015197015192878151106101de5783156101cd5780519485116101b7576801000000000000000085116101b757600195865486885580871061018d575b5096959694600095888752848720875b83811061017357505050600398909855600493845584546001600160a01b031916331785559396509394938693855b61011b575b86516106d690816102408239f35b805188101561016e5787821b81018301516001600160a01b0316855260028352868520805460ff191687179055600019881461015b579685019685610108565b634e487b7160e01b855260118452602485fd5b61010d565b82516001600160a01b031682820155918601918a016100d9565b6000888152888887832093840193015b8381106101ac575050506100c9565b82815501899061019d565b634e487b7160e01b600052604160045260246000fd5b8651630372105960e61b8152600490fd5b8651630362bf2d60e51b815260048101899052602490fd5b81516001600160a01b038116810361021557815290840190840161007f565b600080fd5b6040519190601f01601f191682016001600160401b038111838210176101b75760405256fe60406080815260048036101561001457600080fd5b600091823560e01c8063025e7c2714610598578063086bb25914610559578063173825d914610401578063375b74c3146103d957806339f636ab1461035457806342cde4e8146103365780635d4bc638146103005780637065cb48146102045780638d068043146101e1578063a0e67e2b146100f45763f2f4655e1461009957600080fd5b346100f05760203660031901126100f0576001600160a01b038235818116939192908490036100ec57845492831633036100df5750506001600160a01b03191617815580f35b5163918cb1dd60e01b8152fd5b8480fd5b8280fd5b50346100f057826003193601126100f05780518060019485549384835260208080940180968985527fb10e2d527612073b26eecdfd717e6a320cf44b4afac2b0732d9fcbe2b7fa0cf6908a865b8281106101c35750505050859003601f01601f1916850196905067ffffffffffffffff8711858810176101b0575092869284878096528186019282875251809352850195925b8281106101945785870386f35b83516001600160a01b0316875295810195928101928401610187565b634e487b7160e01b835260419052602482fd5b83546001600160a01b03168552889590940193928101928101610141565b8382346102005781600319360112610200576020906003549051908152f35b5080fd5b50346100f05760203660031901126100f05781356001600160a01b0381811693908483036102fc5785541633036102ee57838552600260205260ff83862054166102e05760015490680100000000000000008210156102cd57509061027282600161029194016001556105dc565b90919082549060031b9160018060a01b03809116831b921b1916179055565b81835260026020528220805460ff191660011790557f994a936646fe87ffe4f1e469d3d6aa417d6b855598397f323de5b449f765f0c38280a280f35b634e487b7160e01b865260419052602485fd5b82516325cfe06f60e11b8152fd5b825163918cb1dd60e01b8152fd5b8580fd5b5090346100f057826003193601126100f0578254916001600160a01b03831633036100df5750506001600160a01b031916815580f35b5090346100f057826003193601126100f05760209250549051908152f35b50346100f05760203660031901126100f0578254823592906001600160a01b031633036103cb5760015483116103b65750816020917f10dbc913050d3180c3b99f7da91fd514af7cbc9c1bb59a0da5d2bc38f0cf395a9360035551908152a180f35b826024925191630362bf2d60e51b8352820152fd5b905163918cb1dd60e01b8152fd5b838234610200578160031936011261020057905490516001600160a01b039091168152602090f35b50346100f05760203660031901126100f0576001600160a01b03823581811693908481036102fc5782865416330361054a57848652600260205260ff84872054161561053b5761045090610629565b6001546000199291838201918211610528579081818693036104e2575b5050506001549081156104cf57500190610486826105dc565b909182549160031b1b191690556001558183526002602052822060ff1981541690557f58619076adf5bb0943d100ef88d52d7c3fd691b19d3a9071b555b651fbf418da8280a280f35b634e487b7160e01b875260319052602486fd5b610520926104f26104fb936105dc565b939054926105dc565b92909360031b1c169082549060031b9160018060a01b03809116831b921b1916179055565b82388061046d565b634e487b7160e01b885260118352602488fd5b508251631dd523ff60e31b8152fd5b50825163918cb1dd60e01b8152fd5b5090346100f05760203660031901126100f057356001600160a01b038116908190036100f057818360ff92602095526002855220541690519015158152f35b5090346100f05760203660031901126100f05735916001548310156105d957506105c36020926105dc565b905491519160018060a01b039160031b1c168152f35b80fd5b6001548110156106135760016000527fb10e2d527612073b26eecdfd717e6a320cf44b4afac2b0732d9fcbe2b7fa0cf60190600090565b634e487b7160e01b600052603260045260246000fd5b90600080916001938454935b84811061064e57604051631dd523ff60e31b8152600490fd5b610657816105dc565b905460039190911b1c6001600160a01b0390811690831614610697576000198114610683578501610635565b634e487b7160e01b84526011600452602484fd5b9350509250509056fea26469706673582212204824d29a07429bece9a538159b4cb5d959aa03ac632ecf4cc73cebad6cfb78cc64736f6c63430008140033","opcodes":"PUSH1 0x40 PUSH1 0x80 DUP2 MSTORE CALLVALUE PUSH2 0x215 JUMPI PUSH2 0x916 SWAP1 DUP2 CODESIZE SUB DUP1 PUSH2 0x1B DUP2 PUSH2 0x21A JUMP JUMPDEST SWAP4 DUP5 CODECOPY DUP3 ADD PUSH1 0x60 DUP4 DUP3 SUB SLT PUSH2 0x215 JUMPI DUP3 MLOAD PUSH1 0x1 PUSH1 0x1 PUSH1 0x40 SHL SUB SWAP1 DUP2 DUP2 GT PUSH2 0x215 JUMPI DUP5 ADD DUP3 PUSH1 0x1F DUP3 ADD SLT ISZERO PUSH2 0x215 JUMPI DUP1 MLOAD SWAP1 DUP3 DUP3 GT PUSH2 0x1B7 JUMPI PUSH1 0x5 DUP3 DUP2 SHL SWAP5 PUSH1 0x20 SWAP3 DUP4 PUSH2 0x68 DUP2 DUP10 ADD PUSH2 0x21A JUMP JUMPDEST DUP1 SWAP7 DUP2 MSTORE ADD SWAP1 DUP5 DUP3 SWAP9 DUP3 ADD ADD SWAP3 DUP4 GT PUSH2 0x215 JUMPI DUP5 ADD SWAP1 JUMPDEST DUP3 DUP3 LT PUSH2 0x1F6 JUMPI POP POP POP DUP6 DUP3 DUP9 ADD MLOAD SWAP8 ADD MLOAD SWAP3 DUP8 DUP2 MLOAD LT PUSH2 0x1DE JUMPI DUP4 ISZERO PUSH2 0x1CD JUMPI DUP1 MLOAD SWAP5 DUP6 GT PUSH2 0x1B7 JUMPI PUSH9 0x10000000000000000 DUP6 GT PUSH2 0x1B7 JUMPI PUSH1 0x1 SWAP6 DUP7 SLOAD DUP7 DUP9 SSTORE DUP1 DUP8 LT PUSH2 0x18D JUMPI JUMPDEST POP SWAP7 SWAP6 SWAP7 SWAP5 PUSH1 0x0 SWAP6 DUP9 DUP8 MSTORE DUP5 DUP8 KECCAK256 DUP8 JUMPDEST DUP4 DUP2 LT PUSH2 0x173 JUMPI POP POP POP PUSH1 0x3 SWAP9 SWAP1 SWAP9 SSTORE PUSH1 0x4 SWAP4 DUP5 SSTORE DUP5 SLOAD PUSH1 0x1 PUSH1 0x1 PUSH1 0xA0 SHL SUB NOT AND CALLER OR DUP6 SSTORE SWAP4 SWAP7 POP SWAP4 SWAP5 SWAP4 DUP7 SWAP4 DUP6 JUMPDEST PUSH2 0x11B JUMPI JUMPDEST DUP7 MLOAD PUSH2 0x6D6 SWAP1 DUP2 PUSH2 0x240 DUP3 CODECOPY RETURN JUMPDEST DUP1 MLOAD DUP9 LT ISZERO PUSH2 0x16E JUMPI DUP8 DUP3 SHL DUP2 ADD DUP4 ADD MLOAD PUSH1 0x1 PUSH1 0x1 PUSH1 0xA0 SHL SUB AND DUP6 MSTORE PUSH1 0x2 DUP4 MSTORE DUP7 DUP6 KECCAK256 DUP1 SLOAD PUSH1 0xFF NOT AND DUP8 OR SWAP1 SSTORE PUSH1 0x0 NOT DUP9 EQ PUSH2 0x15B JUMPI SWAP7 DUP6 ADD SWAP7 DUP6 PUSH2 0x108 JUMP JUMPDEST PUSH4 0x4E487B71 PUSH1 0xE0 SHL DUP6 MSTORE PUSH1 0x11 DUP5 MSTORE PUSH1 0x24 DUP6 REVERT JUMPDEST PUSH2 0x10D JUMP JUMPDEST DUP3 MLOAD PUSH1 0x1 PUSH1 0x1 PUSH1 0xA0 SHL SUB AND DUP3 DUP3 ADD SSTORE SWAP2 DUP7 ADD SWAP2 DUP11 ADD PUSH2 0xD9 JUMP JUMPDEST PUSH1 0x0 DUP9 DUP2 MSTORE DUP9 DUP9 DUP8 DUP4 KECCAK256 SWAP4 DUP5 ADD SWAP4 ADD JUMPDEST DUP4 DUP2 LT PUSH2 0x1AC JUMPI POP POP POP PUSH2 0xC9 JUMP JUMPDEST DUP3 DUP2 SSTORE ADD DUP10 SWAP1 PUSH2 0x19D JUMP JUMPDEST PUSH4 0x4E487B71 PUSH1 0xE0 SHL PUSH1 0x0 MSTORE PUSH1 0x41 PUSH1 0x4 MSTORE PUSH1 0x24 PUSH1 0x0 REVERT JUMPDEST DUP7 MLOAD PUSH4 0x3721059 PUSH1 0xE6 SHL DUP2 MSTORE PUSH1 0x4 SWAP1 REVERT JUMPDEST DUP7 MLOAD PUSH4 0x362BF2D PUSH1 0xE5 SHL DUP2 MSTORE PUSH1 0x4 DUP2 ADD DUP10 SWAP1 MSTORE PUSH1 0x24 SWAP1 REVERT JUMPDEST DUP2 MLOAD PUSH1 0x1 PUSH1 0x1 PUSH1 0xA0 SHL SUB DUP2 AND DUP2 SUB PUSH2 0x215 JUMPI DUP2 MSTORE SWAP1 DUP5 ADD SWAP1 DUP5 ADD PUSH2 0x7F JUMP JUMPDEST PUSH1 0x0 DUP1 REVERT JUMPDEST PUSH1 0x40 MLOAD SWAP2 SWAP1 PUSH1 0x1F ADD PUSH1 0x1F NOT AND DUP3 ADD PUSH1 0x1 PUSH1 0x1 PUSH1 0x40 SHL SUB DUP2 GT DUP4 DUP3 LT OR PUSH2 0x1B7 JUMPI PUSH1 0x40 MSTORE JUMP INVALID PUSH1 0x40 PUSH1 0x80 DUP2 MSTORE PUSH1 0x4 DUP1 CALLDATASIZE LT ISZERO PUSH2 0x14 JUMPI PUSH1 0x0 DUP1 REVERT JUMPDEST PUSH1 0x0 SWAP2 DUP3 CALLDATALOAD PUSH1 0xE0 SHR DUP1 PUSH4 0x25E7C27 EQ PUSH2 0x598 JUMPI DUP1 PUSH4 0x86BB259 EQ PUSH2 0x559 JUMPI DUP1 PUSH4 0x173825D9 EQ PUSH2 0x401 JUMPI DUP1 PUSH4 0x375B74C3 EQ PUSH2 0x3D9 JUMPI DUP1 PUSH4 0x39F636AB EQ PUSH2 0x354 JUMPI DUP1 PUSH4 0x42CDE4E8 EQ PUSH2 0x336 JUMPI DUP1 PUSH4 0x5D4BC638 EQ PUSH2 0x300 JUMPI DUP1 PUSH4 0x7065CB48 EQ PUSH2 0x204 JUMPI DUP1 PUSH4 0x8D068043 EQ PUSH2 0x1E1 JUMPI DUP1 PUSH4 0xA0E67E2B EQ PUSH2 0xF4 JUMPI PUSH4 0xF2F4655E EQ PUSH2 0x99 JUMPI PUSH1 0x0 DUP1 REVERT JUMPDEST CALLVALUE PUSH2 0xF0 JUMPI PUSH1 0x20 CALLDATASIZE PUSH1 0x3 NOT ADD SLT PUSH2 0xF0 JUMPI PUSH1 0x1 PUSH1 0x1 PUSH1 0xA0 SHL SUB DUP3 CALLDATALOAD DUP2 DUP2 AND SWAP4 SWAP2 SWAP3 SWAP1 DUP5 SWAP1 SUB PUSH2 0xEC JUMPI DUP5 SLOAD SWAP3 DUP4 AND CALLER SUB PUSH2 0xDF JUMPI POP POP PUSH1 0x1 PUSH1 0x1 PUSH1 0xA0 SHL SUB NOT AND OR DUP2 SSTORE DUP1 RETURN JUMPDEST MLOAD PUSH4 0x918CB1DD PUSH1 0xE0 SHL DUP2 MSTORE REVERT JUMPDEST DUP5 DUP1 REVERT JUMPDEST DUP3 DUP1 REVERT JUMPDEST POP CALLVALUE PUSH2 0xF0 JUMPI DUP3 PUSH1 0x3 NOT CALLDATASIZE ADD SLT PUSH2 0xF0 JUMPI DUP1 MLOAD DUP1 PUSH1 0x1 SWAP5 DUP6 SLOAD SWAP4 DUP5 DUP4 MSTORE PUSH1 0x20 DUP1 DUP1 SWAP5 ADD DUP1 SWAP7 DUP10 DUP6 MSTORE PUSH32 0xB10E2D527612073B26EECDFD717E6A320CF44B4AFAC2B0732D9FCBE2B7FA0CF6 SWAP1 DUP11 DUP7 JUMPDEST DUP3 DUP2 LT PUSH2 0x1C3 JUMPI POP POP POP POP DUP6 SWAP1 SUB PUSH1 0x1F ADD PUSH1 0x1F NOT AND DUP6 ADD SWAP7 SWAP1 POP PUSH8 0xFFFFFFFFFFFFFFFF DUP8 GT DUP6 DUP9 LT OR PUSH2 0x1B0 JUMPI POP SWAP3 DUP7 SWAP3 DUP5 DUP8 DUP1 SWAP7 MSTORE DUP2 DUP7 ADD SWAP3 DUP3 DUP8 MSTORE MLOAD DUP1 SWAP4 MSTORE DUP6 ADD SWAP6 SWAP3 JUMPDEST DUP3 DUP2 LT PUSH2 0x194 JUMPI DUP6 DUP8 SUB DUP7 RETURN JUMPDEST DUP4 MLOAD PUSH1 0x1 PUSH1 0x1 PUSH1 0xA0 SHL SUB AND DUP8 MSTORE SWAP6 DUP2 ADD SWAP6 SWAP3 DUP2 ADD SWAP3 DUP5 ADD PUSH2 0x187 JUMP JUMPDEST PUSH4 0x4E487B71 PUSH1 0xE0 SHL DUP4 MSTORE PUSH1 0x41 SWAP1 MSTORE PUSH1 0x24 DUP3 REVERT JUMPDEST DUP4 SLOAD PUSH1 0x1 PUSH1 0x1 PUSH1 0xA0 SHL SUB AND DUP6 MSTORE DUP9 SWAP6 SWAP1 SWAP5 ADD SWAP4 SWAP3 DUP2 ADD SWAP3 DUP2 ADD PUSH2 0x141 JUMP JUMPDEST DUP4 DUP3 CALLVALUE PUSH2 0x200 JUMPI DUP2 PUSH1 0x3 NOT CALLDATASIZE ADD SLT PUSH2 0x200 JUMPI PUSH1 0x20 SWAP1 PUSH1 0x3 SLOAD SWAP1 MLOAD SWAP1 DUP2 MSTORE RETURN JUMPDEST POP DUP1 REVERT JUMPDEST POP CALLVALUE PUSH2 0xF0 JUMPI PUSH1 0x20 CALLDATASIZE PUSH1 0x3 NOT ADD SLT PUSH2 0xF0 JUMPI DUP2 CALLDATALOAD PUSH1 0x1 PUSH1 0x1 PUSH1 0xA0 SHL SUB DUP2 DUP2 AND SWAP4 SWAP1 DUP5 DUP4 SUB PUSH2 0x2FC JUMPI DUP6 SLOAD AND CALLER SUB PUSH2 0x2EE JUMPI DUP4 DUP6 MSTORE PUSH1 0x2 PUSH1 0x20 MSTORE PUSH1 0xFF DUP4 DUP7 KECCAK256 SLOAD AND PUSH2 0x2E0 JUMPI PUSH1 0x1 SLOAD SWAP1 PUSH9 0x10000000000000000 DUP3 LT ISZERO PUSH2 0x2CD JUMPI POP SWAP1 PUSH2 0x272 DUP3 PUSH1 0x1 PUSH2 0x291 SWAP5 ADD PUSH1 0x1 SSTORE PUSH2 0x5DC JUMP JUMPDEST SWAP1 SWAP2 SWAP1 DUP3 SLOAD SWAP1 PUSH1 0x3 SHL SWAP2 PUSH1 0x1 DUP1 PUSH1 0xA0 SHL SUB DUP1 SWAP2 AND DUP4 SHL SWAP3 SHL NOT AND OR SWAP1 SSTORE JUMP JUMPDEST DUP2 DUP4 MSTORE PUSH1 0x2 PUSH1 0x20 MSTORE DUP3 KECCAK256 DUP1 SLOAD PUSH1 0xFF NOT AND PUSH1 0x1 OR SWAP1 SSTORE PUSH32 0x994A936646FE87FFE4F1E469D3D6AA417D6B855598397F323DE5B449F765F0C3 DUP3 DUP1 LOG2 DUP1 RETURN JUMPDEST PUSH4 0x4E487B71 PUSH1 0xE0 SHL DUP7 MSTORE PUSH1 0x41 SWAP1 MSTORE PUSH1 0x24 DUP6 REVERT JUMPDEST DUP3 MLOAD PUSH4 0x25CFE06F PUSH1 0xE1 SHL DUP2 MSTORE REVERT JUMPDEST DUP3 MLOAD PUSH4 0x918CB1DD PUSH1 0xE0 SHL DUP2 MSTORE REVERT JUMPDEST DUP6 DUP1 REVERT JUMPDEST POP SWAP1 CALLVALUE PUSH2 0xF0 JUMPI DUP3 PUSH1 0x3 NOT CALLDATASIZE ADD SLT PUSH2 0xF0 JUMPI DUP3 SLOAD SWAP2 PUSH1 0x1 PUSH1 0x1 PUSH1 0xA0 SHL SUB DUP4 AND CALLER SUB PUSH2 0xDF JUMPI POP POP PUSH1 0x1 PUSH1 0x1 PUSH1 0xA0 SHL SUB NOT AND DUP2 SSTORE DUP1 RETURN JUMPDEST POP SWAP1 CALLVALUE PUSH2 0xF0 JUMPI DUP3 PUSH1 0x3 NOT CALLDATASIZE ADD SLT PUSH2 0xF0 JUMPI PUSH1 0x20 SWAP3 POP SLOAD SWAP1 MLOAD SWAP1 DUP2 MSTORE RETURN JUMPDEST POP CALLVALUE PUSH2 0xF0 JUMPI PUSH1 0x20 CALLDATASIZE PUSH1 0x3 NOT ADD SLT PUSH2 0xF0 JUMPI DUP3 SLOAD DUP3 CALLDATALOAD SWAP3 SWAP1 PUSH1 0x1 PUSH1 0x1 PUSH1 0xA0 SHL SUB AND CALLER SUB PUSH2 0x3CB JUMPI PUSH1 0x1 SLOAD DUP4 GT PUSH2 0x3B6 JUMPI POP DUP2 PUSH1 0x20 SWAP2 PUSH32 0x10DBC913050D3180C3B99F7DA91FD514AF7CBC9C1BB59A0DA5D2BC38F0CF395A SWAP4 PUSH1 0x3 SSTORE MLOAD SWAP1 DUP2 MSTORE LOG1 DUP1 RETURN JUMPDEST DUP3 PUSH1 0x24 SWAP3 MLOAD SWAP2 PUSH4 0x362BF2D PUSH1 0xE5 SHL DUP4 MSTORE DUP3 ADD MSTORE REVERT JUMPDEST SWAP1 MLOAD PUSH4 0x918CB1DD PUSH1 0xE0 SHL DUP2 MSTORE REVERT JUMPDEST DUP4 DUP3 CALLVALUE PUSH2 0x200 JUMPI DUP2 PUSH1 0x3 NOT CALLDATASIZE ADD SLT PUSH2 0x200 JUMPI SWAP1 SLOAD SWAP1 MLOAD PUSH1 0x1 PUSH1 0x1 PUSH1 0xA0 SHL SUB SWAP1 SWAP2 AND DUP2 MSTORE PUSH1 0x20 SWAP1 RETURN JUMPDEST POP CALLVALUE PUSH2 0xF0 JUMPI PUSH1 0x20 CALLDATASIZE PUSH1 0x3 NOT ADD SLT PUSH2 0xF0 JUMPI PUSH1 0x1 PUSH1 0x1 PUSH1 0xA0 SHL SUB DUP3 CALLDATALOAD DUP2 DUP2 AND SWAP4 SWAP1 DUP5 DUP2 SUB PUSH2 0x2FC JUMPI DUP3 DUP7 SLOAD AND CALLER SUB PUSH2 0x54A JUMPI DUP5 DUP7 MSTORE PUSH1 0x2 PUSH1 0x20 MSTORE PUSH1 0xFF DUP5 DUP8 KECCAK256 SLOAD AND ISZERO PUSH2 0x53B JUMPI PUSH2 0x450 SWAP1 PUSH2 0x629 JUMP JUMPDEST PUSH1 0x1 SLOAD PUSH1 0x0 NOT SWAP3 SWAP2 DUP4 DUP3 ADD SWAP2 DUP3 GT PUSH2 0x528 JUMPI SWAP1 DUP2 DUP2 DUP7 SWAP4 SUB PUSH2 0x4E2 JUMPI JUMPDEST POP POP POP PUSH1 0x1 SLOAD SWAP1 DUP2 ISZERO PUSH2 0x4CF JUMPI POP ADD SWAP1 PUSH2 0x486 DUP3 PUSH2 0x5DC JUMP JUMPDEST SWAP1 SWAP2 DUP3 SLOAD SWAP2 PUSH1 0x3 SHL SHL NOT AND SWAP1 SSTORE PUSH1 0x1 SSTORE DUP2 DUP4 MSTORE PUSH1 0x2 PUSH1 0x20 MSTORE DUP3 KECCAK256 PUSH1 0xFF NOT DUP2 SLOAD AND SWAP1 SSTORE PUSH32 0x58619076ADF5BB0943D100EF88D52D7C3FD691B19D3A9071B555B651FBF418DA DUP3 DUP1 LOG2 DUP1 RETURN JUMPDEST PUSH4 0x4E487B71 PUSH1 0xE0 SHL DUP8 MSTORE PUSH1 0x31 SWAP1 MSTORE PUSH1 0x24 DUP7 REVERT JUMPDEST PUSH2 0x520 SWAP3 PUSH2 0x4F2 PUSH2 0x4FB SWAP4 PUSH2 0x5DC JUMP JUMPDEST SWAP4 SWAP1 SLOAD SWAP3 PUSH2 0x5DC JUMP JUMPDEST SWAP3 SWAP1 SWAP4 PUSH1 0x3 SHL SHR AND SWAP1 DUP3 SLOAD SWAP1 PUSH1 0x3 SHL SWAP2 PUSH1 0x1 DUP1 PUSH1 0xA0 SHL SUB DUP1 SWAP2 AND DUP4 SHL SWAP3 SHL NOT AND OR SWAP1 SSTORE JUMP JUMPDEST DUP3 CODESIZE DUP1 PUSH2 0x46D JUMP JUMPDEST PUSH4 0x4E487B71 PUSH1 0xE0 SHL DUP9 MSTORE PUSH1 0x11 DUP4 MSTORE PUSH1 0x24 DUP9 REVERT JUMPDEST POP DUP3 MLOAD PUSH4 0x1DD523FF PUSH1 0xE3 SHL DUP2 MSTORE REVERT JUMPDEST POP DUP3 MLOAD PUSH4 0x918CB1DD PUSH1 0xE0 SHL DUP2 MSTORE REVERT JUMPDEST POP SWAP1 CALLVALUE PUSH2 0xF0 JUMPI PUSH1 0x20 CALLDATASIZE PUSH1 0x3 NOT ADD SLT PUSH2 0xF0 JUMPI CALLDATALOAD PUSH1 0x1 PUSH1 0x1 PUSH1 0xA0 SHL SUB DUP2 AND SWAP1 DUP2 SWAP1 SUB PUSH2 0xF0 JUMPI DUP2 DUP4 PUSH1 0xFF SWAP3 PUSH1 0x20 SWAP6 MSTORE PUSH1 0x2 DUP6 MSTORE KECCAK256 SLOAD AND SWAP1 MLOAD SWAP1 ISZERO ISZERO DUP2 MSTORE RETURN JUMPDEST POP SWAP1 CALLVALUE PUSH2 0xF0 JUMPI PUSH1 0x20 CALLDATASIZE PUSH1 0x3 NOT ADD SLT PUSH2 0xF0 JUMPI CALLDATALOAD SWAP2 PUSH1 0x1 SLOAD DUP4 LT ISZERO PUSH2 0x5D9 JUMPI POP PUSH2 0x5C3 PUSH1 0x20 SWAP3 PUSH2 0x5DC JUMP JUMPDEST SWAP1 SLOAD SWAP2 MLOAD SWAP2 PUSH1 0x1 DUP1 PUSH1 0xA0 SHL SUB SWAP2 PUSH1 0x3 SHL SHR AND DUP2 MSTORE RETURN JUMPDEST DUP1 REVERT JUMPDEST PUSH1 0x1 SLOAD DUP2 LT ISZERO PUSH2 0x613 JUMPI PUSH1 0x1 PUSH1 0x0 MSTORE PUSH32 0xB10E2D527612073B26EECDFD717E6A320CF44B4AFAC2B0732D9FCBE2B7FA0CF6 ADD SWAP1 PUSH1 0x0 SWAP1 JUMP JUMPDEST PUSH4 0x4E487B71 PUSH1 0xE0 SHL PUSH1 0x0 MSTORE PUSH1 0x32 PUSH1 0x4 MSTORE PUSH1 0x24 PUSH1 0x0 REVERT JUMPDEST SWAP1 PUSH1 0x0 DUP1 SWAP2 PUSH1 0x1 SWAP4 DUP5 SLOAD SWAP4 JUMPDEST DUP5 DUP2 LT PUSH2 0x64E JUMPI PUSH1 0x40 MLOAD PUSH4 0x1DD523FF PUSH1 0xE3 SHL DUP2 MSTORE PUSH1 0x4 SWAP1 REVERT JUMPDEST PUSH2 0x657 DUP2 PUSH2 0x5DC JUMP JUMPDEST SWAP1 SLOAD PUSH1 0x3 SWAP2 SWAP1 SWAP2 SHL SHR PUSH1 0x1 PUSH1 0x1 PUSH1 0xA0 SHL SUB SWAP1 DUP2 AND SWAP1 DUP4 AND EQ PUSH2 0x697 JUMPI PUSH1 0x0 NOT DUP2 EQ PUSH2 0x683 JUMPI DUP6 ADD PUSH2 0x635 JUMP JUMPDEST PUSH4 0x4E487B71 PUSH1 0xE0 SHL DUP5 MSTORE PUSH1 0x11 PUSH1 0x4 MSTORE PUSH1 0x24 DUP5 REVERT JUMPDEST SWAP4 POP POP SWAP3 POP POP SWAP1 JUMP INVALID LOG2 PUSH5 0x6970667358 0x22 SLT KECCAK256 BASEFEE 0x24 0xD2 SWAP11 SMOD TIMESTAMP SWAP12 0xEC 0xE9 0xA5 CODESIZE ISZERO SWAP12 0x4C 0xB5 0xD9 MSIZE 0xAA SUB 0xAC PUSH4 0x2ECF4CC7 EXTCODECOPY 0xEB 0xAD PUSH13 0xFB78CC64736F6C634300081400 CALLER "},"methodIdentifiers":{"addOwner(address)":"7065cb48","changeRequiredSignatures(uint256)":"39f636ab","custodian()":"375b74c3","getOwners()":"a0e67e2b","isOwnerMapping(address)":"086bb259","owners(uint256)":"025e7c27","removeOwner(address)":"173825d9","renounceCustodian()":"5d4bc638","replaceCustodian(address)":"f2f4655e","requiredSignatures()":"8d068043","threshold()":"42cde4e8"}}}}}