{"contracts/Intents.sol":{"Intents":{"abi":[{"inputs":[{"internalType":"address[]","name":"_owners","type":"address[]"},{"internalType":"uint256","name":"_requiredSignatures","type":"uint256"},{"internalType":"uint256","name":"_threshold","type":"uint256"}],"stateMutability":"nonpayable","type":"constructor"},{"inputs":[],"name":"AlreadyAnOwner","type":"error"},{"inputs":[],"name":"AmountMustBeGreaterThanZero","type":"error"},{"inputs":[],"name":"ECDSAInvalidSignature","type":"error"},{"inputs":[{"internalType":"uint256","name":"length","type":"uint256"}],"name":"ECDSAInvalidSignatureLength","type":"error"},{"inputs":[{"internalType":"bytes32","name":"s","type":"bytes32"}],"name":"ECDSAInvalidSignatureS","type":"error"},{"inputs":[],"name":"ExecutionTimeNotReached","type":"error"},{"inputs":[{"internalType":"uint256","name":"required","type":"uint256"}],"name":"InsufficientOwners","type":"error"},{"inputs":[],"name":"InsufficientSignaturesForAmount","type":"error"},{"inputs":[],"name":"IntentAlreadyCancelled","type":"error"},{"inputs":[],"name":"IntentNotApproved","type":"error"},{"inputs":[],"name":"InvalidShortString","type":"error"},{"inputs":[],"name":"InvalidSignature","type":"error"},{"inputs":[],"name":"NotAnOwner","type":"error"},{"inputs":[],"name":"NotCustodian","type":"error"},{"inputs":[],"name":"NotEnoughSignatures","type":"error"},{"inputs":[],"name":"NotOwner","type":"error"},{"inputs":[],"name":"RecurringIntervalMustBeGreaterThanZero","type":"error"},{"inputs":[{"internalType":"address","name":"token","type":"address"}],"name":"SafeERC20FailedOperation","type":"error"},{"inputs":[{"internalType":"string","name":"str","type":"string"}],"name":"StringTooLong","type":"error"},{"inputs":[],"name":"ThresholdMustBeGreaterThanZero","type":"error"},{"anonymous":false,"inputs":[],"name":"EIP712DomainChanged","type":"event"},{"anonymous":false,"inputs":[{"indexed":true,"internalType":"uint256","name":"intentId","type":"uint256"}],"name":"IntentApproved","type":"event"},{"anonymous":false,"inputs":[{"indexed":true,"internalType":"uint256","name":"intentId","type":"uint256"}],"name":"IntentCancelled","type":"event"},{"anonymous":false,"inputs":[{"indexed":true,"internalType":"uint256","name":"intentId","type":"uint256"},{"indexed":true,"internalType":"address","name":"user","type":"address"},{"indexed":true,"internalType":"address","name":"to","type":"address"},{"indexed":false,"internalType":"uint128","name":"amount","type":"uint128"},{"indexed":false,"internalType":"uint32","name":"nextExecutionTime","type":"uint32"},{"indexed":false,"internalType":"uint32","name":"recurringInterval","type":"uint32"}],"name":"IntentCreated","type":"event"},{"anonymous":false,"inputs":[{"indexed":true,"internalType":"uint256","name":"intentId","type":"uint256"},{"indexed":true,"internalType":"address","name":"to","type":"address"},{"indexed":false,"internalType":"uint128","name":"amount","type":"uint128"},{"indexed":false,"internalType":"uint256","name":"executionCount","type":"uint256"}],"name":"IntentExecuted","type":"event"},{"anonymous":false,"inputs":[{"indexed":true,"internalType":"address","name":"newOwner","type":"address"}],"name":"OwnerAdded","type":"event"},{"anonymous":false,"inputs":[{"indexed":true,"internalType":"address","name":"removedOwner","type":"address"}],"name":"OwnerRemoved","type":"event"},{"anonymous":false,"inputs":[{"indexed":false,"internalType":"uint256","name":"newRequiredSignatures","type":"uint256"}],"name":"RequiredSignaturesChanged","type":"event"},{"anonymous":false,"inputs":[{"indexed":false,"internalType":"uint256","name":"newThreshold","type":"uint256"}],"name":"ThresholdChanged","type":"event"},{"inputs":[{"internalType":"address","name":"_owner","type":"address"}],"name":"addOwner","outputs":[],"stateMutability":"nonpayable","type":"function"},{"inputs":[{"internalType":"uint256","name":"_intentId","type":"uint256"},{"internalType":"bytes[]","name":"_signatures","type":"bytes[]"}],"name":"approveIntent","outputs":[],"stateMutability":"nonpayable","type":"function"},{"inputs":[{"internalType":"uint256","name":"_intentId","type":"uint256"},{"internalType":"bytes[]","name":"_signatures","type":"bytes[]"}],"name":"cancelIntent","outputs":[],"stateMutability":"nonpayable","type":"function"},{"inputs":[{"internalType":"uint256","name":"_newRequiredSignatures","type":"uint256"}],"name":"changeRequiredSignatures","outputs":[],"stateMutability":"nonpayable","type":"function"},{"inputs":[{"internalType":"address","name":"_to","type":"address"},{"internalType":"uint128","name":"_amount","type":"uint128"},{"internalType":"uint32","name":"_recurringInterval","type":"uint32"}],"name":"createIntent","outputs":[],"stateMutability":"nonpayable","type":"function"},{"inputs":[],"name":"custodian","outputs":[{"internalType":"address","name":"","type":"address"}],"stateMutability":"view","type":"function"},{"inputs":[],"name":"eip712Domain","outputs":[{"internalType":"bytes1","name":"fields","type":"bytes1"},{"internalType":"string","name":"name","type":"string"},{"internalType":"string","name":"version","type":"string"},{"internalType":"uint256","name":"chainId","type":"uint256"},{"internalType":"address","name":"verifyingContract","type":"address"},{"internalType":"bytes32","name":"salt","type":"bytes32"},{"internalType":"uint256[]","name":"extensions","type":"uint256[]"}],"stateMutability":"view","type":"function"},{"inputs":[{"internalType":"uint256","name":"_intentId","type":"uint256"}],"name":"executeIntent","outputs":[],"stateMutability":"nonpayable","type":"function"},{"inputs":[],"name":"getOwners","outputs":[{"internalType":"address[]","name":"","type":"address[]"}],"stateMutability":"view","type":"function"},{"inputs":[{"internalType":"uint256","name":"","type":"uint256"}],"name":"intents","outputs":[{"internalType":"address","name":"user","type":"address"},{"internalType":"address","name":"to","type":"address"},{"internalType":"uint128","name":"amount","type":"uint128"},{"internalType":"uint32","name":"nextExecutionTime","type":"uint32"},{"internalType":"uint32","name":"recurringInterval","type":"uint32"},{"internalType":"uint16","name":"executionCount","type":"uint16"},{"internalType":"bool","name":"approved","type":"bool"},{"internalType":"bool","name":"cancelled","type":"bool"}],"stateMutability":"view","type":"function"},{"inputs":[{"internalType":"address","name":"","type":"address"}],"name":"isOwnerMapping","outputs":[{"internalType":"bool","name":"","type":"bool"}],"stateMutability":"view","type":"function"},{"inputs":[],"name":"nextIntentId","outputs":[{"internalType":"uint256","name":"","type":"uint256"}],"stateMutability":"view","type":"function"},{"inputs":[{"internalType":"uint256","name":"","type":"uint256"}],"name":"owners","outputs":[{"internalType":"address","name":"","type":"address"}],"stateMutability":"view","type":"function"},{"inputs":[{"internalType":"address","name":"_owner","type":"address"}],"name":"removeOwner","outputs":[],"stateMutability":"nonpayable","type":"function"},{"inputs":[],"name":"renounceCustodian","outputs":[],"stateMutability":"nonpayable","type":"function"},{"inputs":[{"internalType":"address","name":"_newCustodian","type":"address"}],"name":"replaceCustodian","outputs":[],"stateMutability":"nonpayable","type":"function"},{"inputs":[],"name":"requiredSignatures","outputs":[{"internalType":"uint256","name":"","type":"uint256"}],"stateMutability":"view","type":"function"},{"inputs":[],"name":"threshold","outputs":[{"internalType":"uint256","name":"","type":"uint256"}],"stateMutability":"view","type":"function"}],"evm":{"bytecode":{"linkReferences":{},"object":"610160604081815234620003585762001cf1803803809162000022828662000379565b8439820191606081840312620003585780516001600160401b039290838111620003585782019084601f8301121562000358578151848111620002f95760059181831b968151946020936200007a858b018862000379565b86528386019084829a82010192831162000358578401905b8282106200033757505050808286015195015196815195620000b4876200035d565b600f8752838701956e125b9d195b9d1cd0dbdb9d1c9858dd608a1b8752835195620000df876200035d565b60019182885286880193603160f81b85528082511062000320578c156200030f578151958c8711620002f957680100000000000000008711620002f9578454878655808810620002d9575b509560009685885289882086895b848110620002bd57505050600392909255505060049b8c5584546001600160a01b0319163317855584835b62000263575b505050506200017887620003b6565b956101209687526200018a8662000583565b97610140988952519020948560e0525190209761010098808a524660a0528351948501957f8b73c3c69bb8fe3d512ecc4cf759cc79239f7b179b0ffacaa9a75d522b39400f87528486015260608501524660808501523060a085015260a0845260c084019784891090891117620002505750508590525190206080523060c0526115c293846200072f853960805184611441015260a0518461150d015260c0518461140b015260e05184611490015251836114b60152518261066b015251816106940152f35b634e487b7160e01b825260419052602490fd5b8151811015620002b75780831b82018801516001600160a01b0316865260028852868620805460ff1916851790556000198114620002a45783018362000163565b634e487b7160e01b865260118d52602486fd5b62000169565b83516001600160a01b031683820155928c019288910162000138565b620002f29086600052888b60002091820191016200039d565b386200012a565b634e487b7160e01b600052604160045260246000fd5b8651630372105960e61b8152600490fd5b602490875190630362bf2d60e51b82526004820152fd5b81516001600160a01b03811681036200035857815290840190840162000092565b600080fd5b604081019081106001600160401b03821117620002f957604052565b601f909101601f19168101906001600160401b03821190821017620002f957604052565b818110620003a9575050565b600081556001016200039d565b8051602091908281101562000455575090601f825111620003f45780825192015190808310620003e557501790565b82600019910360031b1b161790565b90604051809263305a27a960e01b82528060048301528251908160248401526000935b8285106200043b575050604492506000838284010152601f80199101168101030190fd5b848101820151868601604401529381019385935062000417565b6001600160401b038111620002f9576005928354926001938481811c9116801562000578575b838210146200056257601f811162000538575b5081601f8411600114620004ce5750928293918392600094620004c2575b50501b916000199060031b1c191617905560ff90565b015192503880620004ac565b919083601f1981168760005284600020946000905b888383106200051d575050501062000503575b505050811b01905560ff90565b015160001960f88460031b161c19169055388080620004f6565b858701518855909601959485019487935090810190620004e3565b6200055b9086600052601f846000209101871c810190601f8601881c016200039d565b386200048e565b634e487b7160e01b600052602260045260246000fd5b90607f16906200047b565b805160209081811015620006115750601f825111620005b05780825192015190808310620003e557501790565b90604051809263305a27a960e01b82528060048301528251908160248401526000935b828510620005f7575050604492506000838284010152601f80199101168101030190fd5b8481018201518686016044015293810193859350620005d3565b906001600160401b038211620002f957600654926001938481811c9116801562000723575b838210146200056257601f8111620006f6575b5081601f84116001146200068a57509282939183926000946200067e575b50501b916000199060031b1c19161760065560ff90565b01519250388062000667565b919083601f198116600660005284600020946000905b88838310620006db5750505010620006c1575b505050811b0160065560ff90565b015160001960f88460031b161c19169055388080620006b3565b858701518855909601959485019487935090810190620006a0565b6200071c906006600052601f84600020910160051c810190601f860160051c016200039d565b3862000649565b90607f16906200063656fe6080604052600436101561001257600080fd5b60003560e01c8063025e7c2714610dcb578063086bb25914610d8c578063173825d914610c4d578063375b74c314610c2457806339f636ab14610bab57806342cde4e814610b8d57806346a1a09514610af35780635d4bc63814610ac05780636550db52146109995780637065cb48146108ba5780637b4077831461075f57806384b0196e146106555780638d068043146106375780639b7b7b1e14610619578063a0e67e2b14610559578063cd9d6aee14610387578063cfac4b311461013c5763f2f4655e146100e257600080fd5b34610137576020366003190112610137576100fb610e5a565b600054906001600160a01b03908183163303610125576001600160a01b0319909216911617600055005b60405163918cb1dd60e01b8152600490fd5b600080fd5b3461013757606036600319011261013757610155610e5a565b6024356001600160801b0391828216809203610137576044359063ffffffff90818316918284036101375733600052600260205260ff6040600020541615610375578415610363578215610351576101be600854946101b38661115a565b600855824216611169565b91604051610100810181811067ffffffffffffffff82111761033b576040523381526020810190600160a01b600190038093169889835260408201948986528060608401971696878152608084019289845260a08501946000865260c08101966000885260e082019860008a528d6000526007602052806040600020935116906bffffffffffffffffffffffff60a01b918285541617845560018401925116908254161790556002019751166001600160801b031988541617875551166102a190869081549063ffffffff60801b9060801b169063ffffffff60801b1916179055565b518454915165ffffffffffff60a01b1990921660a09190911b63ffffffff60a01b161760c09190911b61ffff60c01b16178355518254915161ffff60d01b1990921690151560d01b60ff60d01b161790151560d81b60ff60d81b1617905560408051948552602085019190915283015233917fb48492f1f7a38c6b22feaef296c0c4861f3952771682cd990c9374874a28773d90606090a4005b634e487b7160e01b600052604160045260246000fd5b60405163160c112560e01b8152600490fd5b604051635e85ae7360e01b8152600490fd5b6040516330cd747160e01b8152600490fd5b3461013757602036600319011261013757600435806000526007602052604060002090600282019081549060ff8260d01c1615801561054c575b61053a5763ffffffff9342858460801c1611610528576001019360018060a01b039260206000858854166040518381019163a9059cbb60e01b835260248201526001600160801b0380951660448201526044815261041e81610f00565b519082305af11561051c576000513d6105135750303b155b6104fb5761ffff9283865460c01c16968488146104e557865461ffff60c01b191660019890980160c01b61ffff60c01b169790971786556104e3966104c3957fa91d4f2579c26d522ef9555559a2db441d5c0f9498b6b6cdc052eacddb5670559160409190541693885496825191881682528760c01c166020820152a3808260a01c169160801c16611169565b815463ffffffff60801b191660809190911b63ffffffff60801b16179055565b005b634e487b7160e01b600052601160045260246000fd5b604051635274afe760e01b8152306004820152602490fd5b60011415610436565b6040513d6000823e3d90fd5b60405163629d783360e11b8152600490fd5b6040516334808f6760e21b8152600490fd5b5060ff8260d81c166103c1565b346101375760003660031901126101375760405180600180549283815260208091018094836000527fb10e2d527612073b26eecdfd717e6a320cf44b4afac2b0732d9fcbe2b7fa0cf69060005b8181106105fd57505050836105bc910384610f38565b60405192818401908285525180915260408401949160005b8281106105e15785870386f35b83516001600160a01b03168752958101959281019284016105d4565b82546001600160a01b03168452928401929185019185016105a6565b34610137576000366003190112610137576020600854604051908152f35b34610137576000366003190112610137576020600354604051908152f35b346101375760003660031901126101375761068f7f0000000000000000000000000000000000000000000000000000000000000000610f5a565b6106b87f0000000000000000000000000000000000000000000000000000000000000000611084565b60405160208082019282841067ffffffffffffffff85111761033b5791816107128594610704979660405260008452604051978897600f60f81b895260e0858a015260e0890190610ec0565b908782036040890152610ec0565b91466060870152306080870152600060a087015285830360c0870152519182815201929160005b82811061074857505050500390f35b835185528695509381019392810192600101610739565b346101375761076d36610e70565b9082600052600760205260406000209160028301549160ff8360d81c166108a8576004546001600160801b03841611156108a057600354915b82811061088e576001850154600092916001600160a01b0390911690835b81811061082157505050501061080f5760ff60d81b1916600160d81b17600291909101557f2d8c53f76eb0afab114916b6c3aa17406ad39c7e874c92b099f79ab89c2e2a54600080a2005b6040516340a2b1a360e01b8152600490fd5b610844610854610832838588611181565b6001600160a01b0393913691906111c3565b6001600160801b038a168661120a565b16600052600260205260ff60406000205416610879575b6108749061115a565b6107c4565b936108866108749161115a565b94905061086b565b60405163e246dc6360e01b8152600490fd5b6001916107a6565b604051631f10cff160e01b8152600490fd5b34610137576020366003190112610137576108d3610e5a565b6000546001600160a01b0390811633036101255781169081600052600260205260ff6040600020541661098757600154906801000000000000000082101561033b576109288260016109479401600155610e0d565b90919082549060031b9160018060a01b03809116831b921b1916179055565b8060005260026020526040600020600160ff198254161790557f994a936646fe87ffe4f1e469d3d6aa417d6b855598397f323de5b449f765f0c3600080a2005b6040516325cfe06f60e11b8152600490fd5b34610137576109a736610e70565b8260005260206007815260406000209260028401549260ff8460d01c168015610ab3575b6108a8576004546001600160801b0385161115610aab57600354925b83821061088e576001860154600093926001600160a01b0390911690845b818110610a515750505050501061080f5760ff60d01b1916600160d01b17600291909101557f0f282feb59a77879c639d8e34c39a6d8d8db1e147493de31406690ac4fd5733f600080a2005b610a62610a72610832838589611181565b6001600160801b038b168661120a565b166000526002845260ff60406000205416610a96575b610a919061115a565b610a05565b94610aa3610a919161115a565b959050610a88565b6001926109e7565b5060ff8460d81c166109cb565b34610137576000366003190112610137576000546001600160a01b0381163303610125576001600160a01b031916600055005b34610137576020366003190112610137576004356000526007602052610100604060002060ff60018060a01b0391600283825416936001830154169101549060405193845260208401526001600160801b038116604084015263ffffffff808260801c1660608501528160a01c16608084015261ffff8160c01c1660a0840152818160d01c16151560c084015260d81c16151560e0820152f35b34610137576000366003190112610137576020600454604051908152f35b3461013757602036600319011261013757600054600435906001600160a01b03163303610125576001548111610c0c576020817f10dbc913050d3180c3b99f7da91fd514af7cbc9c1bb59a0da5d2bc38f0cf395a92600355604051908152a1005b60249060405190630362bf2d60e51b82526004820152fd5b34610137576000366003190112610137576000546040516001600160a01b039091168152602090f35b3461013757602036600319011261013757610c66610e5a565b6000546001600160a01b039081163303610125578082169182600052600260205260ff6040600020541615610d7a57610c9e90611533565b60015460001991908281019081116104e5578181859303610d34575b5050506001548015610d1e570190610cd182610e0d565b909182549160031b1b19169055600155806000526002602052604060002060ff1981541690557f58619076adf5bb0943d100ef88d52d7c3fd691b19d3a9071b555b651fbf418da600080a2005b634e487b7160e01b600052603160045260246000fd5b610d7292610d44610d4d93610e0d565b93905492610e0d565b92909360031b1c169082549060031b9160018060a01b03809116831b921b1916179055565b818480610cba565b604051631dd523ff60e31b8152600490fd5b34610137576020366003190112610137576001600160a01b03610dad610e5a565b166000526002602052602060ff604060002054166040519015158152f35b346101375760203660031901126101375760043560015481101561013757610df4602091610e0d565b905460405160039290921b1c6001600160a01b03168152f35b600154811015610e445760016000527fb10e2d527612073b26eecdfd717e6a320cf44b4afac2b0732d9fcbe2b7fa0cf60190600090565b634e487b7160e01b600052603260045260246000fd5b600435906001600160a01b038216820361013757565b6040600319820112610137576004359160243567ffffffffffffffff9283821161013757806023830112156101375781600401359384116101375760248460051b83010111610137576024019190565b919082519283825260005b848110610eec575050826000602080949584010152601f8019910116010190565b602081830181015184830182015201610ecb565b6080810190811067ffffffffffffffff82111761033b57604052565b6040810190811067ffffffffffffffff82111761033b57604052565b90601f8019910116810190811067ffffffffffffffff82111761033b57604052565b60ff8114610f985760ff811690601f8211610f865760405191610f7c83610f1c565b8252602082015290565b604051632cd44ac360e21b8152600490fd5b50604051600060055490600182811c9080841693841561107a575b602094858410811461106657838752869493929181156110465750600114610fe7575b5050610fe492500382610f38565b90565b9093915060056000527f036b6384b5eca791c62761152d0c79bb0604c104a5fb6f4eb0703f3154bb3db0936000915b81831061102e575050610fe493508201013880610fd6565b85548784018501529485019486945091830191611016565b915050610fe494925060ff191682840152151560051b8201013880610fd6565b634e487b7160e01b85526022600452602485fd5b91607f1691610fb3565b60ff81146110a65760ff811690601f8211610f865760405191610f7c83610f1c565b50604051600060065490600182811c90808416938415611150575b6020948584108114611066578387528694939291811561104657506001146110f1575050610fe492500382610f38565b9093915060066000527ff652222313e28459528d920b65115c16c04f3efc82aaedc97be59f3f377c0d3f936000915b818310611138575050610fe493508201013880610fd6565b85548784018501529485019486945091830191611120565b91607f16916110c1565b60001981146104e55760010190565b91909163ffffffff808094169116019182116104e557565b9190811015610e445760051b81013590601e198136030182121561013757019081359167ffffffffffffffff8311610137576020018236038113610137579190565b92919267ffffffffffffffff821161033b57604051916111ed601f8201601f191660200184610f38565b829481845281830111610137578281602093846000960137010152565b9061129b926042611292926040516001600160801b0360208201927f5db0b9e48b5e2a2d788c8f9e014cc3770910447f57857ae28b3cc53f81e36a99845260018060a01b0380981660408401521660608201526060815261126a81610f00565b519020611275611408565b906040519161190160f01b835260028301526022820152206112b7565b90939193611383565b8116156112a55790565b604051638baa579f60e01b8152600490fd5b81519190604183036112e8576112e192506020820151906060604084015193015160001a906112f3565b9192909190565b505060009160029190565b91907f7fffffffffffffffffffffffffffffff5d576e7357a4501ddfe92f46681b20a0841161137757926020929160ff608095604051948552168484015260408301526060820152600092839182805260015afa1561136b5780516001600160a01b0381161561136257918190565b50809160019190565b604051903d90823e3d90fd5b50505060009160039190565b60048110156113f25780611395575050565b600181036113af5760405163f645eedf60e01b8152600490fd5b600281036113d05760405163fce698f760e01b815260048101839052602490fd5b6003146113da5750565b602490604051906335e2f38360e21b82526004820152fd5b634e487b7160e01b600052602160045260246000fd5b307f00000000000000000000000000000000000000000000000000000000000000006001600160a01b0316148061150a575b15611463577f000000000000000000000000000000000000000000000000000000000000000090565b60405160208101907f8b73c3c69bb8fe3d512ecc4cf759cc79239f7b179b0ffacaa9a75d522b39400f82527f000000000000000000000000000000000000000000000000000000000000000060408201527f000000000000000000000000000000000000000000000000000000000000000060608201524660808201523060a082015260a0815260c0810181811067ffffffffffffffff82111761033b5760405251902090565b507f0000000000000000000000000000000000000000000000000000000000000000461461143a565b6001549060005b82811061155357604051631dd523ff60e31b8152600490fd5b61155c81610e0d565b905460039190911b1c6001600160a01b0390811690831614611586576115819061115a565b61153a565b9150509056fea26469706673582212208b15979818bff1de9a94873ed378ad0ed1516e78c168e84d1f61bf207043c50b64736f6c63430008140033","opcodes":"PUSH2 0x160 PUSH1 0x40 DUP2 DUP2 MSTORE CALLVALUE PUSH3 0x358 JUMPI PUSH3 0x1CF1 DUP1 CODESIZE SUB DUP1 SWAP2 PUSH3 0x22 DUP3 DUP7 PUSH3 0x379 JUMP JUMPDEST DUP5 CODECOPY DUP3 ADD SWAP2 PUSH1 0x60 DUP2 DUP5 SUB SLT PUSH3 0x358 JUMPI DUP1 MLOAD PUSH1 0x1 PUSH1 0x1 PUSH1 0x40 SHL SUB SWAP3 SWAP1 DUP4 DUP2 GT PUSH3 0x358 JUMPI DUP3 ADD SWAP1 DUP5 PUSH1 0x1F DUP4 ADD SLT ISZERO PUSH3 0x358 JUMPI DUP2 MLOAD DUP5 DUP2 GT PUSH3 0x2F9 JUMPI PUSH1 0x5 SWAP2 DUP2 DUP4 SHL SWAP7 DUP2 MLOAD SWAP5 PUSH1 0x20 SWAP4 PUSH3 0x7A DUP6 DUP12 ADD DUP9 PUSH3 0x379 JUMP JUMPDEST DUP7 MSTORE DUP4 DUP7 ADD SWAP1 DUP5 DUP3 SWAP11 DUP3 ADD ADD SWAP3 DUP4 GT PUSH3 0x358 JUMPI DUP5 ADD SWAP1 JUMPDEST DUP3 DUP3 LT PUSH3 0x337 JUMPI POP POP POP DUP1 DUP3 DUP7 ADD MLOAD SWAP6 ADD MLOAD SWAP7 DUP2 MLOAD SWAP6 PUSH3 0xB4 DUP8 PUSH3 0x35D JUMP JUMPDEST PUSH1 0xF DUP8 MSTORE DUP4 DUP8 ADD SWAP6 PUSH15 0x125B9D195B9D1CD0DBDB9D1C9858DD PUSH1 0x8A SHL DUP8 MSTORE DUP4 MLOAD SWAP6 PUSH3 0xDF DUP8 PUSH3 0x35D JUMP JUMPDEST PUSH1 0x1 SWAP2 DUP3 DUP9 MSTORE DUP7 DUP9 ADD SWAP4 PUSH1 0x31 PUSH1 0xF8 SHL DUP6 MSTORE DUP1 DUP3 MLOAD LT PUSH3 0x320 JUMPI DUP13 ISZERO PUSH3 0x30F JUMPI DUP2 MLOAD SWAP6 DUP13 DUP8 GT PUSH3 0x2F9 JUMPI PUSH9 0x10000000000000000 DUP8 GT PUSH3 0x2F9 JUMPI DUP5 SLOAD DUP8 DUP7 SSTORE DUP1 DUP9 LT PUSH3 0x2D9 JUMPI JUMPDEST POP SWAP6 PUSH1 0x0 SWAP7 DUP6 DUP9 MSTORE DUP10 DUP9 KECCAK256 DUP7 DUP10 JUMPDEST DUP5 DUP2 LT PUSH3 0x2BD JUMPI POP POP POP PUSH1 0x3 SWAP3 SWAP1 SWAP3 SSTORE POP POP PUSH1 0x4 SWAP12 DUP13 SSTORE DUP5 SLOAD PUSH1 0x1 PUSH1 0x1 PUSH1 0xA0 SHL SUB NOT AND CALLER OR DUP6 SSTORE DUP5 DUP4 JUMPDEST PUSH3 0x263 JUMPI JUMPDEST POP POP POP POP PUSH3 0x178 DUP8 PUSH3 0x3B6 JUMP JUMPDEST SWAP6 PUSH2 0x120 SWAP7 DUP8 MSTORE PUSH3 0x18A DUP7 PUSH3 0x583 JUMP JUMPDEST SWAP8 PUSH2 0x140 SWAP9 DUP10 MSTORE MLOAD SWAP1 KECCAK256 SWAP5 DUP6 PUSH1 0xE0 MSTORE MLOAD SWAP1 KECCAK256 SWAP8 PUSH2 0x100 SWAP9 DUP1 DUP11 MSTORE CHAINID PUSH1 0xA0 MSTORE DUP4 MLOAD SWAP5 DUP6 ADD SWAP6 PUSH32 0x8B73C3C69BB8FE3D512ECC4CF759CC79239F7B179B0FFACAA9A75D522B39400F DUP8 MSTORE DUP5 DUP7 ADD MSTORE PUSH1 0x60 DUP6 ADD MSTORE CHAINID PUSH1 0x80 DUP6 ADD MSTORE ADDRESS PUSH1 0xA0 DUP6 ADD MSTORE PUSH1 0xA0 DUP5 MSTORE PUSH1 0xC0 DUP5 ADD SWAP8 DUP5 DUP10 LT SWAP1 DUP10 GT OR PUSH3 0x250 JUMPI POP POP DUP6 SWAP1 MSTORE MLOAD SWAP1 KECCAK256 PUSH1 0x80 MSTORE ADDRESS PUSH1 0xC0 MSTORE PUSH2 0x15C2 SWAP4 DUP5 PUSH3 0x72F DUP6 CODECOPY PUSH1 0x80 MLOAD DUP5 PUSH2 0x1441 ADD MSTORE PUSH1 0xA0 MLOAD DUP5 PUSH2 0x150D ADD MSTORE PUSH1 0xC0 MLOAD DUP5 PUSH2 0x140B ADD MSTORE PUSH1 0xE0 MLOAD DUP5 PUSH2 0x1490 ADD MSTORE MLOAD DUP4 PUSH2 0x14B6 ADD MSTORE MLOAD DUP3 PUSH2 0x66B ADD MSTORE MLOAD DUP2 PUSH2 0x694 ADD MSTORE RETURN JUMPDEST PUSH4 0x4E487B71 PUSH1 0xE0 SHL DUP3 MSTORE PUSH1 0x41 SWAP1 MSTORE PUSH1 0x24 SWAP1 REVERT JUMPDEST DUP2 MLOAD DUP2 LT ISZERO PUSH3 0x2B7 JUMPI DUP1 DUP4 SHL DUP3 ADD DUP9 ADD MLOAD PUSH1 0x1 PUSH1 0x1 PUSH1 0xA0 SHL SUB AND DUP7 MSTORE PUSH1 0x2 DUP9 MSTORE DUP7 DUP7 KECCAK256 DUP1 SLOAD PUSH1 0xFF NOT AND DUP6 OR SWAP1 SSTORE PUSH1 0x0 NOT DUP2 EQ PUSH3 0x2A4 JUMPI DUP4 ADD DUP4 PUSH3 0x163 JUMP JUMPDEST PUSH4 0x4E487B71 PUSH1 0xE0 SHL DUP7 MSTORE PUSH1 0x11 DUP14 MSTORE PUSH1 0x24 DUP7 REVERT JUMPDEST PUSH3 0x169 JUMP JUMPDEST DUP4 MLOAD PUSH1 0x1 PUSH1 0x1 PUSH1 0xA0 SHL SUB AND DUP4 DUP3 ADD SSTORE SWAP3 DUP13 ADD SWAP3 DUP9 SWAP2 ADD PUSH3 0x138 JUMP JUMPDEST PUSH3 0x2F2 SWAP1 DUP7 PUSH1 0x0 MSTORE DUP9 DUP12 PUSH1 0x0 KECCAK256 SWAP2 DUP3 ADD SWAP2 ADD PUSH3 0x39D JUMP JUMPDEST CODESIZE PUSH3 0x12A JUMP JUMPDEST PUSH4 0x4E487B71 PUSH1 0xE0 SHL PUSH1 0x0 MSTORE PUSH1 0x41 PUSH1 0x4 MSTORE PUSH1 0x24 PUSH1 0x0 REVERT JUMPDEST DUP7 MLOAD PUSH4 0x3721059 PUSH1 0xE6 SHL DUP2 MSTORE PUSH1 0x4 SWAP1 REVERT JUMPDEST PUSH1 0x24 SWAP1 DUP8 MLOAD SWAP1 PUSH4 0x362BF2D PUSH1 0xE5 SHL DUP3 MSTORE PUSH1 0x4 DUP3 ADD MSTORE REVERT JUMPDEST DUP2 MLOAD PUSH1 0x1 PUSH1 0x1 PUSH1 0xA0 SHL SUB DUP2 AND DUP2 SUB PUSH3 0x358 JUMPI DUP2 MSTORE SWAP1 DUP5 ADD SWAP1 DUP5 ADD PUSH3 0x92 JUMP JUMPDEST PUSH1 0x0 DUP1 REVERT JUMPDEST PUSH1 0x40 DUP2 ADD SWAP1 DUP2 LT PUSH1 0x1 PUSH1 0x1 PUSH1 0x40 SHL SUB DUP3 GT OR PUSH3 0x2F9 JUMPI PUSH1 0x40 MSTORE JUMP JUMPDEST PUSH1 0x1F SWAP1 SWAP2 ADD PUSH1 0x1F NOT AND DUP2 ADD SWAP1 PUSH1 0x1 PUSH1 0x1 PUSH1 0x40 SHL SUB DUP3 GT SWAP1 DUP3 LT OR PUSH3 0x2F9 JUMPI PUSH1 0x40 MSTORE JUMP JUMPDEST DUP2 DUP2 LT PUSH3 0x3A9 JUMPI POP POP JUMP JUMPDEST PUSH1 0x0 DUP2 SSTORE PUSH1 0x1 ADD PUSH3 0x39D JUMP JUMPDEST DUP1 MLOAD PUSH1 0x20 SWAP2 SWAP1 DUP3 DUP2 LT ISZERO PUSH3 0x455 JUMPI POP SWAP1 PUSH1 0x1F DUP3 MLOAD GT PUSH3 0x3F4 JUMPI DUP1 DUP3 MLOAD SWAP3 ADD MLOAD SWAP1 DUP1 DUP4 LT PUSH3 0x3E5 JUMPI POP OR SWAP1 JUMP JUMPDEST DUP3 PUSH1 0x0 NOT SWAP2 SUB PUSH1 0x3 SHL SHL AND OR SWAP1 JUMP JUMPDEST SWAP1 PUSH1 0x40 MLOAD DUP1 SWAP3 PUSH4 0x305A27A9 PUSH1 0xE0 SHL DUP3 MSTORE DUP1 PUSH1 0x4 DUP4 ADD MSTORE DUP3 MLOAD SWAP1 DUP2 PUSH1 0x24 DUP5 ADD MSTORE PUSH1 0x0 SWAP4 JUMPDEST DUP3 DUP6 LT PUSH3 0x43B JUMPI POP POP PUSH1 0x44 SWAP3 POP PUSH1 0x0 DUP4 DUP3 DUP5 ADD ADD MSTORE PUSH1 0x1F DUP1 NOT SWAP2 ADD AND DUP2 ADD SUB ADD SWAP1 REVERT JUMPDEST DUP5 DUP2 ADD DUP3 ADD MLOAD DUP7 DUP7 ADD PUSH1 0x44 ADD MSTORE SWAP4 DUP2 ADD SWAP4 DUP6 SWAP4 POP PUSH3 0x417 JUMP JUMPDEST PUSH1 0x1 PUSH1 0x1 PUSH1 0x40 SHL SUB DUP2 GT PUSH3 0x2F9 JUMPI PUSH1 0x5 SWAP3 DUP4 SLOAD SWAP3 PUSH1 0x1 SWAP4 DUP5 DUP2 DUP2 SHR SWAP2 AND DUP1 ISZERO PUSH3 0x578 JUMPI JUMPDEST DUP4 DUP3 LT EQ PUSH3 0x562 JUMPI PUSH1 0x1F DUP2 GT PUSH3 0x538 JUMPI JUMPDEST POP DUP2 PUSH1 0x1F DUP5 GT PUSH1 0x1 EQ PUSH3 0x4CE JUMPI POP SWAP3 DUP3 SWAP4 SWAP2 DUP4 SWAP3 PUSH1 0x0 SWAP5 PUSH3 0x4C2 JUMPI JUMPDEST POP POP SHL SWAP2 PUSH1 0x0 NOT SWAP1 PUSH1 0x3 SHL SHR NOT AND OR SWAP1 SSTORE PUSH1 0xFF SWAP1 JUMP JUMPDEST ADD MLOAD SWAP3 POP CODESIZE DUP1 PUSH3 0x4AC JUMP JUMPDEST SWAP2 SWAP1 DUP4 PUSH1 0x1F NOT DUP2 AND DUP8 PUSH1 0x0 MSTORE DUP5 PUSH1 0x0 KECCAK256 SWAP5 PUSH1 0x0 SWAP1 JUMPDEST DUP9 DUP4 DUP4 LT PUSH3 0x51D JUMPI POP POP POP LT PUSH3 0x503 JUMPI JUMPDEST POP POP POP DUP2 SHL ADD SWAP1 SSTORE PUSH1 0xFF SWAP1 JUMP JUMPDEST ADD MLOAD PUSH1 0x0 NOT PUSH1 0xF8 DUP5 PUSH1 0x3 SHL AND SHR NOT AND SWAP1 SSTORE CODESIZE DUP1 DUP1 PUSH3 0x4F6 JUMP JUMPDEST DUP6 DUP8 ADD MLOAD DUP9 SSTORE SWAP1 SWAP7 ADD SWAP6 SWAP5 DUP6 ADD SWAP5 DUP8 SWAP4 POP SWAP1 DUP2 ADD SWAP1 PUSH3 0x4E3 JUMP JUMPDEST PUSH3 0x55B SWAP1 DUP7 PUSH1 0x0 MSTORE PUSH1 0x1F DUP5 PUSH1 0x0 KECCAK256 SWAP2 ADD DUP8 SHR DUP2 ADD SWAP1 PUSH1 0x1F DUP7 ADD DUP9 SHR ADD PUSH3 0x39D JUMP JUMPDEST CODESIZE PUSH3 0x48E JUMP JUMPDEST PUSH4 0x4E487B71 PUSH1 0xE0 SHL PUSH1 0x0 MSTORE PUSH1 0x22 PUSH1 0x4 MSTORE PUSH1 0x24 PUSH1 0x0 REVERT JUMPDEST SWAP1 PUSH1 0x7F AND SWAP1 PUSH3 0x47B JUMP JUMPDEST DUP1 MLOAD PUSH1 0x20 SWAP1 DUP2 DUP2 LT ISZERO PUSH3 0x611 JUMPI POP PUSH1 0x1F DUP3 MLOAD GT PUSH3 0x5B0 JUMPI DUP1 DUP3 MLOAD SWAP3 ADD MLOAD SWAP1 DUP1 DUP4 LT PUSH3 0x3E5 JUMPI POP OR SWAP1 JUMP JUMPDEST SWAP1 PUSH1 0x40 MLOAD DUP1 SWAP3 PUSH4 0x305A27A9 PUSH1 0xE0 SHL DUP3 MSTORE DUP1 PUSH1 0x4 DUP4 ADD MSTORE DUP3 MLOAD SWAP1 DUP2 PUSH1 0x24 DUP5 ADD MSTORE PUSH1 0x0 SWAP4 JUMPDEST DUP3 DUP6 LT PUSH3 0x5F7 JUMPI POP POP PUSH1 0x44 SWAP3 POP PUSH1 0x0 DUP4 DUP3 DUP5 ADD ADD MSTORE PUSH1 0x1F DUP1 NOT SWAP2 ADD AND DUP2 ADD SUB ADD SWAP1 REVERT JUMPDEST DUP5 DUP2 ADD DUP3 ADD MLOAD DUP7 DUP7 ADD PUSH1 0x44 ADD MSTORE SWAP4 DUP2 ADD SWAP4 DUP6 SWAP4 POP PUSH3 0x5D3 JUMP JUMPDEST SWAP1 PUSH1 0x1 PUSH1 0x1 PUSH1 0x40 SHL SUB DUP3 GT PUSH3 0x2F9 JUMPI PUSH1 0x6 SLOAD SWAP3 PUSH1 0x1 SWAP4 DUP5 DUP2 DUP2 SHR SWAP2 AND DUP1 ISZERO PUSH3 0x723 JUMPI JUMPDEST DUP4 DUP3 LT EQ PUSH3 0x562 JUMPI PUSH1 0x1F DUP2 GT PUSH3 0x6F6 JUMPI JUMPDEST POP DUP2 PUSH1 0x1F DUP5 GT PUSH1 0x1 EQ PUSH3 0x68A JUMPI POP SWAP3 DUP3 SWAP4 SWAP2 DUP4 SWAP3 PUSH1 0x0 SWAP5 PUSH3 0x67E JUMPI JUMPDEST POP POP SHL SWAP2 PUSH1 0x0 NOT SWAP1 PUSH1 0x3 SHL SHR NOT AND OR PUSH1 0x6 SSTORE PUSH1 0xFF SWAP1 JUMP JUMPDEST ADD MLOAD SWAP3 POP CODESIZE DUP1 PUSH3 0x667 JUMP JUMPDEST SWAP2 SWAP1 DUP4 PUSH1 0x1F NOT DUP2 AND PUSH1 0x6 PUSH1 0x0 MSTORE DUP5 PUSH1 0x0 KECCAK256 SWAP5 PUSH1 0x0 SWAP1 JUMPDEST DUP9 DUP4 DUP4 LT PUSH3 0x6DB JUMPI POP POP POP LT PUSH3 0x6C1 JUMPI JUMPDEST POP POP POP DUP2 SHL ADD PUSH1 0x6 SSTORE PUSH1 0xFF SWAP1 JUMP JUMPDEST ADD MLOAD PUSH1 0x0 NOT PUSH1 0xF8 DUP5 PUSH1 0x3 SHL AND SHR NOT AND SWAP1 SSTORE CODESIZE DUP1 DUP1 PUSH3 0x6B3 JUMP JUMPDEST DUP6 DUP8 ADD MLOAD DUP9 SSTORE SWAP1 SWAP7 ADD SWAP6 SWAP5 DUP6 ADD SWAP5 DUP8 SWAP4 POP SWAP1 DUP2 ADD SWAP1 PUSH3 0x6A0 JUMP JUMPDEST PUSH3 0x71C SWAP1 PUSH1 0x6 PUSH1 0x0 MSTORE PUSH1 0x1F DUP5 PUSH1 0x0 KECCAK256 SWAP2 ADD PUSH1 0x5 SHR DUP2 ADD SWAP1 PUSH1 0x1F DUP7 ADD PUSH1 0x5 SHR ADD PUSH3 0x39D JUMP JUMPDEST CODESIZE PUSH3 0x649 JUMP JUMPDEST SWAP1 PUSH1 0x7F AND SWAP1 PUSH3 0x636 JUMP INVALID PUSH1 0x80 PUSH1 0x40 MSTORE PUSH1 0x4 CALLDATASIZE LT ISZERO PUSH2 0x12 JUMPI PUSH1 0x0 DUP1 REVERT JUMPDEST PUSH1 0x0 CALLDATALOAD PUSH1 0xE0 SHR DUP1 PUSH4 0x25E7C27 EQ PUSH2 0xDCB JUMPI DUP1 PUSH4 0x86BB259 EQ PUSH2 0xD8C JUMPI DUP1 PUSH4 0x173825D9 EQ PUSH2 0xC4D JUMPI DUP1 PUSH4 0x375B74C3 EQ PUSH2 0xC24 JUMPI DUP1 PUSH4 0x39F636AB EQ PUSH2 0xBAB JUMPI DUP1 PUSH4 0x42CDE4E8 EQ PUSH2 0xB8D JUMPI DUP1 PUSH4 0x46A1A095 EQ PUSH2 0xAF3 JUMPI DUP1 PUSH4 0x5D4BC638 EQ PUSH2 0xAC0 JUMPI DUP1 PUSH4 0x6550DB52 EQ PUSH2 0x999 JUMPI DUP1 PUSH4 0x7065CB48 EQ PUSH2 0x8BA JUMPI DUP1 PUSH4 0x7B407783 EQ PUSH2 0x75F JUMPI DUP1 PUSH4 0x84B0196E EQ PUSH2 0x655 JUMPI DUP1 PUSH4 0x8D068043 EQ PUSH2 0x637 JUMPI DUP1 PUSH4 0x9B7B7B1E EQ PUSH2 0x619 JUMPI DUP1 PUSH4 0xA0E67E2B EQ PUSH2 0x559 JUMPI DUP1 PUSH4 0xCD9D6AEE EQ PUSH2 0x387 JUMPI DUP1 PUSH4 0xCFAC4B31 EQ PUSH2 0x13C JUMPI PUSH4 0xF2F4655E EQ PUSH2 0xE2 JUMPI PUSH1 0x0 DUP1 REVERT JUMPDEST CALLVALUE PUSH2 0x137 JUMPI PUSH1 0x20 CALLDATASIZE PUSH1 0x3 NOT ADD SLT PUSH2 0x137 JUMPI PUSH2 0xFB PUSH2 0xE5A JUMP JUMPDEST PUSH1 0x0 SLOAD SWAP1 PUSH1 0x1 PUSH1 0x1 PUSH1 0xA0 SHL SUB SWAP1 DUP2 DUP4 AND CALLER SUB PUSH2 0x125 JUMPI PUSH1 0x1 PUSH1 0x1 PUSH1 0xA0 SHL SUB NOT SWAP1 SWAP3 AND SWAP2 AND OR PUSH1 0x0 SSTORE STOP JUMPDEST PUSH1 0x40 MLOAD PUSH4 0x918CB1DD PUSH1 0xE0 SHL DUP2 MSTORE PUSH1 0x4 SWAP1 REVERT JUMPDEST PUSH1 0x0 DUP1 REVERT JUMPDEST CALLVALUE PUSH2 0x137 JUMPI PUSH1 0x60 CALLDATASIZE PUSH1 0x3 NOT ADD SLT PUSH2 0x137 JUMPI PUSH2 0x155 PUSH2 0xE5A JUMP JUMPDEST PUSH1 0x24 CALLDATALOAD PUSH1 0x1 PUSH1 0x1 PUSH1 0x80 SHL SUB SWAP2 DUP3 DUP3 AND DUP1 SWAP3 SUB PUSH2 0x137 JUMPI PUSH1 0x44 CALLDATALOAD SWAP1 PUSH4 0xFFFFFFFF SWAP1 DUP2 DUP4 AND SWAP2 DUP3 DUP5 SUB PUSH2 0x137 JUMPI CALLER PUSH1 0x0 MSTORE PUSH1 0x2 PUSH1 0x20 MSTORE PUSH1 0xFF PUSH1 0x40 PUSH1 0x0 KECCAK256 SLOAD AND ISZERO PUSH2 0x375 JUMPI DUP5 ISZERO PUSH2 0x363 JUMPI DUP3 ISZERO PUSH2 0x351 JUMPI PUSH2 0x1BE PUSH1 0x8 SLOAD SWAP5 PUSH2 0x1B3 DUP7 PUSH2 0x115A JUMP JUMPDEST PUSH1 0x8 SSTORE DUP3 TIMESTAMP AND PUSH2 0x1169 JUMP JUMPDEST SWAP2 PUSH1 0x40 MLOAD PUSH2 0x100 DUP2 ADD DUP2 DUP2 LT PUSH8 0xFFFFFFFFFFFFFFFF DUP3 GT OR PUSH2 0x33B JUMPI PUSH1 0x40 MSTORE CALLER DUP2 MSTORE PUSH1 0x20 DUP2 ADD SWAP1 PUSH1 0x1 PUSH1 0xA0 SHL PUSH1 0x1 SWAP1 SUB DUP1 SWAP4 AND SWAP9 DUP10 DUP4 MSTORE PUSH1 0x40 DUP3 ADD SWAP5 DUP10 DUP7 MSTORE DUP1 PUSH1 0x60 DUP5 ADD SWAP8 AND SWAP7 DUP8 DUP2 MSTORE PUSH1 0x80 DUP5 ADD SWAP3 DUP10 DUP5 MSTORE PUSH1 0xA0 DUP6 ADD SWAP5 PUSH1 0x0 DUP7 MSTORE PUSH1 0xC0 DUP2 ADD SWAP7 PUSH1 0x0 DUP9 MSTORE PUSH1 0xE0 DUP3 ADD SWAP9 PUSH1 0x0 DUP11 MSTORE DUP14 PUSH1 0x0 MSTORE PUSH1 0x7 PUSH1 0x20 MSTORE DUP1 PUSH1 0x40 PUSH1 0x0 KECCAK256 SWAP4 MLOAD AND SWAP1 PUSH12 0xFFFFFFFFFFFFFFFFFFFFFFFF PUSH1 0xA0 SHL SWAP2 DUP3 DUP6 SLOAD AND OR DUP5 SSTORE PUSH1 0x1 DUP5 ADD SWAP3 MLOAD AND SWAP1 DUP3 SLOAD AND OR SWAP1 SSTORE PUSH1 0x2 ADD SWAP8 MLOAD AND PUSH1 0x1 PUSH1 0x1 PUSH1 0x80 SHL SUB NOT DUP9 SLOAD AND OR DUP8 SSTORE MLOAD AND PUSH2 0x2A1 SWAP1 DUP7 SWAP1 DUP2 SLOAD SWAP1 PUSH4 0xFFFFFFFF PUSH1 0x80 SHL SWAP1 PUSH1 0x80 SHL AND SWAP1 PUSH4 0xFFFFFFFF PUSH1 0x80 SHL NOT AND OR SWAP1 SSTORE JUMP JUMPDEST MLOAD DUP5 SLOAD SWAP2 MLOAD PUSH6 0xFFFFFFFFFFFF PUSH1 0xA0 SHL NOT SWAP1 SWAP3 AND PUSH1 0xA0 SWAP2 SWAP1 SWAP2 SHL PUSH4 0xFFFFFFFF PUSH1 0xA0 SHL AND OR PUSH1 0xC0 SWAP2 SWAP1 SWAP2 SHL PUSH2 0xFFFF PUSH1 0xC0 SHL AND OR DUP4 SSTORE MLOAD DUP3 SLOAD SWAP2 MLOAD PUSH2 0xFFFF PUSH1 0xD0 SHL NOT SWAP1 SWAP3 AND SWAP1 ISZERO ISZERO PUSH1 0xD0 SHL PUSH1 0xFF PUSH1 0xD0 SHL AND OR SWAP1 ISZERO ISZERO PUSH1 0xD8 SHL PUSH1 0xFF PUSH1 0xD8 SHL AND OR SWAP1 SSTORE PUSH1 0x40 DUP1 MLOAD SWAP5 DUP6 MSTORE PUSH1 0x20 DUP6 ADD SWAP2 SWAP1 SWAP2 MSTORE DUP4 ADD MSTORE CALLER SWAP2 PUSH32 0xB48492F1F7A38C6B22FEAEF296C0C4861F3952771682CD990C9374874A28773D SWAP1 PUSH1 0x60 SWAP1 LOG4 STOP JUMPDEST PUSH4 0x4E487B71 PUSH1 0xE0 SHL PUSH1 0x0 MSTORE PUSH1 0x41 PUSH1 0x4 MSTORE PUSH1 0x24 PUSH1 0x0 REVERT JUMPDEST PUSH1 0x40 MLOAD PUSH4 0x160C1125 PUSH1 0xE0 SHL DUP2 MSTORE PUSH1 0x4 SWAP1 REVERT JUMPDEST PUSH1 0x40 MLOAD PUSH4 0x5E85AE73 PUSH1 0xE0 SHL DUP2 MSTORE PUSH1 0x4 SWAP1 REVERT JUMPDEST PUSH1 0x40 MLOAD PUSH4 0x30CD7471 PUSH1 0xE0 SHL DUP2 MSTORE PUSH1 0x4 SWAP1 REVERT JUMPDEST CALLVALUE PUSH2 0x137 JUMPI PUSH1 0x20 CALLDATASIZE PUSH1 0x3 NOT ADD SLT PUSH2 0x137 JUMPI PUSH1 0x4 CALLDATALOAD DUP1 PUSH1 0x0 MSTORE PUSH1 0x7 PUSH1 0x20 MSTORE PUSH1 0x40 PUSH1 0x0 KECCAK256 SWAP1 PUSH1 0x2 DUP3 ADD SWAP1 DUP2 SLOAD SWAP1 PUSH1 0xFF DUP3 PUSH1 0xD0 SHR AND ISZERO DUP1 ISZERO PUSH2 0x54C JUMPI JUMPDEST PUSH2 0x53A JUMPI PUSH4 0xFFFFFFFF SWAP4 TIMESTAMP DUP6 DUP5 PUSH1 0x80 SHR AND GT PUSH2 0x528 JUMPI PUSH1 0x1 ADD SWAP4 PUSH1 0x1 DUP1 PUSH1 0xA0 SHL SUB SWAP3 PUSH1 0x20 PUSH1 0x0 DUP6 DUP9 SLOAD AND PUSH1 0x40 MLOAD DUP4 DUP2 ADD SWAP2 PUSH4 0xA9059CBB PUSH1 0xE0 SHL DUP4 MSTORE PUSH1 0x24 DUP3 ADD MSTORE PUSH1 0x1 PUSH1 0x1 PUSH1 0x80 SHL SUB DUP1 SWAP6 AND PUSH1 0x44 DUP3 ADD MSTORE PUSH1 0x44 DUP2 MSTORE PUSH2 0x41E DUP2 PUSH2 0xF00 JUMP JUMPDEST MLOAD SWAP1 DUP3 ADDRESS GAS CALL ISZERO PUSH2 0x51C JUMPI PUSH1 0x0 MLOAD RETURNDATASIZE PUSH2 0x513 JUMPI POP ADDRESS EXTCODESIZE ISZERO JUMPDEST PUSH2 0x4FB JUMPI PUSH2 0xFFFF SWAP3 DUP4 DUP7 SLOAD PUSH1 0xC0 SHR AND SWAP7 DUP5 DUP9 EQ PUSH2 0x4E5 JUMPI DUP7 SLOAD PUSH2 0xFFFF PUSH1 0xC0 SHL NOT AND PUSH1 0x1 SWAP9 SWAP1 SWAP9 ADD PUSH1 0xC0 SHL PUSH2 0xFFFF PUSH1 0xC0 SHL AND SWAP8 SWAP1 SWAP8 OR DUP7 SSTORE PUSH2 0x4E3 SWAP7 PUSH2 0x4C3 SWAP6 PUSH32 0xA91D4F2579C26D522EF9555559A2DB441D5C0F9498B6B6CDC052EACDDB567055 SWAP2 PUSH1 0x40 SWAP2 SWAP1 SLOAD AND SWAP4 DUP9 SLOAD SWAP7 DUP3 MLOAD SWAP2 DUP9 AND DUP3 MSTORE DUP8 PUSH1 0xC0 SHR AND PUSH1 0x20 DUP3 ADD MSTORE LOG3 DUP1 DUP3 PUSH1 0xA0 SHR AND SWAP2 PUSH1 0x80 SHR AND PUSH2 0x1169 JUMP JUMPDEST DUP2 SLOAD PUSH4 0xFFFFFFFF PUSH1 0x80 SHL NOT AND PUSH1 0x80 SWAP2 SWAP1 SWAP2 SHL PUSH4 0xFFFFFFFF PUSH1 0x80 SHL AND OR SWAP1 SSTORE JUMP JUMPDEST STOP JUMPDEST PUSH4 0x4E487B71 PUSH1 0xE0 SHL PUSH1 0x0 MSTORE PUSH1 0x11 PUSH1 0x4 MSTORE PUSH1 0x24 PUSH1 0x0 REVERT JUMPDEST PUSH1 0x40 MLOAD PUSH4 0x5274AFE7 PUSH1 0xE0 SHL DUP2 MSTORE ADDRESS PUSH1 0x4 DUP3 ADD MSTORE PUSH1 0x24 SWAP1 REVERT JUMPDEST PUSH1 0x1 EQ ISZERO PUSH2 0x436 JUMP JUMPDEST PUSH1 0x40 MLOAD RETURNDATASIZE PUSH1 0x0 DUP3 RETURNDATACOPY RETURNDATASIZE SWAP1 REVERT JUMPDEST PUSH1 0x40 MLOAD PUSH4 0x629D7833 PUSH1 0xE1 SHL DUP2 MSTORE PUSH1 0x4 SWAP1 REVERT JUMPDEST PUSH1 0x40 MLOAD PUSH4 0x34808F67 PUSH1 0xE2 SHL DUP2 MSTORE PUSH1 0x4 SWAP1 REVERT JUMPDEST POP PUSH1 0xFF DUP3 PUSH1 0xD8 SHR AND PUSH2 0x3C1 JUMP JUMPDEST CALLVALUE PUSH2 0x137 JUMPI PUSH1 0x0 CALLDATASIZE PUSH1 0x3 NOT ADD SLT PUSH2 0x137 JUMPI PUSH1 0x40 MLOAD DUP1 PUSH1 0x1 DUP1 SLOAD SWAP3 DUP4 DUP2 MSTORE PUSH1 0x20 DUP1 SWAP2 ADD DUP1 SWAP5 DUP4 PUSH1 0x0 MSTORE PUSH32 0xB10E2D527612073B26EECDFD717E6A320CF44B4AFAC2B0732D9FCBE2B7FA0CF6 SWAP1 PUSH1 0x0 JUMPDEST DUP2 DUP2 LT PUSH2 0x5FD JUMPI POP POP POP DUP4 PUSH2 0x5BC SWAP2 SUB DUP5 PUSH2 0xF38 JUMP JUMPDEST PUSH1 0x40 MLOAD SWAP3 DUP2 DUP5 ADD SWAP1 DUP3 DUP6 MSTORE MLOAD DUP1 SWAP2 MSTORE PUSH1 0x40 DUP5 ADD SWAP5 SWAP2 PUSH1 0x0 JUMPDEST DUP3 DUP2 LT PUSH2 0x5E1 JUMPI DUP6 DUP8 SUB DUP7 RETURN JUMPDEST DUP4 MLOAD PUSH1 0x1 PUSH1 0x1 PUSH1 0xA0 SHL SUB AND DUP8 MSTORE SWAP6 DUP2 ADD SWAP6 SWAP3 DUP2 ADD SWAP3 DUP5 ADD PUSH2 0x5D4 JUMP JUMPDEST DUP3 SLOAD PUSH1 0x1 PUSH1 0x1 PUSH1 0xA0 SHL SUB AND DUP5 MSTORE SWAP3 DUP5 ADD SWAP3 SWAP2 DUP6 ADD SWAP2 DUP6 ADD PUSH2 0x5A6 JUMP JUMPDEST CALLVALUE PUSH2 0x137 JUMPI PUSH1 0x0 CALLDATASIZE PUSH1 0x3 NOT ADD SLT PUSH2 0x137 JUMPI PUSH1 0x20 PUSH1 0x8 SLOAD PUSH1 0x40 MLOAD SWAP1 DUP2 MSTORE RETURN JUMPDEST CALLVALUE PUSH2 0x137 JUMPI PUSH1 0x0 CALLDATASIZE PUSH1 0x3 NOT ADD SLT PUSH2 0x137 JUMPI PUSH1 0x20 PUSH1 0x3 SLOAD PUSH1 0x40 MLOAD SWAP1 DUP2 MSTORE RETURN JUMPDEST CALLVALUE PUSH2 0x137 JUMPI PUSH1 0x0 CALLDATASIZE PUSH1 0x3 NOT ADD SLT PUSH2 0x137 JUMPI PUSH2 0x68F PUSH32 0x0 PUSH2 0xF5A JUMP JUMPDEST PUSH2 0x6B8 PUSH32 0x0 PUSH2 0x1084 JUMP JUMPDEST PUSH1 0x40 MLOAD PUSH1 0x20 DUP1 DUP3 ADD SWAP3 DUP3 DUP5 LT PUSH8 0xFFFFFFFFFFFFFFFF DUP6 GT OR PUSH2 0x33B JUMPI SWAP2 DUP2 PUSH2 0x712 DUP6 SWAP5 PUSH2 0x704 SWAP8 SWAP7 PUSH1 0x40 MSTORE PUSH1 0x0 DUP5 MSTORE PUSH1 0x40 MLOAD SWAP8 DUP9 SWAP8 PUSH1 0xF PUSH1 0xF8 SHL DUP10 MSTORE PUSH1 0xE0 DUP6 DUP11 ADD MSTORE PUSH1 0xE0 DUP10 ADD SWAP1 PUSH2 0xEC0 JUMP JUMPDEST SWAP1 DUP8 DUP3 SUB PUSH1 0x40 DUP10 ADD MSTORE PUSH2 0xEC0 JUMP JUMPDEST SWAP2 CHAINID PUSH1 0x60 DUP8 ADD MSTORE ADDRESS PUSH1 0x80 DUP8 ADD MSTORE PUSH1 0x0 PUSH1 0xA0 DUP8 ADD MSTORE DUP6 DUP4 SUB PUSH1 0xC0 DUP8 ADD MSTORE MLOAD SWAP2 DUP3 DUP2 MSTORE ADD SWAP3 SWAP2 PUSH1 0x0 JUMPDEST DUP3 DUP2 LT PUSH2 0x748 JUMPI POP POP POP POP SUB SWAP1 RETURN JUMPDEST DUP4 MLOAD DUP6 MSTORE DUP7 SWAP6 POP SWAP4 DUP2 ADD SWAP4 SWAP3 DUP2 ADD SWAP3 PUSH1 0x1 ADD PUSH2 0x739 JUMP JUMPDEST CALLVALUE PUSH2 0x137 JUMPI PUSH2 0x76D CALLDATASIZE PUSH2 0xE70 JUMP JUMPDEST SWAP1 DUP3 PUSH1 0x0 MSTORE PUSH1 0x7 PUSH1 0x20 MSTORE PUSH1 0x40 PUSH1 0x0 KECCAK256 SWAP2 PUSH1 0x2 DUP4 ADD SLOAD SWAP2 PUSH1 0xFF DUP4 PUSH1 0xD8 SHR AND PUSH2 0x8A8 JUMPI PUSH1 0x4 SLOAD PUSH1 0x1 PUSH1 0x1 PUSH1 0x80 SHL SUB DUP5 AND GT ISZERO PUSH2 0x8A0 JUMPI PUSH1 0x3 SLOAD SWAP2 JUMPDEST DUP3 DUP2 LT PUSH2 0x88E JUMPI PUSH1 0x1 DUP6 ADD SLOAD PUSH1 0x0 SWAP3 SWAP2 PUSH1 0x1 PUSH1 0x1 PUSH1 0xA0 SHL SUB SWAP1 SWAP2 AND SWAP1 DUP4 JUMPDEST DUP2 DUP2 LT PUSH2 0x821 JUMPI POP POP POP POP LT PUSH2 0x80F JUMPI PUSH1 0xFF PUSH1 0xD8 SHL NOT AND PUSH1 0x1 PUSH1 0xD8 SHL OR PUSH1 0x2 SWAP2 SWAP1 SWAP2 ADD SSTORE PUSH32 0x2D8C53F76EB0AFAB114916B6C3AA17406AD39C7E874C92B099F79AB89C2E2A54 PUSH1 0x0 DUP1 LOG2 STOP JUMPDEST PUSH1 0x40 MLOAD PUSH4 0x40A2B1A3 PUSH1 0xE0 SHL DUP2 MSTORE PUSH1 0x4 SWAP1 REVERT JUMPDEST PUSH2 0x844 PUSH2 0x854 PUSH2 0x832 DUP4 DUP6 DUP9 PUSH2 0x1181 JUMP JUMPDEST PUSH1 0x1 PUSH1 0x1 PUSH1 0xA0 SHL SUB SWAP4 SWAP2 CALLDATASIZE SWAP2 SWAP1 PUSH2 0x11C3 JUMP JUMPDEST PUSH1 0x1 PUSH1 0x1 PUSH1 0x80 SHL SUB DUP11 AND DUP7 PUSH2 0x120A JUMP JUMPDEST AND PUSH1 0x0 MSTORE PUSH1 0x2 PUSH1 0x20 MSTORE PUSH1 0xFF PUSH1 0x40 PUSH1 0x0 KECCAK256 SLOAD AND PUSH2 0x879 JUMPI JUMPDEST PUSH2 0x874 SWAP1 PUSH2 0x115A JUMP JUMPDEST PUSH2 0x7C4 JUMP JUMPDEST SWAP4 PUSH2 0x886 PUSH2 0x874 SWAP2 PUSH2 0x115A JUMP JUMPDEST SWAP5 SWAP1 POP PUSH2 0x86B JUMP JUMPDEST PUSH1 0x40 MLOAD PUSH4 0xE246DC63 PUSH1 0xE0 SHL DUP2 MSTORE PUSH1 0x4 SWAP1 REVERT JUMPDEST PUSH1 0x1 SWAP2 PUSH2 0x7A6 JUMP JUMPDEST PUSH1 0x40 MLOAD PUSH4 0x1F10CFF1 PUSH1 0xE0 SHL DUP2 MSTORE PUSH1 0x4 SWAP1 REVERT JUMPDEST CALLVALUE PUSH2 0x137 JUMPI PUSH1 0x20 CALLDATASIZE PUSH1 0x3 NOT ADD SLT PUSH2 0x137 JUMPI PUSH2 0x8D3 PUSH2 0xE5A JUMP JUMPDEST PUSH1 0x0 SLOAD PUSH1 0x1 PUSH1 0x1 PUSH1 0xA0 SHL SUB SWAP1 DUP2 AND CALLER SUB PUSH2 0x125 JUMPI DUP2 AND SWAP1 DUP2 PUSH1 0x0 MSTORE PUSH1 0x2 PUSH1 0x20 MSTORE PUSH1 0xFF PUSH1 0x40 PUSH1 0x0 KECCAK256 SLOAD AND PUSH2 0x987 JUMPI PUSH1 0x1 SLOAD SWAP1 PUSH9 0x10000000000000000 DUP3 LT ISZERO PUSH2 0x33B JUMPI PUSH2 0x928 DUP3 PUSH1 0x1 PUSH2 0x947 SWAP5 ADD PUSH1 0x1 SSTORE PUSH2 0xE0D JUMP JUMPDEST SWAP1 SWAP2 SWAP1 DUP3 SLOAD SWAP1 PUSH1 0x3 SHL SWAP2 PUSH1 0x1 DUP1 PUSH1 0xA0 SHL SUB DUP1 SWAP2 AND DUP4 SHL SWAP3 SHL NOT AND OR SWAP1 SSTORE JUMP JUMPDEST DUP1 PUSH1 0x0 MSTORE PUSH1 0x2 PUSH1 0x20 MSTORE PUSH1 0x40 PUSH1 0x0 KECCAK256 PUSH1 0x1 PUSH1 0xFF NOT DUP3 SLOAD AND OR SWAP1 SSTORE PUSH32 0x994A936646FE87FFE4F1E469D3D6AA417D6B855598397F323DE5B449F765F0C3 PUSH1 0x0 DUP1 LOG2 STOP JUMPDEST PUSH1 0x40 MLOAD PUSH4 0x25CFE06F PUSH1 0xE1 SHL DUP2 MSTORE PUSH1 0x4 SWAP1 REVERT JUMPDEST CALLVALUE PUSH2 0x137 JUMPI PUSH2 0x9A7 CALLDATASIZE PUSH2 0xE70 JUMP JUMPDEST DUP3 PUSH1 0x0 MSTORE PUSH1 0x20 PUSH1 0x7 DUP2 MSTORE PUSH1 0x40 PUSH1 0x0 KECCAK256 SWAP3 PUSH1 0x2 DUP5 ADD SLOAD SWAP3 PUSH1 0xFF DUP5 PUSH1 0xD0 SHR AND DUP1 ISZERO PUSH2 0xAB3 JUMPI JUMPDEST PUSH2 0x8A8 JUMPI PUSH1 0x4 SLOAD PUSH1 0x1 PUSH1 0x1 PUSH1 0x80 SHL SUB DUP6 AND GT ISZERO PUSH2 0xAAB JUMPI PUSH1 0x3 SLOAD SWAP3 JUMPDEST DUP4 DUP3 LT PUSH2 0x88E JUMPI PUSH1 0x1 DUP7 ADD SLOAD PUSH1 0x0 SWAP4 SWAP3 PUSH1 0x1 PUSH1 0x1 PUSH1 0xA0 SHL SUB SWAP1 SWAP2 AND SWAP1 DUP5 JUMPDEST DUP2 DUP2 LT PUSH2 0xA51 JUMPI POP POP POP POP POP LT PUSH2 0x80F JUMPI PUSH1 0xFF PUSH1 0xD0 SHL NOT AND PUSH1 0x1 PUSH1 0xD0 SHL OR PUSH1 0x2 SWAP2 SWAP1 SWAP2 ADD SSTORE PUSH32 0xF282FEB59A77879C639D8E34C39A6D8D8DB1E147493DE31406690AC4FD5733F PUSH1 0x0 DUP1 LOG2 STOP JUMPDEST PUSH2 0xA62 PUSH2 0xA72 PUSH2 0x832 DUP4 DUP6 DUP10 PUSH2 0x1181 JUMP JUMPDEST PUSH1 0x1 PUSH1 0x1 PUSH1 0x80 SHL SUB DUP12 AND DUP7 PUSH2 0x120A JUMP JUMPDEST AND PUSH1 0x0 MSTORE PUSH1 0x2 DUP5 MSTORE PUSH1 0xFF PUSH1 0x40 PUSH1 0x0 KECCAK256 SLOAD AND PUSH2 0xA96 JUMPI JUMPDEST PUSH2 0xA91 SWAP1 PUSH2 0x115A JUMP JUMPDEST PUSH2 0xA05 JUMP JUMPDEST SWAP5 PUSH2 0xAA3 PUSH2 0xA91 SWAP2 PUSH2 0x115A JUMP JUMPDEST SWAP6 SWAP1 POP PUSH2 0xA88 JUMP JUMPDEST PUSH1 0x1 SWAP3 PUSH2 0x9E7 JUMP JUMPDEST POP PUSH1 0xFF DUP5 PUSH1 0xD8 SHR AND PUSH2 0x9CB JUMP JUMPDEST CALLVALUE PUSH2 0x137 JUMPI PUSH1 0x0 CALLDATASIZE PUSH1 0x3 NOT ADD SLT PUSH2 0x137 JUMPI PUSH1 0x0 SLOAD PUSH1 0x1 PUSH1 0x1 PUSH1 0xA0 SHL SUB DUP2 AND CALLER SUB PUSH2 0x125 JUMPI PUSH1 0x1 PUSH1 0x1 PUSH1 0xA0 SHL SUB NOT AND PUSH1 0x0 SSTORE STOP JUMPDEST CALLVALUE PUSH2 0x137 JUMPI PUSH1 0x20 CALLDATASIZE PUSH1 0x3 NOT ADD SLT PUSH2 0x137 JUMPI PUSH1 0x4 CALLDATALOAD PUSH1 0x0 MSTORE PUSH1 0x7 PUSH1 0x20 MSTORE PUSH2 0x100 PUSH1 0x40 PUSH1 0x0 KECCAK256 PUSH1 0xFF PUSH1 0x1 DUP1 PUSH1 0xA0 SHL SUB SWAP2 PUSH1 0x2 DUP4 DUP3 SLOAD AND SWAP4 PUSH1 0x1 DUP4 ADD SLOAD AND SWAP2 ADD SLOAD SWAP1 PUSH1 0x40 MLOAD SWAP4 DUP5 MSTORE PUSH1 0x20 DUP5 ADD MSTORE PUSH1 0x1 PUSH1 0x1 PUSH1 0x80 SHL SUB DUP2 AND PUSH1 0x40 DUP5 ADD MSTORE PUSH4 0xFFFFFFFF DUP1 DUP3 PUSH1 0x80 SHR AND PUSH1 0x60 DUP6 ADD MSTORE DUP2 PUSH1 0xA0 SHR AND PUSH1 0x80 DUP5 ADD MSTORE PUSH2 0xFFFF DUP2 PUSH1 0xC0 SHR AND PUSH1 0xA0 DUP5 ADD MSTORE DUP2 DUP2 PUSH1 0xD0 SHR AND ISZERO ISZERO PUSH1 0xC0 DUP5 ADD MSTORE PUSH1 0xD8 SHR AND ISZERO ISZERO PUSH1 0xE0 DUP3 ADD MSTORE RETURN JUMPDEST CALLVALUE PUSH2 0x137 JUMPI PUSH1 0x0 CALLDATASIZE PUSH1 0x3 NOT ADD SLT PUSH2 0x137 JUMPI PUSH1 0x20 PUSH1 0x4 SLOAD PUSH1 0x40 MLOAD SWAP1 DUP2 MSTORE RETURN JUMPDEST CALLVALUE PUSH2 0x137 JUMPI PUSH1 0x20 CALLDATASIZE PUSH1 0x3 NOT ADD SLT PUSH2 0x137 JUMPI PUSH1 0x0 SLOAD PUSH1 0x4 CALLDATALOAD SWAP1 PUSH1 0x1 PUSH1 0x1 PUSH1 0xA0 SHL SUB AND CALLER SUB PUSH2 0x125 JUMPI PUSH1 0x1 SLOAD DUP2 GT PUSH2 0xC0C JUMPI PUSH1 0x20 DUP2 PUSH32 0x10DBC913050D3180C3B99F7DA91FD514AF7CBC9C1BB59A0DA5D2BC38F0CF395A SWAP3 PUSH1 0x3 SSTORE PUSH1 0x40 MLOAD SWAP1 DUP2 MSTORE LOG1 STOP JUMPDEST PUSH1 0x24 SWAP1 PUSH1 0x40 MLOAD SWAP1 PUSH4 0x362BF2D PUSH1 0xE5 SHL DUP3 MSTORE PUSH1 0x4 DUP3 ADD MSTORE REVERT JUMPDEST CALLVALUE PUSH2 0x137 JUMPI PUSH1 0x0 CALLDATASIZE PUSH1 0x3 NOT ADD SLT PUSH2 0x137 JUMPI PUSH1 0x0 SLOAD PUSH1 0x40 MLOAD PUSH1 0x1 PUSH1 0x1 PUSH1 0xA0 SHL SUB SWAP1 SWAP2 AND DUP2 MSTORE PUSH1 0x20 SWAP1 RETURN JUMPDEST CALLVALUE PUSH2 0x137 JUMPI PUSH1 0x20 CALLDATASIZE PUSH1 0x3 NOT ADD SLT PUSH2 0x137 JUMPI PUSH2 0xC66 PUSH2 0xE5A JUMP JUMPDEST PUSH1 0x0 SLOAD PUSH1 0x1 PUSH1 0x1 PUSH1 0xA0 SHL SUB SWAP1 DUP2 AND CALLER SUB PUSH2 0x125 JUMPI DUP1 DUP3 AND SWAP2 DUP3 PUSH1 0x0 MSTORE PUSH1 0x2 PUSH1 0x20 MSTORE PUSH1 0xFF PUSH1 0x40 PUSH1 0x0 KECCAK256 SLOAD AND ISZERO PUSH2 0xD7A JUMPI PUSH2 0xC9E SWAP1 PUSH2 0x1533 JUMP JUMPDEST PUSH1 0x1 SLOAD PUSH1 0x0 NOT SWAP2 SWAP1 DUP3 DUP2 ADD SWAP1 DUP2 GT PUSH2 0x4E5 JUMPI DUP2 DUP2 DUP6 SWAP4 SUB PUSH2 0xD34 JUMPI JUMPDEST POP POP POP PUSH1 0x1 SLOAD DUP1 ISZERO PUSH2 0xD1E JUMPI ADD SWAP1 PUSH2 0xCD1 DUP3 PUSH2 0xE0D JUMP JUMPDEST SWAP1 SWAP2 DUP3 SLOAD SWAP2 PUSH1 0x3 SHL SHL NOT AND SWAP1 SSTORE PUSH1 0x1 SSTORE DUP1 PUSH1 0x0 MSTORE PUSH1 0x2 PUSH1 0x20 MSTORE PUSH1 0x40 PUSH1 0x0 KECCAK256 PUSH1 0xFF NOT DUP2 SLOAD AND SWAP1 SSTORE PUSH32 0x58619076ADF5BB0943D100EF88D52D7C3FD691B19D3A9071B555B651FBF418DA PUSH1 0x0 DUP1 LOG2 STOP JUMPDEST PUSH4 0x4E487B71 PUSH1 0xE0 SHL PUSH1 0x0 MSTORE PUSH1 0x31 PUSH1 0x4 MSTORE PUSH1 0x24 PUSH1 0x0 REVERT JUMPDEST PUSH2 0xD72 SWAP3 PUSH2 0xD44 PUSH2 0xD4D SWAP4 PUSH2 0xE0D JUMP JUMPDEST SWAP4 SWAP1 SLOAD SWAP3 PUSH2 0xE0D JUMP JUMPDEST SWAP3 SWAP1 SWAP4 PUSH1 0x3 SHL SHR AND SWAP1 DUP3 SLOAD SWAP1 PUSH1 0x3 SHL SWAP2 PUSH1 0x1 DUP1 PUSH1 0xA0 SHL SUB DUP1 SWAP2 AND DUP4 SHL SWAP3 SHL NOT AND OR SWAP1 SSTORE JUMP JUMPDEST DUP2 DUP5 DUP1 PUSH2 0xCBA JUMP JUMPDEST PUSH1 0x40 MLOAD PUSH4 0x1DD523FF PUSH1 0xE3 SHL DUP2 MSTORE PUSH1 0x4 SWAP1 REVERT JUMPDEST CALLVALUE PUSH2 0x137 JUMPI PUSH1 0x20 CALLDATASIZE PUSH1 0x3 NOT ADD SLT PUSH2 0x137 JUMPI PUSH1 0x1 PUSH1 0x1 PUSH1 0xA0 SHL SUB PUSH2 0xDAD PUSH2 0xE5A JUMP JUMPDEST AND PUSH1 0x0 MSTORE PUSH1 0x2 PUSH1 0x20 MSTORE PUSH1 0x20 PUSH1 0xFF PUSH1 0x40 PUSH1 0x0 KECCAK256 SLOAD AND PUSH1 0x40 MLOAD SWAP1 ISZERO ISZERO DUP2 MSTORE RETURN JUMPDEST CALLVALUE PUSH2 0x137 JUMPI PUSH1 0x20 CALLDATASIZE PUSH1 0x3 NOT ADD SLT PUSH2 0x137 JUMPI PUSH1 0x4 CALLDATALOAD PUSH1 0x1 SLOAD DUP2 LT ISZERO PUSH2 0x137 JUMPI PUSH2 0xDF4 PUSH1 0x20 SWAP2 PUSH2 0xE0D JUMP JUMPDEST SWAP1 SLOAD PUSH1 0x40 MLOAD PUSH1 0x3 SWAP3 SWAP1 SWAP3 SHL SHR PUSH1 0x1 PUSH1 0x1 PUSH1 0xA0 SHL SUB AND DUP2 MSTORE RETURN JUMPDEST PUSH1 0x1 SLOAD DUP2 LT ISZERO PUSH2 0xE44 JUMPI PUSH1 0x1 PUSH1 0x0 MSTORE PUSH32 0xB10E2D527612073B26EECDFD717E6A320CF44B4AFAC2B0732D9FCBE2B7FA0CF6 ADD SWAP1 PUSH1 0x0 SWAP1 JUMP JUMPDEST PUSH4 0x4E487B71 PUSH1 0xE0 SHL PUSH1 0x0 MSTORE PUSH1 0x32 PUSH1 0x4 MSTORE PUSH1 0x24 PUSH1 0x0 REVERT JUMPDEST PUSH1 0x4 CALLDATALOAD SWAP1 PUSH1 0x1 PUSH1 0x1 PUSH1 0xA0 SHL SUB DUP3 AND DUP3 SUB PUSH2 0x137 JUMPI JUMP JUMPDEST PUSH1 0x40 PUSH1 0x3 NOT DUP3 ADD SLT PUSH2 0x137 JUMPI PUSH1 0x4 CALLDATALOAD SWAP2 PUSH1 0x24 CALLDATALOAD PUSH8 0xFFFFFFFFFFFFFFFF SWAP3 DUP4 DUP3 GT PUSH2 0x137 JUMPI DUP1 PUSH1 0x23 DUP4 ADD SLT ISZERO PUSH2 0x137 JUMPI DUP2 PUSH1 0x4 ADD CALLDATALOAD SWAP4 DUP5 GT PUSH2 0x137 JUMPI PUSH1 0x24 DUP5 PUSH1 0x5 SHL DUP4 ADD ADD GT PUSH2 0x137 JUMPI PUSH1 0x24 ADD SWAP2 SWAP1 JUMP JUMPDEST SWAP2 SWAP1 DUP3 MLOAD SWAP3 DUP4 DUP3 MSTORE PUSH1 0x0 JUMPDEST DUP5 DUP2 LT PUSH2 0xEEC JUMPI POP POP DUP3 PUSH1 0x0 PUSH1 0x20 DUP1 SWAP5 SWAP6 DUP5 ADD ADD MSTORE PUSH1 0x1F DUP1 NOT SWAP2 ADD AND ADD ADD SWAP1 JUMP JUMPDEST PUSH1 0x20 DUP2 DUP4 ADD DUP2 ADD MLOAD DUP5 DUP4 ADD DUP3 ADD MSTORE ADD PUSH2 0xECB JUMP JUMPDEST PUSH1 0x80 DUP2 ADD SWAP1 DUP2 LT PUSH8 0xFFFFFFFFFFFFFFFF DUP3 GT OR PUSH2 0x33B JUMPI PUSH1 0x40 MSTORE JUMP JUMPDEST PUSH1 0x40 DUP2 ADD SWAP1 DUP2 LT PUSH8 0xFFFFFFFFFFFFFFFF DUP3 GT OR PUSH2 0x33B JUMPI PUSH1 0x40 MSTORE JUMP JUMPDEST SWAP1 PUSH1 0x1F DUP1 NOT SWAP2 ADD AND DUP2 ADD SWAP1 DUP2 LT PUSH8 0xFFFFFFFFFFFFFFFF DUP3 GT OR PUSH2 0x33B JUMPI PUSH1 0x40 MSTORE JUMP JUMPDEST PUSH1 0xFF DUP2 EQ PUSH2 0xF98 JUMPI PUSH1 0xFF DUP2 AND SWAP1 PUSH1 0x1F DUP3 GT PUSH2 0xF86 JUMPI PUSH1 0x40 MLOAD SWAP2 PUSH2 0xF7C DUP4 PUSH2 0xF1C JUMP JUMPDEST DUP3 MSTORE PUSH1 0x20 DUP3 ADD MSTORE SWAP1 JUMP JUMPDEST PUSH1 0x40 MLOAD PUSH4 0x2CD44AC3 PUSH1 0xE2 SHL DUP2 MSTORE PUSH1 0x4 SWAP1 REVERT JUMPDEST POP PUSH1 0x40 MLOAD PUSH1 0x0 PUSH1 0x5 SLOAD SWAP1 PUSH1 0x1 DUP3 DUP2 SHR SWAP1 DUP1 DUP5 AND SWAP4 DUP5 ISZERO PUSH2 0x107A JUMPI JUMPDEST PUSH1 0x20 SWAP5 DUP6 DUP5 LT DUP2 EQ PUSH2 0x1066 JUMPI DUP4 DUP8 MSTORE DUP7 SWAP5 SWAP4 SWAP3 SWAP2 DUP2 ISZERO PUSH2 0x1046 JUMPI POP PUSH1 0x1 EQ PUSH2 0xFE7 JUMPI JUMPDEST POP POP PUSH2 0xFE4 SWAP3 POP SUB DUP3 PUSH2 0xF38 JUMP JUMPDEST SWAP1 JUMP JUMPDEST SWAP1 SWAP4 SWAP2 POP PUSH1 0x5 PUSH1 0x0 MSTORE PUSH32 0x36B6384B5ECA791C62761152D0C79BB0604C104A5FB6F4EB0703F3154BB3DB0 SWAP4 PUSH1 0x0 SWAP2 JUMPDEST DUP2 DUP4 LT PUSH2 0x102E JUMPI POP POP PUSH2 0xFE4 SWAP4 POP DUP3 ADD ADD CODESIZE DUP1 PUSH2 0xFD6 JUMP JUMPDEST DUP6 SLOAD DUP8 DUP5 ADD DUP6 ADD MSTORE SWAP5 DUP6 ADD SWAP5 DUP7 SWAP5 POP SWAP2 DUP4 ADD SWAP2 PUSH2 0x1016 JUMP JUMPDEST SWAP2 POP POP PUSH2 0xFE4 SWAP5 SWAP3 POP PUSH1 0xFF NOT AND DUP3 DUP5 ADD MSTORE ISZERO ISZERO PUSH1 0x5 SHL DUP3 ADD ADD CODESIZE DUP1 PUSH2 0xFD6 JUMP JUMPDEST PUSH4 0x4E487B71 PUSH1 0xE0 SHL DUP6 MSTORE PUSH1 0x22 PUSH1 0x4 MSTORE PUSH1 0x24 DUP6 REVERT JUMPDEST SWAP2 PUSH1 0x7F AND SWAP2 PUSH2 0xFB3 JUMP JUMPDEST PUSH1 0xFF DUP2 EQ PUSH2 0x10A6 JUMPI PUSH1 0xFF DUP2 AND SWAP1 PUSH1 0x1F DUP3 GT PUSH2 0xF86 JUMPI PUSH1 0x40 MLOAD SWAP2 PUSH2 0xF7C DUP4 PUSH2 0xF1C JUMP JUMPDEST POP PUSH1 0x40 MLOAD PUSH1 0x0 PUSH1 0x6 SLOAD SWAP1 PUSH1 0x1 DUP3 DUP2 SHR SWAP1 DUP1 DUP5 AND SWAP4 DUP5 ISZERO PUSH2 0x1150 JUMPI JUMPDEST PUSH1 0x20 SWAP5 DUP6 DUP5 LT DUP2 EQ PUSH2 0x1066 JUMPI DUP4 DUP8 MSTORE DUP7 SWAP5 SWAP4 SWAP3 SWAP2 DUP2 ISZERO PUSH2 0x1046 JUMPI POP PUSH1 0x1 EQ PUSH2 0x10F1 JUMPI POP POP PUSH2 0xFE4 SWAP3 POP SUB DUP3 PUSH2 0xF38 JUMP JUMPDEST SWAP1 SWAP4 SWAP2 POP PUSH1 0x6 PUSH1 0x0 MSTORE PUSH32 0xF652222313E28459528D920B65115C16C04F3EFC82AAEDC97BE59F3F377C0D3F SWAP4 PUSH1 0x0 SWAP2 JUMPDEST DUP2 DUP4 LT PUSH2 0x1138 JUMPI POP POP PUSH2 0xFE4 SWAP4 POP DUP3 ADD ADD CODESIZE DUP1 PUSH2 0xFD6 JUMP JUMPDEST DUP6 SLOAD DUP8 DUP5 ADD DUP6 ADD MSTORE SWAP5 DUP6 ADD SWAP5 DUP7 SWAP5 POP SWAP2 DUP4 ADD SWAP2 PUSH2 0x1120 JUMP JUMPDEST SWAP2 PUSH1 0x7F AND SWAP2 PUSH2 0x10C1 JUMP JUMPDEST PUSH1 0x0 NOT DUP2 EQ PUSH2 0x4E5 JUMPI PUSH1 0x1 ADD SWAP1 JUMP JUMPDEST SWAP2 SWAP1 SWAP2 PUSH4 0xFFFFFFFF DUP1 DUP1 SWAP5 AND SWAP2 AND ADD SWAP2 DUP3 GT PUSH2 0x4E5 JUMPI JUMP JUMPDEST SWAP2 SWAP1 DUP2 LT ISZERO PUSH2 0xE44 JUMPI PUSH1 0x5 SHL DUP2 ADD CALLDATALOAD SWAP1 PUSH1 0x1E NOT DUP2 CALLDATASIZE SUB ADD DUP3 SLT ISZERO PUSH2 0x137 JUMPI ADD SWAP1 DUP2 CALLDATALOAD SWAP2 PUSH8 0xFFFFFFFFFFFFFFFF DUP4 GT PUSH2 0x137 JUMPI PUSH1 0x20 ADD DUP3 CALLDATASIZE SUB DUP2 SGT PUSH2 0x137 JUMPI SWAP2 SWAP1 JUMP JUMPDEST SWAP3 SWAP2 SWAP3 PUSH8 0xFFFFFFFFFFFFFFFF DUP3 GT PUSH2 0x33B JUMPI PUSH1 0x40 MLOAD SWAP2 PUSH2 0x11ED PUSH1 0x1F DUP3 ADD PUSH1 0x1F NOT AND PUSH1 0x20 ADD DUP5 PUSH2 0xF38 JUMP JUMPDEST DUP3 SWAP5 DUP2 DUP5 MSTORE DUP2 DUP4 ADD GT PUSH2 0x137 JUMPI DUP3 DUP2 PUSH1 0x20 SWAP4 DUP5 PUSH1 0x0 SWAP7 ADD CALLDATACOPY ADD ADD MSTORE JUMP JUMPDEST SWAP1 PUSH2 0x129B SWAP3 PUSH1 0x42 PUSH2 0x1292 SWAP3 PUSH1 0x40 MLOAD PUSH1 0x1 PUSH1 0x1 PUSH1 0x80 SHL SUB PUSH1 0x20 DUP3 ADD SWAP3 PUSH32 0x5DB0B9E48B5E2A2D788C8F9E014CC3770910447F57857AE28B3CC53F81E36A99 DUP5 MSTORE PUSH1 0x1 DUP1 PUSH1 0xA0 SHL SUB DUP1 SWAP9 AND PUSH1 0x40 DUP5 ADD MSTORE AND PUSH1 0x60 DUP3 ADD MSTORE PUSH1 0x60 DUP2 MSTORE PUSH2 0x126A DUP2 PUSH2 0xF00 JUMP JUMPDEST MLOAD SWAP1 KECCAK256 PUSH2 0x1275 PUSH2 0x1408 JUMP JUMPDEST SWAP1 PUSH1 0x40 MLOAD SWAP2 PUSH2 0x1901 PUSH1 0xF0 SHL DUP4 MSTORE PUSH1 0x2 DUP4 ADD MSTORE PUSH1 0x22 DUP3 ADD MSTORE KECCAK256 PUSH2 0x12B7 JUMP JUMPDEST SWAP1 SWAP4 SWAP2 SWAP4 PUSH2 0x1383 JUMP JUMPDEST DUP2 AND ISZERO PUSH2 0x12A5 JUMPI SWAP1 JUMP JUMPDEST PUSH1 0x40 MLOAD PUSH4 0x8BAA579F PUSH1 0xE0 SHL DUP2 MSTORE PUSH1 0x4 SWAP1 REVERT JUMPDEST DUP2 MLOAD SWAP2 SWAP1 PUSH1 0x41 DUP4 SUB PUSH2 0x12E8 JUMPI PUSH2 0x12E1 SWAP3 POP PUSH1 0x20 DUP3 ADD MLOAD SWAP1 PUSH1 0x60 PUSH1 0x40 DUP5 ADD MLOAD SWAP4 ADD MLOAD PUSH1 0x0 BYTE SWAP1 PUSH2 0x12F3 JUMP JUMPDEST SWAP2 SWAP3 SWAP1 SWAP2 SWAP1 JUMP JUMPDEST POP POP PUSH1 0x0 SWAP2 PUSH1 0x2 SWAP2 SWAP1 JUMP JUMPDEST SWAP2 SWAP1 PUSH32 0x7FFFFFFFFFFFFFFFFFFFFFFFFFFFFFFF5D576E7357A4501DDFE92F46681B20A0 DUP5 GT PUSH2 0x1377 JUMPI SWAP3 PUSH1 0x20 SWAP3 SWAP2 PUSH1 0xFF PUSH1 0x80 SWAP6 PUSH1 0x40 MLOAD SWAP5 DUP6 MSTORE AND DUP5 DUP5 ADD MSTORE PUSH1 0x40 DUP4 ADD MSTORE PUSH1 0x60 DUP3 ADD MSTORE PUSH1 0x0 SWAP3 DUP4 SWAP2 DUP3 DUP1 MSTORE PUSH1 0x1 GAS STATICCALL ISZERO PUSH2 0x136B JUMPI DUP1 MLOAD PUSH1 0x1 PUSH1 0x1 PUSH1 0xA0 SHL SUB DUP2 AND ISZERO PUSH2 0x1362 JUMPI SWAP2 DUP2 SWAP1 JUMP JUMPDEST POP DUP1 SWAP2 PUSH1 0x1 SWAP2 SWAP1 JUMP JUMPDEST PUSH1 0x40 MLOAD SWAP1 RETURNDATASIZE SWAP1 DUP3 RETURNDATACOPY RETURNDATASIZE SWAP1 REVERT JUMPDEST POP POP POP PUSH1 0x0 SWAP2 PUSH1 0x3 SWAP2 SWAP1 JUMP JUMPDEST PUSH1 0x4 DUP2 LT ISZERO PUSH2 0x13F2 JUMPI DUP1 PUSH2 0x1395 JUMPI POP POP JUMP JUMPDEST PUSH1 0x1 DUP2 SUB PUSH2 0x13AF JUMPI PUSH1 0x40 MLOAD PUSH4 0xF645EEDF PUSH1 0xE0 SHL DUP2 MSTORE PUSH1 0x4 SWAP1 REVERT JUMPDEST PUSH1 0x2 DUP2 SUB PUSH2 0x13D0 JUMPI PUSH1 0x40 MLOAD PUSH4 0xFCE698F7 PUSH1 0xE0 SHL DUP2 MSTORE PUSH1 0x4 DUP2 ADD DUP4 SWAP1 MSTORE PUSH1 0x24 SWAP1 REVERT JUMPDEST PUSH1 0x3 EQ PUSH2 0x13DA JUMPI POP JUMP JUMPDEST PUSH1 0x24 SWAP1 PUSH1 0x40 MLOAD SWAP1 PUSH4 0x35E2F383 PUSH1 0xE2 SHL DUP3 MSTORE PUSH1 0x4 DUP3 ADD MSTORE REVERT JUMPDEST PUSH4 0x4E487B71 PUSH1 0xE0 SHL PUSH1 0x0 MSTORE PUSH1 0x21 PUSH1 0x4 MSTORE PUSH1 0x24 PUSH1 0x0 REVERT JUMPDEST ADDRESS PUSH32 0x0 PUSH1 0x1 PUSH1 0x1 PUSH1 0xA0 SHL SUB AND EQ DUP1 PUSH2 0x150A JUMPI JUMPDEST ISZERO PUSH2 0x1463 JUMPI PUSH32 0x0 SWAP1 JUMP JUMPDEST PUSH1 0x40 MLOAD PUSH1 0x20 DUP2 ADD SWAP1 PUSH32 0x8B73C3C69BB8FE3D512ECC4CF759CC79239F7B179B0FFACAA9A75D522B39400F DUP3 MSTORE PUSH32 0x0 PUSH1 0x40 DUP3 ADD MSTORE PUSH32 0x0 PUSH1 0x60 DUP3 ADD MSTORE CHAINID PUSH1 0x80 DUP3 ADD MSTORE ADDRESS PUSH1 0xA0 DUP3 ADD MSTORE PUSH1 0xA0 DUP2 MSTORE PUSH1 0xC0 DUP2 ADD DUP2 DUP2 LT PUSH8 0xFFFFFFFFFFFFFFFF DUP3 GT OR PUSH2 0x33B JUMPI PUSH1 0x40 MSTORE MLOAD SWAP1 KECCAK256 SWAP1 JUMP JUMPDEST POP PUSH32 0x0 CHAINID EQ PUSH2 0x143A JUMP JUMPDEST PUSH1 0x1 SLOAD SWAP1 PUSH1 0x0 JUMPDEST DUP3 DUP2 LT PUSH2 0x1553 JUMPI PUSH1 0x40 MLOAD PUSH4 0x1DD523FF PUSH1 0xE3 SHL DUP2 MSTORE PUSH1 0x4 SWAP1 REVERT JUMPDEST PUSH2 0x155C DUP2 PUSH2 0xE0D JUMP JUMPDEST SWAP1 SLOAD PUSH1 0x3 SWAP2 SWAP1 SWAP2 SHL SHR PUSH1 0x1 PUSH1 0x1 PUSH1 0xA0 SHL SUB SWAP1 DUP2 AND SWAP1 DUP4 AND EQ PUSH2 0x1586 JUMPI PUSH2 0x1581 SWAP1 PUSH2 0x115A JUMP JUMPDEST PUSH2 0x153A JUMP JUMPDEST SWAP2 POP POP SWAP1 JUMP INVALID LOG2 PUSH5 0x6970667358 0x22 SLT KECCAK256 DUP12 ISZERO SWAP8 SWAP9 XOR 0xBF CALL 0xDE SWAP11 SWAP5 DUP8 RETURNDATACOPY 0xD3 PUSH25 0xAD0ED1516E78C168E84D1F61BF207043C50B64736F6C634300 ADDMOD EQ STOP CALLER "},"methodIdentifiers":{"addOwner(address)":"7065cb48","approveIntent(uint256,bytes[])":"6550db52","cancelIntent(uint256,bytes[])":"7b407783","changeRequiredSignatures(uint256)":"39f636ab","createIntent(address,uint128,uint32)":"cfac4b31","custodian()":"375b74c3","eip712Domain()":"84b0196e","executeIntent(uint256)":"cd9d6aee","getOwners()":"a0e67e2b","intents(uint256)":"46a1a095","isOwnerMapping(address)":"086bb259","nextIntentId()":"9b7b7b1e","owners(uint256)":"025e7c27","removeOwner(address)":"173825d9","renounceCustodian()":"5d4bc638","replaceCustodian(address)":"f2f4655e","requiredSignatures()":"8d068043","threshold()":"42cde4e8"}}}}}