{
  "_format": "hh-sol-artifact-1",
  "contractName": "EIP712",
  "sourceName": "contracts/permit/EIP712.sol",
  "abi": [
    {
      "inputs": [],
      "stateMutability": "nonpayable",
      "type": "constructor"
    },
    {
      "inputs": [],
      "name": "DOMAIN_SEPARATOR",
      "outputs": [
        {
          "internalType": "bytes32",
          "name": "",
          "type": "bytes32"
        }
      ],
      "stateMutability": "view",
      "type": "function"
    }
  ],
  "bytecode": "0x60c0346100b9574660a052602081017f8cad95687ba82c2ce50e74f7b754645e5117c3a5bec8151c0726d5857980a86681527f9ac997416e8ff9d2ff6bebeb7149f65cdae5e32e2b90440b566bb3044041d36a60408301524660608301523060808301526080825260a082019180831060018060401b038411176100a3578260405251902060805261016190816100bf8239608051816067015260a05181603d0152f35b634e487b7160e01b600052604160045260246000fd5b600080fdfe608080604052600436101561001357600080fd5b600090813560e01c633644e5151461002a57600080fd5b34610127578160031936011261012757467f00000000000000000000000000000000000000000000000000000000000000000361008f57505060207f00000000000000000000000000000000000000000000000000000000000000005b604051908152f35b60208101907f8cad95687ba82c2ce50e74f7b754645e5117c3a5bec8151c0726d5857980a86682527f9ac997416e8ff9d2ff6bebeb7149f65cdae5e32e2b90440b566bb3044041d36a60408201524660608201523060808201526080815260a0810181811067ffffffffffffffff8211176101135760209350604052519020610087565b634e487b7160e01b84526041600452602484fd5b5080fdfea2646970667358221220c89c6932da27a4250346d814b5fd00a41847dec9c65db444d68a88019a54762764736f6c63430008140033",
  "linkReferences": {},
  "deployedLinkReferences": {}
}