{
  "_format": "hh-sol-artifact-1",
  "contractName": "AllowanceTransfer",
  "sourceName": "contracts/permit/AllowanceTransfer.sol",
  "abi": [
    {
      "inputs": [
        {
          "internalType": "uint256",
          "name": "deadline",
          "type": "uint256"
        }
      ],
      "name": "AllowanceExpired",
      "type": "error"
    },
    {
      "inputs": [],
      "name": "ExcessiveInvalidation",
      "type": "error"
    },
    {
      "inputs": [
        {
          "internalType": "uint256",
          "name": "amount",
          "type": "uint256"
        }
      ],
      "name": "InsufficientAllowance",
      "type": "error"
    },
    {
      "inputs": [],
      "name": "InvalidContractSignature",
      "type": "error"
    },
    {
      "inputs": [],
      "name": "InvalidNonce",
      "type": "error"
    },
    {
      "inputs": [],
      "name": "InvalidSignature",
      "type": "error"
    },
    {
      "inputs": [],
      "name": "InvalidSignatureLength",
      "type": "error"
    },
    {
      "inputs": [],
      "name": "InvalidSigner",
      "type": "error"
    },
    {
      "inputs": [
        {
          "internalType": "uint256",
          "name": "signatureDeadline",
          "type": "uint256"
        }
      ],
      "name": "SignatureExpired",
      "type": "error"
    },
    {
      "anonymous": false,
      "inputs": [
        {
          "indexed": true,
          "internalType": "address",
          "name": "owner",
          "type": "address"
        },
        {
          "indexed": true,
          "internalType": "address",
          "name": "token",
          "type": "address"
        },
        {
          "indexed": true,
          "internalType": "address",
          "name": "spender",
          "type": "address"
        },
        {
          "indexed": false,
          "internalType": "uint160",
          "name": "amount",
          "type": "uint160"
        },
        {
          "indexed": false,
          "internalType": "uint48",
          "name": "expiration",
          "type": "uint48"
        }
      ],
      "name": "Approval",
      "type": "event"
    },
    {
      "anonymous": false,
      "inputs": [
        {
          "indexed": true,
          "internalType": "address",
          "name": "owner",
          "type": "address"
        },
        {
          "indexed": false,
          "internalType": "address",
          "name": "token",
          "type": "address"
        },
        {
          "indexed": false,
          "internalType": "address",
          "name": "spender",
          "type": "address"
        }
      ],
      "name": "Lockdown",
      "type": "event"
    },
    {
      "anonymous": false,
      "inputs": [
        {
          "indexed": true,
          "internalType": "address",
          "name": "owner",
          "type": "address"
        },
        {
          "indexed": true,
          "internalType": "address",
          "name": "token",
          "type": "address"
        },
        {
          "indexed": true,
          "internalType": "address",
          "name": "spender",
          "type": "address"
        },
        {
          "indexed": false,
          "internalType": "uint48",
          "name": "newNonce",
          "type": "uint48"
        },
        {
          "indexed": false,
          "internalType": "uint48",
          "name": "oldNonce",
          "type": "uint48"
        }
      ],
      "name": "NonceInvalidation",
      "type": "event"
    },
    {
      "anonymous": false,
      "inputs": [
        {
          "indexed": true,
          "internalType": "address",
          "name": "owner",
          "type": "address"
        },
        {
          "indexed": true,
          "internalType": "address",
          "name": "token",
          "type": "address"
        },
        {
          "indexed": true,
          "internalType": "address",
          "name": "spender",
          "type": "address"
        },
        {
          "indexed": false,
          "internalType": "uint160",
          "name": "amount",
          "type": "uint160"
        },
        {
          "indexed": false,
          "internalType": "uint48",
          "name": "expiration",
          "type": "uint48"
        },
        {
          "indexed": false,
          "internalType": "uint48",
          "name": "nonce",
          "type": "uint48"
        }
      ],
      "name": "Permit",
      "type": "event"
    },
    {
      "inputs": [],
      "name": "DOMAIN_SEPARATOR",
      "outputs": [
        {
          "internalType": "bytes32",
          "name": "",
          "type": "bytes32"
        }
      ],
      "stateMutability": "view",
      "type": "function"
    },
    {
      "inputs": [
        {
          "internalType": "address",
          "name": "",
          "type": "address"
        },
        {
          "internalType": "address",
          "name": "",
          "type": "address"
        },
        {
          "internalType": "address",
          "name": "",
          "type": "address"
        }
      ],
      "name": "allowance",
      "outputs": [
        {
          "internalType": "uint160",
          "name": "amount",
          "type": "uint160"
        },
        {
          "internalType": "uint48",
          "name": "expiration",
          "type": "uint48"
        },
        {
          "internalType": "uint48",
          "name": "nonce",
          "type": "uint48"
        }
      ],
      "stateMutability": "view",
      "type": "function"
    },
    {
      "inputs": [
        {
          "internalType": "address",
          "name": "token",
          "type": "address"
        },
        {
          "internalType": "address",
          "name": "spender",
          "type": "address"
        },
        {
          "internalType": "uint160",
          "name": "amount",
          "type": "uint160"
        },
        {
          "internalType": "uint48",
          "name": "expiration",
          "type": "uint48"
        }
      ],
      "name": "approve",
      "outputs": [],
      "stateMutability": "nonpayable",
      "type": "function"
    },
    {
      "inputs": [
        {
          "internalType": "address",
          "name": "token",
          "type": "address"
        },
        {
          "internalType": "address",
          "name": "spender",
          "type": "address"
        },
        {
          "internalType": "uint48",
          "name": "newNonce",
          "type": "uint48"
        }
      ],
      "name": "invalidateNonces",
      "outputs": [],
      "stateMutability": "nonpayable",
      "type": "function"
    },
    {
      "inputs": [
        {
          "components": [
            {
              "internalType": "address",
              "name": "token",
              "type": "address"
            },
            {
              "internalType": "address",
              "name": "spender",
              "type": "address"
            }
          ],
          "internalType": "struct IAllowanceTransfer.TokenSpenderPair[]",
          "name": "approvals",
          "type": "tuple[]"
        }
      ],
      "name": "lockdown",
      "outputs": [],
      "stateMutability": "nonpayable",
      "type": "function"
    },
    {
      "inputs": [
        {
          "internalType": "address",
          "name": "owner",
          "type": "address"
        },
        {
          "components": [
            {
              "components": [
                {
                  "internalType": "address",
                  "name": "token",
                  "type": "address"
                },
                {
                  "internalType": "uint160",
                  "name": "amount",
                  "type": "uint160"
                },
                {
                  "internalType": "uint48",
                  "name": "expiration",
                  "type": "uint48"
                },
                {
                  "internalType": "uint48",
                  "name": "nonce",
                  "type": "uint48"
                }
              ],
              "internalType": "struct IAllowanceTransfer.PermitDetails[]",
              "name": "details",
              "type": "tuple[]"
            },
            {
              "internalType": "address",
              "name": "spender",
              "type": "address"
            },
            {
              "internalType": "uint256",
              "name": "sigDeadline",
              "type": "uint256"
            }
          ],
          "internalType": "struct IAllowanceTransfer.PermitBatch",
          "name": "permitBatch",
          "type": "tuple"
        },
        {
          "internalType": "bytes",
          "name": "signature",
          "type": "bytes"
        }
      ],
      "name": "permit",
      "outputs": [],
      "stateMutability": "nonpayable",
      "type": "function"
    },
    {
      "inputs": [
        {
          "internalType": "address",
          "name": "owner",
          "type": "address"
        },
        {
          "components": [
            {
              "components": [
                {
                  "internalType": "address",
                  "name": "token",
                  "type": "address"
                },
                {
                  "internalType": "uint160",
                  "name": "amount",
                  "type": "uint160"
                },
                {
                  "internalType": "uint48",
                  "name": "expiration",
                  "type": "uint48"
                },
                {
                  "internalType": "uint48",
                  "name": "nonce",
                  "type": "uint48"
                }
              ],
              "internalType": "struct IAllowanceTransfer.PermitDetails",
              "name": "details",
              "type": "tuple"
            },
            {
              "internalType": "address",
              "name": "spender",
              "type": "address"
            },
            {
              "internalType": "uint256",
              "name": "sigDeadline",
              "type": "uint256"
            }
          ],
          "internalType": "struct IAllowanceTransfer.PermitSingle",
          "name": "permitSingle",
          "type": "tuple"
        },
        {
          "internalType": "bytes",
          "name": "signature",
          "type": "bytes"
        }
      ],
      "name": "permit",
      "outputs": [],
      "stateMutability": "nonpayable",
      "type": "function"
    },
    {
      "inputs": [
        {
          "components": [
            {
              "internalType": "address",
              "name": "from",
              "type": "address"
            },
            {
              "internalType": "address",
              "name": "to",
              "type": "address"
            },
            {
              "internalType": "uint160",
              "name": "amount",
              "type": "uint160"
            },
            {
              "internalType": "address",
              "name": "token",
              "type": "address"
            }
          ],
          "internalType": "struct IAllowanceTransfer.AllowanceTransferDetails[]",
          "name": "transferDetails",
          "type": "tuple[]"
        }
      ],
      "name": "transferFrom",
      "outputs": [],
      "stateMutability": "nonpayable",
      "type": "function"
    },
    {
      "inputs": [
        {
          "internalType": "address",
          "name": "from",
          "type": "address"
        },
        {
          "internalType": "address",
          "name": "to",
          "type": "address"
        },
        {
          "internalType": "uint160",
          "name": "amount",
          "type": "uint160"
        },
        {
          "internalType": "address",
          "name": "token",
          "type": "address"
        }
      ],
      "name": "transferFrom",
      "outputs": [],
      "stateMutability": "nonpayable",
      "type": "function"
    }
  ],
  "bytecode": "0x60c0346100bb574660a052602081017f8cad95687ba82c2ce50e74f7b754645e5117c3a5bec8151c0726d5857980a86681527f9ac997416e8ff9d2ff6bebeb7149f65cdae5e32e2b90440b566bb3044041d36a60408301524660608301523060808301526080825260a082019180831060018060401b038411176100a557826040525190206080526110f490816100c1823960805181610d84015260a05181610d5e0152f35b634e487b7160e01b600052604160045260246000fd5b600080fdfe6080604052600436101561001257600080fd5b60003560e01c80630d58b1db146108ae5780632a2d80d1146105f35780632b67b570146104775780633644e5151461045457806336c785161461040c57806365d9723c146102ef57806387517c4514610209578063927da105146101885763cc53287f1461007f57600080fd5b34610183576020806003193601126101835767ffffffffffffffff906004358281116101835736602382011215610183578060040135928311610183576024810190602436918560061b0101116101835760005b8381106100dc57005b806100f26100ed6001938786610c2d565b610c3d565b61010785610101848988610c2d565b01610c3d565b3360005260008652604060002091848060a01b0380911692836000528752604060002091169081600052865260406000206bffffffffffffffffffffffff60a01b8154169055604051918252858201527f89b1add15eff56b3dfe299ad94e01f2b52fbcb80ae1a3baea6ae8c04cb2b98a460403392a2016100d3565b600080fd5b34610183576060366003190112610183576101a161098f565b6101a96109a5565b6101b16109bb565b6001600160a01b0392831660009081526020818152604080832094861683529381528382209285168252918252829020548251938116845265ffffffffffff60a082901c169184019190915260d01c90820152606090f35b346101835760803660031901126101835761022261098f565b61022a6109a5565b906102336109bb565b65ffffffffffff91606435838116918282036101835733600052600060205260406000209460018060a01b0380921695866000526020528160406000209716968760005260205260406000209284156000146102e757504216905b8254941693849165ffffffffffff60a01b9060a01b169065ffffffffffff60d01b161717905560405191825260208201527fda9fa7c1b00402c17d0161b249b1ab8bbec047c5a52207b9c112deffd817036b60403392a4005b90509061028e565b346101835760603660031901126101835761030861098f565b6103106109a5565b9060443565ffffffffffff8082169182810361018357336000526020906000825260406000209460018060a01b0380911695866000528352604060002096169586600052825260406000205460d01c92838511156103fa5761ffff9084830316116103e85733600052600082526040600020856000528252604060002086600052825260406000209081549065ffffffffffff60d01b9060d01b169060018060d01b03161790556040519283528201527f55eb90d810e1700b35a8e7e25395ff7f2b2259abd7415ca2284dfb1c246418f360403392a4005b604051631269ad1360e11b8152600490fd5b604051633ab3447f60e11b8152600490fd5b346101835760803660031901126101835761042561098f565b61042d6109a5565b6104356109bb565b606435916001600160a01b03831683036101835761045293610af4565b005b3461018357600036600319011261018357602061046f610d5b565b604051908152f35b34610183576101003660031901126101835761049161098f565b36602319019060c08212610183576080604051926104ae84610a17565b1261018357604051906104c0826109e5565b6001600160a01b03916024358381168103610183578152604435838116810361018357602082015265ffffffffffff60643581811681036101835760408301526084359081168103610183576060820152835260a435918083168303610183576020840192835260c435936040810185815260e43567ffffffffffffffff811161018357610552903690600401610a9c565b9190968042116105db5750610452966105d1926105cb87936105748751610e47565b90888b511690516040519160208301937ff3841cd1ff0085026a6327b620b67997ce40f282c88a8e905a7a5626e310f3d08552604084015260608301526080820152608081526105c381610a33565b519020610e16565b91610ee5565b5192511691610c51565b6024906040519063cd21db4f60e01b82526004820152fd5b34610183576003196060368201126101835761060d61098f565b906024359067ffffffffffffffff90818311610183576060908336030112610183576040519161063c83610a17565b80600401358281116101835781013660238201121561018357600481013561066381610a71565b916106716040519384610a4f565b8183526024602084019260071b8201019036821161018357602401915b81831061084c5750505083526044906106a9602482016109d1565b6020850152013590816040840152604435908111610183576106cf903690600401610a9c565b918042116105db575083835151916106e683610a71565b926106f46040519485610a4f565b808452601f1961070382610a71565b0136602086013760005b8181106107fc575050604051602081019081602086519196019060005b8181106107e35750505061074a816107ad9603601f198101835282610a4f565b519020936105cb60018060a01b03958660208901511660408901516040519160208301937faf1b0d30d2cab0380e68f0689007e3254993c596f2fdd0aaa7f4d04f794408638552604084015260608301526080820152608081526105c381610a33565b602082015116908051519160005b8381106107c457005b806107dd83876107d76001958851610aca565b51610c51565b016107bb565b825188526020978801978b97509092019160010161072a565b909193925061081561080f828851610aca565b51610e47565b61081f8285610aca565b52600019811461083657600101908692939161070d565b634e487b7160e01b600052601160045260246000fd5b608083360312610183576020608091604051610867816109e5565b610870866109d1565b815261087d8387016109d1565b8382015261088d60408701610a89565b604082015261089e60608701610a89565b606082015281520192019161068e565b34610183576020806003193601126101835767ffffffffffffffff6004358181116101835736602382011215610183578060040135918211610183576024906007368385831b840101116101835760005b84811061090857005b80821b830190608060231983360301126101835761098960019260405161092e816109e5565b6109398883016109d1565b808252606061094a604485016109d1565b92838d82015261096e6084610961606488016109d1565b96876040850152016109d1565b9182910152868060a01b038080809316951693169116610af4565b016108ff565b600435906001600160a01b038216820361018357565b602435906001600160a01b038216820361018357565b604435906001600160a01b038216820361018357565b35906001600160a01b038216820361018357565b6080810190811067ffffffffffffffff821117610a0157604052565b634e487b7160e01b600052604160045260246000fd5b6060810190811067ffffffffffffffff821117610a0157604052565b60a0810190811067ffffffffffffffff821117610a0157604052565b90601f8019910116810190811067ffffffffffffffff821117610a0157604052565b67ffffffffffffffff8111610a015760051b60200190565b359065ffffffffffff8216820361018357565b9181601f840112156101835782359167ffffffffffffffff8311610183576020838186019501011161018357565b8051821015610ade5760209160051b010190565b634e487b7160e01b600052603260045260246000fd5b909260018060a01b038092169060009282845283602052604094818686209316928386526020528585203386526020528585209687549765ffffffffffff8960a01c16804211610c16575083891698848a03610bce575b505086975092828697928796946064966020999551966323b872dd60e01b885260048801521660248601521660448401525af19051600114601f3d11163d15171615610b945750565b5162461bcd60e51b81526020600482015260146024820152731514905394d1915497d19493d357d1905253115160621b6044820152606490fd5b8985851611600014610bf257885163f96fb07160e01b8152600481018b9052602490fd5b6001600160a01b031916988390038416989098179097559495869590826020610b4b565b602490895190636c0d979760e11b82526004820152fd5b9190811015610ade5760061b0190565b356001600160a01b03811681036101835790565b9065ffffffffffff908160608401511660018060a01b039081855116948260208201511692808660408094015116951695600091878352826020528383208984526020528383209916988983526020528282209184835460d01c03610d4a579185610d3e94927fc6a377bfc4eb120024a8ac08eef205be16b817020812c73223e81d1bdb9708ec98979694508715600014610d435742165b6001850160d01b6001600160d01b03191660a09190911b65ffffffffffff60a01b1617179055516001600160a01b03909316835265ffffffffffff938416602084015290921660408201529081906060820190565b0390a4565b5086610ce9565b8351633ab3447f60e11b8152600490fd5b467f000000000000000000000000000000000000000000000000000000000000000003610da6577f000000000000000000000000000000000000000000000000000000000000000090565b60405160208101907f8cad95687ba82c2ce50e74f7b754645e5117c3a5bec8151c0726d5857980a86682527f9ac997416e8ff9d2ff6bebeb7149f65cdae5e32e2b90440b566bb3044041d36a604082015246606082015230608082015260808152610e1081610a33565b51902090565b610e1e610d5b565b9060405190602082019261190160f01b84526022830152604282015260428152610e10816109e5565b60405160208101917f65626cad6cb96493bf6f5ebea28756c966f023ab9e8a83a7101849d5573b3678835260018060a01b038082511660408401526020820151166060830152606065ffffffffffff9182604082015116608085015201511660a082015260a0815260c0810181811067ffffffffffffffff821117610a015760405251902090565b9190826040910312610183576020823592013590565b6000843b610fde575060418203610f8e57610f0282820182610ecf565b93909260401015610ade5760209360009360ff6040608095013560f81c5b60405194855216868401526040830152606082015282805260015afa15610f82576000516001600160a01b03908116918215610f70571603610f5e57565b604051632057875960e21b8152600490fd5b604051638baa579f60e01b8152600490fd5b6040513d6000823e3d90fd5b60408203610fcc57610fa291810190610ecf565b6001600160ff1b0381169260ff91821c601b019182116108365760209360009360ff608094610f20565b604051634be6321b60e01b8152600490fd5b918093946020926064604051809781958294630b135d3f60e11b9b8c8552600485015260406024850152816044850152848401378181018301889052601f01601f191681010301916001600160a01b03165afa9182156110b1578192611064575b50506001600160e01b0319160361105257565b604051632c19a72f60e21b8152600490fd5b9091506020813d82116110a9575b8161107f60209383610a4f565b810103126110a55751906001600160e01b0319821682036110a25750388061103f565b80fd5b5080fd5b3d9150611072565b50604051903d90823e3d90fdfea264697066735822122021bdf31e94f4226cd7b1f3fc8a4af665a654711eed485bcaed4cb04a3b9e323f64736f6c63430008140033",
  "linkReferences": {},
  "deployedLinkReferences": {}
}