{
  "_format": "hh-sol-artifact-1",
  "contractName": "Treasury",
  "sourceName": "contracts/Treasury.sol",
  "abi": [
    {
      "inputs": [
        {
          "internalType": "address",
          "name": "_token",
          "type": "address"
        },
        {
          "internalType": "address",
          "name": "_permit2",
          "type": "address"
        }
      ],
      "stateMutability": "nonpayable",
      "type": "constructor"
    },
    {
      "inputs": [],
      "name": "AlreadyInitialized",
      "type": "error"
    },
    {
      "inputs": [],
      "name": "AmountMustBeGreaterThanZero",
      "type": "error"
    },
    {
      "inputs": [],
      "name": "InvalidTokenReceived",
      "type": "error"
    },
    {
      "inputs": [],
      "name": "NotAuthorized",
      "type": "error"
    },
    {
      "anonymous": false,
      "inputs": [
        {
          "indexed": true,
          "internalType": "address",
          "name": "from",
          "type": "address"
        },
        {
          "indexed": false,
          "internalType": "uint256",
          "name": "amount",
          "type": "uint256"
        }
      ],
      "name": "Deposited",
      "type": "event"
    },
    {
      "inputs": [
        {
          "internalType": "uint256",
          "name": "_amount",
          "type": "uint256"
        },
        {
          "components": [
            {
              "components": [
                {
                  "internalType": "address",
                  "name": "token",
                  "type": "address"
                },
                {
                  "internalType": "uint256",
                  "name": "amount",
                  "type": "uint256"
                }
              ],
              "internalType": "struct ISignatureTransfer.TokenPermissions",
              "name": "permitted",
              "type": "tuple"
            },
            {
              "internalType": "uint256",
              "name": "nonce",
              "type": "uint256"
            },
            {
              "internalType": "uint256",
              "name": "deadline",
              "type": "uint256"
            }
          ],
          "internalType": "struct ISignatureTransfer.PermitTransferFrom",
          "name": "permit",
          "type": "tuple"
        },
        {
          "internalType": "bytes",
          "name": "signature",
          "type": "bytes"
        }
      ],
      "name": "deposit",
      "outputs": [],
      "stateMutability": "nonpayable",
      "type": "function"
    },
    {
      "inputs": [],
      "name": "getBalance",
      "outputs": [
        {
          "internalType": "uint256",
          "name": "",
          "type": "uint256"
        }
      ],
      "stateMutability": "view",
      "type": "function"
    },
    {
      "inputs": [
        {
          "internalType": "address",
          "name": "_intents",
          "type": "address"
        }
      ],
      "name": "initialize",
      "outputs": [],
      "stateMutability": "nonpayable",
      "type": "function"
    },
    {
      "inputs": [],
      "name": "intentsContract",
      "outputs": [
        {
          "internalType": "address",
          "name": "",
          "type": "address"
        }
      ],
      "stateMutability": "view",
      "type": "function"
    },
    {
      "inputs": [],
      "name": "permit2",
      "outputs": [
        {
          "internalType": "contract IPermit2",
          "name": "",
          "type": "address"
        }
      ],
      "stateMutability": "view",
      "type": "function"
    },
    {
      "inputs": [],
      "name": "token",
      "outputs": [
        {
          "internalType": "contract IERC20",
          "name": "",
          "type": "address"
        }
      ],
      "stateMutability": "view",
      "type": "function"
    },
    {
      "stateMutability": "payable",
      "type": "receive"
    }
  ],
  "bytecode": "0x60c03461009257601f61059838819003918201601f19168301916001600160401b0383118484101761009757808492604094855283398101031261009257610052602061004b836100ad565b92016100ad565b6001600160a01b039182166080521660a0526040516104d690816100c28239608051818181608701526101b6015260a05181818161015b01526102f70152f35b600080fd5b634e487b7160e01b600052604160045260246000fd5b51906001600160a01b03821682036100925756fe6080604081815260049182361015610022575b505050361561002057600080fd5b005b600092833560e01c91826305441818146102695750816312065fe01461018a57816312261ee714610146578163c4d66de8146100e157508063cf2c5259146100ba5763fc0c546a146100745780610012565b346100b657816003193601126100b657517f00000000000000000000000000000000000000000000000000000000000000006001600160a01b03168152602090f35b5080fd5b50346100b657816003193601126100b657905490516001600160a01b039091168152602090f35b9050346101425760203660031901126101425780356001600160a01b038116919082900361013d5783549260ff8460a01c166101315750506001600160a81b031990911617600160a01b17815580f35b5162dc149f60e41b8152fd5b600080fd5b8280fd5b5050346100b657816003193601126100b657517f00000000000000000000000000000000000000000000000000000000000000006001600160a01b03168152602090f35b9190503461014257826003193601126101425780516370a0823160e01b815230838201526020816024817f00000000000000000000000000000000000000000000000000000000000000006001600160a01b03165afa92831561025f5784936101f8575b6020848451908152f35b909192506020903d8211610257575b601f8201601f191683019067ffffffffffffffff821184831017610242575060209183918552810103126101425760209250519038806101ee565b604190634e487b7160e01b6000525260246000fd5b3d9150610207565b82513d86823e3d90fd5b8491843461049c5760c036600319011261049c5781359160803660231901126104985760a43567ffffffffffffffff91828211610494573660238301121561049457818101359280841161043657602492368486830101116104905788549760ff8960a81c16610460575060ff60a81b19978816600160a81b17895586156104505785516001600160a01b037f00000000000000000000000000000000000000000000000000000000000000008116918089018181108682111761043e57908c949392918a5230815260208101938b8552833b1561043a578a5163187945bd60e11b81529989358481169190829003610436578b968795899587948d8601528d6044359086015260643560448601526084356064860152511660848401525160a48301523360c483015261010060e483015280610104830152808b6101249401848401378181018301849052601f01601f191681010301925af1801561042c57610404575b50505050519081527f2da466a7b24304f47e87fa2e1e5a81b9831ce54fec19055ce277ca2f39ba42c460203392a2815416815580f35b839794971161041b575050845292848080806103ce565b634e487b7160e01b84526041905282fd5b85513d8a823e3d90fd5b8780fd5b8580fd5b634e487b7160e01b8d5260418752878dfd5b8551635e85ae7360e01b81528390fd5b62461bcd60e51b8152602084820152600d858201526c6e6f207265656e7472616e637960981b6044820152606490fd5b8880fd5b8680fd5b8480fd5b8380fdfea2646970667358221220e43c04a79dabeb3d707fc67605a45a407095a8cc8b525f1e9f9af9e878fc803064736f6c63430008140033",
  "linkReferences": {},
  "deployedLinkReferences": {}
}