{
  "_format": "hh-sol-artifact-1",
  "contractName": "Intents",
  "sourceName": "contracts/Intents.sol",
  "abi": [
    {
      "inputs": [
        {
          "internalType": "address[]",
          "name": "_owners",
          "type": "address[]"
        },
        {
          "internalType": "uint256",
          "name": "_requiredSignatures",
          "type": "uint256"
        },
        {
          "internalType": "uint256",
          "name": "_threshold",
          "type": "uint256"
        }
      ],
      "stateMutability": "nonpayable",
      "type": "constructor"
    },
    {
      "inputs": [],
      "name": "AlreadyAnOwner",
      "type": "error"
    },
    {
      "inputs": [],
      "name": "AmountMustBeGreaterThanZero",
      "type": "error"
    },
    {
      "inputs": [],
      "name": "ECDSAInvalidSignature",
      "type": "error"
    },
    {
      "inputs": [
        {
          "internalType": "uint256",
          "name": "length",
          "type": "uint256"
        }
      ],
      "name": "ECDSAInvalidSignatureLength",
      "type": "error"
    },
    {
      "inputs": [
        {
          "internalType": "bytes32",
          "name": "s",
          "type": "bytes32"
        }
      ],
      "name": "ECDSAInvalidSignatureS",
      "type": "error"
    },
    {
      "inputs": [],
      "name": "ExecutionTimeNotReached",
      "type": "error"
    },
    {
      "inputs": [
        {
          "internalType": "uint256",
          "name": "required",
          "type": "uint256"
        }
      ],
      "name": "InsufficientOwners",
      "type": "error"
    },
    {
      "inputs": [],
      "name": "InsufficientSignaturesForAmount",
      "type": "error"
    },
    {
      "inputs": [],
      "name": "InvalidShortString",
      "type": "error"
    },
    {
      "inputs": [],
      "name": "InvalidSignature",
      "type": "error"
    },
    {
      "inputs": [],
      "name": "NotAnOwner",
      "type": "error"
    },
    {
      "inputs": [],
      "name": "NotCustodian",
      "type": "error"
    },
    {
      "inputs": [],
      "name": "NotEnoughSignatures",
      "type": "error"
    },
    {
      "inputs": [],
      "name": "NotOwner",
      "type": "error"
    },
    {
      "inputs": [],
      "name": "RecurringIntervalMustBeGreaterThanZero",
      "type": "error"
    },
    {
      "inputs": [
        {
          "internalType": "address",
          "name": "token",
          "type": "address"
        }
      ],
      "name": "SafeERC20FailedOperation",
      "type": "error"
    },
    {
      "inputs": [
        {
          "internalType": "string",
          "name": "str",
          "type": "string"
        }
      ],
      "name": "StringTooLong",
      "type": "error"
    },
    {
      "inputs": [],
      "name": "ThresholdMustBeGreaterThanZero",
      "type": "error"
    },
    {
      "anonymous": false,
      "inputs": [],
      "name": "EIP712DomainChanged",
      "type": "event"
    },
    {
      "anonymous": false,
      "inputs": [
        {
          "indexed": true,
          "internalType": "uint256",
          "name": "intentId",
          "type": "uint256"
        },
        {
          "indexed": true,
          "internalType": "address",
          "name": "user",
          "type": "address"
        },
        {
          "indexed": true,
          "internalType": "address",
          "name": "to",
          "type": "address"
        },
        {
          "indexed": false,
          "internalType": "uint128",
          "name": "amount",
          "type": "uint128"
        },
        {
          "indexed": false,
          "internalType": "uint32",
          "name": "nextExecutionTime",
          "type": "uint32"
        },
        {
          "indexed": false,
          "internalType": "uint32",
          "name": "recurringInterval",
          "type": "uint32"
        }
      ],
      "name": "IntentCreated",
      "type": "event"
    },
    {
      "anonymous": false,
      "inputs": [
        {
          "indexed": true,
          "internalType": "uint256",
          "name": "intentId",
          "type": "uint256"
        },
        {
          "indexed": true,
          "internalType": "address",
          "name": "to",
          "type": "address"
        },
        {
          "indexed": false,
          "internalType": "uint128",
          "name": "amount",
          "type": "uint128"
        },
        {
          "indexed": false,
          "internalType": "uint256",
          "name": "executionCount",
          "type": "uint256"
        }
      ],
      "name": "IntentExecuted",
      "type": "event"
    },
    {
      "anonymous": false,
      "inputs": [
        {
          "indexed": true,
          "internalType": "address",
          "name": "newOwner",
          "type": "address"
        }
      ],
      "name": "OwnerAdded",
      "type": "event"
    },
    {
      "anonymous": false,
      "inputs": [
        {
          "indexed": true,
          "internalType": "address",
          "name": "removedOwner",
          "type": "address"
        }
      ],
      "name": "OwnerRemoved",
      "type": "event"
    },
    {
      "anonymous": false,
      "inputs": [
        {
          "indexed": false,
          "internalType": "uint256",
          "name": "newRequiredSignatures",
          "type": "uint256"
        }
      ],
      "name": "RequiredSignaturesChanged",
      "type": "event"
    },
    {
      "anonymous": false,
      "inputs": [
        {
          "indexed": false,
          "internalType": "uint256",
          "name": "newThreshold",
          "type": "uint256"
        }
      ],
      "name": "ThresholdChanged",
      "type": "event"
    },
    {
      "inputs": [
        {
          "internalType": "address",
          "name": "_owner",
          "type": "address"
        }
      ],
      "name": "addOwner",
      "outputs": [],
      "stateMutability": "nonpayable",
      "type": "function"
    },
    {
      "inputs": [
        {
          "internalType": "uint256",
          "name": "_newRequiredSignatures",
          "type": "uint256"
        }
      ],
      "name": "changeRequiredSignatures",
      "outputs": [],
      "stateMutability": "nonpayable",
      "type": "function"
    },
    {
      "inputs": [
        {
          "internalType": "address",
          "name": "_to",
          "type": "address"
        },
        {
          "internalType": "uint128",
          "name": "_amount",
          "type": "uint128"
        },
        {
          "internalType": "uint32",
          "name": "_recurringInterval",
          "type": "uint32"
        }
      ],
      "name": "createIntent",
      "outputs": [],
      "stateMutability": "nonpayable",
      "type": "function"
    },
    {
      "inputs": [],
      "name": "custodian",
      "outputs": [
        {
          "internalType": "address",
          "name": "",
          "type": "address"
        }
      ],
      "stateMutability": "view",
      "type": "function"
    },
    {
      "inputs": [],
      "name": "eip712Domain",
      "outputs": [
        {
          "internalType": "bytes1",
          "name": "fields",
          "type": "bytes1"
        },
        {
          "internalType": "string",
          "name": "name",
          "type": "string"
        },
        {
          "internalType": "string",
          "name": "version",
          "type": "string"
        },
        {
          "internalType": "uint256",
          "name": "chainId",
          "type": "uint256"
        },
        {
          "internalType": "address",
          "name": "verifyingContract",
          "type": "address"
        },
        {
          "internalType": "bytes32",
          "name": "salt",
          "type": "bytes32"
        },
        {
          "internalType": "uint256[]",
          "name": "extensions",
          "type": "uint256[]"
        }
      ],
      "stateMutability": "view",
      "type": "function"
    },
    {
      "inputs": [
        {
          "internalType": "uint256",
          "name": "_intentId",
          "type": "uint256"
        },
        {
          "internalType": "bytes[]",
          "name": "_signatures",
          "type": "bytes[]"
        }
      ],
      "name": "executeApprovedIntent",
      "outputs": [],
      "stateMutability": "nonpayable",
      "type": "function"
    },
    {
      "inputs": [
        {
          "internalType": "uint256",
          "name": "",
          "type": "uint256"
        }
      ],
      "name": "intents",
      "outputs": [
        {
          "internalType": "address",
          "name": "user",
          "type": "address"
        },
        {
          "internalType": "address",
          "name": "to",
          "type": "address"
        },
        {
          "internalType": "uint128",
          "name": "amount",
          "type": "uint128"
        },
        {
          "internalType": "uint32",
          "name": "nextExecutionTime",
          "type": "uint32"
        },
        {
          "internalType": "uint32",
          "name": "recurringInterval",
          "type": "uint32"
        },
        {
          "internalType": "uint16",
          "name": "executionCount",
          "type": "uint16"
        }
      ],
      "stateMutability": "view",
      "type": "function"
    },
    {
      "inputs": [
        {
          "internalType": "address",
          "name": "",
          "type": "address"
        }
      ],
      "name": "isOwnerMapping",
      "outputs": [
        {
          "internalType": "bool",
          "name": "",
          "type": "bool"
        }
      ],
      "stateMutability": "view",
      "type": "function"
    },
    {
      "inputs": [],
      "name": "nextIntentId",
      "outputs": [
        {
          "internalType": "uint256",
          "name": "",
          "type": "uint256"
        }
      ],
      "stateMutability": "view",
      "type": "function"
    },
    {
      "inputs": [
        {
          "internalType": "address",
          "name": "",
          "type": "address"
        }
      ],
      "name": "ownerIndex",
      "outputs": [
        {
          "internalType": "uint256",
          "name": "",
          "type": "uint256"
        }
      ],
      "stateMutability": "view",
      "type": "function"
    },
    {
      "inputs": [
        {
          "internalType": "uint256",
          "name": "",
          "type": "uint256"
        }
      ],
      "name": "owners",
      "outputs": [
        {
          "internalType": "address",
          "name": "",
          "type": "address"
        }
      ],
      "stateMutability": "view",
      "type": "function"
    },
    {
      "inputs": [
        {
          "internalType": "address",
          "name": "_owner",
          "type": "address"
        }
      ],
      "name": "removeOwner",
      "outputs": [],
      "stateMutability": "nonpayable",
      "type": "function"
    },
    {
      "inputs": [],
      "name": "renounceCustodian",
      "outputs": [],
      "stateMutability": "nonpayable",
      "type": "function"
    },
    {
      "inputs": [
        {
          "internalType": "address",
          "name": "_newCustodian",
          "type": "address"
        }
      ],
      "name": "replaceCustodian",
      "outputs": [],
      "stateMutability": "nonpayable",
      "type": "function"
    },
    {
      "inputs": [],
      "name": "requiredSignatures",
      "outputs": [
        {
          "internalType": "uint256",
          "name": "",
          "type": "uint256"
        }
      ],
      "stateMutability": "view",
      "type": "function"
    },
    {
      "inputs": [],
      "name": "threshold",
      "outputs": [
        {
          "internalType": "uint256",
          "name": "",
          "type": "uint256"
        }
      ],
      "stateMutability": "view",
      "type": "function"
    }
  ],
  "bytecode": "0x610160604090808252346200034957620019cb80380380916200002382856200036a565b8339810190606081830312620003495780516001600160401b039290838111620003495782019080601f8301121562000349578151848111620002ea578060051b9186519360209262000079848601876200036a565b85528285019083829582010192831162000349578301905b8282106200032857505050858185015194015195805194620000b3866200034e565b600f8652828601946e125b9d195b9d1cd0dbdb9d1c9858dd608a1b8652825194620000de866200034e565b6001998a875285870193603160f81b85528084511062000311578115620003005783518b8111620002ea57680100000000000000008111620002ea578c938454828655808310620002ca575b5060009d8e52888e20858f5b848110620002ae57505050600492909255505060055589546001600160a01b03191633178a55898481835b62000262575b50505050506200017786620003a7565b94610120958652620001898562000577565b96610140978852519020938460e05251902096610100978089524660a0528251938401947f8b73c3c69bb8fe3d512ecc4cf759cc79239f7b179b0ffacaa9a75d522b39400f86528385015260608401524660808401523060a084015260a0835260c0830196838810908811176200024e57508590525190206080523060c0526112a8938462000723853960805184611180015260a0518461124c015260c0518461114a015260e051846111cf015251836111f5015251826107b4015251816107dd0152f35b634e487b7160e01b81526041600452602490fd5b8451811015620002a857600581901b85018801516001600160a01b0316835260028852818320805460ff1916851790556003885291208190558a90859083018362000161565b62000167565b83516001600160a01b031683820155928b019287910162000136565b620002e39086600052838b60002091820191016200038e565b386200012a565b634e487b7160e01b600052604160045260246000fd5b8551630372105960e61b8152600490fd5b602490865190630362bf2d60e51b82526004820152fd5b81516001600160a01b03811681036200034957815290830190830162000091565b600080fd5b604081019081106001600160401b03821117620002ea57604052565b601f909101601f19168101906001600160401b03821190821017620002ea57604052565b8181106200039a575050565b600081556001016200038e565b805160209081811015620004445750601f825111620003e35780825192015190808310620003d457501790565b82600019910360031b1b161790565b90604051809263305a27a960e01b82528060048301528251908160248401526000935b8285106200042a575050604492506000838284010152601f80199101168101030190fd5b848101820151868601604401529381019385935062000406565b906001600160401b038211620002ea57600654926001938481811c911680156200056c575b838210146200055657601f811162000529575b5081601f8411600114620004bd5750928293918392600094620004b1575b50501b916000199060031b1c19161760065560ff90565b0151925038806200049a565b919083601f198116600660005284600020946000905b888383106200050e5750505010620004f4575b505050811b0160065560ff90565b015160001960f88460031b161c19169055388080620004e6565b858701518855909601959485019487935090810190620004d3565b6200054f906006600052601f84600020910160051c810190601f860160051c016200038e565b386200047c565b634e487b7160e01b600052602260045260246000fd5b90607f169062000469565b805160209081811015620006055750601f825111620005a45780825192015190808310620003d457501790565b90604051809263305a27a960e01b82528060048301528251908160248401526000935b828510620005eb575050604492506000838284010152601f80199101168101030190fd5b8481018201518686016044015293810193859350620005c7565b906001600160401b038211620002ea57600754926001938481811c9116801562000717575b838210146200055657601f8111620006ea575b5081601f84116001146200067e575092829391839260009462000672575b50501b916000199060031b1c19161760075560ff90565b0151925038806200065b565b919083601f198116600760005284600020946000905b88838310620006cf5750505010620006b5575b505050811b0160075560ff90565b015160001960f88460031b161c19169055388080620006a7565b85870151885590960195948501948793509081019062000694565b62000710906007600052601f84600020910160051c810190601f860160051c016200038e565b386200063d565b90607f16906200062a56fe6080604052600436101561001257600080fd5b60003560e01c8063025e7c2714610c90578063086bb25914610c51578063173825d914610b15578063375b74c314610aec57806339f636ab14610a7357806342cde4e814610a5557806346a1a095146109d85780635d4bc638146109a55780637065cb48146108a857806384b0196e1461079e5780638d068043146107805780639b7b7b1e146107625780639f8a64e214610728578063c1c1be341461032f578063cfac4b31146101265763f2f4655e146100cc57600080fd5b34610121576020366003190112610121576100e5610d1f565b600054906001600160a01b0390818316330361010f576001600160a01b0319909216911617600055005b60405163918cb1dd60e01b8152600490fd5b600080fd5b346101215760603660031901126101215761013f610d1f565b6024356001600160801b03808216809203610121576044359063ffffffff808316918284036101215733600052600260205260ff604060002054161561031d57841561030b5782156102f9576101a66009549461019b86610fcf565b600955834216610fde565b956040519260c0840184811067ffffffffffffffff8211176102e3576040523384526020840190600160a01b600190038093169889835260408601948986528260608801921696878352608081019489865260a0820196600088528b6000526008602052806040600020935116906bffffffffffffffffffffffff60a01b918285541617845560018401925116908254161790556002019551166001600160801b0319865416178555511661027790849081549063ffffffff60801b9060801b169063ffffffff60801b1916179055565b518254915165ffffffffffff60a01b1990921660a09190911b63ffffffff60a01b161760c09190911b61ffff60c01b1617905560405193845260208401526040830152339160607fb48492f1f7a38c6b22feaef296c0c4861f3952771682cd990c9374874a28773d91a4005b634e487b7160e01b600052604160045260246000fd5b60405163160c112560e01b8152600490fd5b604051635e85ae7360e01b8152600490fd5b6040516330cd747160e01b8152600490fd5b346101215760403660031901126101215767ffffffffffffffff60243511610121573660236024350112156101215767ffffffffffffffff60243560040135116101215736602480356004013560051b8135010111610121576004356000526008602052604060002060028101544263ffffffff8260801c1611610716576005546001600160801b038216111561070e57600454905b8160243560040135106106fc5760018301546001600160a01b0316916000805b602435600401358110610576575010610564576020916000916001600160801b03604051918583019363a9059cbb60e01b855260248401521660448201526044815261043081610d75565b519082305af115610558576000513d61054f5750303b155b6105375761ffff9081600282015460c01c1691808314610521576002828101805461ffff60c01b191660019590950160c01b61ffff60c01b169490941790935561051f92906104fa9060018060a01b036001850154168385015491604051906001600160801b03841682528360c01c1660208201527fa91d4f2579c26d522ef9555559a2db441d5c0f9498b6b6cdc052eacddb567055604060043592a363ffffffff808260a01c169160801c16610fde565b9101805463ffffffff60801b191660809290921b63ffffffff60801b16919091179055565b005b634e487b7160e01b600052601160045260246000fd5b604051635274afe760e01b8152306004820152602490fd5b60011415610448565b6040513d6000823e3d90fd5b6040516340a2b1a360e01b8152600490fd5b60248160051b81350101356042196024353603018112156101215767ffffffffffffffff60248281350101351161012157604460248035830182810193929101353603831361012157604051906105de6024803585010135601f01601f191660200183610dad565b60248035840190810135808452369101909101116101215760006020602484610698968261068f9781350101359084870137813501013583010152604260405160208101907f5db0b9e48b5e2a2d788c8f9e014cc3770910447f57857ae28b3cc53f81e36a9982528a604082015260606001600160801b038b1681830152815261066781610d75565b519020610672611147565b906040519161190160f01b83526002830152602282015220610ff6565b909291926110c2565b6001600160a01b038116156106ea576001600160a01b031660009081526002602052604090205460ff166106d5575b6106d090610fcf565b6103e5565b906106e26106d091610fcf565b9190506106c7565b604051638baa579f60e01b8152600490fd5b60405163e246dc6360e01b8152600490fd5b6001906103c5565b60405163629d783360e11b8152600490fd5b34610121576020366003190112610121576001600160a01b03610749610d1f565b1660005260036020526020604060002054604051908152f35b34610121576000366003190112610121576020600954604051908152f35b34610121576000366003190112610121576020600454604051908152f35b34610121576000366003190112610121576107d87f0000000000000000000000000000000000000000000000000000000000000000610dcf565b6108017f0000000000000000000000000000000000000000000000000000000000000000610ef9565b60405160208082019282841067ffffffffffffffff8511176102e357918161085b859461084d979660405260008452604051978897600f60f81b895260e0858a015260e0890190610d35565b908782036040890152610d35565b91466060870152306080870152600060a087015285830360c0870152519182815201929160005b82811061089157505050500390f35b835185528695509381019392810192600101610882565b34610121576020366003190112610121576108c1610d1f565b6000546001600160a01b03908116330361010f5781169081600052600260205260ff604060002054166109935760015490680100000000000000008210156102e3576109168260016109359401600155610cd2565b90919082549060031b9160018060a01b03809116831b921b1916179055565b8060005260026020526040600020600160ff198254161790556001546000198101908111610521578160005260036020526040600020557f994a936646fe87ffe4f1e469d3d6aa417d6b855598397f323de5b449f765f0c3600080a2005b6040516325cfe06f60e11b8152600490fd5b34610121576000366003190112610121576000546001600160a01b038116330361010f576001600160a01b031916600055005b3461012157602036600319011261012157600435600052600860205260c0604060002061ffff60018060a01b0391600283825416936001830154169101549060405193845260208401526001600160801b038116604084015263ffffffff808260801c1660608501528160a01c166080840152831c1660a0820152f35b34610121576000366003190112610121576020600554604051908152f35b3461012157602036600319011261012157600054600435906001600160a01b0316330361010f576001548111610ad4576020817f10dbc913050d3180c3b99f7da91fd514af7cbc9c1bb59a0da5d2bc38f0cf395a92600455604051908152a1005b60249060405190630362bf2d60e51b82526004820152fd5b34610121576000366003190112610121576000546040516001600160a01b039091168152602090f35b346101215760208060031936011261012157610b2f610d1f565b6000546001600160a01b0391908216330361010f57811691826000526002815260ff6040600020541615610c3f578260005260038152604060002054916001549260001993848101908111610521578083918303610c0c575b505050600154928315610bf6576003930190610ba382610cd2565b9091825491861b1b191690556001558260005260028152604060002060ff19815416905552600060408120557f58619076adf5bb0943d100ef88d52d7c3fd691b19d3a9071b555b651fbf418da600080a2005b634e487b7160e01b600052603160045260246000fd5b610c1590610cd2565b90549060031b1c16610c2a8161091684610cd2565b60005260038352604060002055848181610b88565b604051631dd523ff60e31b8152600490fd5b34610121576020366003190112610121576001600160a01b03610c72610d1f565b166000526002602052602060ff604060002054166040519015158152f35b346101215760203660031901126101215760043560015481101561012157610cb9602091610cd2565b905460405160039290921b1c6001600160a01b03168152f35b600154811015610d095760016000527fb10e2d527612073b26eecdfd717e6a320cf44b4afac2b0732d9fcbe2b7fa0cf60190600090565b634e487b7160e01b600052603260045260246000fd5b600435906001600160a01b038216820361012157565b919082519283825260005b848110610d61575050826000602080949584010152601f8019910116010190565b602081830181015184830182015201610d40565b6080810190811067ffffffffffffffff8211176102e357604052565b6040810190811067ffffffffffffffff8211176102e357604052565b90601f8019910116810190811067ffffffffffffffff8211176102e357604052565b60ff8114610e0d5760ff811690601f8211610dfb5760405191610df183610d91565b8252602082015290565b604051632cd44ac360e21b8152600490fd5b50604051600060065490600182811c90808416938415610eef575b6020948584108114610edb5783875286949392918115610ebb5750600114610e5c575b5050610e5992500382610dad565b90565b9093915060066000527ff652222313e28459528d920b65115c16c04f3efc82aaedc97be59f3f377c0d3f936000915b818310610ea3575050610e5993508201013880610e4b565b85548784018501529485019486945091830191610e8b565b915050610e5994925060ff191682840152151560051b8201013880610e4b565b634e487b7160e01b85526022600452602485fd5b91607f1691610e28565b60ff8114610f1b5760ff811690601f8211610dfb5760405191610df183610d91565b50604051600060075490600182811c90808416938415610fc5575b6020948584108114610edb5783875286949392918115610ebb5750600114610f66575050610e5992500382610dad565b9093915060076000527fa66cc928b5edb82af9bd49922954155ab7b0942694bea4ce44661d9a8736c688936000915b818310610fad575050610e5993508201013880610e4b565b85548784018501529485019486945091830191610f95565b91607f1691610f36565b60001981146105215760010190565b91909163ffffffff8080941691160191821161052157565b81519190604183036110275761102092506020820151906060604084015193015160001a90611032565b9192909190565b505060009160029190565b91907f7fffffffffffffffffffffffffffffff5d576e7357a4501ddfe92f46681b20a084116110b657926020929160ff608095604051948552168484015260408301526060820152600092839182805260015afa156110aa5780516001600160a01b038116156110a157918190565b50809160019190565b604051903d90823e3d90fd5b50505060009160039190565b600481101561113157806110d4575050565b600181036110ee5760405163f645eedf60e01b8152600490fd5b6002810361110f5760405163fce698f760e01b815260048101839052602490fd5b6003146111195750565b602490604051906335e2f38360e21b82526004820152fd5b634e487b7160e01b600052602160045260246000fd5b307f00000000000000000000000000000000000000000000000000000000000000006001600160a01b03161480611249575b156111a2577f000000000000000000000000000000000000000000000000000000000000000090565b60405160208101907f8b73c3c69bb8fe3d512ecc4cf759cc79239f7b179b0ffacaa9a75d522b39400f82527f000000000000000000000000000000000000000000000000000000000000000060408201527f000000000000000000000000000000000000000000000000000000000000000060608201524660808201523060a082015260a0815260c0810181811067ffffffffffffffff8211176102e35760405251902090565b507f0000000000000000000000000000000000000000000000000000000000000000461461117956fea26469706673582212206753050889735d8e99cda40ce0af8ad04bfe2ca1b7cd5bef40d117850fbeb29164736f6c63430008140033",
  "linkReferences": {},
  "deployedLinkReferences": {}
}