{
  "_format": "hh-sol-artifact-1",
  "contractName": "Intents",
  "sourceName": "contracts/Intents.sol",
  "abi": [
    {
      "inputs": [
        {
          "internalType": "address[]",
          "name": "_owners",
          "type": "address[]"
        },
        {
          "internalType": "uint256",
          "name": "_requiredSignatures",
          "type": "uint256"
        },
        {
          "internalType": "uint256",
          "name": "_threshold",
          "type": "uint256"
        }
      ],
      "stateMutability": "nonpayable",
      "type": "constructor"
    },
    {
      "inputs": [],
      "name": "AlreadyAnOwner",
      "type": "error"
    },
    {
      "inputs": [
        {
          "internalType": "address",
          "name": "signer",
          "type": "address"
        }
      ],
      "name": "AlreadySigned",
      "type": "error"
    },
    {
      "inputs": [],
      "name": "AmountMustBeGreaterThanZero",
      "type": "error"
    },
    {
      "inputs": [],
      "name": "ECDSAInvalidSignature",
      "type": "error"
    },
    {
      "inputs": [
        {
          "internalType": "uint256",
          "name": "length",
          "type": "uint256"
        }
      ],
      "name": "ECDSAInvalidSignatureLength",
      "type": "error"
    },
    {
      "inputs": [
        {
          "internalType": "bytes32",
          "name": "s",
          "type": "bytes32"
        }
      ],
      "name": "ECDSAInvalidSignatureS",
      "type": "error"
    },
    {
      "inputs": [],
      "name": "ExecutionTimeNotReached",
      "type": "error"
    },
    {
      "inputs": [
        {
          "internalType": "uint256",
          "name": "required",
          "type": "uint256"
        }
      ],
      "name": "InsufficientOwners",
      "type": "error"
    },
    {
      "inputs": [],
      "name": "InsufficientSignaturesForAmount",
      "type": "error"
    },
    {
      "inputs": [],
      "name": "IntentAlreadyCancelled",
      "type": "error"
    },
    {
      "inputs": [],
      "name": "IntentNotApproved",
      "type": "error"
    },
    {
      "inputs": [],
      "name": "InvalidShortString",
      "type": "error"
    },
    {
      "inputs": [],
      "name": "InvalidSignature",
      "type": "error"
    },
    {
      "inputs": [],
      "name": "NotAnOwner",
      "type": "error"
    },
    {
      "inputs": [],
      "name": "NotCustodian",
      "type": "error"
    },
    {
      "inputs": [],
      "name": "NotEnoughSignatures",
      "type": "error"
    },
    {
      "inputs": [],
      "name": "NotOwner",
      "type": "error"
    },
    {
      "inputs": [],
      "name": "RecurringIntervalMustBeGreaterThanZero",
      "type": "error"
    },
    {
      "inputs": [
        {
          "internalType": "address",
          "name": "token",
          "type": "address"
        }
      ],
      "name": "SafeERC20FailedOperation",
      "type": "error"
    },
    {
      "inputs": [
        {
          "internalType": "string",
          "name": "str",
          "type": "string"
        }
      ],
      "name": "StringTooLong",
      "type": "error"
    },
    {
      "inputs": [],
      "name": "ThresholdMustBeGreaterThanZero",
      "type": "error"
    },
    {
      "anonymous": false,
      "inputs": [],
      "name": "EIP712DomainChanged",
      "type": "event"
    },
    {
      "anonymous": false,
      "inputs": [
        {
          "indexed": true,
          "internalType": "uint256",
          "name": "intentId",
          "type": "uint256"
        }
      ],
      "name": "IntentApproved",
      "type": "event"
    },
    {
      "anonymous": false,
      "inputs": [
        {
          "indexed": true,
          "internalType": "uint256",
          "name": "intentId",
          "type": "uint256"
        }
      ],
      "name": "IntentCancelled",
      "type": "event"
    },
    {
      "anonymous": false,
      "inputs": [
        {
          "indexed": true,
          "internalType": "uint256",
          "name": "intentId",
          "type": "uint256"
        },
        {
          "indexed": true,
          "internalType": "address",
          "name": "user",
          "type": "address"
        },
        {
          "indexed": true,
          "internalType": "address",
          "name": "to",
          "type": "address"
        },
        {
          "indexed": false,
          "internalType": "uint128",
          "name": "amount",
          "type": "uint128"
        },
        {
          "indexed": false,
          "internalType": "uint32",
          "name": "nextExecutionTime",
          "type": "uint32"
        },
        {
          "indexed": false,
          "internalType": "uint32",
          "name": "recurringInterval",
          "type": "uint32"
        }
      ],
      "name": "IntentCreated",
      "type": "event"
    },
    {
      "anonymous": false,
      "inputs": [
        {
          "indexed": true,
          "internalType": "uint256",
          "name": "intentId",
          "type": "uint256"
        },
        {
          "indexed": true,
          "internalType": "address",
          "name": "to",
          "type": "address"
        },
        {
          "indexed": false,
          "internalType": "uint128",
          "name": "amount",
          "type": "uint128"
        },
        {
          "indexed": false,
          "internalType": "uint256",
          "name": "executionCount",
          "type": "uint256"
        }
      ],
      "name": "IntentExecuted",
      "type": "event"
    },
    {
      "anonymous": false,
      "inputs": [
        {
          "indexed": true,
          "internalType": "address",
          "name": "newOwner",
          "type": "address"
        }
      ],
      "name": "OwnerAdded",
      "type": "event"
    },
    {
      "anonymous": false,
      "inputs": [
        {
          "indexed": true,
          "internalType": "address",
          "name": "removedOwner",
          "type": "address"
        }
      ],
      "name": "OwnerRemoved",
      "type": "event"
    },
    {
      "anonymous": false,
      "inputs": [
        {
          "indexed": false,
          "internalType": "uint256",
          "name": "newRequiredSignatures",
          "type": "uint256"
        }
      ],
      "name": "RequiredSignaturesChanged",
      "type": "event"
    },
    {
      "anonymous": false,
      "inputs": [
        {
          "indexed": false,
          "internalType": "uint256",
          "name": "newThreshold",
          "type": "uint256"
        }
      ],
      "name": "ThresholdChanged",
      "type": "event"
    },
    {
      "inputs": [
        {
          "internalType": "address",
          "name": "_owner",
          "type": "address"
        }
      ],
      "name": "addOwner",
      "outputs": [],
      "stateMutability": "nonpayable",
      "type": "function"
    },
    {
      "inputs": [
        {
          "internalType": "uint256",
          "name": "_intentId",
          "type": "uint256"
        },
        {
          "internalType": "bytes[]",
          "name": "_signatures",
          "type": "bytes[]"
        }
      ],
      "name": "approveIntent",
      "outputs": [],
      "stateMutability": "nonpayable",
      "type": "function"
    },
    {
      "inputs": [
        {
          "internalType": "uint256",
          "name": "_intentId",
          "type": "uint256"
        },
        {
          "internalType": "bytes[]",
          "name": "_signatures",
          "type": "bytes[]"
        }
      ],
      "name": "cancelIntent",
      "outputs": [],
      "stateMutability": "nonpayable",
      "type": "function"
    },
    {
      "inputs": [
        {
          "internalType": "uint256",
          "name": "_newRequiredSignatures",
          "type": "uint256"
        }
      ],
      "name": "changeRequiredSignatures",
      "outputs": [],
      "stateMutability": "nonpayable",
      "type": "function"
    },
    {
      "inputs": [
        {
          "internalType": "address",
          "name": "_to",
          "type": "address"
        },
        {
          "internalType": "uint128",
          "name": "_amount",
          "type": "uint128"
        },
        {
          "internalType": "uint32",
          "name": "_recurringInterval",
          "type": "uint32"
        }
      ],
      "name": "createIntent",
      "outputs": [],
      "stateMutability": "nonpayable",
      "type": "function"
    },
    {
      "inputs": [],
      "name": "custodian",
      "outputs": [
        {
          "internalType": "address",
          "name": "",
          "type": "address"
        }
      ],
      "stateMutability": "view",
      "type": "function"
    },
    {
      "inputs": [],
      "name": "eip712Domain",
      "outputs": [
        {
          "internalType": "bytes1",
          "name": "fields",
          "type": "bytes1"
        },
        {
          "internalType": "string",
          "name": "name",
          "type": "string"
        },
        {
          "internalType": "string",
          "name": "version",
          "type": "string"
        },
        {
          "internalType": "uint256",
          "name": "chainId",
          "type": "uint256"
        },
        {
          "internalType": "address",
          "name": "verifyingContract",
          "type": "address"
        },
        {
          "internalType": "bytes32",
          "name": "salt",
          "type": "bytes32"
        },
        {
          "internalType": "uint256[]",
          "name": "extensions",
          "type": "uint256[]"
        }
      ],
      "stateMutability": "view",
      "type": "function"
    },
    {
      "inputs": [
        {
          "internalType": "uint256",
          "name": "_intentId",
          "type": "uint256"
        }
      ],
      "name": "executeIntent",
      "outputs": [],
      "stateMutability": "nonpayable",
      "type": "function"
    },
    {
      "inputs": [],
      "name": "getOwners",
      "outputs": [
        {
          "internalType": "address[]",
          "name": "",
          "type": "address[]"
        }
      ],
      "stateMutability": "view",
      "type": "function"
    },
    {
      "inputs": [
        {
          "internalType": "uint256",
          "name": "",
          "type": "uint256"
        }
      ],
      "name": "intents",
      "outputs": [
        {
          "internalType": "address",
          "name": "user",
          "type": "address"
        },
        {
          "internalType": "address",
          "name": "to",
          "type": "address"
        },
        {
          "internalType": "uint128",
          "name": "amount",
          "type": "uint128"
        },
        {
          "internalType": "uint32",
          "name": "nextExecutionTime",
          "type": "uint32"
        },
        {
          "internalType": "uint32",
          "name": "recurringInterval",
          "type": "uint32"
        },
        {
          "internalType": "uint16",
          "name": "executionCount",
          "type": "uint16"
        },
        {
          "internalType": "bool",
          "name": "approved",
          "type": "bool"
        },
        {
          "internalType": "bool",
          "name": "cancelled",
          "type": "bool"
        }
      ],
      "stateMutability": "view",
      "type": "function"
    },
    {
      "inputs": [
        {
          "internalType": "address",
          "name": "",
          "type": "address"
        }
      ],
      "name": "isOwnerMapping",
      "outputs": [
        {
          "internalType": "bool",
          "name": "",
          "type": "bool"
        }
      ],
      "stateMutability": "view",
      "type": "function"
    },
    {
      "inputs": [],
      "name": "nextIntentId",
      "outputs": [
        {
          "internalType": "uint256",
          "name": "",
          "type": "uint256"
        }
      ],
      "stateMutability": "view",
      "type": "function"
    },
    {
      "inputs": [
        {
          "internalType": "uint256",
          "name": "",
          "type": "uint256"
        }
      ],
      "name": "owners",
      "outputs": [
        {
          "internalType": "address",
          "name": "",
          "type": "address"
        }
      ],
      "stateMutability": "view",
      "type": "function"
    },
    {
      "inputs": [
        {
          "internalType": "address",
          "name": "_owner",
          "type": "address"
        }
      ],
      "name": "removeOwner",
      "outputs": [],
      "stateMutability": "nonpayable",
      "type": "function"
    },
    {
      "inputs": [],
      "name": "renounceCustodian",
      "outputs": [],
      "stateMutability": "nonpayable",
      "type": "function"
    },
    {
      "inputs": [
        {
          "internalType": "address",
          "name": "_newCustodian",
          "type": "address"
        }
      ],
      "name": "replaceCustodian",
      "outputs": [],
      "stateMutability": "nonpayable",
      "type": "function"
    },
    {
      "inputs": [],
      "name": "requiredSignatures",
      "outputs": [
        {
          "internalType": "uint256",
          "name": "",
          "type": "uint256"
        }
      ],
      "stateMutability": "view",
      "type": "function"
    },
    {
      "inputs": [],
      "name": "threshold",
      "outputs": [
        {
          "internalType": "uint256",
          "name": "",
          "type": "uint256"
        }
      ],
      "stateMutability": "view",
      "type": "function"
    }
  ],
  "bytecode": "0x610160604081815234620003585762001e0f803803809162000022828662000379565b8439820191606081840312620003585780516001600160401b039290838111620003585782019084601f8301121562000358578151848111620002f95760059181831b968151946020936200007a858b018862000379565b86528386019084829a82010192831162000358578401905b8282106200033757505050808286015195015196815195620000b4876200035d565b600f8752838701956e125b9d195b9d1cd0dbdb9d1c9858dd608a1b8752835195620000df876200035d565b60019182885286880193603160f81b85528082511062000320578c156200030f578151958c8711620002f957680100000000000000008711620002f9578454878655808810620002d9575b509560009685885289882086895b848110620002bd57505050600392909255505060049b8c5584546001600160a01b0319163317855584835b62000263575b505050506200017887620003b6565b956101209687526200018a8662000583565b97610140988952519020948560e0525190209761010098808a524660a0528351948501957f8b73c3c69bb8fe3d512ecc4cf759cc79239f7b179b0ffacaa9a75d522b39400f87528486015260608501524660808501523060a085015260a0845260c084019784891090891117620002505750508590525190206080523060c0526116e093846200072f85396080518461155f015260a0518461162b015260c05184611529015260e051846115ae015251836115d40152518261066b015251816106940152f35b634e487b7160e01b825260419052602490fd5b8151811015620002b75780831b82018801516001600160a01b0316865260028852868620805460ff1916851790556000198114620002a45783018362000163565b634e487b7160e01b865260118d52602486fd5b62000169565b83516001600160a01b031683820155928c019288910162000138565b620002f29086600052888b60002091820191016200039d565b386200012a565b634e487b7160e01b600052604160045260246000fd5b8651630372105960e61b8152600490fd5b602490875190630362bf2d60e51b82526004820152fd5b81516001600160a01b03811681036200035857815290840190840162000092565b600080fd5b604081019081106001600160401b03821117620002f957604052565b601f909101601f19168101906001600160401b03821190821017620002f957604052565b818110620003a9575050565b600081556001016200039d565b8051602091908281101562000455575090601f825111620003f45780825192015190808310620003e557501790565b82600019910360031b1b161790565b90604051809263305a27a960e01b82528060048301528251908160248401526000935b8285106200043b575050604492506000838284010152601f80199101168101030190fd5b848101820151868601604401529381019385935062000417565b6001600160401b038111620002f9576005928354926001938481811c9116801562000578575b838210146200056257601f811162000538575b5081601f8411600114620004ce5750928293918392600094620004c2575b50501b916000199060031b1c191617905560ff90565b015192503880620004ac565b919083601f1981168760005284600020946000905b888383106200051d575050501062000503575b505050811b01905560ff90565b015160001960f88460031b161c19169055388080620004f6565b858701518855909601959485019487935090810190620004e3565b6200055b9086600052601f846000209101871c810190601f8601881c016200039d565b386200048e565b634e487b7160e01b600052602260045260246000fd5b90607f16906200047b565b805160209081811015620006115750601f825111620005b05780825192015190808310620003e557501790565b90604051809263305a27a960e01b82528060048301528251908160248401526000935b828510620005f7575050604492506000838284010152601f80199101168101030190fd5b8481018201518686016044015293810193859350620005d3565b906001600160401b038211620002f957600654926001938481811c9116801562000723575b838210146200056257601f8111620006f6575b5081601f84116001146200068a57509282939183926000946200067e575b50501b916000199060031b1c19161760065560ff90565b01519250388062000667565b919083601f198116600660005284600020946000905b88838310620006db5750505010620006c1575b505050811b0160065560ff90565b015160001960f88460031b161c19169055388080620006b3565b858701518855909601959485019487935090810190620006a0565b6200071c906006600052601f84600020910160051c810190601f860160051c016200039d565b3862000649565b90607f16906200063656fe6080604052600436101561001257600080fd5b60003560e01c8063025e7c2714610e8b578063086bb25914610e4c578063173825d914610d0d578063375b74c314610ce457806339f636ab14610c6b57806342cde4e814610c4d57806346a1a09514610bb35780635d4bc63814610b805780636550db5214610a105780637065cb48146109315780637b4077831461075f57806384b0196e146106555780638d068043146106375780639b7b7b1e14610619578063a0e67e2b14610559578063cd9d6aee14610387578063cfac4b311461013c5763f2f4655e146100e257600080fd5b34610137576020366003190112610137576100fb610f1a565b600054906001600160a01b03908183163303610125576001600160a01b0319909216911617600055005b60405163918cb1dd60e01b8152600490fd5b600080fd5b3461013757606036600319011261013757610155610f1a565b6024356001600160801b0391828216809203610137576044359063ffffffff90818316918284036101375733600052600260205260ff6040600020541615610375578415610363578215610351576101be600854946101b386611232565b600855824216611241565b91604051610100810181811067ffffffffffffffff82111761033b576040523381526020810190600160a01b600190038093169889835260408201948986528060608401971696878152608084019289845260a08501946000865260c08101966000885260e082019860008a528d6000526007602052806040600020935116906bffffffffffffffffffffffff60a01b918285541617845560018401925116908254161790556002019751166001600160801b031988541617875551166102a190869081549063ffffffff60801b9060801b169063ffffffff60801b1916179055565b518454915165ffffffffffff60a01b1990921660a09190911b63ffffffff60a01b161760c09190911b61ffff60c01b16178355518254915161ffff60d01b1990921690151560d01b60ff60d01b161790151560d81b60ff60d81b1617905560408051948552602085019190915283015233917fb48492f1f7a38c6b22feaef296c0c4861f3952771682cd990c9374874a28773d90606090a4005b634e487b7160e01b600052604160045260246000fd5b60405163160c112560e01b8152600490fd5b604051635e85ae7360e01b8152600490fd5b6040516330cd747160e01b8152600490fd5b3461013757602036600319011261013757600435806000526007602052604060002090600282019081549060ff8260d01c1615801561054c575b61053a5763ffffffff9342858460801c1611610528576001019360018060a01b039260206000858854166040518381019163a9059cbb60e01b835260248201526001600160801b0380951660448201526044815261041e81610fc0565b519082305af11561051c576000513d6105135750303b155b6104fb5761ffff9283865460c01c16968488146104e557865461ffff60c01b191660019890980160c01b61ffff60c01b169790971786556104e3966104c3957fa91d4f2579c26d522ef9555559a2db441d5c0f9498b6b6cdc052eacddb5670559160409190541693885496825191881682528760c01c166020820152a3808260a01c169160801c16611241565b815463ffffffff60801b191660809190911b63ffffffff60801b16179055565b005b634e487b7160e01b600052601160045260246000fd5b604051635274afe760e01b8152306004820152602490fd5b60011415610436565b6040513d6000823e3d90fd5b60405163629d783360e11b8152600490fd5b6040516334808f6760e21b8152600490fd5b5060ff8260d81c166103c1565b346101375760003660031901126101375760405180600180549283815260208091018094836000527fb10e2d527612073b26eecdfd717e6a320cf44b4afac2b0732d9fcbe2b7fa0cf69060005b8181106105fd57505050836105bc910384610ff8565b60405192818401908285525180915260408401949160005b8281106105e15785870386f35b83516001600160a01b03168752958101959281019284016105d4565b82546001600160a01b03168452928401929185019185016105a6565b34610137576000366003190112610137576020600854604051908152f35b34610137576000366003190112610137576020600354604051908152f35b346101375760003660031901126101375761068f7f0000000000000000000000000000000000000000000000000000000000000000611032565b6106b87f000000000000000000000000000000000000000000000000000000000000000061115c565b60405160208082019282841067ffffffffffffffff85111761033b5791816107128594610704979660405260008452604051978897600f60f81b895260e0858a015260e0890190610f80565b908782036040890152610f80565b91466060870152306080870152600060a087015285830360c0870152519182815201929160005b82811061074857505050500390f35b835185528695509381019392810192600101610739565b346101375761076d36610f30565b82600052600760205260406000209160028301549160ff8360d81c1661091f576004546001600160801b038416111561091757600354915b82821061090557906000916107b982611259565b600187015490926001600160a01b039091169060005b81811061082d5750505050501061081b5760ff60d81b1916600160d81b17600291909101557f2d8c53f76eb0afab114916b6c3aa17406ad39c7e874c92b099f79ab89c2e2a54600080a2005b6040516340a2b1a360e01b8152600490fd5b61085061086061083e83858861128b565b6001600160a01b0393913691906112cd565b6001600160801b038b1686611328565b1680600052600260205260ff60406000205416610887575b5061088290611232565b6107cf565b600096919660005b8381106108d3575b506108bb57816108b4916108ae6108829489611314565b52611232565b9590610878565b60249060405190635fcc2bd360e11b82526004820152fd5b826001600160a01b036108e6838b611314565b5116146108fb576108f690611232565b61088f565b505060018c610897565b60405163e246dc6360e01b8152600490fd5b6001916107a5565b604051631f10cff160e01b8152600490fd5b346101375760203660031901126101375761094a610f1a565b6000546001600160a01b0390811633036101255781169081600052600260205260ff604060002054166109fe57600154906801000000000000000082101561033b5761099f8260016109be9401600155610ecd565b90919082549060031b9160018060a01b03809116831b921b1916179055565b8060005260026020526040600020600160ff198254161790557f994a936646fe87ffe4f1e469d3d6aa417d6b855598397f323de5b449f765f0c3600080a2005b6040516325cfe06f60e11b8152600490fd5b3461013757610a1e36610f30565b82600052600760205260406000209160028301549160ff8360d01c168015610b73575b61091f576004546001600160801b0384161115610b6b57600354915b8282106109055790600091610a7182611259565b600187015490926001600160a01b039091169060005b818110610ad35750505050501061081b5760ff60d01b1916600160d01b17600291909101557f0f282feb59a77879c639d8e34c39a6d8d8db1e147493de31406690ac4fd5733f600080a2005b610850610ae461083e83858861128b565b1680600052600260205260ff60406000205416610b0b575b50610b0690611232565b610a87565b600096919660005b838110610b39575b506108bb5781610b32916108ae610b069489611314565b9590610afc565b826001600160a01b03610b4c838b611314565b511614610b6157610b5c90611232565b610b13565b505060018c610b1b565b600191610a5d565b5060ff8360d81c16610a41565b34610137576000366003190112610137576000546001600160a01b0381163303610125576001600160a01b031916600055005b34610137576020366003190112610137576004356000526007602052610100604060002060ff60018060a01b0391600283825416936001830154169101549060405193845260208401526001600160801b038116604084015263ffffffff808260801c1660608501528160a01c16608084015261ffff8160c01c1660a0840152818160d01c16151560c084015260d81c16151560e0820152f35b34610137576000366003190112610137576020600454604051908152f35b3461013757602036600319011261013757600054600435906001600160a01b03163303610125576001548111610ccc576020817f10dbc913050d3180c3b99f7da91fd514af7cbc9c1bb59a0da5d2bc38f0cf395a92600355604051908152a1005b60249060405190630362bf2d60e51b82526004820152fd5b34610137576000366003190112610137576000546040516001600160a01b039091168152602090f35b3461013757602036600319011261013757610d26610f1a565b6000546001600160a01b039081163303610125578082169182600052600260205260ff6040600020541615610e3a57610d5e90611651565b60015460001991908281019081116104e5578181859303610df4575b5050506001548015610dde570190610d9182610ecd565b909182549160031b1b19169055600155806000526002602052604060002060ff1981541690557f58619076adf5bb0943d100ef88d52d7c3fd691b19d3a9071b555b651fbf418da600080a2005b634e487b7160e01b600052603160045260246000fd5b610e3292610e04610e0d93610ecd565b93905492610ecd565b92909360031b1c169082549060031b9160018060a01b03809116831b921b1916179055565b818480610d7a565b604051631dd523ff60e31b8152600490fd5b34610137576020366003190112610137576001600160a01b03610e6d610f1a565b166000526002602052602060ff604060002054166040519015158152f35b346101375760203660031901126101375760043560015481101561013757610eb4602091610ecd565b905460405160039290921b1c6001600160a01b03168152f35b600154811015610f045760016000527fb10e2d527612073b26eecdfd717e6a320cf44b4afac2b0732d9fcbe2b7fa0cf60190600090565b634e487b7160e01b600052603260045260246000fd5b600435906001600160a01b038216820361013757565b6040600319820112610137576004359160243567ffffffffffffffff9283821161013757806023830112156101375781600401359384116101375760248460051b83010111610137576024019190565b919082519283825260005b848110610fac575050826000602080949584010152601f8019910116010190565b602081830181015184830182015201610f8b565b6080810190811067ffffffffffffffff82111761033b57604052565b6040810190811067ffffffffffffffff82111761033b57604052565b90601f8019910116810190811067ffffffffffffffff82111761033b57604052565b67ffffffffffffffff811161033b5760051b60200190565b60ff81146110705760ff811690601f821161105e576040519161105483610fdc565b8252602082015290565b604051632cd44ac360e21b8152600490fd5b50604051600060055490600182811c90808416938415611152575b602094858410811461113e578387528694939291811561111e57506001146110bf575b50506110bc92500382610ff8565b90565b9093915060056000527f036b6384b5eca791c62761152d0c79bb0604c104a5fb6f4eb0703f3154bb3db0936000915b8183106111065750506110bc935082010138806110ae565b855487840185015294850194869450918301916110ee565b9150506110bc94925060ff191682840152151560051b82010138806110ae565b634e487b7160e01b85526022600452602485fd5b91607f169161108b565b60ff811461117e5760ff811690601f821161105e576040519161105483610fdc565b50604051600060065490600182811c90808416938415611228575b602094858410811461113e578387528694939291811561111e57506001146111c95750506110bc92500382610ff8565b9093915060066000527ff652222313e28459528d920b65115c16c04f3efc82aaedc97be59f3f377c0d3f936000915b8183106112105750506110bc935082010138806110ae565b855487840185015294850194869450918301916111f8565b91607f1691611199565b60001981146104e55760010190565b91909163ffffffff808094169116019182116104e557565b906112638261101a565b6112706040519182610ff8565b8281528092611281601f199161101a565b0190602036910137565b9190811015610f045760051b81013590601e198136030182121561013757019081359167ffffffffffffffff8311610137576020018236038113610137579190565b92919267ffffffffffffffff821161033b57604051916112f7601f8201601f191660200184610ff8565b829481845281830111610137578281602093846000960137010152565b8051821015610f045760209160051b010190565b906113b99260426113b0926040516001600160801b0360208201927f5db0b9e48b5e2a2d788c8f9e014cc3770910447f57857ae28b3cc53f81e36a99845260018060a01b0380981660408401521660608201526060815261138881610fc0565b519020611393611526565b906040519161190160f01b835260028301526022820152206113d5565b909391936114a1565b8116156113c35790565b604051638baa579f60e01b8152600490fd5b8151919060418303611406576113ff92506020820151906060604084015193015160001a90611411565b9192909190565b505060009160029190565b91907f7fffffffffffffffffffffffffffffff5d576e7357a4501ddfe92f46681b20a0841161149557926020929160ff608095604051948552168484015260408301526060820152600092839182805260015afa156114895780516001600160a01b0381161561148057918190565b50809160019190565b604051903d90823e3d90fd5b50505060009160039190565b600481101561151057806114b3575050565b600181036114cd5760405163f645eedf60e01b8152600490fd5b600281036114ee5760405163fce698f760e01b815260048101839052602490fd5b6003146114f85750565b602490604051906335e2f38360e21b82526004820152fd5b634e487b7160e01b600052602160045260246000fd5b307f00000000000000000000000000000000000000000000000000000000000000006001600160a01b03161480611628575b15611581577f000000000000000000000000000000000000000000000000000000000000000090565b60405160208101907f8b73c3c69bb8fe3d512ecc4cf759cc79239f7b179b0ffacaa9a75d522b39400f82527f000000000000000000000000000000000000000000000000000000000000000060408201527f000000000000000000000000000000000000000000000000000000000000000060608201524660808201523060a082015260a0815260c0810181811067ffffffffffffffff82111761033b5760405251902090565b507f00000000000000000000000000000000000000000000000000000000000000004614611558565b6001549060005b82811061167157604051631dd523ff60e31b8152600490fd5b61167a81610ecd565b905460039190911b1c6001600160a01b03908116908316146116a45761169f90611232565b611658565b9150509056fea264697066735822122038caf7bff9c4a83431dc35042b86107d5710254ecd3664003c91ef2ee470e15764736f6c63430008140033",
  "linkReferences": {},
  "deployedLinkReferences": {}
}