{
  "_format": "hh-sol-artifact-1",
  "contractName": "SignatureTransfer",
  "sourceName": "contracts/permit/SignatureTransfer.sol",
  "abi": [
    {
      "inputs": [
        {
          "internalType": "uint256",
          "name": "maxAmount",
          "type": "uint256"
        }
      ],
      "name": "InvalidAmount",
      "type": "error"
    },
    {
      "inputs": [],
      "name": "InvalidContractSignature",
      "type": "error"
    },
    {
      "inputs": [],
      "name": "InvalidNonce",
      "type": "error"
    },
    {
      "inputs": [],
      "name": "InvalidSignature",
      "type": "error"
    },
    {
      "inputs": [],
      "name": "InvalidSignatureLength",
      "type": "error"
    },
    {
      "inputs": [],
      "name": "InvalidSigner",
      "type": "error"
    },
    {
      "inputs": [],
      "name": "LengthMismatch",
      "type": "error"
    },
    {
      "inputs": [
        {
          "internalType": "uint256",
          "name": "signatureDeadline",
          "type": "uint256"
        }
      ],
      "name": "SignatureExpired",
      "type": "error"
    },
    {
      "anonymous": false,
      "inputs": [
        {
          "indexed": true,
          "internalType": "address",
          "name": "owner",
          "type": "address"
        },
        {
          "indexed": false,
          "internalType": "uint256",
          "name": "word",
          "type": "uint256"
        },
        {
          "indexed": false,
          "internalType": "uint256",
          "name": "mask",
          "type": "uint256"
        }
      ],
      "name": "UnorderedNonceInvalidation",
      "type": "event"
    },
    {
      "inputs": [],
      "name": "DOMAIN_SEPARATOR",
      "outputs": [
        {
          "internalType": "bytes32",
          "name": "",
          "type": "bytes32"
        }
      ],
      "stateMutability": "view",
      "type": "function"
    },
    {
      "inputs": [
        {
          "internalType": "uint256",
          "name": "wordPos",
          "type": "uint256"
        },
        {
          "internalType": "uint256",
          "name": "mask",
          "type": "uint256"
        }
      ],
      "name": "invalidateUnorderedNonces",
      "outputs": [],
      "stateMutability": "nonpayable",
      "type": "function"
    },
    {
      "inputs": [
        {
          "internalType": "address",
          "name": "",
          "type": "address"
        },
        {
          "internalType": "uint256",
          "name": "",
          "type": "uint256"
        }
      ],
      "name": "nonceBitmap",
      "outputs": [
        {
          "internalType": "uint256",
          "name": "",
          "type": "uint256"
        }
      ],
      "stateMutability": "view",
      "type": "function"
    },
    {
      "inputs": [
        {
          "components": [
            {
              "components": [
                {
                  "internalType": "address",
                  "name": "token",
                  "type": "address"
                },
                {
                  "internalType": "uint256",
                  "name": "amount",
                  "type": "uint256"
                }
              ],
              "internalType": "struct ISignatureTransfer.TokenPermissions",
              "name": "permitted",
              "type": "tuple"
            },
            {
              "internalType": "uint256",
              "name": "nonce",
              "type": "uint256"
            },
            {
              "internalType": "uint256",
              "name": "deadline",
              "type": "uint256"
            }
          ],
          "internalType": "struct ISignatureTransfer.PermitTransferFrom",
          "name": "permit",
          "type": "tuple"
        },
        {
          "components": [
            {
              "internalType": "address",
              "name": "to",
              "type": "address"
            },
            {
              "internalType": "uint256",
              "name": "requestedAmount",
              "type": "uint256"
            }
          ],
          "internalType": "struct ISignatureTransfer.SignatureTransferDetails",
          "name": "transferDetails",
          "type": "tuple"
        },
        {
          "internalType": "address",
          "name": "owner",
          "type": "address"
        },
        {
          "internalType": "bytes",
          "name": "signature",
          "type": "bytes"
        }
      ],
      "name": "permitTransferFrom",
      "outputs": [],
      "stateMutability": "nonpayable",
      "type": "function"
    },
    {
      "inputs": [
        {
          "components": [
            {
              "components": [
                {
                  "internalType": "address",
                  "name": "token",
                  "type": "address"
                },
                {
                  "internalType": "uint256",
                  "name": "amount",
                  "type": "uint256"
                }
              ],
              "internalType": "struct ISignatureTransfer.TokenPermissions[]",
              "name": "permitted",
              "type": "tuple[]"
            },
            {
              "internalType": "uint256",
              "name": "nonce",
              "type": "uint256"
            },
            {
              "internalType": "uint256",
              "name": "deadline",
              "type": "uint256"
            }
          ],
          "internalType": "struct ISignatureTransfer.PermitBatchTransferFrom",
          "name": "permit",
          "type": "tuple"
        },
        {
          "components": [
            {
              "internalType": "address",
              "name": "to",
              "type": "address"
            },
            {
              "internalType": "uint256",
              "name": "requestedAmount",
              "type": "uint256"
            }
          ],
          "internalType": "struct ISignatureTransfer.SignatureTransferDetails[]",
          "name": "transferDetails",
          "type": "tuple[]"
        },
        {
          "internalType": "address",
          "name": "owner",
          "type": "address"
        },
        {
          "internalType": "bytes",
          "name": "signature",
          "type": "bytes"
        }
      ],
      "name": "permitTransferFrom",
      "outputs": [],
      "stateMutability": "nonpayable",
      "type": "function"
    },
    {
      "inputs": [
        {
          "components": [
            {
              "components": [
                {
                  "internalType": "address",
                  "name": "token",
                  "type": "address"
                },
                {
                  "internalType": "uint256",
                  "name": "amount",
                  "type": "uint256"
                }
              ],
              "internalType": "struct ISignatureTransfer.TokenPermissions",
              "name": "permitted",
              "type": "tuple"
            },
            {
              "internalType": "uint256",
              "name": "nonce",
              "type": "uint256"
            },
            {
              "internalType": "uint256",
              "name": "deadline",
              "type": "uint256"
            }
          ],
          "internalType": "struct ISignatureTransfer.PermitTransferFrom",
          "name": "permit",
          "type": "tuple"
        },
        {
          "components": [
            {
              "internalType": "address",
              "name": "to",
              "type": "address"
            },
            {
              "internalType": "uint256",
              "name": "requestedAmount",
              "type": "uint256"
            }
          ],
          "internalType": "struct ISignatureTransfer.SignatureTransferDetails",
          "name": "transferDetails",
          "type": "tuple"
        },
        {
          "internalType": "address",
          "name": "owner",
          "type": "address"
        },
        {
          "internalType": "bytes32",
          "name": "witness",
          "type": "bytes32"
        },
        {
          "internalType": "string",
          "name": "witnessTypeString",
          "type": "string"
        },
        {
          "internalType": "bytes",
          "name": "signature",
          "type": "bytes"
        }
      ],
      "name": "permitWitnessTransferFrom",
      "outputs": [],
      "stateMutability": "nonpayable",
      "type": "function"
    },
    {
      "inputs": [
        {
          "components": [
            {
              "components": [
                {
                  "internalType": "address",
                  "name": "token",
                  "type": "address"
                },
                {
                  "internalType": "uint256",
                  "name": "amount",
                  "type": "uint256"
                }
              ],
              "internalType": "struct ISignatureTransfer.TokenPermissions[]",
              "name": "permitted",
              "type": "tuple[]"
            },
            {
              "internalType": "uint256",
              "name": "nonce",
              "type": "uint256"
            },
            {
              "internalType": "uint256",
              "name": "deadline",
              "type": "uint256"
            }
          ],
          "internalType": "struct ISignatureTransfer.PermitBatchTransferFrom",
          "name": "permit",
          "type": "tuple"
        },
        {
          "components": [
            {
              "internalType": "address",
              "name": "to",
              "type": "address"
            },
            {
              "internalType": "uint256",
              "name": "requestedAmount",
              "type": "uint256"
            }
          ],
          "internalType": "struct ISignatureTransfer.SignatureTransferDetails[]",
          "name": "transferDetails",
          "type": "tuple[]"
        },
        {
          "internalType": "address",
          "name": "owner",
          "type": "address"
        },
        {
          "internalType": "bytes32",
          "name": "witness",
          "type": "bytes32"
        },
        {
          "internalType": "string",
          "name": "witnessTypeString",
          "type": "string"
        },
        {
          "internalType": "bytes",
          "name": "signature",
          "type": "bytes"
        }
      ],
      "name": "permitWitnessTransferFrom",
      "outputs": [],
      "stateMutability": "nonpayable",
      "type": "function"
    }
  ],
  "bytecode": "0x60c0346100bb574660a052602081017f8cad95687ba82c2ce50e74f7b754645e5117c3a5bec8151c0726d5857980a86681527f9ac997416e8ff9d2ff6bebeb7149f65cdae5e32e2b90440b566bb3044041d36a60408301524660608301523060808301526080825260a082019180831060018060401b038411176100a5578260405251902060805261108890816100c18239608051816109ae015260a051816109880152f35b634e487b7160e01b600052604160045260246000fd5b600080fdfe6040608081526004908136101561001557600080fd5b600090813560e01c8063137c29fe1461054d57806330f28b7a1461048a5780633644e515146104675780633ff9dcb1146104055780634fe02b44146103bf578063edd9444b146102935763fe8ec1a71461006e57600080fd5b3461028f5760c036600319011261028f576001600160401b03833581811161028b5761009d9036908601610853565b602435828111610287576100b49036908701610955565b6100bc61078e565b91608435858111610283576100d49036908a0161080f565b98909560a43590811161027f576100ed9136910161080f565b9690958151906100fc82610701565b606b82527f5065726d697442617463685769746e6573735472616e7366657246726f6d285460208301527f6f6b656e5065726d697373696f6e735b5d207065726d69747465642c61646472838301527f657373207370656e6465722c75696e74323536206e6f6e63652c75696e74323560608301526a0d88191958591b1a5b994b60aa1b608083015282519a8b9181610199602085018096610df0565b918237018a815203996101b4601f199b8c8101835282610752565b519020908551516101c481610d6c565b908a5b81811061025257505061024f999a6102469183516101f9816101ed602082018095610dc3565b03848101835282610752565b519020602089810151858b015195519182019687526040820192909252336060820152608081019190915260a081019390935260643560c08401528260e081015b03908101835282610752565b51902093610bb5565b80f35b8061026a61026461027a938c51610b7b565b51610e1b565b6102748286610b7b565b52610d9e565b6101c7565b8880fd5b8780fd5b8480fd5b8380fd5b5080fd5b50913461028f57608036600319011261028f576001600160401b0390803582811161028b576102c59036908301610853565b602435838111610287576102dc9036908401610955565b9390926102e761078e565b916064359081116103bb576102fe9136910161080f565b9490938351519761030e89610d6c565b98885b81811061039957505061024f9798815161034181610333602082018095610dc3565b03601f198101835282610752565b5190206020860151828701519083519260208401947ffcf35f5ac6a2c28868dc44c302166470266239195f02b0ee408334829333b7668652840152336060840152608083015260a082015260a0815261024681610737565b808b610274826103b06102646103b6968d51610b7b565b92610b7b565b610311565b8680fd5b508234610401578160031936011261040157356001600160a01b0381169081900361040157828291602094528084528181206024358252845220549051908152f35b8280fd5b5082346104015781600319360112610401577f3704902f963766a4e561bbaab6e6cdc1b1dd12f6e9e99648da8843b3f46b918d90359160243533855284602052818520848652602052818520818154179055815193845260208401523392a280f35b503461028f578160031936011261028f57602090610483610985565b9051908152f35b5082903461040157610100366003190112610401576104a8366107a4565b908060831936011261028b576104bc610773565b9160e4356001600160401b0381116105495761024f946104de9136910161080f565b9390926104eb8351610e1b565b6020840151828501519083519260208401947f939c21a48a8dbe3a9a2404a1d46691e4d39f6583d6ec6b35714604c986d801068652840152336060840152608083015260a082015260a0815261054081610737565b51902091610a40565b8580fd5b508234610401576101403660031901126104015761056a366107a4565b918060831936011261028b5761057e610773565b6001600160401b039390610104358581116103bb576105a0903690860161080f565b909361012435968711610283576105c06105409661024f9836910161080f565b9690958251906105cf82610701565b606482527f5065726d69745769746e6573735472616e7366657246726f6d28546f6b656e5060208301527f65726d697373696f6e73207065726d69747465642c6164647265737320737065848301527f6e6465722c75696e74323536206e6f6e63652c75696e7432353620646561646c6060830152631a5b994b60e21b6080830152835194859181610665602085018096610df0565b918237018b81520393610680601f1995868101835282610752565b5190209261068e8651610e1b565b6020878101518589015195519182019687526040820192909252336060820152608081019190915260a081019390935260e43560c08401528260e0810161023a565b606081019081106001600160401b038211176106eb57604052565b634e487b7160e01b600052604160045260246000fd5b60a081019081106001600160401b038211176106eb57604052565b608081019081106001600160401b038211176106eb57604052565b60c081019081106001600160401b038211176106eb57604052565b90601f801991011681019081106001600160401b038211176106eb57604052565b60c435906001600160a01b038216820361078957565b600080fd5b604435906001600160a01b038216820361078957565b6003190190608082126107895760408051906107bf826106d0565b808294126107895780518181018181106001600160401b038211176106eb5782526004356001600160a01b0381168103610789578152602435602082015282526044356020830152606435910152565b9181601f84011215610789578235916001600160401b038311610789576020838186019501011161078957565b6001600160401b0381116106eb5760051b60200190565b91909160608184031261078957604080519161086e836106d0565b829481356001600160401b039081811161078957830182601f8201121561078957803561089a8161083c565b926108a787519485610752565b818452602094858086019360061b85010193818511610789579086899897969594939201925b8484106108ea575050505050855280820135908501520135910152565b9091929394959697848303126107895788519089820182811085821117610940578a528435906001600160a01b0382168203610789578289928c94528287013583820152815201930191908897969594936108cd565b60246000634e487b7160e01b81526041600452fd5b9181601f84011215610789578235916001600160401b038311610789576020808501948460061b01011161078957565b467f0000000000000000000000000000000000000000000000000000000000000000036109d0577f000000000000000000000000000000000000000000000000000000000000000090565b60405160208101907f8cad95687ba82c2ce50e74f7b754645e5117c3a5bec8151c0726d5857980a86682527f9ac997416e8ff9d2ff6bebeb7149f65cdae5e32e2b90440b566bb3044041d36a604082015246606082015230608082015260808152610a3a81610701565b51902090565b93909260a435916040860151804211610b3257506020938487510151808511610b1a5750918591610a80610a8694610a7b888b015186610d1e565b610b4a565b91610e80565b9251516001600160a01b039081169390608435808216919082900361078957604051946323b872dd60e01b8652166004850152602484015260448301528082606481600080975af18015610b0f57610add57505050565b81813d8311610b08575b610af18183610752565b8101031261028f575180151503610b055750565b80fd5b503d610ae7565b6040513d85823e3d90fd5b60249060405190633728b83d60e01b82526004820152fd5b6024906040519063cd21db4f60e01b82526004820152fd5b610b52610985565b9060405190602082019261190160f01b84526022830152604282015260428152610a3a8161071c565b8051821015610b8f5760209160051b010190565b634e487b7160e01b600052603260045260246000fd5b9190811015610b8f5760061b0190565b93909192938051519560409788830151804211610d075750858803610cf357610bed918791610a80602096610a7b8888015186610d1e565b60005b868110610c01575050505050505050565b610c0c818351610b7b565b5183610c19838888610ba5565b01359084810151808311610cdc575081610c38575b5050600101610bf0565b516001600160a01b0390811691610c50848989610ba5565b358281168091036107895786600080958c958f51906323b872dd60e01b82526004971687820152602494858201526044958682015260649788925af13d15601f3d1160016000511416171615610ca7575050610c2e565b8b5162461bcd60e51b8152928301879052601490830152731514905394d1915497d19493d357d1905253115160621b90820152fd5b6024908b5190633728b83d60e01b82526004820152fd5b88516001621398b960e31b03198152600490fd5b6024908a519063cd21db4f60e01b82526004820152fd5b90600160ff82161b9160018060a01b0316600052600060205260406000209060081c6000526020526040600020818154188091551615610d5a57565b604051633ab3447f60e11b8152600490fd5b90610d768261083c565b610d836040519182610752565b8281528092610d94601f199161083c565b0190602036910137565b6000198114610dad5760010190565b634e487b7160e01b600052601160045260246000fd5b805160208092019160005b828110610ddc575050505090565b835185529381019392810192600101610dce565b9081519160005b838110610e08575050016000815290565b8060208092840101518185015201610df7565b6040516020808201927f618358ac3db8dc274f0cd8829da7e234bd48cd73c4a740aede1adec9846d06a1845260018060a01b0381511660408401520151606082015260608152610a3a8161071c565b9190826040910312610789576020823592013590565b6000843b610f79575060418203610f2957610e9d82820182610e6a565b93909260401015610b8f5760209360009360ff6040608095013560f81c5b60405194855216868401526040830152606082015282805260015afa15610f1d576000516001600160a01b03908116918215610f0b571603610ef957565b604051632057875960e21b8152600490fd5b604051638baa579f60e01b8152600490fd5b6040513d6000823e3d90fd5b60408203610f6757610f3d91810190610e6a565b6001600160ff1b0381169260ff91821c601b01918211610dad5760209360009360ff608094610ebb565b604051634be6321b60e01b8152600490fd5b918093946020926064604051809781958294630b135d3f60e11b9b8c8552600485015260406024850152816044850152848401378181018301889052601f01601f191681010301916001600160a01b03165afa918215611045578192610fff575b50506001600160e01b03191603610fed57565b604051632c19a72f60e21b8152600490fd5b9091506020813d821161103d575b8161101a60209383610752565b8101031261028f5751906001600160e01b031982168203610b0557503880610fda565b3d915061100d565b50604051903d90823e3d90fdfea264697066735822122032353821fe90ef76652c3280efdad284dfdfb9395be2e165b7b32e8fc5293f5264736f6c63430008140033",
  "linkReferences": {},
  "deployedLinkReferences": {}
}