{
  "_format": "hh-sol-artifact-1",
  "contractName": "MultiSig",
  "sourceName": "contracts/MultiSig.sol",
  "abi": [
    {
      "inputs": [
        {
          "internalType": "address[]",
          "name": "_owners",
          "type": "address[]"
        },
        {
          "internalType": "uint256",
          "name": "_requiredSignatures",
          "type": "uint256"
        },
        {
          "internalType": "uint256",
          "name": "_threshold",
          "type": "uint256"
        }
      ],
      "stateMutability": "nonpayable",
      "type": "constructor"
    },
    {
      "inputs": [],
      "name": "AlreadyAnOwner",
      "type": "error"
    },
    {
      "inputs": [
        {
          "internalType": "uint256",
          "name": "required",
          "type": "uint256"
        }
      ],
      "name": "InsufficientOwners",
      "type": "error"
    },
    {
      "inputs": [],
      "name": "NotAnOwner",
      "type": "error"
    },
    {
      "inputs": [],
      "name": "NotCustodian",
      "type": "error"
    },
    {
      "inputs": [],
      "name": "NotOwner",
      "type": "error"
    },
    {
      "inputs": [],
      "name": "ThresholdMustBeGreaterThanZero",
      "type": "error"
    },
    {
      "anonymous": false,
      "inputs": [
        {
          "indexed": true,
          "internalType": "address",
          "name": "newOwner",
          "type": "address"
        }
      ],
      "name": "OwnerAdded",
      "type": "event"
    },
    {
      "anonymous": false,
      "inputs": [
        {
          "indexed": true,
          "internalType": "address",
          "name": "removedOwner",
          "type": "address"
        }
      ],
      "name": "OwnerRemoved",
      "type": "event"
    },
    {
      "anonymous": false,
      "inputs": [
        {
          "indexed": false,
          "internalType": "uint256",
          "name": "newRequiredSignatures",
          "type": "uint256"
        }
      ],
      "name": "RequiredSignaturesChanged",
      "type": "event"
    },
    {
      "anonymous": false,
      "inputs": [
        {
          "indexed": false,
          "internalType": "uint256",
          "name": "newThreshold",
          "type": "uint256"
        }
      ],
      "name": "ThresholdChanged",
      "type": "event"
    },
    {
      "inputs": [
        {
          "internalType": "address",
          "name": "_owner",
          "type": "address"
        }
      ],
      "name": "addOwner",
      "outputs": [],
      "stateMutability": "nonpayable",
      "type": "function"
    },
    {
      "inputs": [
        {
          "internalType": "uint256",
          "name": "_newRequiredSignatures",
          "type": "uint256"
        }
      ],
      "name": "changeRequiredSignatures",
      "outputs": [],
      "stateMutability": "nonpayable",
      "type": "function"
    },
    {
      "inputs": [],
      "name": "custodian",
      "outputs": [
        {
          "internalType": "address",
          "name": "",
          "type": "address"
        }
      ],
      "stateMutability": "view",
      "type": "function"
    },
    {
      "inputs": [],
      "name": "getOwners",
      "outputs": [
        {
          "internalType": "address[]",
          "name": "",
          "type": "address[]"
        }
      ],
      "stateMutability": "view",
      "type": "function"
    },
    {
      "inputs": [
        {
          "internalType": "address",
          "name": "",
          "type": "address"
        }
      ],
      "name": "isOwnerMapping",
      "outputs": [
        {
          "internalType": "bool",
          "name": "",
          "type": "bool"
        }
      ],
      "stateMutability": "view",
      "type": "function"
    },
    {
      "inputs": [
        {
          "internalType": "uint256",
          "name": "",
          "type": "uint256"
        }
      ],
      "name": "owners",
      "outputs": [
        {
          "internalType": "address",
          "name": "",
          "type": "address"
        }
      ],
      "stateMutability": "view",
      "type": "function"
    },
    {
      "inputs": [
        {
          "internalType": "address",
          "name": "_owner",
          "type": "address"
        }
      ],
      "name": "removeOwner",
      "outputs": [],
      "stateMutability": "nonpayable",
      "type": "function"
    },
    {
      "inputs": [],
      "name": "renounceCustodian",
      "outputs": [],
      "stateMutability": "nonpayable",
      "type": "function"
    },
    {
      "inputs": [
        {
          "internalType": "address",
          "name": "_newCustodian",
          "type": "address"
        }
      ],
      "name": "replaceCustodian",
      "outputs": [],
      "stateMutability": "nonpayable",
      "type": "function"
    },
    {
      "inputs": [],
      "name": "requiredSignatures",
      "outputs": [
        {
          "internalType": "uint256",
          "name": "",
          "type": "uint256"
        }
      ],
      "stateMutability": "view",
      "type": "function"
    },
    {
      "inputs": [],
      "name": "threshold",
      "outputs": [
        {
          "internalType": "uint256",
          "name": "",
          "type": "uint256"
        }
      ],
      "stateMutability": "view",
      "type": "function"
    }
  ],
  "bytecode": "0x6040608081523461021557610916908138038061001b8161021a565b93843982016060838203126102155782516001600160401b039081811161021557840182601f82011215610215578051908282116101b757600582811b946020928361006881890161021a565b809681520190848298820101928311610215578401905b8282106101f657505050858288015197015192878151106101de5783156101cd5780519485116101b7576801000000000000000085116101b757600195865486885580871061018d575b5096959694600095888752848720875b83811061017357505050600398909855600493845584546001600160a01b031916331785559396509394938693855b61011b575b86516106d690816102408239f35b805188101561016e5787821b81018301516001600160a01b0316855260028352868520805460ff191687179055600019881461015b579685019685610108565b634e487b7160e01b855260118452602485fd5b61010d565b82516001600160a01b031682820155918601918a016100d9565b6000888152888887832093840193015b8381106101ac575050506100c9565b82815501899061019d565b634e487b7160e01b600052604160045260246000fd5b8651630372105960e61b8152600490fd5b8651630362bf2d60e51b815260048101899052602490fd5b81516001600160a01b038116810361021557815290840190840161007f565b600080fd5b6040519190601f01601f191682016001600160401b038111838210176101b75760405256fe60406080815260048036101561001457600080fd5b600091823560e01c8063025e7c2714610598578063086bb25914610559578063173825d914610401578063375b74c3146103d957806339f636ab1461035457806342cde4e8146103365780635d4bc638146103005780637065cb48146102045780638d068043146101e1578063a0e67e2b146100f45763f2f4655e1461009957600080fd5b346100f05760203660031901126100f0576001600160a01b038235818116939192908490036100ec57845492831633036100df5750506001600160a01b03191617815580f35b5163918cb1dd60e01b8152fd5b8480fd5b8280fd5b50346100f057826003193601126100f05780518060019485549384835260208080940180968985527fb10e2d527612073b26eecdfd717e6a320cf44b4afac2b0732d9fcbe2b7fa0cf6908a865b8281106101c35750505050859003601f01601f1916850196905067ffffffffffffffff8711858810176101b0575092869284878096528186019282875251809352850195925b8281106101945785870386f35b83516001600160a01b0316875295810195928101928401610187565b634e487b7160e01b835260419052602482fd5b83546001600160a01b03168552889590940193928101928101610141565b8382346102005781600319360112610200576020906003549051908152f35b5080fd5b50346100f05760203660031901126100f05781356001600160a01b0381811693908483036102fc5785541633036102ee57838552600260205260ff83862054166102e05760015490680100000000000000008210156102cd57509061027282600161029194016001556105dc565b90919082549060031b9160018060a01b03809116831b921b1916179055565b81835260026020528220805460ff191660011790557f994a936646fe87ffe4f1e469d3d6aa417d6b855598397f323de5b449f765f0c38280a280f35b634e487b7160e01b865260419052602485fd5b82516325cfe06f60e11b8152fd5b825163918cb1dd60e01b8152fd5b8580fd5b5090346100f057826003193601126100f0578254916001600160a01b03831633036100df5750506001600160a01b031916815580f35b5090346100f057826003193601126100f05760209250549051908152f35b50346100f05760203660031901126100f0578254823592906001600160a01b031633036103cb5760015483116103b65750816020917f10dbc913050d3180c3b99f7da91fd514af7cbc9c1bb59a0da5d2bc38f0cf395a9360035551908152a180f35b826024925191630362bf2d60e51b8352820152fd5b905163918cb1dd60e01b8152fd5b838234610200578160031936011261020057905490516001600160a01b039091168152602090f35b50346100f05760203660031901126100f0576001600160a01b03823581811693908481036102fc5782865416330361054a57848652600260205260ff84872054161561053b5761045090610629565b6001546000199291838201918211610528579081818693036104e2575b5050506001549081156104cf57500190610486826105dc565b909182549160031b1b191690556001558183526002602052822060ff1981541690557f58619076adf5bb0943d100ef88d52d7c3fd691b19d3a9071b555b651fbf418da8280a280f35b634e487b7160e01b875260319052602486fd5b610520926104f26104fb936105dc565b939054926105dc565b92909360031b1c169082549060031b9160018060a01b03809116831b921b1916179055565b82388061046d565b634e487b7160e01b885260118352602488fd5b508251631dd523ff60e31b8152fd5b50825163918cb1dd60e01b8152fd5b5090346100f05760203660031901126100f057356001600160a01b038116908190036100f057818360ff92602095526002855220541690519015158152f35b5090346100f05760203660031901126100f05735916001548310156105d957506105c36020926105dc565b905491519160018060a01b039160031b1c168152f35b80fd5b6001548110156106135760016000527fb10e2d527612073b26eecdfd717e6a320cf44b4afac2b0732d9fcbe2b7fa0cf60190600090565b634e487b7160e01b600052603260045260246000fd5b90600080916001938454935b84811061064e57604051631dd523ff60e31b8152600490fd5b610657816105dc565b905460039190911b1c6001600160a01b0390811690831614610697576000198114610683578501610635565b634e487b7160e01b84526011600452602484fd5b9350509250509056fea26469706673582212204824d29a07429bece9a538159b4cb5d959aa03ac632ecf4cc73cebad6cfb78cc64736f6c63430008140033",
  "linkReferences": {},
  "deployedLinkReferences": {}
}