{
  "_format": "hh-sol-artifact-1",
  "contractName": "MultiSig",
  "sourceName": "contracts/MultiSig.sol",
  "abi": [
    {
      "inputs": [
        {
          "internalType": "address[]",
          "name": "_owners",
          "type": "address[]"
        },
        {
          "internalType": "uint256",
          "name": "_requiredSignatures",
          "type": "uint256"
        },
        {
          "internalType": "uint256",
          "name": "_threshold",
          "type": "uint256"
        }
      ],
      "stateMutability": "nonpayable",
      "type": "constructor"
    },
    {
      "inputs": [],
      "name": "AlreadyAnOwner",
      "type": "error"
    },
    {
      "inputs": [
        {
          "internalType": "uint256",
          "name": "required",
          "type": "uint256"
        }
      ],
      "name": "InsufficientOwners",
      "type": "error"
    },
    {
      "inputs": [],
      "name": "NotAnOwner",
      "type": "error"
    },
    {
      "inputs": [],
      "name": "NotCustodian",
      "type": "error"
    },
    {
      "inputs": [],
      "name": "NotOwner",
      "type": "error"
    },
    {
      "inputs": [],
      "name": "ThresholdMustBeGreaterThanZero",
      "type": "error"
    },
    {
      "anonymous": false,
      "inputs": [
        {
          "indexed": true,
          "internalType": "address",
          "name": "newOwner",
          "type": "address"
        }
      ],
      "name": "OwnerAdded",
      "type": "event"
    },
    {
      "anonymous": false,
      "inputs": [
        {
          "indexed": true,
          "internalType": "address",
          "name": "removedOwner",
          "type": "address"
        }
      ],
      "name": "OwnerRemoved",
      "type": "event"
    },
    {
      "anonymous": false,
      "inputs": [
        {
          "indexed": false,
          "internalType": "uint256",
          "name": "newRequiredSignatures",
          "type": "uint256"
        }
      ],
      "name": "RequiredSignaturesChanged",
      "type": "event"
    },
    {
      "anonymous": false,
      "inputs": [
        {
          "indexed": false,
          "internalType": "uint256",
          "name": "newThreshold",
          "type": "uint256"
        }
      ],
      "name": "ThresholdChanged",
      "type": "event"
    },
    {
      "inputs": [
        {
          "internalType": "address",
          "name": "_owner",
          "type": "address"
        }
      ],
      "name": "addOwner",
      "outputs": [],
      "stateMutability": "nonpayable",
      "type": "function"
    },
    {
      "inputs": [
        {
          "internalType": "uint256",
          "name": "_newRequiredSignatures",
          "type": "uint256"
        }
      ],
      "name": "changeRequiredSignatures",
      "outputs": [],
      "stateMutability": "nonpayable",
      "type": "function"
    },
    {
      "inputs": [],
      "name": "custodian",
      "outputs": [
        {
          "internalType": "address",
          "name": "",
          "type": "address"
        }
      ],
      "stateMutability": "view",
      "type": "function"
    },
    {
      "inputs": [
        {
          "internalType": "address",
          "name": "",
          "type": "address"
        }
      ],
      "name": "isOwnerMapping",
      "outputs": [
        {
          "internalType": "bool",
          "name": "",
          "type": "bool"
        }
      ],
      "stateMutability": "view",
      "type": "function"
    },
    {
      "inputs": [
        {
          "internalType": "address",
          "name": "",
          "type": "address"
        }
      ],
      "name": "ownerIndex",
      "outputs": [
        {
          "internalType": "uint256",
          "name": "",
          "type": "uint256"
        }
      ],
      "stateMutability": "view",
      "type": "function"
    },
    {
      "inputs": [
        {
          "internalType": "uint256",
          "name": "",
          "type": "uint256"
        }
      ],
      "name": "owners",
      "outputs": [
        {
          "internalType": "address",
          "name": "",
          "type": "address"
        }
      ],
      "stateMutability": "view",
      "type": "function"
    },
    {
      "inputs": [
        {
          "internalType": "address",
          "name": "_owner",
          "type": "address"
        }
      ],
      "name": "removeOwner",
      "outputs": [],
      "stateMutability": "nonpayable",
      "type": "function"
    },
    {
      "inputs": [],
      "name": "renounceCustodian",
      "outputs": [],
      "stateMutability": "nonpayable",
      "type": "function"
    },
    {
      "inputs": [
        {
          "internalType": "address",
          "name": "_newCustodian",
          "type": "address"
        }
      ],
      "name": "replaceCustodian",
      "outputs": [],
      "stateMutability": "nonpayable",
      "type": "function"
    },
    {
      "inputs": [],
      "name": "requiredSignatures",
      "outputs": [
        {
          "internalType": "uint256",
          "name": "",
          "type": "uint256"
        }
      ],
      "stateMutability": "view",
      "type": "function"
    },
    {
      "inputs": [],
      "name": "threshold",
      "outputs": [
        {
          "internalType": "uint256",
          "name": "",
          "type": "uint256"
        }
      ],
      "stateMutability": "view",
      "type": "function"
    }
  ],
  "bytecode": "0x604060808152346101f8576107f5908138038061001b816101fd565b93843982016060838203126101f85782516001600160401b0391908281116101f85784019181601f840112156101f857825181811161019a5760059080821b936020958661006a8188016101fd565b8094815201908782978201019283116101f8578701905b8282106101d9575050508585880151970151878251106101c15780156101b057815193841161019a5768010000000000000000841161019a576001948554858755808610610170575b5097600094868652878620865b82811061015657505050859697985060045582553360018060a01b031984541617835582935b610110575b86516105d290816102238239f35b80518410156101515783821b81018601516001600160a01b0316835260028652868320805460ff1916861790556003865286832084905592840192846100fd565b610102565b8b516001600160a01b0316828201559a89019a88016100d7565b600087815287878a832093840193015b83811061018f575050506100ca565b828155018890610180565b634e487b7160e01b600052604160045260246000fd5b8651630372105960e61b8152600490fd5b8651630362bf2d60e51b815260048101899052602490fd5b81516001600160a01b03811681036101f8578152908701908701610081565b600080fd5b6040519190601f01601f191682016001600160401b0381118382101761019a5760405256fe60406080815260048036101561001457600080fd5b600091823560e01c8063025e7c271461050b578063086bb259146104cc578063173825d91461037b578063375b74c31461035357806339f636ab146102d057806342cde4e8146102ad5780635d4bc638146102775780637065cb481461014c5780638d0680431461012e5780639f8a64e2146100f45763f2f4655e1461009957600080fd5b346100f05760203660031901126100f0576001600160a01b038235818116939192908490036100ec57845492831633036100df5750506001600160a01b03191617815580f35b5163918cb1dd60e01b8152fd5b8480fd5b8280fd5b5090346100f05760203660031901126100f057356001600160a01b038116908190036100f057828291602094526003845220549051908152f35b5090346100f057826003193601126100f05760209250549051908152f35b5090346100f05760203660031901126100f0576001600160a01b038135818116939184820361027357855416330361026557838552600260205260ff8286205416610257576001546801000000000000000081101561024457906101b98260016101d8940160015561054f565b90919082549060031b9160018060a01b03809116831b921b1916179055565b8284526002602052808420600160ff19825416179055600154916000198301928311610231575082845260036020528320557f994a936646fe87ffe4f1e469d3d6aa417d6b855598397f323de5b449f765f0c38280a280f35b634e487b7160e01b855260119052602484fd5b634e487b7160e01b865260418452602486fd5b50516325cfe06f60e11b8152fd5b505163918cb1dd60e01b8152fd5b8580fd5b5090346100f057826003193601126100f0578254916001600160a01b03831633036100df5750506001600160a01b031916815580f35b8382346102cc57816003193601126102cc576020906005549051908152f35b5080fd5b50346100f05760203660031901126100f0578254823592906001600160a01b031633036103455760015483116103305791602091817f10dbc913050d3180c3b99f7da91fd514af7cbc9c1bb59a0da5d2bc38f0cf395a945551908152a180f35b826024925191630362bf2d60e51b8352820152fd5b905163918cb1dd60e01b8152fd5b8382346102cc57816003193601126102cc57905490516001600160a01b039091168152602090f35b50346100f0576020806003193601126104c8576001600160a01b0383358181169490859003610273578186541633036104ba578486526002835260ff8487205416156104ac578486526003835283862054600154600019929190838101908111610499578085918303610469575b50505060015490811561045657509186949391600393019061040a8261054f565b9091825491861b1b191690556001558484526002815282842060ff198154169055528120557f58619076adf5bb0943d100ef88d52d7c3fd691b19d3a9071b555b651fbf418da8280a280f35b634e487b7160e01b885260319052602487fd5b6104729061054f565b90549060031b1c16610487816101b98461054f565b885260038552858820553883816103e9565b634e487b7160e01b895260118352602489fd5b8351631dd523ff60e31b8152fd5b835163918cb1dd60e01b8152fd5b8380fd5b5090346100f05760203660031901126100f057356001600160a01b038116908190036100f057818360ff92602095526002855220541690519015158152f35b5090346100f05760203660031901126100f057359160015483101561054c575061053660209261054f565b905491519160018060a01b039160031b1c168152f35b80fd5b6001548110156105865760016000527fb10e2d527612073b26eecdfd717e6a320cf44b4afac2b0732d9fcbe2b7fa0cf60190600090565b634e487b7160e01b600052603260045260246000fdfea26469706673582212201069e6858bc36d14e9c559b19ec4968a30d9c15b308f31283892f6fcc8a3b54564736f6c63430008140033",
  "linkReferences": {},
  "deployedLinkReferences": {}
}